{
  "contractName": "ERC1155Base",
  "abi": [
    {
      "inputs": [
        {
          "internalType": "string",
          "name": "contractURI",
          "type": "string"
        },
        {
          "internalType": "string",
          "name": "tokenURIPrefix",
          "type": "string"
        }
      ],
      "stateMutability": "nonpayable",
      "type": "constructor"
    },
    {
      "anonymous": false,
      "inputs": [
        {
          "indexed": true,
          "internalType": "address",
          "name": "_owner",
          "type": "address"
        },
        {
          "indexed": true,
          "internalType": "address",
          "name": "_operator",
          "type": "address"
        },
        {
          "indexed": false,
          "internalType": "bool",
          "name": "_approved",
          "type": "bool"
        }
      ],
      "name": "ApprovalForAll",
      "type": "event"
    },
    {
      "anonymous": false,
      "inputs": [
        {
          "indexed": true,
          "internalType": "address",
          "name": "previousOwner",
          "type": "address"
        },
        {
          "indexed": true,
          "internalType": "address",
          "name": "newOwner",
          "type": "address"
        }
      ],
      "name": "OwnershipTransferred",
      "type": "event"
    },
    {
      "anonymous": false,
      "inputs": [
        {
          "indexed": false,
          "internalType": "uint256",
          "name": "tokenId",
          "type": "uint256"
        },
        {
          "indexed": false,
          "internalType": "address[]",
          "name": "recipients",
          "type": "address[]"
        },
        {
          "indexed": false,
          "internalType": "uint256[]",
          "name": "bps",
          "type": "uint256[]"
        }
      ],
      "name": "SecondarySaleFees",
      "type": "event"
    },
    {
      "anonymous": false,
      "inputs": [
        {
          "indexed": true,
          "internalType": "address",
          "name": "_operator",
          "type": "address"
        },
        {
          "indexed": true,
          "internalType": "address",
          "name": "_from",
          "type": "address"
        },
        {
          "indexed": true,
          "internalType": "address",
          "name": "_to",
          "type": "address"
        },
        {
          "indexed": false,
          "internalType": "uint256[]",
          "name": "_ids",
          "type": "uint256[]"
        },
        {
          "indexed": false,
          "internalType": "uint256[]",
          "name": "_values",
          "type": "uint256[]"
        }
      ],
      "name": "TransferBatch",
      "type": "event"
    },
    {
      "anonymous": false,
      "inputs": [
        {
          "indexed": true,
          "internalType": "address",
          "name": "_operator",
          "type": "address"
        },
        {
          "indexed": true,
          "internalType": "address",
          "name": "_from",
          "type": "address"
        },
        {
          "indexed": true,
          "internalType": "address",
          "name": "_to",
          "type": "address"
        },
        {
          "indexed": false,
          "internalType": "uint256",
          "name": "_id",
          "type": "uint256"
        },
        {
          "indexed": false,
          "internalType": "uint256",
          "name": "_value",
          "type": "uint256"
        }
      ],
      "name": "TransferSingle",
      "type": "event"
    },
    {
      "anonymous": false,
      "inputs": [
        {
          "indexed": false,
          "internalType": "string",
          "name": "_value",
          "type": "string"
        },
        {
          "indexed": true,
          "internalType": "uint256",
          "name": "_id",
          "type": "uint256"
        }
      ],
      "name": "URI",
      "type": "event"
    },
    {
      "inputs": [
        {
          "internalType": "address",
          "name": "_owner",
          "type": "address"
        },
        {
          "internalType": "uint256",
          "name": "_id",
          "type": "uint256"
        }
      ],
      "name": "balanceOf",
      "outputs": [
        {
          "internalType": "uint256",
          "name": "",
          "type": "uint256"
        }
      ],
      "stateMutability": "view",
      "type": "function"
    },
    {
      "inputs": [
        {
          "internalType": "address[]",
          "name": "_owners",
          "type": "address[]"
        },
        {
          "internalType": "uint256[]",
          "name": "_ids",
          "type": "uint256[]"
        }
      ],
      "name": "balanceOfBatch",
      "outputs": [
        {
          "internalType": "uint256[]",
          "name": "",
          "type": "uint256[]"
        }
      ],
      "stateMutability": "view",
      "type": "function"
    },
    {
      "inputs": [],
      "name": "contractURI",
      "outputs": [
        {
          "internalType": "string",
          "name": "",
          "type": "string"
        }
      ],
      "stateMutability": "view",
      "type": "function"
    },
    {
      "inputs": [
        {
          "internalType": "uint256",
          "name": "",
          "type": "uint256"
        }
      ],
      "name": "creators",
      "outputs": [
        {
          "internalType": "address",
          "name": "",
          "type": "address"
        }
      ],
      "stateMutability": "view",
      "type": "function"
    },
    {
      "inputs": [
        {
          "internalType": "uint256",
          "name": "",
          "type": "uint256"
        },
        {
          "internalType": "uint256",
          "name": "",
          "type": "uint256"
        }
      ],
      "name": "fees",
      "outputs": [
        {
          "internalType": "address payable",
          "name": "recipient",
          "type": "address"
        },
        {
          "internalType": "uint256",
          "name": "value",
          "type": "uint256"
        }
      ],
      "stateMutability": "view",
      "type": "function"
    },
    {
      "inputs": [
        {
          "internalType": "address",
          "name": "_owner",
          "type": "address"
        },
        {
          "internalType": "address",
          "name": "_operator",
          "type": "address"
        }
      ],
      "name": "isApprovedForAll",
      "outputs": [
        {
          "internalType": "bool",
          "name": "",
          "type": "bool"
        }
      ],
      "stateMutability": "view",
      "type": "function"
    },
    {
      "inputs": [],
      "name": "owner",
      "outputs": [
        {
          "internalType": "address",
          "name": "",
          "type": "address"
        }
      ],
      "stateMutability": "view",
      "type": "function"
    },
    {
      "inputs": [],
      "name": "renounceOwnership",
      "outputs": [],
      "stateMutability": "nonpayable",
      "type": "function"
    },
    {
      "inputs": [
        {
          "internalType": "address",
          "name": "_from",
          "type": "address"
        },
        {
          "internalType": "address",
          "name": "_to",
          "type": "address"
        },
        {
          "internalType": "uint256[]",
          "name": "_ids",
          "type": "uint256[]"
        },
        {
          "internalType": "uint256[]",
          "name": "_values",
          "type": "uint256[]"
        },
        {
          "internalType": "bytes",
          "name": "_data",
          "type": "bytes"
        }
      ],
      "name": "safeBatchTransferFrom",
      "outputs": [],
      "stateMutability": "nonpayable",
      "type": "function"
    },
    {
      "inputs": [
        {
          "internalType": "address",
          "name": "_from",
          "type": "address"
        },
        {
          "internalType": "address",
          "name": "_to",
          "type": "address"
        },
        {
          "internalType": "uint256",
          "name": "_id",
          "type": "uint256"
        },
        {
          "internalType": "uint256",
          "name": "_value",
          "type": "uint256"
        },
        {
          "internalType": "bytes",
          "name": "_data",
          "type": "bytes"
        }
      ],
      "name": "safeTransferFrom",
      "outputs": [],
      "stateMutability": "nonpayable",
      "type": "function"
    },
    {
      "inputs": [
        {
          "internalType": "address",
          "name": "_operator",
          "type": "address"
        },
        {
          "internalType": "bool",
          "name": "_approved",
          "type": "bool"
        }
      ],
      "name": "setApprovalForAll",
      "outputs": [],
      "stateMutability": "nonpayable",
      "type": "function"
    },
    {
      "inputs": [
        {
          "internalType": "bytes4",
          "name": "interfaceId",
          "type": "bytes4"
        }
      ],
      "name": "supportsInterface",
      "outputs": [
        {
          "internalType": "bool",
          "name": "",
          "type": "bool"
        }
      ],
      "stateMutability": "view",
      "type": "function"
    },
    {
      "inputs": [],
      "name": "tokenURIPrefix",
      "outputs": [
        {
          "internalType": "string",
          "name": "",
          "type": "string"
        }
      ],
      "stateMutability": "view",
      "type": "function"
    },
    {
      "inputs": [
        {
          "internalType": "address",
          "name": "newOwner",
          "type": "address"
        }
      ],
      "name": "transferOwnership",
      "outputs": [],
      "stateMutability": "nonpayable",
      "type": "function"
    },
    {
      "inputs": [
        {
          "internalType": "uint256",
          "name": "_id",
          "type": "uint256"
        }
      ],
      "name": "uri",
      "outputs": [
        {
          "internalType": "string",
          "name": "",
          "type": "string"
        }
      ],
      "stateMutability": "view",
      "type": "function"
    },
    {
      "inputs": [
        {
          "internalType": "uint256",
          "name": "id",
          "type": "uint256"
        }
      ],
      "name": "getFeeRecipients",
      "outputs": [
        {
          "internalType": "address payable[]",
          "name": "",
          "type": "address[]"
        }
      ],
      "stateMutability": "view",
      "type": "function"
    },
    {
      "inputs": [
        {
          "internalType": "uint256",
          "name": "id",
          "type": "uint256"
        }
      ],
      "name": "getFeeBps",
      "outputs": [
        {
          "internalType": "uint256[]",
          "name": "",
          "type": "uint256[]"
        }
      ],
      "stateMutability": "view",
      "type": "function"
    },
    {
      "inputs": [
        {
          "internalType": "address",
          "name": "_owner",
          "type": "address"
        },
        {
          "internalType": "uint256",
          "name": "_id",
          "type": "uint256"
        },
        {
          "internalType": "uint256",
          "name": "_value",
          "type": "uint256"
        }
      ],
      "name": "burn",
      "outputs": [],
      "stateMutability": "nonpayable",
      "type": "function"
    },
    {
      "inputs": [
        {
          "internalType": "string",
          "name": "tokenURIPrefix",
          "type": "string"
        }
      ],
      "name": "setTokenURIPrefix",
      "outputs": [],
      "stateMutability": "nonpayable",
      "type": "function"
    },
    {
      "inputs": [
        {
          "internalType": "string",
          "name": "contractURI",
          "type": "string"
        }
      ],
      "name": "setContractURI",
      "outputs": [],
      "stateMutability": "nonpayable",
      "type": "function"
    }
  ],
  "bytecode": "0x60806040523480156200001157600080fd5b5060405162003d2438038062003d248339818101604052810190620000379190620004b5565b818180620000526301ffc9a760e01b6200018860201b60201c565b6200006a63b779958460e01b6200018860201b60201c565b60006200007c6200026060201b60201c565b905080600160006101000a81548173ffffffffffffffffffffffffffffffffffffffff021916908373ffffffffffffffffffffffffffffffffffffffff1602179055508073ffffffffffffffffffffffffffffffffffffffff16600073ffffffffffffffffffffffffffffffffffffffff167f8be0079c531659141344cd1fd0a4f28419497f9722a3daafe3b4186f6b6457e060405160405180910390a35080600290805190602001906200013392919062000268565b50505080600490805190602001906200014e92919062000268565b506200016763e8a3d48560e01b6200018860201b60201c565b506200018063d9b67a2660e01b6200018860201b60201c565b505062000622565b63ffffffff60e01b817bffffffffffffffffffffffffffffffffffffffffffffffffffffffff19161415620001f4576040517f08c379a0000000000000000000000000000000000000000000000000000000008152600401620001eb906200059b565b60405180910390fd5b6001600080837bffffffffffffffffffffffffffffffffffffffffffffffffffffffff19167bffffffffffffffffffffffffffffffffffffffffffffffffffffffff1916815260200190815260200160002060006101000a81548160ff02191690831515021790555050565b600033905090565b8280546200027690620005ec565b90600052602060002090601f0160209004810192826200029a5760008555620002e6565b82601f10620002b557805160ff1916838001178555620002e6565b82800160010185558215620002e6579182015b82811115620002e5578251825591602001919060010190620002c8565b5b509050620002f59190620002f9565b5090565b5b8082111562000314576000816000905550600101620002fa565b5090565b6000604051905090565b600080fd5b600080fd5b600080fd5b600080fd5b6000601f19601f8301169050919050565b7f4e487b7100000000000000000000000000000000000000000000000000000000600052604160045260246000fd5b620003818262000336565b810181811067ffffffffffffffff82111715620003a357620003a262000347565b5b80604052505050565b6000620003b862000318565b9050620003c6828262000376565b919050565b600067ffffffffffffffff821115620003e957620003e862000347565b5b620003f48262000336565b9050602081019050919050565b60005b838110156200042157808201518184015260208101905062000404565b8381111562000431576000848401525b50505050565b60006200044e6200044884620003cb565b620003ac565b9050828152602081018484840111156200046d576200046c62000331565b5b6200047a84828562000401565b509392505050565b600082601f8301126200049a57620004996200032c565b5b8151620004ac84826020860162000437565b91505092915050565b60008060408385031215620004cf57620004ce62000322565b5b600083015167ffffffffffffffff811115620004f057620004ef62000327565b5b620004fe8582860162000482565b925050602083015167ffffffffffffffff81111562000522576200052162000327565b5b620005308582860162000482565b9150509250929050565b600082825260208201905092915050565b7f4552433136353a20696e76616c696420696e7465726661636520696400000000600082015250565b600062000583601c836200053a565b915062000590826200054b565b602082019050919050565b60006020820190508181036000830152620005b68162000574565b9050919050565b7f4e487b7100000000000000000000000000000000000000000000000000000000600052602260045260246000fd5b600060028204905060018216806200060557607f821691505b602082108114156200061c576200061b620005bd565b5b50919050565b6136f280620006326000396000f3fe608060405234801561001057600080fd5b506004361061012b5760003560e01c806399e0dd7c116100ad578063e8a3d48511610071578063e8a3d48514610367578063e985e9c514610385578063f242432a146103b5578063f2fde38b146103d1578063f5298aca146103ed5761012b565b806399e0dd7c146102b1578063a22cb465146102cd578063b9c4d9fb146102e9578063c0ac998314610319578063cd53d08e146103375761012b565b80634e1273f4116100f45780634e1273f41461020c5780636308f1cd1461023c578063715018a61461026d5780638da5cb5b14610277578063938e3d7b146102955761012b565b8062fdd58e1461013057806301ffc9a7146101605780630e89341c146101905780630ebd4c7f146101c05780632eb2c2d6146101f0575b600080fd5b61014a60048036038101906101459190612330565b610409565b604051610157919061237f565b60405180910390f35b61017a600480360381019061017591906123f2565b610464565b604051610187919061243a565b60405180910390f35b6101aa60048036038101906101a59190612455565b6104cb565b6040516101b7919061251b565b60405180910390f35b6101da60048036038101906101d59190612455565b6104dd565b6040516101e791906125fb565b60405180910390f35b61020a600480360381019061020591906126d8565b610662565b005b6102266004803603810190610221919061280a565b610b71565b60405161023391906125fb565b60405180910390f35b6102566004803603810190610251919061288b565b610cb1565b6040516102649291906128ec565b60405180910390f35b610275610d12565b005b61027f610e4f565b60405161028c9190612924565b60405180910390f35b6102af60048036038101906102aa9190612a6f565b610e79565b005b6102cb60048036038101906102c69190612a6f565b610f01565b005b6102e760048036038101906102e29190612ae4565b610f89565b005b61030360048036038101906102fe9190612455565b611086565b6040516103109190612be2565b60405180910390f35b610321611239565b60405161032e919061251b565b60405180910390f35b610351600480360381019061034c9190612455565b6112c7565b60405161035e9190612924565b60405180910390f35b61036f6112fa565b60405161037c919061251b565b60405180910390f35b61039f600480360381019061039a9190612c04565b611388565b6040516103ac919061243a565b60405180910390f35b6103cf60048036038101906103ca9190612c44565b61141c565b005b6103eb60048036038101906103e69190612cde565b6117fd565b005b61040760048036038101906104029190612d0b565b6119a9565b005b60006005600083815260200190815260200160002060008473ffffffffffffffffffffffffffffffffffffffff1673ffffffffffffffffffffffffffffffffffffffff16815260200190815260200160002054905092915050565b6000806000837bffffffffffffffffffffffffffffffffffffffffffffffffffffffff19167bffffffffffffffffffffffffffffffffffffffffffffffffffffffff1916815260200190815260200160002060009054906101000a900460ff169050919050565b60606104d682611bea565b9050919050565b6060600060086000848152602001908152602001600020805480602002602001604051908101604052809291908181526020016000905b828210156105a657838290600052602060002090600202016040518060400160405290816000820160009054906101000a900473ffffffffffffffffffffffffffffffffffffffff1673ffffffffffffffffffffffffffffffffffffffff1673ffffffffffffffffffffffffffffffffffffffff16815260200160018201548152505081526020019060010190610514565b5050505090506000815167ffffffffffffffff8111156105c9576105c8612944565b5b6040519080825280602002602001820160405280156105f75781602001602082028036833780820191505090505b50905060005b82518110156106575782818151811061061957610618612d5e565b5b60200260200101516020015182828151811061063857610637612d5e565b5b602002602001018181525050808061064f90612dbc565b9150506105fd565b508092505050919050565b600073ffffffffffffffffffffffffffffffffffffffff168773ffffffffffffffffffffffffffffffffffffffff1614156106d2576040517f08c379a00000000000000000000000000000000000000000000000000000000081526004016106c990612e77565b60405180910390fd5b83839050868690501461071a576040517f08c379a000000000000000000000000000000000000000000000000000000000815260040161071190612f09565b60405180910390fd5b3373ffffffffffffffffffffffffffffffffffffffff168873ffffffffffffffffffffffffffffffffffffffff1614806107e1575060011515600660008a73ffffffffffffffffffffffffffffffffffffffff1673ffffffffffffffffffffffffffffffffffffffff16815260200190815260200160002060003373ffffffffffffffffffffffffffffffffffffffff1673ffffffffffffffffffffffffffffffffffffffff16815260200190815260200160002060009054906101000a900460ff161515145b610820576040517f08c379a000000000000000000000000000000000000000000000000000000000815260040161081790612f9b565b60405180910390fd5b60005b868690508110156109eb57600087878381811061084357610842612d5e565b5b905060200201359050600086868481811061086157610860612d5e565b5b9050602002013590506108cd816005600085815260200190815260200160002060008e73ffffffffffffffffffffffffffffffffffffffff1673ffffffffffffffffffffffffffffffffffffffff16815260200190815260200160002054611d2b90919063ffffffff16565b6005600084815260200190815260200160002060008d73ffffffffffffffffffffffffffffffffffffffff1673ffffffffffffffffffffffffffffffffffffffff168152602001908152602001600020819055506109846005600084815260200190815260200160002060008c73ffffffffffffffffffffffffffffffffffffffff1673ffffffffffffffffffffffffffffffffffffffff1681526020019081526020016000205482611d8490919063ffffffff16565b6005600084815260200190815260200160002060008c73ffffffffffffffffffffffffffffffffffffffff1673ffffffffffffffffffffffffffffffffffffffff168152602001908152602001600020819055505050806109e490612dbc565b9050610823565b508673ffffffffffffffffffffffffffffffffffffffff168873ffffffffffffffffffffffffffffffffffffffff163373ffffffffffffffffffffffffffffffffffffffff167f4a39dc06d4c0dbc64b70af90fd698a233a518aa5d07e595d983b8c0526c8f7fb89898989604051610a66949392919061301c565b60405180910390a4610a8d8773ffffffffffffffffffffffffffffffffffffffff16611de2565b15610b6757610b66338989898980806020026020016040519081016040528093929190818152602001838360200280828437600081840152601f19601f82011690508083019250505050505050888880806020026020016040519081016040528093929190818152602001838360200280828437600081840152601f19601f8201169050808301925050505050505087878080601f016020809104026020016040519081016040528093929190818152602001838380828437600081840152601f19601f82011690508083019250505050505050611df5565b5b5050505050505050565b6060828290508585905014610b8557600080fd5b60008585905067ffffffffffffffff811115610ba457610ba3612944565b5b604051908082528060200260200182016040528015610bd25781602001602082028036833780820191505090505b50905060005b86869050811015610ca45760056000868684818110610bfa57610bf9612d5e565b5b9050602002013581526020019081526020016000206000888884818110610c2457610c23612d5e565b5b9050602002016020810190610c399190612cde565b73ffffffffffffffffffffffffffffffffffffffff1673ffffffffffffffffffffffffffffffffffffffff16815260200190815260200160002054828281518110610c8757610c86612d5e565b5b60200260200101818152505080610c9d90612dbc565b9050610bd8565b5080915050949350505050565b60086020528160005260406000208181548110610ccd57600080fd5b9060005260206000209060020201600091509150508060000160009054906101000a900473ffffffffffffffffffffffffffffffffffffffff16908060010154905082565b610d1a611f07565b73ffffffffffffffffffffffffffffffffffffffff16610d38610e4f565b73ffffffffffffffffffffffffffffffffffffffff1614610d8e576040517f08c379a0000000000000000000000000000000000000000000000000000000008152600401610d85906130a3565b60405180910390fd5b600073ffffffffffffffffffffffffffffffffffffffff16600160009054906101000a900473ffffffffffffffffffffffffffffffffffffffff1673ffffffffffffffffffffffffffffffffffffffff167f8be0079c531659141344cd1fd0a4f28419497f9722a3daafe3b4186f6b6457e060405160405180910390a36000600160006101000a81548173ffffffffffffffffffffffffffffffffffffffff021916908373ffffffffffffffffffffffffffffffffffffffff160217905550565b6000600160009054906101000a900473ffffffffffffffffffffffffffffffffffffffff16905090565b610e81611f07565b73ffffffffffffffffffffffffffffffffffffffff16610e9f610e4f565b73ffffffffffffffffffffffffffffffffffffffff1614610ef5576040517f08c379a0000000000000000000000000000000000000000000000000000000008152600401610eec906130a3565b60405180910390fd5b610efe81611f0f565b50565b610f09611f07565b73ffffffffffffffffffffffffffffffffffffffff16610f27610e4f565b73ffffffffffffffffffffffffffffffffffffffff1614610f7d576040517f08c379a0000000000000000000000000000000000000000000000000000000008152600401610f74906130a3565b60405180910390fd5b610f8681611f29565b50565b80600660003373ffffffffffffffffffffffffffffffffffffffff1673ffffffffffffffffffffffffffffffffffffffff16815260200190815260200160002060008473ffffffffffffffffffffffffffffffffffffffff1673ffffffffffffffffffffffffffffffffffffffff16815260200190815260200160002060006101000a81548160ff0219169083151502179055508173ffffffffffffffffffffffffffffffffffffffff163373ffffffffffffffffffffffffffffffffffffffff167f17307eab39ab6107e8899845ad3d59bd9653f200f220920489ca2b5937696c318360405161107a919061243a565b60405180910390a35050565b6060600060086000848152602001908152602001600020805480602002602001604051908101604052809291908181526020016000905b8282101561114f57838290600052602060002090600202016040518060400160405290816000820160009054906101000a900473ffffffffffffffffffffffffffffffffffffffff1673ffffffffffffffffffffffffffffffffffffffff1673ffffffffffffffffffffffffffffffffffffffff168152602001600182015481525050815260200190600101906110bd565b5050505090506000815167ffffffffffffffff81111561117257611171612944565b5b6040519080825280602002602001820160405280156111a05781602001602082028036833780820191505090505b50905060005b825181101561122e578281815181106111c2576111c1612d5e565b5b6020026020010151600001518282815181106111e1576111e0612d5e565b5b602002602001019073ffffffffffffffffffffffffffffffffffffffff16908173ffffffffffffffffffffffffffffffffffffffff1681525050808061122690612dbc565b9150506111a6565b508092505050919050565b60028054611246906130f2565b80601f0160208091040260200160405190810160405280929190818152602001828054611272906130f2565b80156112bf5780601f10611294576101008083540402835291602001916112bf565b820191906000526020600020905b8154815290600101906020018083116112a257829003601f168201915b505050505081565b60076020528060005260406000206000915054906101000a900473ffffffffffffffffffffffffffffffffffffffff1681565b60048054611307906130f2565b80601f0160208091040260200160405190810160405280929190818152602001828054611333906130f2565b80156113805780601f1061135557610100808354040283529160200191611380565b820191906000526020600020905b81548152906001019060200180831161136357829003601f168201915b505050505081565b6000600660008473ffffffffffffffffffffffffffffffffffffffff1673ffffffffffffffffffffffffffffffffffffffff16815260200190815260200160002060008373ffffffffffffffffffffffffffffffffffffffff1673ffffffffffffffffffffffffffffffffffffffff16815260200190815260200160002060009054906101000a900460ff16905092915050565b600073ffffffffffffffffffffffffffffffffffffffff168573ffffffffffffffffffffffffffffffffffffffff16141561148c576040517f08c379a000000000000000000000000000000000000000000000000000000000815260040161148390613170565b60405180910390fd5b3373ffffffffffffffffffffffffffffffffffffffff168673ffffffffffffffffffffffffffffffffffffffff161480611553575060011515600660008873ffffffffffffffffffffffffffffffffffffffff1673ffffffffffffffffffffffffffffffffffffffff16815260200190815260200160002060003373ffffffffffffffffffffffffffffffffffffffff1673ffffffffffffffffffffffffffffffffffffffff16815260200190815260200160002060009054906101000a900460ff161515145b611592576040517f08c379a000000000000000000000000000000000000000000000000000000000815260040161158990612f9b565b60405180910390fd5b6115f5836005600087815260200190815260200160002060008973ffffffffffffffffffffffffffffffffffffffff1673ffffffffffffffffffffffffffffffffffffffff16815260200190815260200160002054611d2b90919063ffffffff16565b6005600086815260200190815260200160002060008873ffffffffffffffffffffffffffffffffffffffff1673ffffffffffffffffffffffffffffffffffffffff168152602001908152602001600020819055506116ac6005600086815260200190815260200160002060008773ffffffffffffffffffffffffffffffffffffffff1673ffffffffffffffffffffffffffffffffffffffff1681526020019081526020016000205484611d8490919063ffffffff16565b6005600086815260200190815260200160002060008773ffffffffffffffffffffffffffffffffffffffff1673ffffffffffffffffffffffffffffffffffffffff168152602001908152602001600020819055508473ffffffffffffffffffffffffffffffffffffffff168673ffffffffffffffffffffffffffffffffffffffff163373ffffffffffffffffffffffffffffffffffffffff167fc3d58168c5ae7397731d063d5bbf3d657854427343f4c083240f7aacaa2d0f628787604051611776929190613190565b60405180910390a461179d8573ffffffffffffffffffffffffffffffffffffffff16611de2565b156117f5576117f4338787878787878080601f016020809104026020016040519081016040528093929190818152602001838380828437600081840152601f19601f82011690508083019250505050505050611f43565b5b505050505050565b611805611f07565b73ffffffffffffffffffffffffffffffffffffffff16611823610e4f565b73ffffffffffffffffffffffffffffffffffffffff1614611879576040517f08c379a0000000000000000000000000000000000000000000000000000000008152600401611870906130a3565b60405180910390fd5b600073ffffffffffffffffffffffffffffffffffffffff168173ffffffffffffffffffffffffffffffffffffffff1614156118e9576040517f08c379a00000000000000000000000000000000000000000000000000000000081526004016118e09061322b565b60405180910390fd5b8073ffffffffffffffffffffffffffffffffffffffff16600160009054906101000a900473ffffffffffffffffffffffffffffffffffffffff1673ffffffffffffffffffffffffffffffffffffffff167f8be0079c531659141344cd1fd0a4f28419497f9722a3daafe3b4186f6b6457e060405160405180910390a380600160006101000a81548173ffffffffffffffffffffffffffffffffffffffff021916908373ffffffffffffffffffffffffffffffffffffffff16021790555050565b3373ffffffffffffffffffffffffffffffffffffffff168373ffffffffffffffffffffffffffffffffffffffff161480611a70575060011515600660008573ffffffffffffffffffffffffffffffffffffffff1673ffffffffffffffffffffffffffffffffffffffff16815260200190815260200160002060003373ffffffffffffffffffffffffffffffffffffffff1673ffffffffffffffffffffffffffffffffffffffff16815260200190815260200160002060009054906101000a900460ff161515145b611aaf576040517f08c379a0000000000000000000000000000000000000000000000000000000008152600401611aa6906132bd565b60405180910390fd5b611b12816005600085815260200190815260200160002060008673ffffffffffffffffffffffffffffffffffffffff1673ffffffffffffffffffffffffffffffffffffffff16815260200190815260200160002054611d2b90919063ffffffff16565b6005600084815260200190815260200160002060008573ffffffffffffffffffffffffffffffffffffffff1673ffffffffffffffffffffffffffffffffffffffff16815260200190815260200160002081905550600073ffffffffffffffffffffffffffffffffffffffff168373ffffffffffffffffffffffffffffffffffffffff163373ffffffffffffffffffffffffffffffffffffffff167fc3d58168c5ae7397731d063d5bbf3d657854427343f4c083240f7aacaa2d0f628585604051611bdd929190613190565b60405180910390a4505050565b6060611d24600360008481526020019081526020016000208054611c0d906130f2565b80601f0160208091040260200160405190810160405280929190818152602001828054611c39906130f2565b8015611c865780601f10611c5b57610100808354040283529160200191611c86565b820191906000526020600020905b815481529060010190602001808311611c6957829003601f168201915b505050505060028054611c98906130f2565b80601f0160208091040260200160405190810160405280929190818152602001828054611cc4906130f2565b8015611d115780601f10611ce657610100808354040283529160200191611d11565b820191906000526020600020905b815481529060010190602001808311611cf457829003601f168201915b505050505061205590919063ffffffff16565b9050919050565b600082821115611d70576040517f08c379a0000000000000000000000000000000000000000000000000000000008152600401611d6790613329565b60405180910390fd5b8183611d7c9190613349565b905092915050565b6000808284611d93919061337d565b905083811015611dd8576040517f08c379a0000000000000000000000000000000000000000000000000000000008152600401611dcf9061341f565b60405180910390fd5b8091505092915050565b600080823b905060008111915050919050565b63bc197c8160e01b7bffffffffffffffffffffffffffffffffffffffffffffffffffffffff19168473ffffffffffffffffffffffffffffffffffffffff1663bc197c8188888787876040518663ffffffff1660e01b8152600401611e5d959493929190613494565b6020604051808303816000875af1158015611e7c573d6000803e3d6000fd5b505050506040513d601f19601f82011682018060405250810190611ea09190613511565b7bffffffffffffffffffffffffffffffffffffffffffffffffffffffff191614611eff576040517f08c379a0000000000000000000000000000000000000000000000000000000008152600401611ef6906135b0565b60405180910390fd5b505050505050565b600033905090565b8060049080519060200190611f259291906121e5565b5050565b8060029080519060200190611f3f9291906121e5565b5050565b63f23a6e6160e01b7bffffffffffffffffffffffffffffffffffffffffffffffffffffffff19168473ffffffffffffffffffffffffffffffffffffffff1663f23a6e6188888787876040518663ffffffff1660e01b8152600401611fab9594939291906135d0565b6020604051808303816000875af1158015611fca573d6000803e3d6000fd5b505050506040513d601f19601f82011682018060405250810190611fee9190613511565b7bffffffffffffffffffffffffffffffffffffffffffffffffffffffff19161461204d576040517f08c379a00000000000000000000000000000000000000000000000000000000081526004016120449061369c565b60405180910390fd5b505050505050565b606060008390506000839050600081518351612071919061337d565b67ffffffffffffffff81111561208a57612089612944565b5b6040519080825280601f01601f1916602001820160405280156120bc5781602001600182028036833780820191505090505b5090506000805b845181101561214b578481815181106120df576120de612d5e565b5b602001015160f81c60f81b8383806120f690612dbc565b94508151811061210957612108612d5e565b5b60200101907effffffffffffffffffffffffffffffffffffffffffffffffffffffffffffff1916908160001a905350808061214390612dbc565b9150506120c3565b5060005b83518110156121d75783818151811061216b5761216a612d5e565b5b602001015160f81c60f81b83838061218290612dbc565b94508151811061219557612194612d5e565b5b60200101907effffffffffffffffffffffffffffffffffffffffffffffffffffffffffffff1916908160001a90535080806121cf90612dbc565b91505061214f565b508194505050505092915050565b8280546121f1906130f2565b90600052602060002090601f016020900481019282612213576000855561225a565b82601f1061222c57805160ff191683800117855561225a565b8280016001018555821561225a579182015b8281111561225957825182559160200191906001019061223e565b5b509050612267919061226b565b5090565b5b8082111561228457600081600090555060010161226c565b5090565b6000604051905090565b600080fd5b600080fd5b600073ffffffffffffffffffffffffffffffffffffffff82169050919050565b60006122c78261229c565b9050919050565b6122d7816122bc565b81146122e257600080fd5b50565b6000813590506122f4816122ce565b92915050565b6000819050919050565b61230d816122fa565b811461231857600080fd5b50565b60008135905061232a81612304565b92915050565b6000806040838503121561234757612346612292565b5b6000612355858286016122e5565b92505060206123668582860161231b565b9150509250929050565b612379816122fa565b82525050565b60006020820190506123946000830184612370565b92915050565b60007fffffffff0000000000000000000000000000000000000000000000000000000082169050919050565b6123cf8161239a565b81146123da57600080fd5b50565b6000813590506123ec816123c6565b92915050565b60006020828403121561240857612407612292565b5b6000612416848285016123dd565b91505092915050565b60008115159050919050565b6124348161241f565b82525050565b600060208201905061244f600083018461242b565b92915050565b60006020828403121561246b5761246a612292565b5b60006124798482850161231b565b91505092915050565b600081519050919050565b600082825260208201905092915050565b60005b838110156124bc5780820151818401526020810190506124a1565b838111156124cb576000848401525b50505050565b6000601f19601f8301169050919050565b60006124ed82612482565b6124f7818561248d565b935061250781856020860161249e565b612510816124d1565b840191505092915050565b6000602082019050818103600083015261253581846124e2565b905092915050565b600081519050919050565b600082825260208201905092915050565b6000819050602082019050919050565b612572816122fa565b82525050565b60006125848383612569565b60208301905092915050565b6000602082019050919050565b60006125a88261253d565b6125b28185612548565b93506125bd83612559565b8060005b838110156125ee5781516125d58882612578565b97506125e083612590565b9250506001810190506125c1565b5085935050505092915050565b60006020820190508181036000830152612615818461259d565b905092915050565b600080fd5b600080fd5b600080fd5b60008083601f8401126126425761264161261d565b5b8235905067ffffffffffffffff81111561265f5761265e612622565b5b60208301915083602082028301111561267b5761267a612627565b5b9250929050565b60008083601f8401126126985761269761261d565b5b8235905067ffffffffffffffff8111156126b5576126b4612622565b5b6020830191508360018202830111156126d1576126d0612627565b5b9250929050565b60008060008060008060008060a0898b0312156126f8576126f7612292565b5b60006127068b828c016122e5565b98505060206127178b828c016122e5565b975050604089013567ffffffffffffffff81111561273857612737612297565b5b6127448b828c0161262c565b9650965050606089013567ffffffffffffffff81111561276757612766612297565b5b6127738b828c0161262c565b9450945050608089013567ffffffffffffffff81111561279657612795612297565b5b6127a28b828c01612682565b92509250509295985092959890939650565b60008083601f8401126127ca576127c961261d565b5b8235905067ffffffffffffffff8111156127e7576127e6612622565b5b60208301915083602082028301111561280357612802612627565b5b9250929050565b6000806000806040858703121561282457612823612292565b5b600085013567ffffffffffffffff81111561284257612841612297565b5b61284e878288016127b4565b9450945050602085013567ffffffffffffffff81111561287157612870612297565b5b61287d8782880161262c565b925092505092959194509250565b600080604083850312156128a2576128a1612292565b5b60006128b08582860161231b565b92505060206128c18582860161231b565b9150509250929050565b60006128d68261229c565b9050919050565b6128e6816128cb565b82525050565b600060408201905061290160008301856128dd565b61290e6020830184612370565b9392505050565b61291e816122bc565b82525050565b60006020820190506129396000830184612915565b92915050565b600080fd5b7f4e487b7100000000000000000000000000000000000000000000000000000000600052604160045260246000fd5b61297c826124d1565b810181811067ffffffffffffffff8211171561299b5761299a612944565b5b80604052505050565b60006129ae612288565b90506129ba8282612973565b919050565b600067ffffffffffffffff8211156129da576129d9612944565b5b6129e3826124d1565b9050602081019050919050565b82818337600083830152505050565b6000612a12612a0d846129bf565b6129a4565b905082815260208101848484011115612a2e57612a2d61293f565b5b612a398482856129f0565b509392505050565b600082601f830112612a5657612a5561261d565b5b8135612a668482602086016129ff565b91505092915050565b600060208284031215612a8557612a84612292565b5b600082013567ffffffffffffffff811115612aa357612aa2612297565b5b612aaf84828501612a41565b91505092915050565b612ac18161241f565b8114612acc57600080fd5b50565b600081359050612ade81612ab8565b92915050565b60008060408385031215612afb57612afa612292565b5b6000612b09858286016122e5565b9250506020612b1a85828601612acf565b9150509250929050565b600081519050919050565b600082825260208201905092915050565b6000819050602082019050919050565b612b59816128cb565b82525050565b6000612b6b8383612b50565b60208301905092915050565b6000602082019050919050565b6000612b8f82612b24565b612b998185612b2f565b9350612ba483612b40565b8060005b83811015612bd5578151612bbc8882612b5f565b9750612bc783612b77565b925050600181019050612ba8565b5085935050505092915050565b60006020820190508181036000830152612bfc8184612b84565b905092915050565b60008060408385031215612c1b57612c1a612292565b5b6000612c29858286016122e5565b9250506020612c3a858286016122e5565b9150509250929050565b60008060008060008060a08789031215612c6157612c60612292565b5b6000612c6f89828a016122e5565b9650506020612c8089828a016122e5565b9550506040612c9189828a0161231b565b9450506060612ca289828a0161231b565b935050608087013567ffffffffffffffff811115612cc357612cc2612297565b5b612ccf89828a01612682565b92509250509295509295509295565b600060208284031215612cf457612cf3612292565b5b6000612d02848285016122e5565b91505092915050565b600080600060608486031215612d2457612d23612292565b5b6000612d32868287016122e5565b9350506020612d438682870161231b565b9250506040612d548682870161231b565b9150509250925092565b7f4e487b7100000000000000000000000000000000000000000000000000000000600052603260045260246000fd5b7f4e487b7100000000000000000000000000000000000000000000000000000000600052601160045260246000fd5b6000612dc7826122fa565b91507fffffffffffffffffffffffffffffffffffffffffffffffffffffffffffffffff821415612dfa57612df9612d8d565b5b600182019050919050565b7f64657374696e6174696f6e2061646472657373206d757374206265206e6f6e2d60008201527f7a65726f2e000000000000000000000000000000000000000000000000000000602082015250565b6000612e6160258361248d565b9150612e6c82612e05565b604082019050919050565b60006020820190508181036000830152612e9081612e54565b9050919050565b7f5f69647320616e64205f76616c756573206172726179206c656e676874206d7560008201527f7374206d617463682e0000000000000000000000000000000000000000000000602082015250565b6000612ef360298361248d565b9150612efe82612e97565b604082019050919050565b60006020820190508181036000830152612f2281612ee6565b9050919050565b7f4e656564206f70657261746f7220617070726f76616c20666f7220337264207060008201527f61727479207472616e73666572732e0000000000000000000000000000000000602082015250565b6000612f85602f8361248d565b9150612f9082612f29565b604082019050919050565b60006020820190508181036000830152612fb481612f78565b9050919050565b600080fd5b6000612fcc8385612548565b93507f07ffffffffffffffffffffffffffffffffffffffffffffffffffffffffffffff831115612fff57612ffe612fbb565b5b6020830292506130108385846129f0565b82840190509392505050565b60006040820190508181036000830152613037818688612fc0565b9050818103602083015261304c818486612fc0565b905095945050505050565b7f4f776e61626c653a2063616c6c6572206973206e6f7420746865206f776e6572600082015250565b600061308d60208361248d565b915061309882613057565b602082019050919050565b600060208201905081810360008301526130bc81613080565b9050919050565b7f4e487b7100000000000000000000000000000000000000000000000000000000600052602260045260246000fd5b6000600282049050600182168061310a57607f821691505b6020821081141561311e5761311d6130c3565b5b50919050565b7f5f746f206d757374206265206e6f6e2d7a65726f2e0000000000000000000000600082015250565b600061315a60158361248d565b915061316582613124565b602082019050919050565b600060208201905081810360008301526131898161314d565b9050919050565b60006040820190506131a56000830185612370565b6131b26020830184612370565b9392505050565b7f4f776e61626c653a206e6577206f776e657220697320746865207a65726f206160008201527f6464726573730000000000000000000000000000000000000000000000000000602082015250565b600061321560268361248d565b9150613220826131b9565b604082019050919050565b6000602082019050818103600083015261324481613208565b9050919050565b7f4e656564206f70657261746f7220617070726f76616c20666f7220337264207060008201527f61727479206275726e732e000000000000000000000000000000000000000000602082015250565b60006132a7602b8361248d565b91506132b28261324b565b604082019050919050565b600060208201905081810360008301526132d68161329a565b9050919050565b7f536166654d6174683a207375627472616374696f6e206f766572666c6f770000600082015250565b6000613313601e8361248d565b915061331e826132dd565b602082019050919050565b6000602082019050818103600083015261334281613306565b9050919050565b6000613354826122fa565b915061335f836122fa565b92508282101561337257613371612d8d565b5b828203905092915050565b6000613388826122fa565b9150613393836122fa565b9250827fffffffffffffffffffffffffffffffffffffffffffffffffffffffffffffffff038211156133c8576133c7612d8d565b5b828201905092915050565b7f536166654d6174683a206164646974696f6e206f766572666c6f770000000000600082015250565b6000613409601b8361248d565b9150613414826133d3565b602082019050919050565b60006020820190508181036000830152613438816133fc565b9050919050565b600081519050919050565b600082825260208201905092915050565b60006134668261343f565b613470818561344a565b935061348081856020860161249e565b613489816124d1565b840191505092915050565b600060a0820190506134a96000830188612915565b6134b66020830187612915565b81810360408301526134c8818661259d565b905081810360608301526134dc818561259d565b905081810360808301526134f0818461345b565b90509695505050505050565b60008151905061350b816123c6565b92915050565b60006020828403121561352757613526612292565b5b6000613535848285016134fc565b91505092915050565b7f636f6e74726163742072657475726e656420616e20756e6b6e6f776e2076616c60008201527f75652066726f6d206f6e45524331313535426174636852656365697665640000602082015250565b600061359a603e8361248d565b91506135a58261353e565b604082019050919050565b600060208201905081810360008301526135c98161358d565b9050919050565b600060a0820190506135e56000830188612915565b6135f26020830187612915565b6135ff6040830186612370565b61360c6060830185612370565b818103608083015261361e818461345b565b90509695505050505050565b7f636f6e74726163742072657475726e656420616e20756e6b6e6f776e2076616c60008201527f75652066726f6d206f6e45524331313535526563656976656400000000000000602082015250565b600061368660398361248d565b91506136918261362a565b604082019050919050565b600060208201905081810360008301526136b581613679565b905091905056fea264697066735822122076db2546e276d9052c2b1556dbb567ae7efb8d3db159e21f628c4319446868b364736f6c634300080a0033",
  "immutableReferences": {},
  "source": "// SPDX-License-Identifier: MIT\npragma solidity >=0.4.22 <0.9.0;\npragma experimental ABIEncoderV2;\n\nimport \"../math/SafeMath.sol\";\nimport \"./HasSecondarySaleFees.sol\";\nimport \"./HasContractURI.sol\";\nimport \"./ERC1155MetadataURI.sol\";\nimport \"./ERC1155.sol\";\nimport \"../utils/Ownable.sol\";\n\ncontract ERC1155Base is HasSecondarySaleFees, Ownable, ERC1155MetadataURI, HasContractURI, ERC1155 {\n\n    using SafeMath for uint256;\n\n    struct Fee {\n        address payable recipient;\n        uint256 value;\n    }\n\n    // id => creator\n    mapping (uint256 => address) public creators;\n    // id => fees\n    mapping (uint256 => Fee[]) public fees;\n\n    constructor(string memory contractURI, string memory tokenURIPrefix) HasContractURI(contractURI) ERC1155MetadataURI(tokenURIPrefix) {\n\n    }\n\n    function getFeeRecipients(uint256 id) public view override returns (address payable[] memory) {\n        Fee[] memory _fees = fees[id];\n        address payable[] memory result = new address payable[](_fees.length);\n        for (uint i = 0; i < _fees.length; i++) {\n            result[i] = _fees[i].recipient;\n        }\n        return result;\n    }\n\n    function getFeeBps(uint256 id) public view override returns (uint[] memory) {\n        Fee[] memory _fees = fees[id];\n        uint[] memory result = new uint[](_fees.length);\n        for (uint i = 0; i < _fees.length; i++) {\n            result[i] = _fees[i].value;\n        }\n        return result;\n    }\n\n    // Creates a new token type and assings _initialSupply to minter\n    function _mint(address to, uint256 _id, Fee[] memory _fees, uint256 _supply, string memory _uri) internal {\n        require(creators[_id] == address(0x0), \"Token is already minted\");\n        require(_supply != 0, \"Supply  be positive\");\n        require(bytes(_uri).length > 0, \"uri  be set\");\n\n        creators[_id] = to;\n        address[] memory recipients = new address[](_fees.length);\n        uint[] memory bps = new uint[](_fees.length);\n        for (uint i = 0; i < _fees.length; i++) {\n            require(_fees[i].recipient != address(0x0), \"Recipient  be present\");\n            require(_fees[i].value != 0, \"Fee value  be positive\");\n            fees[_id].push(_fees[i]);\n            recipients[i] = _fees[i].recipient;\n            bps[i] = _fees[i].value;\n        }\n        if (_fees.length > 0) {\n            emit SecondarySaleFees(_id, recipients, bps);\n        }\n        balances[_id][to] = _supply;\n        _setTokenURI(_id, _uri);\n\n        // Transfer event with mint semantic\n        emit TransferSingle(msg.sender, address(0x0), msg.sender, _id, _supply);\n        emit URI(_uri, _id);\n    }\n\n    function burn(address _owner, uint256 _id, uint256 _value) external {\n\n        require(_owner == msg.sender || operatorApproval[_owner][msg.sender] == true, \"Need operator approval for 3rd party burns.\");\n\n        // SafeMath will throw with insuficient funds _owner\n        // or if _id is not valid (balance will be 0)\n        balances[_id][_owner] = balances[_id][_owner].sub(_value);\n\n        // MUST emit event\n        emit TransferSingle(msg.sender, _owner, address(0x0), _id, _value);\n    }\n\n    /**\n     * @dev Internal function to set the token URI for a given token.\n     * Reverts if the token ID does not exist.\n     * @param tokenId uint256 ID of the token to set its URI\n     * @param uri string URI to assign\n     */\n    function _setTokenURI(uint256 tokenId, string memory uri) internal override{\n        require(creators[tokenId] != address(0x0), \"_setTokenURI: Token  exist\");\n        super._setTokenURI(tokenId, uri);\n    }\n\n    function setTokenURIPrefix(string memory tokenURIPrefix) public onlyOwner {\n        _setTokenURIPrefix(tokenURIPrefix);\n    }\n\n    function setContractURI(string memory contractURI) public onlyOwner {\n        _setContractURI(contractURI);\n    }\n}\n",
  "sourcePath": "/home/ec2-user/test-contract/contracts/lib/contracts/ERC1155Base.sol",
  "compiler": {
    "name": "solc",
    "version": "0.8.10+commit.fc410830.Emscripten.clang"
  },
  "schemaVersion": "3.4.3",
  "updatedAt": "2021-12-04T11:19:58.341Z",
  "devdoc": {
    "kind": "dev",
    "methods": {
      "balanceOf(address,uint256)": {
        "params": {
          "_id": "ID of the Token",
          "_owner": "The address of the token holder"
        },
        "returns": {
          "_0": "The _owner's balance of the Token type requested"
        }
      },
      "balanceOfBatch(address[],uint256[])": {
        "params": {
          "_ids": "ID of the Tokens",
          "_owners": "The addresses of the token holders"
        },
        "returns": {
          "_0": "The _owner's balance of the Token types requested (i.e. balance for each (owner, id) pair)"
        }
      },
      "isApprovedForAll(address,address)": {
        "params": {
          "_operator": "Address of authorized operator",
          "_owner": "The owner of the Tokens"
        },
        "returns": {
          "_0": "True if the operator is approved, false if not"
        }
      },
      "owner()": {
        "details": "Returns the address of the current owner."
      },
      "renounceOwnership()": {
        "details": "Leaves the contract without owner. It will not be possible to call `onlyOwner` functions anymore. Can only be called by the current owner. NOTE: Renouncing ownership will leave the contract without an owner, thereby removing any functionality that is only available to the owner."
      },
      "safeBatchTransferFrom(address,address,uint256[],uint256[],bytes)": {
        "details": "Caller must be approved to manage the tokens being transferred out of the `_from` account (see \"Approval\" section of the standard). MUST revert if `_to` is the zero address. MUST revert if length of `_ids` is not the same as length of `_values`. MUST revert if any of the balance(s) of the holder(s) for token(s) in `_ids` is lower than the respective amount(s) in `_values` sent to the recipient. MUST revert on any other error. MUST emit `TransferSingle` or `TransferBatch` event(s) such that all the balance changes are reflected (see \"Safe Transfer Rules\" section of the standard). Balance changes and events MUST follow the ordering of the arrays (_ids[0]/_values[0] before _ids[1]/_values[1], etc). After the above conditions for the transfer(s) in the batch are met, this function MUST check if `_to` is a smart contract (e.g. code size > 0). If so, it MUST call the relevant `ERC1155TokenReceiver` hook(s) on `_to` and act appropriately (see \"Safe Transfer Rules\" section of the standard).",
        "params": {
          "_data": "Additional data with no specified format, MUST be sent unaltered in call to the `ERC1155TokenReceiver` hook(s) on `_to`",
          "_from": "Source address",
          "_ids": "IDs of each token type (order and length must match _values array)",
          "_to": "Target address",
          "_values": "Transfer amounts per token type (order and length must match _ids array)"
        }
      },
      "safeTransferFrom(address,address,uint256,uint256,bytes)": {
        "details": "Caller must be approved to manage the tokens being transferred out of the `_from` account (see \"Approval\" section of the standard). MUST revert if `_to` is the zero address. MUST revert if balance of holder for token `_id` is lower than the `_value` sent. MUST revert on any other error. MUST emit the `TransferSingle` event to reflect the balance change (see \"Safe Transfer Rules\" section of the standard). After the above conditions are met, this function MUST check if `_to` is a smart contract (e.g. code size > 0). If so, it MUST call `onERC1155Received` on `_to` and act appropriately (see \"Safe Transfer Rules\" section of the standard).",
        "params": {
          "_data": "Additional data with no specified format, MUST be sent unaltered in call to `onERC1155Received` on `_to`",
          "_from": "Source address",
          "_id": "ID of the token type",
          "_to": "Target address",
          "_value": "Transfer amount"
        }
      },
      "setApprovalForAll(address,bool)": {
        "details": "MUST emit the ApprovalForAll event on success.",
        "params": {
          "_approved": "True if the operator is approved, false to revoke approval",
          "_operator": "Address to add to the set of authorized operators"
        }
      },
      "supportsInterface(bytes4)": {
        "details": "See {IERC165-supportsInterface}. Time complexity O(1), guaranteed to always use less than 30 000 gas."
      },
      "transferOwnership(address)": {
        "details": "Transfers ownership of the contract to a new account (`newOwner`). Can only be called by the current owner."
      },
      "uri(uint256)": {
        "details": "URIs are defined in RFC 3986. The URI may point to a JSON file that conforms to the \"ERC-1155 Metadata URI JSON Schema\".",
        "returns": {
          "_0": "URI string"
        }
      }
    },
    "version": 1
  },
  "userdoc": {
    "kind": "user",
    "methods": {
      "balanceOf(address,uint256)": {
        "notice": "Get the balance of an account's Tokens."
      },
      "balanceOfBatch(address[],uint256[])": {
        "notice": "Get the balance of multiple account/token pairs"
      },
      "isApprovedForAll(address,address)": {
        "notice": "Queries the approval status of an operator for a given owner."
      },
      "safeBatchTransferFrom(address,address,uint256[],uint256[],bytes)": {
        "notice": "Transfers `_values` amount(s) of `_ids` from the `_from` address to the `_to` address specified (with safety call)."
      },
      "safeTransferFrom(address,address,uint256,uint256,bytes)": {
        "notice": "Transfers `_value` amount of an `_id` from the `_from` address to the `_to` address specified (with safety call)."
      },
      "setApprovalForAll(address,bool)": {
        "notice": "Enable or disable approval for a third party (\"operator\") to manage all of the caller's tokens."
      },
      "uri(uint256)": {
        "notice": "A distinct Uniform Resource Identifier (URI) for a given token."
      }
    },
    "version": 1
  }
}