{
  "contractName": "ERC165",
  "abi": [
    {
      "inputs": [],
      "stateMutability": "nonpayable",
      "type": "constructor"
    },
    {
      "inputs": [
        {
          "internalType": "bytes4",
          "name": "interfaceId",
          "type": "bytes4"
        }
      ],
      "name": "supportsInterface",
      "outputs": [
        {
          "internalType": "bool",
          "name": "",
          "type": "bool"
        }
      ],
      "stateMutability": "view",
      "type": "function"
    }
  ],
  "bytecode": "0x608060405234801561001057600080fd5b506100276301ffc9a760e01b61002c60201b60201c565b61017e565b63ffffffff60e01b817bffffffffffffffffffffffffffffffffffffffffffffffffffffffff19161415610095576040517f08c379a000000000000000000000000000000000000000000000000000000000815260040161008c9061015e565b60405180910390fd5b6001600080837bffffffffffffffffffffffffffffffffffffffffffffffffffffffff19167bffffffffffffffffffffffffffffffffffffffffffffffffffffffff1916815260200190815260200160002060006101000a81548160ff02191690831515021790555050565b600082825260208201905092915050565b7f4552433136353a20696e76616c696420696e7465726661636520696400000000600082015250565b6000610148601c83610101565b915061015382610112565b602082019050919050565b600060208201905081810360008301526101778161013b565b9050919050565b6101bd8061018d6000396000f3fe608060405234801561001057600080fd5b506004361061002b5760003560e01c806301ffc9a714610030575b600080fd5b61004a60048036038101906100459190610124565b610060565b604051610057919061016c565b60405180910390f35b6000806000837bffffffffffffffffffffffffffffffffffffffffffffffffffffffff19167bffffffffffffffffffffffffffffffffffffffffffffffffffffffff1916815260200190815260200160002060009054906101000a900460ff169050919050565b600080fd5b60007fffffffff0000000000000000000000000000000000000000000000000000000082169050919050565b610101816100cc565b811461010c57600080fd5b50565b60008135905061011e816100f8565b92915050565b60006020828403121561013a576101396100c7565b5b60006101488482850161010f565b91505092915050565b60008115159050919050565b61016681610151565b82525050565b6000602082019050610181600083018461015d565b9291505056fea2646970667358221220f6e030d9c89fd69e2d9cd1c598589ef78785028f41eb090926eb16976e88958464736f6c634300080a0033",
  "immutableReferences": {},
  "source": "// SPDX-License-Identifier: MIT\npragma solidity >=0.4.22 <0.9.0;\npragma experimental ABIEncoderV2;\n\nimport \"../interface/IERC165.sol\";\n\n/**\n * @dev Implementation of the {IERC165} interface.\n *\n * Contracts may inherit from this and call {_registerInterface} to declare\n * their support of an interface.\n */\ncontract ERC165 is IERC165 {\n    /*\n     * bytes4(keccak256('supportsInterface(bytes4)')) == 0x01ffc9a7\n     */\n    bytes4 private constant _INTERFACE_ID_ERC165 = 0x01ffc9a7;\n\n    /**\n     * @dev Mapping of interface ids to whether or not it's supported.\n     */\n    mapping(bytes4 => bool) private _supportedInterfaces;\n\n    constructor () {\n        // Derived contracts need only register support for their own interfaces,\n        // we register support for ERC165 itself here\n        _registerInterface(_INTERFACE_ID_ERC165);\n    }\n\n    /**\n     * @dev See {IERC165-supportsInterface}.\n     *\n     * Time complexity O(1), guaranteed to always use less than 30 000 gas.\n     */\n    function supportsInterface(bytes4 interfaceId) external view override returns (bool) {\n        return _supportedInterfaces[interfaceId];\n    }\n\n    /**\n     * @dev Registers the contract as an implementer of the interface defined by\n     * `interfaceId`. Support of the actual ERC165 interface is automatic and\n     * registering its interface id is not required.\n     *\n     * See {IERC165-supportsInterface}.\n     *\n     * Requirements:\n     *\n     * - `interfaceId` cannot be the ERC165 invalid interface (`0xffffffff`).\n     */\n    function _registerInterface(bytes4 interfaceId) internal {\n        require(interfaceId != 0xffffffff, \"ERC165: invalid interface id\");\n        _supportedInterfaces[interfaceId] = true;\n    }\n}\n",
  "sourcePath": "/home/ec2-user/test-contract/contracts/lib/contracts/ERC165.sol",
  "compiler": {
    "name": "solc",
    "version": "0.8.10+commit.fc410830.Emscripten.clang"
  },
  "schemaVersion": "3.4.3",
  "updatedAt": "2021-12-04T11:19:58.357Z",
  "devdoc": {
    "details": "Implementation of the {IERC165} interface. Contracts may inherit from this and call {_registerInterface} to declare their support of an interface.",
    "kind": "dev",
    "methods": {
      "supportsInterface(bytes4)": {
        "details": "See {IERC165-supportsInterface}. Time complexity O(1), guaranteed to always use less than 30 000 gas."
      }
    },
    "stateVariables": {
      "_supportedInterfaces": {
        "details": "Mapping of interface ids to whether or not it's supported."
      }
    },
    "version": 1
  },
  "userdoc": {
    "kind": "user",
    "methods": {},
    "version": 1
  }
}