{
  "contractName": "ERC1155MetadataURI",
  "abi": [
    {
      "inputs": [
        {
          "internalType": "string",
          "name": "_tokenURIPrefix",
          "type": "string"
        }
      ],
      "stateMutability": "nonpayable",
      "type": "constructor"
    },
    {
      "inputs": [],
      "name": "tokenURIPrefix",
      "outputs": [
        {
          "internalType": "string",
          "name": "",
          "type": "string"
        }
      ],
      "stateMutability": "view",
      "type": "function"
    },
    {
      "inputs": [
        {
          "internalType": "uint256",
          "name": "_id",
          "type": "uint256"
        }
      ],
      "name": "uri",
      "outputs": [
        {
          "internalType": "string",
          "name": "",
          "type": "string"
        }
      ],
      "stateMutability": "view",
      "type": "function"
    }
  ],
  "bytecode": "0x60806040523480156200001157600080fd5b5060405162000a4c38038062000a4c8339818101604052810190620000379190620002a6565b8080600090805190602001906200005092919062000059565b5050506200035c565b828054620000679062000326565b90600052602060002090601f0160209004810192826200008b5760008555620000d7565b82601f10620000a657805160ff1916838001178555620000d7565b82800160010185558215620000d7579182015b82811115620000d6578251825591602001919060010190620000b9565b5b509050620000e69190620000ea565b5090565b5b8082111562000105576000816000905550600101620000eb565b5090565b6000604051905090565b600080fd5b600080fd5b600080fd5b600080fd5b6000601f19601f8301169050919050565b7f4e487b7100000000000000000000000000000000000000000000000000000000600052604160045260246000fd5b620001728262000127565b810181811067ffffffffffffffff8211171562000194576200019362000138565b5b80604052505050565b6000620001a962000109565b9050620001b7828262000167565b919050565b600067ffffffffffffffff821115620001da57620001d962000138565b5b620001e58262000127565b9050602081019050919050565b60005b8381101562000212578082015181840152602081019050620001f5565b8381111562000222576000848401525b50505050565b60006200023f6200023984620001bc565b6200019d565b9050828152602081018484840111156200025e576200025d62000122565b5b6200026b848285620001f2565b509392505050565b600082601f8301126200028b576200028a6200011d565b5b81516200029d84826020860162000228565b91505092915050565b600060208284031215620002bf57620002be62000113565b5b600082015167ffffffffffffffff811115620002e057620002df62000118565b5b620002ee8482850162000273565b91505092915050565b7f4e487b7100000000000000000000000000000000000000000000000000000000600052602260045260246000fd5b600060028204905060018216806200033f57607f821691505b60208210811415620003565762000355620002f7565b5b50919050565b6106e0806200036c6000396000f3fe608060405234801561001057600080fd5b50600436106100365760003560e01c80630e89341c1461003b578063c0ac99831461006b575b600080fd5b61005560048036038101906100509190610435565b610089565b60405161006291906104fb565b60405180910390f35b61007361009b565b60405161008091906104fb565b60405180910390f35b606061009482610129565b9050919050565b600080546100a89061054c565b80601f01602080910402602001604051908101604052809291908181526020018280546100d49061054c565b80156101215780601f106100f657610100808354040283529160200191610121565b820191906000526020600020905b81548152906001019060200180831161010457829003601f168201915b505050505081565b606061026360016000848152602001908152602001600020805461014c9061054c565b80601f01602080910402602001604051908101604052809291908181526020018280546101789061054c565b80156101c55780601f1061019a576101008083540402835291602001916101c5565b820191906000526020600020905b8154815290600101906020018083116101a857829003601f168201915b5050505050600080546101d79061054c565b80601f01602080910402602001604051908101604052809291908181526020018280546102039061054c565b80156102505780601f1061022557610100808354040283529160200191610250565b820191906000526020600020905b81548152906001019060200180831161023357829003601f168201915b505050505061026a90919063ffffffff16565b9050919050565b60606000839050600083905060008151835161028691906105ad565b67ffffffffffffffff81111561029f5761029e610603565b5b6040519080825280601f01601f1916602001820160405280156102d15781602001600182028036833780820191505090505b5090506000805b8451811015610360578481815181106102f4576102f3610632565b5b602001015160f81c60f81b83838061030b90610661565b94508151811061031e5761031d610632565b5b60200101907effffffffffffffffffffffffffffffffffffffffffffffffffffffffffffff1916908160001a905350808061035890610661565b9150506102d8565b5060005b83518110156103ec578381815181106103805761037f610632565b5b602001015160f81c60f81b83838061039790610661565b9450815181106103aa576103a9610632565b5b60200101907effffffffffffffffffffffffffffffffffffffffffffffffffffffffffffff1916908160001a90535080806103e490610661565b915050610364565b508194505050505092915050565b600080fd5b6000819050919050565b610412816103ff565b811461041d57600080fd5b50565b60008135905061042f81610409565b92915050565b60006020828403121561044b5761044a6103fa565b5b600061045984828501610420565b91505092915050565b600081519050919050565b600082825260208201905092915050565b60005b8381101561049c578082015181840152602081019050610481565b838111156104ab576000848401525b50505050565b6000601f19601f8301169050919050565b60006104cd82610462565b6104d7818561046d565b93506104e781856020860161047e565b6104f0816104b1565b840191505092915050565b6000602082019050818103600083015261051581846104c2565b905092915050565b7f4e487b7100000000000000000000000000000000000000000000000000000000600052602260045260246000fd5b6000600282049050600182168061056457607f821691505b602082108114156105785761057761051d565b5b50919050565b7f4e487b7100000000000000000000000000000000000000000000000000000000600052601160045260246000fd5b60006105b8826103ff565b91506105c3836103ff565b9250827fffffffffffffffffffffffffffffffffffffffffffffffffffffffffffffffff038211156105f8576105f761057e565b5b828201905092915050565b7f4e487b7100000000000000000000000000000000000000000000000000000000600052604160045260246000fd5b7f4e487b7100000000000000000000000000000000000000000000000000000000600052603260045260246000fd5b600061066c826103ff565b91507fffffffffffffffffffffffffffffffffffffffffffffffffffffffffffffffff82141561069f5761069e61057e565b5b60018201905091905056fea2646970667358221220d15e8c118fa7e619b422fbad632055c8ea3d012e3e91524db306135942e21b0164736f6c634300080a0033",
  "immutableReferences": {},
  "source": "// SPDX-License-Identifier: MIT\npragma solidity >=0.4.22 <0.9.0;\npragma experimental ABIEncoderV2;\n\nimport \"../interface/IERC1155MetadataURI.sol\";\nimport \"./HasTokenURI.sol\";\n/**\n    Note: The ERC-165 identifier for this interface is 0x0e89341c.\n*/\ncontract ERC1155MetadataURI is IERC1155MetadataURI, HasTokenURI {\n\n    constructor(string memory _tokenURIPrefix) HasTokenURI(_tokenURIPrefix) {\n\n    }\n\n    function uri(uint256 _id) external view override returns (string memory) {\n        return _tokenURI(_id);\n    }\n}\n",
  "sourcePath": "/home/ec2-user/test-contract/contracts/lib/contracts/ERC1155MetadataURI.sol",
  "compiler": {
    "name": "solc",
    "version": "0.8.10+commit.fc410830.Emscripten.clang"
  },
  "schemaVersion": "3.4.3",
  "updatedAt": "2021-12-04T11:19:58.354Z",
  "devdoc": {
    "kind": "dev",
    "methods": {
      "uri(uint256)": {
        "details": "URIs are defined in RFC 3986. The URI may point to a JSON file that conforms to the \"ERC-1155 Metadata URI JSON Schema\".",
        "returns": {
          "_0": "URI string"
        }
      }
    },
    "version": 1
  },
  "userdoc": {
    "kind": "user",
    "methods": {
      "uri(uint256)": {
        "notice": "A distinct Uniform Resource Identifier (URI) for a given token."
      }
    },
    "notice": "Note: The ERC-165 identifier for this interface is 0x0e89341c.",
    "version": 1
  }
}