{
  "contractName": "ERC721Base",
  "abi": [
    {
      "inputs": [
        {
          "internalType": "string",
          "name": "_name",
          "type": "string"
        },
        {
          "internalType": "string",
          "name": "_symbol",
          "type": "string"
        },
        {
          "internalType": "string",
          "name": "contractURI",
          "type": "string"
        },
        {
          "internalType": "string",
          "name": "_tokenURIPrefix",
          "type": "string"
        }
      ],
      "stateMutability": "nonpayable",
      "type": "constructor"
    },
    {
      "anonymous": false,
      "inputs": [
        {
          "indexed": true,
          "internalType": "address",
          "name": "owner",
          "type": "address"
        },
        {
          "indexed": true,
          "internalType": "address",
          "name": "approved",
          "type": "address"
        },
        {
          "indexed": true,
          "internalType": "uint256",
          "name": "tokenId",
          "type": "uint256"
        }
      ],
      "name": "Approval",
      "type": "event"
    },
    {
      "anonymous": false,
      "inputs": [
        {
          "indexed": true,
          "internalType": "address",
          "name": "owner",
          "type": "address"
        },
        {
          "indexed": true,
          "internalType": "address",
          "name": "operator",
          "type": "address"
        },
        {
          "indexed": false,
          "internalType": "bool",
          "name": "approved",
          "type": "bool"
        }
      ],
      "name": "ApprovalForAll",
      "type": "event"
    },
    {
      "anonymous": false,
      "inputs": [
        {
          "indexed": false,
          "internalType": "uint256",
          "name": "tokenId",
          "type": "uint256"
        },
        {
          "indexed": false,
          "internalType": "address[]",
          "name": "recipients",
          "type": "address[]"
        },
        {
          "indexed": false,
          "internalType": "uint256[]",
          "name": "bps",
          "type": "uint256[]"
        }
      ],
      "name": "SecondarySaleFees",
      "type": "event"
    },
    {
      "anonymous": false,
      "inputs": [
        {
          "indexed": true,
          "internalType": "address",
          "name": "from",
          "type": "address"
        },
        {
          "indexed": true,
          "internalType": "address",
          "name": "to",
          "type": "address"
        },
        {
          "indexed": true,
          "internalType": "uint256",
          "name": "tokenId",
          "type": "uint256"
        }
      ],
      "name": "Transfer",
      "type": "event"
    },
    {
      "inputs": [
        {
          "internalType": "address",
          "name": "to",
          "type": "address"
        },
        {
          "internalType": "uint256",
          "name": "tokenId",
          "type": "uint256"
        }
      ],
      "name": "approve",
      "outputs": [],
      "stateMutability": "nonpayable",
      "type": "function"
    },
    {
      "inputs": [
        {
          "internalType": "address",
          "name": "owner",
          "type": "address"
        }
      ],
      "name": "balanceOf",
      "outputs": [
        {
          "internalType": "uint256",
          "name": "",
          "type": "uint256"
        }
      ],
      "stateMutability": "view",
      "type": "function"
    },
    {
      "inputs": [],
      "name": "contractURI",
      "outputs": [
        {
          "internalType": "string",
          "name": "",
          "type": "string"
        }
      ],
      "stateMutability": "view",
      "type": "function"
    },
    {
      "inputs": [
        {
          "internalType": "uint256",
          "name": "",
          "type": "uint256"
        },
        {
          "internalType": "uint256",
          "name": "",
          "type": "uint256"
        }
      ],
      "name": "fees",
      "outputs": [
        {
          "internalType": "address payable",
          "name": "recipient",
          "type": "address"
        },
        {
          "internalType": "uint256",
          "name": "value",
          "type": "uint256"
        }
      ],
      "stateMutability": "view",
      "type": "function"
    },
    {
      "inputs": [
        {
          "internalType": "uint256",
          "name": "tokenId",
          "type": "uint256"
        }
      ],
      "name": "getApproved",
      "outputs": [
        {
          "internalType": "address",
          "name": "",
          "type": "address"
        }
      ],
      "stateMutability": "view",
      "type": "function"
    },
    {
      "inputs": [
        {
          "internalType": "address",
          "name": "owner",
          "type": "address"
        },
        {
          "internalType": "address",
          "name": "operator",
          "type": "address"
        }
      ],
      "name": "isApprovedForAll",
      "outputs": [
        {
          "internalType": "bool",
          "name": "",
          "type": "bool"
        }
      ],
      "stateMutability": "view",
      "type": "function"
    },
    {
      "inputs": [],
      "name": "name",
      "outputs": [
        {
          "internalType": "string",
          "name": "",
          "type": "string"
        }
      ],
      "stateMutability": "view",
      "type": "function"
    },
    {
      "inputs": [
        {
          "internalType": "uint256",
          "name": "tokenId",
          "type": "uint256"
        }
      ],
      "name": "ownerOf",
      "outputs": [
        {
          "internalType": "address",
          "name": "",
          "type": "address"
        }
      ],
      "stateMutability": "view",
      "type": "function"
    },
    {
      "inputs": [
        {
          "internalType": "address",
          "name": "from",
          "type": "address"
        },
        {
          "internalType": "address",
          "name": "to",
          "type": "address"
        },
        {
          "internalType": "uint256",
          "name": "tokenId",
          "type": "uint256"
        }
      ],
      "name": "safeTransferFrom",
      "outputs": [],
      "stateMutability": "nonpayable",
      "type": "function"
    },
    {
      "inputs": [
        {
          "internalType": "address",
          "name": "from",
          "type": "address"
        },
        {
          "internalType": "address",
          "name": "to",
          "type": "address"
        },
        {
          "internalType": "uint256",
          "name": "tokenId",
          "type": "uint256"
        },
        {
          "internalType": "bytes",
          "name": "_data",
          "type": "bytes"
        }
      ],
      "name": "safeTransferFrom",
      "outputs": [],
      "stateMutability": "nonpayable",
      "type": "function"
    },
    {
      "inputs": [
        {
          "internalType": "address",
          "name": "to",
          "type": "address"
        },
        {
          "internalType": "bool",
          "name": "approved",
          "type": "bool"
        }
      ],
      "name": "setApprovalForAll",
      "outputs": [],
      "stateMutability": "nonpayable",
      "type": "function"
    },
    {
      "inputs": [
        {
          "internalType": "bytes4",
          "name": "interfaceId",
          "type": "bytes4"
        }
      ],
      "name": "supportsInterface",
      "outputs": [
        {
          "internalType": "bool",
          "name": "",
          "type": "bool"
        }
      ],
      "stateMutability": "view",
      "type": "function"
    },
    {
      "inputs": [],
      "name": "symbol",
      "outputs": [
        {
          "internalType": "string",
          "name": "",
          "type": "string"
        }
      ],
      "stateMutability": "view",
      "type": "function"
    },
    {
      "inputs": [
        {
          "internalType": "uint256",
          "name": "index",
          "type": "uint256"
        }
      ],
      "name": "tokenByIndex",
      "outputs": [
        {
          "internalType": "uint256",
          "name": "",
          "type": "uint256"
        }
      ],
      "stateMutability": "view",
      "type": "function"
    },
    {
      "inputs": [
        {
          "internalType": "address",
          "name": "owner",
          "type": "address"
        },
        {
          "internalType": "uint256",
          "name": "index",
          "type": "uint256"
        }
      ],
      "name": "tokenOfOwnerByIndex",
      "outputs": [
        {
          "internalType": "uint256",
          "name": "",
          "type": "uint256"
        }
      ],
      "stateMutability": "view",
      "type": "function"
    },
    {
      "inputs": [],
      "name": "tokenURIPrefix",
      "outputs": [
        {
          "internalType": "string",
          "name": "",
          "type": "string"
        }
      ],
      "stateMutability": "view",
      "type": "function"
    },
    {
      "inputs": [],
      "name": "totalSupply",
      "outputs": [
        {
          "internalType": "uint256",
          "name": "",
          "type": "uint256"
        }
      ],
      "stateMutability": "view",
      "type": "function"
    },
    {
      "inputs": [
        {
          "internalType": "address",
          "name": "from",
          "type": "address"
        },
        {
          "internalType": "address",
          "name": "to",
          "type": "address"
        },
        {
          "internalType": "uint256",
          "name": "tokenId",
          "type": "uint256"
        }
      ],
      "name": "transferFrom",
      "outputs": [],
      "stateMutability": "nonpayable",
      "type": "function"
    },
    {
      "inputs": [
        {
          "internalType": "uint256",
          "name": "id",
          "type": "uint256"
        }
      ],
      "name": "getFeeRecipients",
      "outputs": [
        {
          "internalType": "address payable[]",
          "name": "",
          "type": "address[]"
        }
      ],
      "stateMutability": "view",
      "type": "function"
    },
    {
      "inputs": [
        {
          "internalType": "uint256",
          "name": "id",
          "type": "uint256"
        }
      ],
      "name": "getFeeBps",
      "outputs": [
        {
          "internalType": "uint256[]",
          "name": "",
          "type": "uint256[]"
        }
      ],
      "stateMutability": "view",
      "type": "function"
    },
    {
      "inputs": [
        {
          "internalType": "uint256",
          "name": "tokenId",
          "type": "uint256"
        }
      ],
      "name": "tokenURI",
      "outputs": [
        {
          "internalType": "string",
          "name": "",
          "type": "string"
        }
      ],
      "stateMutability": "view",
      "type": "function"
    },
    {
      "inputs": [
        {
          "internalType": "uint256",
          "name": "tokenId",
          "type": "uint256"
        }
      ],
      "name": "burn",
      "outputs": [],
      "stateMutability": "nonpayable",
      "type": "function"
    }
  ],
  "bytecode": "0x60806040523480156200001157600080fd5b5060405162003e6a38038062003e6a833981810160405281019062000037919062000476565b8082620000516301ffc9a760e01b6200015160201b60201c565b6200006963b779958460e01b6200015160201b60201c565b80600190805190602001906200008192919062000229565b506200009a63e8a3d48560e01b6200015160201b60201c565b508060029080519060200190620000b392919062000229565b5050620000cd6380ac58cd60e01b6200015160201b60201c565b620000e563780e9d6360e01b6200015160201b60201c565b83600c9080519060200190620000fd92919062000229565b5082600d90805190602001906200011692919062000229565b506200012f635b5e139f60e01b6200015160201b60201c565b6200014763150b7a0260e01b6200015160201b60201c565b505050506200064c565b63ffffffff60e01b817bffffffffffffffffffffffffffffffffffffffffffffffffffffffff19161415620001bd576040517f08c379a0000000000000000000000000000000000000000000000000000000008152600401620001b490620005c5565b60405180910390fd5b6001600080837bffffffffffffffffffffffffffffffffffffffffffffffffffffffff19167bffffffffffffffffffffffffffffffffffffffffffffffffffffffff1916815260200190815260200160002060006101000a81548160ff02191690831515021790555050565b828054620002379062000616565b90600052602060002090601f0160209004810192826200025b5760008555620002a7565b82601f106200027657805160ff1916838001178555620002a7565b82800160010185558215620002a7579182015b82811115620002a657825182559160200191906001019062000289565b5b509050620002b69190620002ba565b5090565b5b80821115620002d5576000816000905550600101620002bb565b5090565b6000604051905090565b600080fd5b600080fd5b600080fd5b600080fd5b6000601f19601f8301169050919050565b7f4e487b7100000000000000000000000000000000000000000000000000000000600052604160045260246000fd5b6200034282620002f7565b810181811067ffffffffffffffff8211171562000364576200036362000308565b5b80604052505050565b600062000379620002d9565b905062000387828262000337565b919050565b600067ffffffffffffffff821115620003aa57620003a962000308565b5b620003b582620002f7565b9050602081019050919050565b60005b83811015620003e2578082015181840152602081019050620003c5565b83811115620003f2576000848401525b50505050565b60006200040f62000409846200038c565b6200036d565b9050828152602081018484840111156200042e576200042d620002f2565b5b6200043b848285620003c2565b509392505050565b600082601f8301126200045b576200045a620002ed565b5b81516200046d848260208601620003f8565b91505092915050565b60008060008060808587031215620004935762000492620002e3565b5b600085015167ffffffffffffffff811115620004b457620004b3620002e8565b5b620004c28782880162000443565b945050602085015167ffffffffffffffff811115620004e657620004e5620002e8565b5b620004f48782880162000443565b935050604085015167ffffffffffffffff811115620005185762000517620002e8565b5b620005268782880162000443565b925050606085015167ffffffffffffffff8111156200054a5762000549620002e8565b5b620005588782880162000443565b91505092959194509250565b600082825260208201905092915050565b7f4552433136353a20696e76616c696420696e7465726661636520696400000000600082015250565b6000620005ad601c8362000564565b9150620005ba8262000575565b602082019050919050565b60006020820190508181036000830152620005e0816200059e565b9050919050565b7f4e487b7100000000000000000000000000000000000000000000000000000000600052602260045260246000fd5b600060028204905060018216806200062f57607f821691505b60208210811415620006465762000645620005e7565b5b50919050565b61380e806200065c6000396000f3fe608060405234801561001057600080fd5b50600436106101425760003560e01c80636308f1cd116100b8578063b88d4fde1161007c578063b88d4fde146103ae578063b9c4d9fb146103ca578063c0ac9983146103fa578063c87b56dd14610418578063e8a3d48514610448578063e985e9c51461046657610142565b80636308f1cd146102e35780636352211e1461031457806370a082311461034457806395d89b4114610374578063a22cb4651461039257610142565b806318160ddd1161010a57806318160ddd1461021157806323b872dd1461022f5780632f745c591461024b57806342842e0e1461027b57806342966c68146102975780634f6ccce7146102b357610142565b806301ffc9a71461014757806306fdde0314610177578063081812fc14610195578063095ea7b3146101c55780630ebd4c7f146101e1575b600080fd5b610161600480360381019061015c91906123da565b610496565b60405161016e9190612422565b60405180910390f35b61017f6104fd565b60405161018c91906124d6565b60405180910390f35b6101af60048036038101906101aa919061252e565b61058b565b6040516101bc919061259c565b60405180910390f35b6101df60048036038101906101da91906125e3565b610610565b005b6101fb60048036038101906101f6919061252e565b6107cb565b60405161020891906126e1565b60405180910390f35b610219610950565b6040516102269190612712565b60405180910390f35b6102496004803603810190610244919061272d565b61095d565b005b610265600480360381019061026091906125e3565b6109bd565b6040516102729190612712565b60405180910390f35b6102956004803603810190610290919061272d565b610a6d565b005b6102b160048036038101906102ac919061252e565b610a8d565b005b6102cd60048036038101906102c8919061252e565b610ae9565b6040516102da9190612712565b60405180910390f35b6102fd60048036038101906102f89190612780565b610b5a565b60405161030b9291906127e1565b60405180910390f35b61032e6004803603810190610329919061252e565b610bbb565b60405161033b919061259c565b60405180910390f35b61035e6004803603810190610359919061280a565b610c6d565b60405161036b9190612712565b60405180910390f35b61037c610d2c565b60405161038991906124d6565b60405180910390f35b6103ac60048036038101906103a79190612863565b610dba565b005b6103c860048036038101906103c391906129d8565b610f3b565b005b6103e460048036038101906103df919061252e565b610f9d565b6040516103f19190612b19565b60405180910390f35b610402611150565b60405161040f91906124d6565b60405180910390f35b610432600480360381019061042d919061252e565b6111de565b60405161043f91906124d6565b60405180910390f35b610450611238565b60405161045d91906124d6565b60405180910390f35b610480600480360381019061047b9190612b3b565b6112c6565b60405161048d9190612422565b60405180910390f35b6000806000837bffffffffffffffffffffffffffffffffffffffffffffffffffffffff19167bffffffffffffffffffffffffffffffffffffffffffffffffffffffff1916815260200190815260200160002060009054906101000a900460ff169050919050565b600c805461050a90612baa565b80601f016020809104026020016040519081016040528092919081815260200182805461053690612baa565b80156105835780601f1061055857610100808354040283529160200191610583565b820191906000526020600020905b81548152906001019060200180831161056657829003601f168201915b505050505081565b60006105968261135a565b6105d5576040517f08c379a00000000000000000000000000000000000000000000000000000000081526004016105cc90612c4e565b60405180910390fd5b6005600083815260200190815260200160002060009054906101000a900473ffffffffffffffffffffffffffffffffffffffff169050919050565b600061061b82610bbb565b90508073ffffffffffffffffffffffffffffffffffffffff168373ffffffffffffffffffffffffffffffffffffffff16141561068c576040517f08c379a000000000000000000000000000000000000000000000000000000000815260040161068390612ce0565b60405180910390fd5b8073ffffffffffffffffffffffffffffffffffffffff166106ab6113cc565b73ffffffffffffffffffffffffffffffffffffffff1614806106da57506106d9816106d46113cc565b6112c6565b5b610719576040517f08c379a000000000000000000000000000000000000000000000000000000000815260040161071090612d72565b60405180910390fd5b826005600084815260200190815260200160002060006101000a81548173ffffffffffffffffffffffffffffffffffffffff021916908373ffffffffffffffffffffffffffffffffffffffff160217905550818373ffffffffffffffffffffffffffffffffffffffff168273ffffffffffffffffffffffffffffffffffffffff167f8c5be1e5ebec7d5bd14f71427d1e84f3dd0314c0f7b2291e5b200ac8c7c3b92560405160405180910390a4505050565b60606000600e6000848152602001908152602001600020805480602002602001604051908101604052809291908181526020016000905b8282101561089457838290600052602060002090600202016040518060400160405290816000820160009054906101000a900473ffffffffffffffffffffffffffffffffffffffff1673ffffffffffffffffffffffffffffffffffffffff1673ffffffffffffffffffffffffffffffffffffffff16815260200160018201548152505081526020019060010190610802565b5050505090506000815167ffffffffffffffff8111156108b7576108b66128ad565b5b6040519080825280602002602001820160405280156108e55781602001602082028036833780820191505090505b50905060005b82518110156109455782818151811061090757610906612d92565b5b60200260200101516020015182828151811061092657610925612d92565b5b602002602001018181525050808061093d90612df0565b9150506108eb565b508092505050919050565b6000600a80549050905090565b61096e6109686113cc565b826113d4565b6109ad576040517f08c379a00000000000000000000000000000000000000000000000000000000081526004016109a490612eab565b60405180910390fd5b6109b88383836114b2565b505050565b60006109c883610c6d565b8210610a09576040517f08c379a0000000000000000000000000000000000000000000000000000000008152600401610a0090612f3d565b60405180910390fd5b600860008473ffffffffffffffffffffffffffffffffffffffff1673ffffffffffffffffffffffffffffffffffffffff1681526020019081526020016000208281548110610a5a57610a59612d92565b5b9060005260206000200154905092915050565b610a8883838360405180602001604052806000815250610f3b565b505050565b610a9e610a986113cc565b826113d4565b610add576040517f08c379a0000000000000000000000000000000000000000000000000000000008152600401610ad490612fcf565b60405180910390fd5b610ae6816114d6565b50565b6000610af3610950565b8210610b34576040517f08c379a0000000000000000000000000000000000000000000000000000000008152600401610b2b90613061565b60405180910390fd5b600a8281548110610b4857610b47612d92565b5b90600052602060002001549050919050565b600e6020528160005260406000208181548110610b7657600080fd5b9060005260206000209060020201600091509150508060000160009054906101000a900473ffffffffffffffffffffffffffffffffffffffff16908060010154905082565b6000806004600084815260200190815260200160002060009054906101000a900473ffffffffffffffffffffffffffffffffffffffff169050600073ffffffffffffffffffffffffffffffffffffffff168173ffffffffffffffffffffffffffffffffffffffff161415610c64576040517f08c379a0000000000000000000000000000000000000000000000000000000008152600401610c5b906130f3565b60405180910390fd5b80915050919050565b60008073ffffffffffffffffffffffffffffffffffffffff168273ffffffffffffffffffffffffffffffffffffffff161415610cde576040517f08c379a0000000000000000000000000000000000000000000000000000000008152600401610cd590613185565b60405180910390fd5b610d25600660008473ffffffffffffffffffffffffffffffffffffffff1673ffffffffffffffffffffffffffffffffffffffff1681526020019081526020016000206114eb565b9050919050565b600d8054610d3990612baa565b80601f0160208091040260200160405190810160405280929190818152602001828054610d6590612baa565b8015610db25780601f10610d8757610100808354040283529160200191610db2565b820191906000526020600020905b815481529060010190602001808311610d9557829003601f168201915b505050505081565b610dc26113cc565b73ffffffffffffffffffffffffffffffffffffffff168273ffffffffffffffffffffffffffffffffffffffff161415610e30576040517f08c379a0000000000000000000000000000000000000000000000000000000008152600401610e27906131f1565b60405180910390fd5b8060076000610e3d6113cc565b73ffffffffffffffffffffffffffffffffffffffff1673ffffffffffffffffffffffffffffffffffffffff16815260200190815260200160002060008473ffffffffffffffffffffffffffffffffffffffff1673ffffffffffffffffffffffffffffffffffffffff16815260200190815260200160002060006101000a81548160ff0219169083151502179055508173ffffffffffffffffffffffffffffffffffffffff16610eea6113cc565b73ffffffffffffffffffffffffffffffffffffffff167f17307eab39ab6107e8899845ad3d59bd9653f200f220920489ca2b5937696c3183604051610f2f9190612422565b60405180910390a35050565b610f4c610f466113cc565b836113d4565b610f8b576040517f08c379a0000000000000000000000000000000000000000000000000000000008152600401610f8290612eab565b60405180910390fd5b610f97848484846114f9565b50505050565b60606000600e6000848152602001908152602001600020805480602002602001604051908101604052809291908181526020016000905b8282101561106657838290600052602060002090600202016040518060400160405290816000820160009054906101000a900473ffffffffffffffffffffffffffffffffffffffff1673ffffffffffffffffffffffffffffffffffffffff1673ffffffffffffffffffffffffffffffffffffffff16815260200160018201548152505081526020019060010190610fd4565b5050505090506000815167ffffffffffffffff811115611089576110886128ad565b5b6040519080825280602002602001820160405280156110b75781602001602082028036833780820191505090505b50905060005b8251811015611145578281815181106110d9576110d8612d92565b5b6020026020010151600001518282815181106110f8576110f7612d92565b5b602002602001019073ffffffffffffffffffffffffffffffffffffffff16908173ffffffffffffffffffffffffffffffffffffffff1681525050808061113d90612df0565b9150506110bd565b508092505050919050565b6002805461115d90612baa565b80601f016020809104026020016040519081016040528092919081815260200182805461118990612baa565b80156111d65780601f106111ab576101008083540402835291602001916111d6565b820191906000526020600020905b8154815290600101906020018083116111b957829003601f168201915b505050505081565b60606111e98261135a565b611228576040517f08c379a000000000000000000000000000000000000000000000000000000000815260040161121f90613283565b60405180910390fd5b61123182611555565b9050919050565b6001805461124590612baa565b80601f016020809104026020016040519081016040528092919081815260200182805461127190612baa565b80156112be5780601f10611293576101008083540402835291602001916112be565b820191906000526020600020905b8154815290600101906020018083116112a157829003601f168201915b505050505081565b6000600760008473ffffffffffffffffffffffffffffffffffffffff1673ffffffffffffffffffffffffffffffffffffffff16815260200190815260200160002060008373ffffffffffffffffffffffffffffffffffffffff1673ffffffffffffffffffffffffffffffffffffffff16815260200190815260200160002060009054906101000a900460ff16905092915050565b6000806004600084815260200190815260200160002060009054906101000a900473ffffffffffffffffffffffffffffffffffffffff169050600073ffffffffffffffffffffffffffffffffffffffff168173ffffffffffffffffffffffffffffffffffffffff161415915050919050565b600033905090565b60006113df8261135a565b61141e576040517f08c379a000000000000000000000000000000000000000000000000000000000815260040161141590613315565b60405180910390fd5b600061142983610bbb565b90508073ffffffffffffffffffffffffffffffffffffffff168473ffffffffffffffffffffffffffffffffffffffff16148061149857508373ffffffffffffffffffffffffffffffffffffffff166114808461058b565b73ffffffffffffffffffffffffffffffffffffffff16145b806114a957506114a881856112c6565b5b91505092915050565b6114bd838383611696565b6114c783826118c5565b6114d18282611a83565b505050565b6114e86114e282610bbb565b82611b47565b50565b600081600001549050919050565b6115048484846114b2565b61151084848484611b5e565b61154f576040517f08c379a0000000000000000000000000000000000000000000000000000000008152600401611546906133a7565b60405180910390fd5b50505050565b606061168f60036000848152602001908152602001600020805461157890612baa565b80601f01602080910402602001604051908101604052809291908181526020018280546115a490612baa565b80156115f15780601f106115c6576101008083540402835291602001916115f1565b820191906000526020600020905b8154815290600101906020018083116115d457829003601f168201915b50505050506002805461160390612baa565b80601f016020809104026020016040519081016040528092919081815260200182805461162f90612baa565b801561167c5780601f106116515761010080835404028352916020019161167c565b820191906000526020600020905b81548152906001019060200180831161165f57829003601f168201915b5050505050611d3e90919063ffffffff16565b9050919050565b8273ffffffffffffffffffffffffffffffffffffffff166116b682610bbb565b73ffffffffffffffffffffffffffffffffffffffff161461170c576040517f08c379a000000000000000000000000000000000000000000000000000000000815260040161170390613439565b60405180910390fd5b600073ffffffffffffffffffffffffffffffffffffffff168273ffffffffffffffffffffffffffffffffffffffff16141561177c576040517f08c379a0000000000000000000000000000000000000000000000000000000008152600401611773906134cb565b60405180910390fd5b61178581611ece565b6117cc600660008573ffffffffffffffffffffffffffffffffffffffff1673ffffffffffffffffffffffffffffffffffffffff168152602001908152602001600020611f8c565b611813600660008473ffffffffffffffffffffffffffffffffffffffff1673ffffffffffffffffffffffffffffffffffffffff168152602001908152602001600020611faf565b816004600083815260200190815260200160002060006101000a81548173ffffffffffffffffffffffffffffffffffffffff021916908373ffffffffffffffffffffffffffffffffffffffff160217905550808273ffffffffffffffffffffffffffffffffffffffff168473ffffffffffffffffffffffffffffffffffffffff167fddf252ad1be2c89b69c2b068fc378daa952ba7f163c4a11628f55a4df523b3ef60405160405180910390a4505050565b600061191d6001600860008673ffffffffffffffffffffffffffffffffffffffff1673ffffffffffffffffffffffffffffffffffffffff16815260200190815260200160002080549050611fce90919063ffffffff16565b9050600060096000848152602001908152602001600020549050818114611a18576000600860008673ffffffffffffffffffffffffffffffffffffffff1673ffffffffffffffffffffffffffffffffffffffff168152602001908152602001600020838154811061199157611990612d92565b5b9060005260206000200154905080600860008773ffffffffffffffffffffffffffffffffffffffff1673ffffffffffffffffffffffffffffffffffffffff16815260200190815260200160002083815481106119f0576119ef612d92565b5b9060005260206000200181905550816009600083815260200190815260200160002081905550505b600860008573ffffffffffffffffffffffffffffffffffffffff1673ffffffffffffffffffffffffffffffffffffffff168152602001908152602001600020805480611a6757611a666134eb565b5b6001900381819060005260206000200160009055905550505050565b600860008373ffffffffffffffffffffffffffffffffffffffff1673ffffffffffffffffffffffffffffffffffffffff168152602001908152602001600020805490506009600083815260200190815260200160002081905550600860008373ffffffffffffffffffffffffffffffffffffffff1673ffffffffffffffffffffffffffffffffffffffff1681526020019081526020016000208190806001815401808255809150506001900390600052602060002001600090919091909150555050565b611b518282612027565b611b5a81612061565b5050565b6000611b7f8473ffffffffffffffffffffffffffffffffffffffff166120ab565b611b8c5760019050611d36565b6000808573ffffffffffffffffffffffffffffffffffffffff1663150b7a0260e01b611bb66113cc565b898888604051602401611bcc949392919061356f565b604051602081830303815290604052907bffffffffffffffffffffffffffffffffffffffffffffffffffffffff19166020820180517bffffffffffffffffffffffffffffffffffffffffffffffffffffffff8381831617835250505050604051611c3691906135f7565b6000604051808303816000865af19150503d8060008114611c73576040519150601f19603f3d011682016040523d82523d6000602084013e611c78565b606091505b509150915081611cd057600081511115611c955780518082602001fd5b6040517f08c379a0000000000000000000000000000000000000000000000000000000008152600401611cc7906133a7565b60405180910390fd5b600081806020019051810190611ce69190613623565b905063150b7a0260e01b7bffffffffffffffffffffffffffffffffffffffffffffffffffffffff1916817bffffffffffffffffffffffffffffffffffffffffffffffffffffffff19161493505050505b949350505050565b606060008390506000839050600081518351611d5a9190613650565b67ffffffffffffffff811115611d7357611d726128ad565b5b6040519080825280601f01601f191660200182016040528015611da55781602001600182028036833780820191505090505b5090506000805b8451811015611e3457848181518110611dc857611dc7612d92565b5b602001015160f81c60f81b838380611ddf90612df0565b945081518110611df257611df1612d92565b5b60200101907effffffffffffffffffffffffffffffffffffffffffffffffffffffffffffff1916908160001a9053508080611e2c90612df0565b915050611dac565b5060005b8351811015611ec057838181518110611e5457611e53612d92565b5b602001015160f81c60f81b838380611e6b90612df0565b945081518110611e7e57611e7d612d92565b5b60200101907effffffffffffffffffffffffffffffffffffffffffffffffffffffffffffff1916908160001a9053508080611eb890612df0565b915050611e38565b508194505050505092915050565b600073ffffffffffffffffffffffffffffffffffffffff166005600083815260200190815260200160002060009054906101000a900473ffffffffffffffffffffffffffffffffffffffff1673ffffffffffffffffffffffffffffffffffffffff1614611f895760006005600083815260200190815260200160002060006101000a81548173ffffffffffffffffffffffffffffffffffffffff021916908373ffffffffffffffffffffffffffffffffffffffff1602179055505b50565b611fa460018260000154611fce90919063ffffffff16565b816000018190555050565b6001816000016000828254611fc49190613650565b9250508190555050565b600082821115612013576040517f08c379a000000000000000000000000000000000000000000000000000000000815260040161200a906136f2565b60405180910390fd5b818361201f9190613712565b905092915050565b61203182826120be565b61203b82826118c5565b6000600960008381526020019081526020016000208190555061205d81612237565b5050565b600060036000838152602001908152602001600020805461208190612baa565b9050146120a8576003600082815260200190815260200160002060006120a79190612311565b5b50565b600080823b905060008111915050919050565b8173ffffffffffffffffffffffffffffffffffffffff166120de82610bbb565b73ffffffffffffffffffffffffffffffffffffffff1614612134576040517f08c379a000000000000000000000000000000000000000000000000000000000815260040161212b906137b8565b60405180910390fd5b61213d81611ece565b612184600660008473ffffffffffffffffffffffffffffffffffffffff1673ffffffffffffffffffffffffffffffffffffffff168152602001908152602001600020611f8c565b60006004600083815260200190815260200160002060006101000a81548173ffffffffffffffffffffffffffffffffffffffff021916908373ffffffffffffffffffffffffffffffffffffffff16021790555080600073ffffffffffffffffffffffffffffffffffffffff168373ffffffffffffffffffffffffffffffffffffffff167fddf252ad1be2c89b69c2b068fc378daa952ba7f163c4a11628f55a4df523b3ef60405160405180910390a45050565b60006122526001600a80549050611fce90919063ffffffff16565b90506000600b60008481526020019081526020016000205490506000600a838154811061228257612281612d92565b5b9060005260206000200154905080600a83815481106122a4576122a3612d92565b5b906000526020600020018190555081600b600083815260200190815260200160002081905550600a8054806122dc576122db6134eb565b5b600190038181906000526020600020016000905590556000600b60008681526020019081526020016000208190555050505050565b50805461231d90612baa565b6000825580601f1061232f575061234e565b601f01602090049060005260206000209081019061234d9190612351565b5b50565b5b8082111561236a576000816000905550600101612352565b5090565b6000604051905090565b600080fd5b600080fd5b60007fffffffff0000000000000000000000000000000000000000000000000000000082169050919050565b6123b781612382565b81146123c257600080fd5b50565b6000813590506123d4816123ae565b92915050565b6000602082840312156123f0576123ef612378565b5b60006123fe848285016123c5565b91505092915050565b60008115159050919050565b61241c81612407565b82525050565b60006020820190506124376000830184612413565b92915050565b600081519050919050565b600082825260208201905092915050565b60005b8381101561247757808201518184015260208101905061245c565b83811115612486576000848401525b50505050565b6000601f19601f8301169050919050565b60006124a88261243d565b6124b28185612448565b93506124c2818560208601612459565b6124cb8161248c565b840191505092915050565b600060208201905081810360008301526124f0818461249d565b905092915050565b6000819050919050565b61250b816124f8565b811461251657600080fd5b50565b60008135905061252881612502565b92915050565b60006020828403121561254457612543612378565b5b600061255284828501612519565b91505092915050565b600073ffffffffffffffffffffffffffffffffffffffff82169050919050565b60006125868261255b565b9050919050565b6125968161257b565b82525050565b60006020820190506125b1600083018461258d565b92915050565b6125c08161257b565b81146125cb57600080fd5b50565b6000813590506125dd816125b7565b92915050565b600080604083850312156125fa576125f9612378565b5b6000612608858286016125ce565b925050602061261985828601612519565b9150509250929050565b600081519050919050565b600082825260208201905092915050565b6000819050602082019050919050565b612658816124f8565b82525050565b600061266a838361264f565b60208301905092915050565b6000602082019050919050565b600061268e82612623565b612698818561262e565b93506126a38361263f565b8060005b838110156126d45781516126bb888261265e565b97506126c683612676565b9250506001810190506126a7565b5085935050505092915050565b600060208201905081810360008301526126fb8184612683565b905092915050565b61270c816124f8565b82525050565b60006020820190506127276000830184612703565b92915050565b60008060006060848603121561274657612745612378565b5b6000612754868287016125ce565b9350506020612765868287016125ce565b925050604061277686828701612519565b9150509250925092565b6000806040838503121561279757612796612378565b5b60006127a585828601612519565b92505060206127b685828601612519565b9150509250929050565b60006127cb8261255b565b9050919050565b6127db816127c0565b82525050565b60006040820190506127f660008301856127d2565b6128036020830184612703565b9392505050565b6000602082840312156128205761281f612378565b5b600061282e848285016125ce565b91505092915050565b61284081612407565b811461284b57600080fd5b50565b60008135905061285d81612837565b92915050565b6000806040838503121561287a57612879612378565b5b6000612888858286016125ce565b92505060206128998582860161284e565b9150509250929050565b600080fd5b600080fd5b7f4e487b7100000000000000000000000000000000000000000000000000000000600052604160045260246000fd5b6128e58261248c565b810181811067ffffffffffffffff82111715612904576129036128ad565b5b80604052505050565b600061291761236e565b905061292382826128dc565b919050565b600067ffffffffffffffff821115612943576129426128ad565b5b61294c8261248c565b9050602081019050919050565b82818337600083830152505050565b600061297b61297684612928565b61290d565b905082815260208101848484011115612997576129966128a8565b5b6129a2848285612959565b509392505050565b600082601f8301126129bf576129be6128a3565b5b81356129cf848260208601612968565b91505092915050565b600080600080608085870312156129f2576129f1612378565b5b6000612a00878288016125ce565b9450506020612a11878288016125ce565b9350506040612a2287828801612519565b925050606085013567ffffffffffffffff811115612a4357612a4261237d565b5b612a4f878288016129aa565b91505092959194509250565b600081519050919050565b600082825260208201905092915050565b6000819050602082019050919050565b612a90816127c0565b82525050565b6000612aa28383612a87565b60208301905092915050565b6000602082019050919050565b6000612ac682612a5b565b612ad08185612a66565b9350612adb83612a77565b8060005b83811015612b0c578151612af38882612a96565b9750612afe83612aae565b925050600181019050612adf565b5085935050505092915050565b60006020820190508181036000830152612b338184612abb565b905092915050565b60008060408385031215612b5257612b51612378565b5b6000612b60858286016125ce565b9250506020612b71858286016125ce565b9150509250929050565b7f4e487b7100000000000000000000000000000000000000000000000000000000600052602260045260246000fd5b60006002820490506001821680612bc257607f821691505b60208210811415612bd657612bd5612b7b565b5b50919050565b7f4552433732313a20617070726f76656420717565727920666f72206e6f6e657860008201527f697374656e7420746f6b656e0000000000000000000000000000000000000000602082015250565b6000612c38602c83612448565b9150612c4382612bdc565b604082019050919050565b60006020820190508181036000830152612c6781612c2b565b9050919050565b7f4552433732313a20617070726f76616c20746f2063757272656e74206f776e6560008201527f7200000000000000000000000000000000000000000000000000000000000000602082015250565b6000612cca602183612448565b9150612cd582612c6e565b604082019050919050565b60006020820190508181036000830152612cf981612cbd565b9050919050565b7f4552433732313a20617070726f76652063616c6c6572206973206e6f74206f7760008201527f6e6572206e6f7220617070726f76656420666f7220616c6c0000000000000000602082015250565b6000612d5c603883612448565b9150612d6782612d00565b604082019050919050565b60006020820190508181036000830152612d8b81612d4f565b9050919050565b7f4e487b7100000000000000000000000000000000000000000000000000000000600052603260045260246000fd5b7f4e487b7100000000000000000000000000000000000000000000000000000000600052601160045260246000fd5b6000612dfb826124f8565b91507fffffffffffffffffffffffffffffffffffffffffffffffffffffffffffffffff821415612e2e57612e2d612dc1565b5b600182019050919050565b7f4552433732313a207472616e736665722063616c6c6572206973206e6f74206f60008201527f776e6572206e6f7220617070726f766564000000000000000000000000000000602082015250565b6000612e95603183612448565b9150612ea082612e39565b604082019050919050565b60006020820190508181036000830152612ec481612e88565b9050919050565b7f455243373231456e756d657261626c653a206f776e657220696e646578206f7560008201527f74206f6620626f756e6473000000000000000000000000000000000000000000602082015250565b6000612f27602b83612448565b9150612f3282612ecb565b604082019050919050565b60006020820190508181036000830152612f5681612f1a565b9050919050565b7f4552433732314275726e61626c653a2063616c6c6572206973206e6f74206f7760008201527f6e6572206e6f7220617070726f76656400000000000000000000000000000000602082015250565b6000612fb9603083612448565b9150612fc482612f5d565b604082019050919050565b60006020820190508181036000830152612fe881612fac565b9050919050565b7f455243373231456e756d657261626c653a20676c6f62616c20696e646578206f60008201527f7574206f6620626f756e64730000000000000000000000000000000000000000602082015250565b600061304b602c83612448565b915061305682612fef565b604082019050919050565b6000602082019050818103600083015261307a8161303e565b9050919050565b7f4552433732313a206f776e657220717565727920666f72206e6f6e657869737460008201527f656e7420746f6b656e0000000000000000000000000000000000000000000000602082015250565b60006130dd602983612448565b91506130e882613081565b604082019050919050565b6000602082019050818103600083015261310c816130d0565b9050919050565b7f4552433732313a2062616c616e636520717565727920666f7220746865207a6560008201527f726f206164647265737300000000000000000000000000000000000000000000602082015250565b600061316f602a83612448565b915061317a82613113565b604082019050919050565b6000602082019050818103600083015261319e81613162565b9050919050565b7f4552433732313a20617070726f766520746f2063616c6c657200000000000000600082015250565b60006131db601983612448565b91506131e6826131a5565b602082019050919050565b6000602082019050818103600083015261320a816131ce565b9050919050565b7f4552433732314d657461646174613a2055524920717565727920666f72206e6f60008201527f6e6578697374656e7420746f6b656e0000000000000000000000000000000000602082015250565b600061326d602f83612448565b915061327882613211565b604082019050919050565b6000602082019050818103600083015261329c81613260565b9050919050565b7f4552433732313a206f70657261746f7220717565727920666f72206e6f6e657860008201527f697374656e7420746f6b656e0000000000000000000000000000000000000000602082015250565b60006132ff602c83612448565b915061330a826132a3565b604082019050919050565b6000602082019050818103600083015261332e816132f2565b9050919050565b7f4552433732313a207472616e7366657220746f206e6f6e20455243373231526560008201527f63656976657220696d706c656d656e7465720000000000000000000000000000602082015250565b6000613391603283612448565b915061339c82613335565b604082019050919050565b600060208201905081810360008301526133c081613384565b9050919050565b7f4552433732313a207472616e73666572206f6620746f6b656e2074686174206960008201527f73206e6f74206f776e0000000000000000000000000000000000000000000000602082015250565b6000613423602983612448565b915061342e826133c7565b604082019050919050565b6000602082019050818103600083015261345281613416565b9050919050565b7f4552433732313a207472616e7366657220746f20746865207a65726f2061646460008201527f7265737300000000000000000000000000000000000000000000000000000000602082015250565b60006134b5602483612448565b91506134c082613459565b604082019050919050565b600060208201905081810360008301526134e4816134a8565b9050919050565b7f4e487b7100000000000000000000000000000000000000000000000000000000600052603160045260246000fd5b600081519050919050565b600082825260208201905092915050565b60006135418261351a565b61354b8185613525565b935061355b818560208601612459565b6135648161248c565b840191505092915050565b6000608082019050613584600083018761258d565b613591602083018661258d565b61359e6040830185612703565b81810360608301526135b08184613536565b905095945050505050565b600081905092915050565b60006135d18261351a565b6135db81856135bb565b93506135eb818560208601612459565b80840191505092915050565b600061360382846135c6565b915081905092915050565b60008151905061361d816123ae565b92915050565b60006020828403121561363957613638612378565b5b60006136478482850161360e565b91505092915050565b600061365b826124f8565b9150613666836124f8565b9250827fffffffffffffffffffffffffffffffffffffffffffffffffffffffffffffffff0382111561369b5761369a612dc1565b5b828201905092915050565b7f536166654d6174683a207375627472616374696f6e206f766572666c6f770000600082015250565b60006136dc601e83612448565b91506136e7826136a6565b602082019050919050565b6000602082019050818103600083015261370b816136cf565b9050919050565b600061371d826124f8565b9150613728836124f8565b92508282101561373b5761373a612dc1565b5b828203905092915050565b7f4552433732313a206275726e206f6620746f6b656e2074686174206973206e6f60008201527f74206f776e000000000000000000000000000000000000000000000000000000602082015250565b60006137a2602583612448565b91506137ad82613746565b604082019050919050565b600060208201905081810360008301526137d181613795565b905091905056fea26469706673582212203b654a1fc9470055304bccec1bce4b4c1ca94c7a1191f35a775e24209c1d41cb64736f6c634300080a0033",
  "immutableReferences": {},
  "source": "// SPDX-License-Identifier: MIT\npragma solidity >=0.4.22 <0.9.0;\npragma experimental ABIEncoderV2;\n\nimport \"./HasSecondarySaleFees.sol\";\nimport \"./HasTokenURI.sol\";\nimport \"./HasContractURI.sol\";\nimport \"./ERC721Enumerable.sol\";\n\n/**\n * @title Full ERC721 Token with support for tokenURIPrefix\n * This implementation includes all the required and some optional functionality of the ERC721 standard\n * Moreover, it includes approve all functionality using operator terminology\n * @dev see https://eips.ethereum.org/EIPS/eip-721\n */\ncontract ERC721Base is HasSecondarySaleFees, HasContractURI, HasTokenURI, ERC721Enumerable {\n    // Token name\n    string public name;\n\n    // Token symbol\n    string public symbol;\n\n    struct Fee {\n        address payable recipient;\n        uint256 value;\n    }\n\n    // id => fees\n    mapping (uint256 => Fee[]) public fees;\n\n    /*\n     *     bytes4(keccak256('name()')) == 0x06fdde03\n     *     bytes4(keccak256('symbol()')) == 0x95d89b41\n     *     bytes4(keccak256('tokenURI(uint256)')) == 0xc87b56dd\n     *\n     *     => 0x06fdde03 ^ 0x95d89b41 ^ 0xc87b56dd == 0x5b5e139f\n     */\n    bytes4 private constant _INTERFACE_ID_ERC721_METADATA = 0x5b5e139f;\n\n    bytes4 private constant _ERC721_RECEIVED = 0x150b7a02;\n\n\n    /**\n     * @dev Constructor function\n     */\n    constructor (string memory _name, string memory _symbol, string memory contractURI, string memory _tokenURIPrefix) HasContractURI(contractURI) HasTokenURI(_tokenURIPrefix) {\n        name = _name;\n        symbol = _symbol;\n\n        // register the supported interfaces to conform to ERC721 via ERC165\n        _registerInterface(_INTERFACE_ID_ERC721_METADATA);\n        _registerInterface(_ERC721_RECEIVED);\n    }\n\n    function getFeeRecipients(uint256 id) public view override returns (address payable[] memory) {\n        Fee[] memory _fees = fees[id];\n        address payable[] memory result = new address payable[](_fees.length);\n        for (uint i = 0; i < _fees.length; i++) {\n            result[i] = _fees[i].recipient;\n        }\n        return result;\n    }\n\n    function getFeeBps(uint256 id) public view override returns (uint[] memory) {\n        Fee[] memory _fees = fees[id];\n        uint[] memory result = new uint[](_fees.length);\n        for (uint i = 0; i < _fees.length; i++) {\n            result[i] = _fees[i].value;\n        }\n        return result;\n    }\n\n    function _mint(address to, uint256 tokenId, Fee[] memory _fees) internal {\n        _mint(to, tokenId);\n        address[] memory recipients = new address[](_fees.length);\n        uint[] memory bps = new uint[](_fees.length);\n        for (uint i = 0; i < _fees.length; i++) {\n            require(_fees[i].recipient != address(0x0), \"Recipient  be present\");\n            require(_fees[i].value != 0, \"Fee value  be positive\");\n            fees[tokenId].push(_fees[i]);\n            recipients[i] = _fees[i].recipient;\n            bps[i] = _fees[i].value;\n        }\n        if (_fees.length > 0) {\n            emit SecondarySaleFees(tokenId, recipients, bps);\n        }\n    }\n\n    /**\n     * @dev Returns an URI for a given token ID.\n     * Throws if the token ID does not exist. May return an empty string.\n     * @param tokenId uint256 ID of the token to query\n     */\n    function tokenURI(uint256 tokenId) external view returns (string memory) {\n        require(_exists(tokenId), \"ERC721Metadata: URI query for nonexistent token\");\n        return super._tokenURI(tokenId);\n    }\n\n    /**\n     * @dev Internal function to set the token URI for a given token.\n     * Reverts if the token ID does not exist.\n     * @param tokenId uint256 ID of the token to set its URI\n     * @param uri string URI to assign\n     */\n    function _setTokenURI(uint256 tokenId, string memory uri) internal override {\n        require(_exists(tokenId), \"ERC721Metadata: URI set of nonexistent token\");\n        super._setTokenURI(tokenId, uri);\n    }\n\n    /**\n     * @dev Internal function to burn a specific token.\n     * Reverts if the token does not exist.\n     * Deprecated, use _burn(uint256) instead.\n     * @param owner owner of the token to burn\n     * @param tokenId uint256 ID of the token being burned by the msg.sender\n     */\n    function _burn(address owner, uint256 tokenId) internal override {\n        super._burn(owner, tokenId);\n        _clearTokenURI(tokenId);\n    }\n\n    /**\n     * @dev Burns a specific ERC721 token.\n     * @param tokenId uint256 id of the ERC721 token to be burned.\n     */\n    function burn(uint256 tokenId) public {\n        //solhint-disable-next-line max-line-length\n        require(_isApprovedOrOwner(_msgSender(), tokenId), \"ERC721Burnable: caller is not owner nor approved\");\n        _burn(tokenId);\n    }\n}\n",
  "sourcePath": "/home/ec2-user/test-contract/contracts/lib/contracts/ERC721Base.sol",
  "compiler": {
    "name": "solc",
    "version": "0.8.10+commit.fc410830.Emscripten.clang"
  },
  "schemaVersion": "3.4.3",
  "updatedAt": "2021-12-04T11:19:58.371Z",
  "devdoc": {
    "details": "see https://eips.ethereum.org/EIPS/eip-721",
    "kind": "dev",
    "methods": {
      "approve(address,uint256)": {
        "details": "Approves another address to transfer the given token ID The zero address indicates there is no approved address. There can only be one approved address per token at a given time. Can only be called by the token owner or an approved operator.",
        "params": {
          "to": "address to be approved for the given token ID",
          "tokenId": "uint256 ID of the token to be approved"
        }
      },
      "balanceOf(address)": {
        "details": "Gets the balance of the specified address.",
        "params": {
          "owner": "address to query the balance of"
        },
        "returns": {
          "_0": "uint256 representing the amount owned by the passed address"
        }
      },
      "burn(uint256)": {
        "details": "Burns a specific ERC721 token.",
        "params": {
          "tokenId": "uint256 id of the ERC721 token to be burned."
        }
      },
      "constructor": {
        "details": "Constructor function"
      },
      "getApproved(uint256)": {
        "details": "Gets the approved address for a token ID, or zero if no address set Reverts if the token ID does not exist.",
        "params": {
          "tokenId": "uint256 ID of the token to query the approval of"
        },
        "returns": {
          "_0": "address currently approved for the given token ID"
        }
      },
      "isApprovedForAll(address,address)": {
        "details": "Tells whether an operator is approved by a given owner.",
        "params": {
          "operator": "operator address which you want to query the approval of",
          "owner": "owner address which you want to query the approval of"
        },
        "returns": {
          "_0": "bool whether the given operator is approved by the given owner"
        }
      },
      "ownerOf(uint256)": {
        "details": "Gets the owner of the specified token ID.",
        "params": {
          "tokenId": "uint256 ID of the token to query the owner of"
        },
        "returns": {
          "_0": "address currently marked as the owner of the given token ID"
        }
      },
      "safeTransferFrom(address,address,uint256)": {
        "details": "Safely transfers the ownership of a given token ID to another address If the target address is a contract, it must implement {IERC721Receiver-onERC721Received}, which is called upon a safe transfer, and return the magic value `bytes4(keccak256(\"onERC721Received(address,address,uint256,bytes)\"))`; otherwise, the transfer is reverted. Requires the msg.sender to be the owner, approved, or operator",
        "params": {
          "from": "current owner of the token",
          "to": "address to receive the ownership of the given token ID",
          "tokenId": "uint256 ID of the token to be transferred"
        }
      },
      "safeTransferFrom(address,address,uint256,bytes)": {
        "details": "Safely transfers the ownership of a given token ID to another address If the target address is a contract, it must implement {IERC721Receiver-onERC721Received}, which is called upon a safe transfer, and return the magic value `bytes4(keccak256(\"onERC721Received(address,address,uint256,bytes)\"))`; otherwise, the transfer is reverted. Requires the _msgSender() to be the owner, approved, or operator",
        "params": {
          "_data": "bytes data to send along with a safe transfer check",
          "from": "current owner of the token",
          "to": "address to receive the ownership of the given token ID",
          "tokenId": "uint256 ID of the token to be transferred"
        }
      },
      "setApprovalForAll(address,bool)": {
        "details": "Sets or unsets the approval of a given operator An operator is allowed to transfer all tokens of the sender on their behalf.",
        "params": {
          "approved": "representing the status of the approval to be set",
          "to": "operator address to set the approval"
        }
      },
      "supportsInterface(bytes4)": {
        "details": "See {IERC165-supportsInterface}. Time complexity O(1), guaranteed to always use less than 30 000 gas."
      },
      "tokenByIndex(uint256)": {
        "details": "Gets the token ID at a given index of all the tokens in this contract Reverts if the index is greater or equal to the total number of tokens.",
        "params": {
          "index": "uint256 representing the index to be accessed of the tokens list"
        },
        "returns": {
          "_0": "uint256 token ID at the given index of the tokens list"
        }
      },
      "tokenOfOwnerByIndex(address,uint256)": {
        "details": "Gets the token ID at a given index of the tokens list of the requested owner.",
        "params": {
          "index": "uint256 representing the index to be accessed of the requested tokens list",
          "owner": "address owning the tokens list to be accessed"
        },
        "returns": {
          "_0": "uint256 token ID at the given index of the tokens list owned by the requested address"
        }
      },
      "tokenURI(uint256)": {
        "details": "Returns an URI for a given token ID. Throws if the token ID does not exist. May return an empty string.",
        "params": {
          "tokenId": "uint256 ID of the token to query"
        }
      },
      "totalSupply()": {
        "details": "Gets the total amount of tokens stored by the contract.",
        "returns": {
          "_0": "uint256 representing the total amount of tokens"
        }
      },
      "transferFrom(address,address,uint256)": {
        "details": "Transfers the ownership of a given token ID to another address. Usage of this method is discouraged, use {safeTransferFrom} whenever possible. Requires the msg.sender to be the owner, approved, or operator.",
        "params": {
          "from": "current owner of the token",
          "to": "address to receive the ownership of the given token ID",
          "tokenId": "uint256 ID of the token to be transferred"
        }
      }
    },
    "title": "Full ERC721 Token with support for tokenURIPrefix This implementation includes all the required and some optional functionality of the ERC721 standard Moreover, it includes approve all functionality using operator terminology",
    "version": 1
  },
  "userdoc": {
    "kind": "user",
    "methods": {},
    "version": 1
  }
}