{
  "contractName": "ERC721Burnable",
  "abi": [
    {
      "anonymous": false,
      "inputs": [
        {
          "indexed": true,
          "internalType": "address",
          "name": "owner",
          "type": "address"
        },
        {
          "indexed": true,
          "internalType": "address",
          "name": "approved",
          "type": "address"
        },
        {
          "indexed": true,
          "internalType": "uint256",
          "name": "tokenId",
          "type": "uint256"
        }
      ],
      "name": "Approval",
      "type": "event"
    },
    {
      "anonymous": false,
      "inputs": [
        {
          "indexed": true,
          "internalType": "address",
          "name": "owner",
          "type": "address"
        },
        {
          "indexed": true,
          "internalType": "address",
          "name": "operator",
          "type": "address"
        },
        {
          "indexed": false,
          "internalType": "bool",
          "name": "approved",
          "type": "bool"
        }
      ],
      "name": "ApprovalForAll",
      "type": "event"
    },
    {
      "anonymous": false,
      "inputs": [
        {
          "indexed": true,
          "internalType": "address",
          "name": "from",
          "type": "address"
        },
        {
          "indexed": true,
          "internalType": "address",
          "name": "to",
          "type": "address"
        },
        {
          "indexed": true,
          "internalType": "uint256",
          "name": "tokenId",
          "type": "uint256"
        }
      ],
      "name": "Transfer",
      "type": "event"
    },
    {
      "inputs": [
        {
          "internalType": "address",
          "name": "to",
          "type": "address"
        },
        {
          "internalType": "uint256",
          "name": "tokenId",
          "type": "uint256"
        }
      ],
      "name": "approve",
      "outputs": [],
      "stateMutability": "nonpayable",
      "type": "function"
    },
    {
      "inputs": [
        {
          "internalType": "address",
          "name": "owner",
          "type": "address"
        }
      ],
      "name": "balanceOf",
      "outputs": [
        {
          "internalType": "uint256",
          "name": "",
          "type": "uint256"
        }
      ],
      "stateMutability": "view",
      "type": "function"
    },
    {
      "inputs": [
        {
          "internalType": "uint256",
          "name": "tokenId",
          "type": "uint256"
        }
      ],
      "name": "getApproved",
      "outputs": [
        {
          "internalType": "address",
          "name": "",
          "type": "address"
        }
      ],
      "stateMutability": "view",
      "type": "function"
    },
    {
      "inputs": [
        {
          "internalType": "address",
          "name": "owner",
          "type": "address"
        },
        {
          "internalType": "address",
          "name": "operator",
          "type": "address"
        }
      ],
      "name": "isApprovedForAll",
      "outputs": [
        {
          "internalType": "bool",
          "name": "",
          "type": "bool"
        }
      ],
      "stateMutability": "view",
      "type": "function"
    },
    {
      "inputs": [
        {
          "internalType": "uint256",
          "name": "tokenId",
          "type": "uint256"
        }
      ],
      "name": "ownerOf",
      "outputs": [
        {
          "internalType": "address",
          "name": "",
          "type": "address"
        }
      ],
      "stateMutability": "view",
      "type": "function"
    },
    {
      "inputs": [
        {
          "internalType": "address",
          "name": "from",
          "type": "address"
        },
        {
          "internalType": "address",
          "name": "to",
          "type": "address"
        },
        {
          "internalType": "uint256",
          "name": "tokenId",
          "type": "uint256"
        }
      ],
      "name": "safeTransferFrom",
      "outputs": [],
      "stateMutability": "nonpayable",
      "type": "function"
    },
    {
      "inputs": [
        {
          "internalType": "address",
          "name": "from",
          "type": "address"
        },
        {
          "internalType": "address",
          "name": "to",
          "type": "address"
        },
        {
          "internalType": "uint256",
          "name": "tokenId",
          "type": "uint256"
        },
        {
          "internalType": "bytes",
          "name": "_data",
          "type": "bytes"
        }
      ],
      "name": "safeTransferFrom",
      "outputs": [],
      "stateMutability": "nonpayable",
      "type": "function"
    },
    {
      "inputs": [
        {
          "internalType": "address",
          "name": "to",
          "type": "address"
        },
        {
          "internalType": "bool",
          "name": "approved",
          "type": "bool"
        }
      ],
      "name": "setApprovalForAll",
      "outputs": [],
      "stateMutability": "nonpayable",
      "type": "function"
    },
    {
      "inputs": [
        {
          "internalType": "bytes4",
          "name": "interfaceId",
          "type": "bytes4"
        }
      ],
      "name": "supportsInterface",
      "outputs": [
        {
          "internalType": "bool",
          "name": "",
          "type": "bool"
        }
      ],
      "stateMutability": "view",
      "type": "function"
    },
    {
      "inputs": [
        {
          "internalType": "address",
          "name": "from",
          "type": "address"
        },
        {
          "internalType": "address",
          "name": "to",
          "type": "address"
        },
        {
          "internalType": "uint256",
          "name": "tokenId",
          "type": "uint256"
        }
      ],
      "name": "transferFrom",
      "outputs": [],
      "stateMutability": "nonpayable",
      "type": "function"
    },
    {
      "inputs": [
        {
          "internalType": "uint256",
          "name": "tokenId",
          "type": "uint256"
        }
      ],
      "name": "burn",
      "outputs": [],
      "stateMutability": "nonpayable",
      "type": "function"
    }
  ],
  "bytecode": "0x60806040523480156200001157600080fd5b506200002a6301ffc9a760e01b6200004860201b60201c565b620000426380ac58cd60e01b6200004860201b60201c565b620001a3565b63ffffffff60e01b817bffffffffffffffffffffffffffffffffffffffffffffffffffffffff19161415620000b4576040517f08c379a0000000000000000000000000000000000000000000000000000000008152600401620000ab9062000181565b60405180910390fd5b6001600080837bffffffffffffffffffffffffffffffffffffffffffffffffffffffff19167bffffffffffffffffffffffffffffffffffffffffffffffffffffffff1916815260200190815260200160002060006101000a81548160ff02191690831515021790555050565b600082825260208201905092915050565b7f4552433136353a20696e76616c696420696e7465726661636520696400000000600082015250565b600062000169601c8362000120565b9150620001768262000131565b602082019050919050565b600060208201905081810360008301526200019c816200015a565b9050919050565b6121ae80620001b36000396000f3fe608060405234801561001057600080fd5b50600436106100a95760003560e01c806342966c681161007157806342966c68146101625780636352211e1461017e57806370a08231146101ae578063a22cb465146101de578063b88d4fde146101fa578063e985e9c514610216576100a9565b806301ffc9a7146100ae578063081812fc146100de578063095ea7b31461010e57806323b872dd1461012a57806342842e0e14610146575b600080fd5b6100c860048036038101906100c391906112e8565b610246565b6040516100d59190611330565b60405180910390f35b6100f860048036038101906100f39190611381565b6102ad565b60405161010591906113ef565b60405180910390f35b61012860048036038101906101239190611436565b610332565b005b610144600480360381019061013f9190611476565b6104ed565b005b610160600480360381019061015b9190611476565b61054d565b005b61017c60048036038101906101779190611381565b61056d565b005b61019860048036038101906101939190611381565b6105c9565b6040516101a591906113ef565b60405180910390f35b6101c860048036038101906101c391906114c9565b61067b565b6040516101d59190611505565b60405180910390f35b6101f860048036038101906101f3919061154c565b61073a565b005b610214600480360381019061020f91906116d2565b6108bb565b005b610230600480360381019061022b9190611755565b61091d565b60405161023d9190611330565b60405180910390f35b6000806000837bffffffffffffffffffffffffffffffffffffffffffffffffffffffff19167bffffffffffffffffffffffffffffffffffffffffffffffffffffffff1916815260200190815260200160002060009054906101000a900460ff169050919050565b60006102b8826109b1565b6102f7576040517f08c379a00000000000000000000000000000000000000000000000000000000081526004016102ee90611818565b60405180910390fd5b6002600083815260200190815260200160002060009054906101000a900473ffffffffffffffffffffffffffffffffffffffff169050919050565b600061033d826105c9565b90508073ffffffffffffffffffffffffffffffffffffffff168373ffffffffffffffffffffffffffffffffffffffff1614156103ae576040517f08c379a00000000000000000000000000000000000000000000000000000000081526004016103a5906118aa565b60405180910390fd5b8073ffffffffffffffffffffffffffffffffffffffff166103cd610a23565b73ffffffffffffffffffffffffffffffffffffffff1614806103fc57506103fb816103f6610a23565b61091d565b5b61043b576040517f08c379a00000000000000000000000000000000000000000000000000000000081526004016104329061193c565b60405180910390fd5b826002600084815260200190815260200160002060006101000a81548173ffffffffffffffffffffffffffffffffffffffff021916908373ffffffffffffffffffffffffffffffffffffffff160217905550818373ffffffffffffffffffffffffffffffffffffffff168273ffffffffffffffffffffffffffffffffffffffff167f8c5be1e5ebec7d5bd14f71427d1e84f3dd0314c0f7b2291e5b200ac8c7c3b92560405160405180910390a4505050565b6104fe6104f8610a23565b82610a2b565b61053d576040517f08c379a0000000000000000000000000000000000000000000000000000000008152600401610534906119ce565b60405180910390fd5b610548838383610b09565b505050565b610568838383604051806020016040528060008152506108bb565b505050565b61057e610578610a23565b82610a2b565b6105bd576040517f08c379a00000000000000000000000000000000000000000000000000000000081526004016105b490611a60565b60405180910390fd5b6105c681610d38565b50565b6000806001600084815260200190815260200160002060009054906101000a900473ffffffffffffffffffffffffffffffffffffffff169050600073ffffffffffffffffffffffffffffffffffffffff168173ffffffffffffffffffffffffffffffffffffffff161415610672576040517f08c379a000000000000000000000000000000000000000000000000000000000815260040161066990611af2565b60405180910390fd5b80915050919050565b60008073ffffffffffffffffffffffffffffffffffffffff168273ffffffffffffffffffffffffffffffffffffffff1614156106ec576040517f08c379a00000000000000000000000000000000000000000000000000000000081526004016106e390611b84565b60405180910390fd5b610733600360008473ffffffffffffffffffffffffffffffffffffffff1673ffffffffffffffffffffffffffffffffffffffff168152602001908152602001600020610d4d565b9050919050565b610742610a23565b73ffffffffffffffffffffffffffffffffffffffff168273ffffffffffffffffffffffffffffffffffffffff1614156107b0576040517f08c379a00000000000000000000000000000000000000000000000000000000081526004016107a790611bf0565b60405180910390fd5b80600460006107bd610a23565b73ffffffffffffffffffffffffffffffffffffffff1673ffffffffffffffffffffffffffffffffffffffff16815260200190815260200160002060008473ffffffffffffffffffffffffffffffffffffffff1673ffffffffffffffffffffffffffffffffffffffff16815260200190815260200160002060006101000a81548160ff0219169083151502179055508173ffffffffffffffffffffffffffffffffffffffff1661086a610a23565b73ffffffffffffffffffffffffffffffffffffffff167f17307eab39ab6107e8899845ad3d59bd9653f200f220920489ca2b5937696c31836040516108af9190611330565b60405180910390a35050565b6108cc6108c6610a23565b83610a2b565b61090b576040517f08c379a0000000000000000000000000000000000000000000000000000000008152600401610902906119ce565b60405180910390fd5b61091784848484610d5b565b50505050565b6000600460008473ffffffffffffffffffffffffffffffffffffffff1673ffffffffffffffffffffffffffffffffffffffff16815260200190815260200160002060008373ffffffffffffffffffffffffffffffffffffffff1673ffffffffffffffffffffffffffffffffffffffff16815260200190815260200160002060009054906101000a900460ff16905092915050565b6000806001600084815260200190815260200160002060009054906101000a900473ffffffffffffffffffffffffffffffffffffffff169050600073ffffffffffffffffffffffffffffffffffffffff168173ffffffffffffffffffffffffffffffffffffffff161415915050919050565b600033905090565b6000610a36826109b1565b610a75576040517f08c379a0000000000000000000000000000000000000000000000000000000008152600401610a6c90611c82565b60405180910390fd5b6000610a80836105c9565b90508073ffffffffffffffffffffffffffffffffffffffff168473ffffffffffffffffffffffffffffffffffffffff161480610aef57508373ffffffffffffffffffffffffffffffffffffffff16610ad7846102ad565b73ffffffffffffffffffffffffffffffffffffffff16145b80610b005750610aff818561091d565b5b91505092915050565b8273ffffffffffffffffffffffffffffffffffffffff16610b29826105c9565b73ffffffffffffffffffffffffffffffffffffffff1614610b7f576040517f08c379a0000000000000000000000000000000000000000000000000000000008152600401610b7690611d14565b60405180910390fd5b600073ffffffffffffffffffffffffffffffffffffffff168273ffffffffffffffffffffffffffffffffffffffff161415610bef576040517f08c379a0000000000000000000000000000000000000000000000000000000008152600401610be690611da6565b60405180910390fd5b610bf881610db7565b610c3f600360008573ffffffffffffffffffffffffffffffffffffffff1673ffffffffffffffffffffffffffffffffffffffff168152602001908152602001600020610e75565b610c86600360008473ffffffffffffffffffffffffffffffffffffffff1673ffffffffffffffffffffffffffffffffffffffff168152602001908152602001600020610e98565b816001600083815260200190815260200160002060006101000a81548173ffffffffffffffffffffffffffffffffffffffff021916908373ffffffffffffffffffffffffffffffffffffffff160217905550808273ffffffffffffffffffffffffffffffffffffffff168473ffffffffffffffffffffffffffffffffffffffff167fddf252ad1be2c89b69c2b068fc378daa952ba7f163c4a11628f55a4df523b3ef60405160405180910390a4505050565b610d4a610d44826105c9565b82610eb7565b50565b600081600001549050919050565b610d66848484610b09565b610d7284848484611030565b610db1576040517f08c379a0000000000000000000000000000000000000000000000000000000008152600401610da890611e38565b60405180910390fd5b50505050565b600073ffffffffffffffffffffffffffffffffffffffff166002600083815260200190815260200160002060009054906101000a900473ffffffffffffffffffffffffffffffffffffffff1673ffffffffffffffffffffffffffffffffffffffff1614610e725760006002600083815260200190815260200160002060006101000a81548173ffffffffffffffffffffffffffffffffffffffff021916908373ffffffffffffffffffffffffffffffffffffffff1602179055505b50565b610e8d6001826000015461121090919063ffffffff16565b816000018190555050565b6001816000016000828254610ead9190611e87565b9250508190555050565b8173ffffffffffffffffffffffffffffffffffffffff16610ed7826105c9565b73ffffffffffffffffffffffffffffffffffffffff1614610f2d576040517f08c379a0000000000000000000000000000000000000000000000000000000008152600401610f2490611f4f565b60405180910390fd5b610f3681610db7565b610f7d600360008473ffffffffffffffffffffffffffffffffffffffff1673ffffffffffffffffffffffffffffffffffffffff168152602001908152602001600020610e75565b60006001600083815260200190815260200160002060006101000a81548173ffffffffffffffffffffffffffffffffffffffff021916908373ffffffffffffffffffffffffffffffffffffffff16021790555080600073ffffffffffffffffffffffffffffffffffffffff168373ffffffffffffffffffffffffffffffffffffffff167fddf252ad1be2c89b69c2b068fc378daa952ba7f163c4a11628f55a4df523b3ef60405160405180910390a45050565b60006110518473ffffffffffffffffffffffffffffffffffffffff16611269565b61105e5760019050611208565b6000808573ffffffffffffffffffffffffffffffffffffffff1663150b7a0260e01b611088610a23565b89888860405160240161109e9493929190611ff7565b604051602081830303815290604052907bffffffffffffffffffffffffffffffffffffffffffffffffffffffff19166020820180517bffffffffffffffffffffffffffffffffffffffffffffffffffffffff8381831617835250505050604051611108919061207f565b6000604051808303816000865af19150503d8060008114611145576040519150601f19603f3d011682016040523d82523d6000602084013e61114a565b606091505b5091509150816111a2576000815111156111675780518082602001fd5b6040517f08c379a000000000000000000000000000000000000000000000000000000000815260040161119990611e38565b60405180910390fd5b6000818060200190518101906111b891906120ab565b905063150b7a0260e01b7bffffffffffffffffffffffffffffffffffffffffffffffffffffffff1916817bffffffffffffffffffffffffffffffffffffffffffffffffffffffff19161493505050505b949350505050565b600082821115611255576040517f08c379a000000000000000000000000000000000000000000000000000000000815260040161124c90612124565b60405180910390fd5b81836112619190612144565b905092915050565b600080823b905060008111915050919050565b6000604051905090565b600080fd5b600080fd5b60007fffffffff0000000000000000000000000000000000000000000000000000000082169050919050565b6112c581611290565b81146112d057600080fd5b50565b6000813590506112e2816112bc565b92915050565b6000602082840312156112fe576112fd611286565b5b600061130c848285016112d3565b91505092915050565b60008115159050919050565b61132a81611315565b82525050565b60006020820190506113456000830184611321565b92915050565b6000819050919050565b61135e8161134b565b811461136957600080fd5b50565b60008135905061137b81611355565b92915050565b60006020828403121561139757611396611286565b5b60006113a58482850161136c565b91505092915050565b600073ffffffffffffffffffffffffffffffffffffffff82169050919050565b60006113d9826113ae565b9050919050565b6113e9816113ce565b82525050565b600060208201905061140460008301846113e0565b92915050565b611413816113ce565b811461141e57600080fd5b50565b6000813590506114308161140a565b92915050565b6000806040838503121561144d5761144c611286565b5b600061145b85828601611421565b925050602061146c8582860161136c565b9150509250929050565b60008060006060848603121561148f5761148e611286565b5b600061149d86828701611421565b93505060206114ae86828701611421565b92505060406114bf8682870161136c565b9150509250925092565b6000602082840312156114df576114de611286565b5b60006114ed84828501611421565b91505092915050565b6114ff8161134b565b82525050565b600060208201905061151a60008301846114f6565b92915050565b61152981611315565b811461153457600080fd5b50565b60008135905061154681611520565b92915050565b6000806040838503121561156357611562611286565b5b600061157185828601611421565b925050602061158285828601611537565b9150509250929050565b600080fd5b600080fd5b6000601f19601f8301169050919050565b7f4e487b7100000000000000000000000000000000000000000000000000000000600052604160045260246000fd5b6115df82611596565b810181811067ffffffffffffffff821117156115fe576115fd6115a7565b5b80604052505050565b600061161161127c565b905061161d82826115d6565b919050565b600067ffffffffffffffff82111561163d5761163c6115a7565b5b61164682611596565b9050602081019050919050565b82818337600083830152505050565b600061167561167084611622565b611607565b90508281526020810184848401111561169157611690611591565b5b61169c848285611653565b509392505050565b600082601f8301126116b9576116b861158c565b5b81356116c9848260208601611662565b91505092915050565b600080600080608085870312156116ec576116eb611286565b5b60006116fa87828801611421565b945050602061170b87828801611421565b935050604061171c8782880161136c565b925050606085013567ffffffffffffffff81111561173d5761173c61128b565b5b611749878288016116a4565b91505092959194509250565b6000806040838503121561176c5761176b611286565b5b600061177a85828601611421565b925050602061178b85828601611421565b9150509250929050565b600082825260208201905092915050565b7f4552433732313a20617070726f76656420717565727920666f72206e6f6e657860008201527f697374656e7420746f6b656e0000000000000000000000000000000000000000602082015250565b6000611802602c83611795565b915061180d826117a6565b604082019050919050565b60006020820190508181036000830152611831816117f5565b9050919050565b7f4552433732313a20617070726f76616c20746f2063757272656e74206f776e6560008201527f7200000000000000000000000000000000000000000000000000000000000000602082015250565b6000611894602183611795565b915061189f82611838565b604082019050919050565b600060208201905081810360008301526118c381611887565b9050919050565b7f4552433732313a20617070726f76652063616c6c6572206973206e6f74206f7760008201527f6e6572206e6f7220617070726f76656420666f7220616c6c0000000000000000602082015250565b6000611926603883611795565b9150611931826118ca565b604082019050919050565b6000602082019050818103600083015261195581611919565b9050919050565b7f4552433732313a207472616e736665722063616c6c6572206973206e6f74206f60008201527f776e6572206e6f7220617070726f766564000000000000000000000000000000602082015250565b60006119b8603183611795565b91506119c38261195c565b604082019050919050565b600060208201905081810360008301526119e7816119ab565b9050919050565b7f4552433732314275726e61626c653a2063616c6c6572206973206e6f74206f7760008201527f6e6572206e6f7220617070726f76656400000000000000000000000000000000602082015250565b6000611a4a603083611795565b9150611a55826119ee565b604082019050919050565b60006020820190508181036000830152611a7981611a3d565b9050919050565b7f4552433732313a206f776e657220717565727920666f72206e6f6e657869737460008201527f656e7420746f6b656e0000000000000000000000000000000000000000000000602082015250565b6000611adc602983611795565b9150611ae782611a80565b604082019050919050565b60006020820190508181036000830152611b0b81611acf565b9050919050565b7f4552433732313a2062616c616e636520717565727920666f7220746865207a6560008201527f726f206164647265737300000000000000000000000000000000000000000000602082015250565b6000611b6e602a83611795565b9150611b7982611b12565b604082019050919050565b60006020820190508181036000830152611b9d81611b61565b9050919050565b7f4552433732313a20617070726f766520746f2063616c6c657200000000000000600082015250565b6000611bda601983611795565b9150611be582611ba4565b602082019050919050565b60006020820190508181036000830152611c0981611bcd565b9050919050565b7f4552433732313a206f70657261746f7220717565727920666f72206e6f6e657860008201527f697374656e7420746f6b656e0000000000000000000000000000000000000000602082015250565b6000611c6c602c83611795565b9150611c7782611c10565b604082019050919050565b60006020820190508181036000830152611c9b81611c5f565b9050919050565b7f4552433732313a207472616e73666572206f6620746f6b656e2074686174206960008201527f73206e6f74206f776e0000000000000000000000000000000000000000000000602082015250565b6000611cfe602983611795565b9150611d0982611ca2565b604082019050919050565b60006020820190508181036000830152611d2d81611cf1565b9050919050565b7f4552433732313a207472616e7366657220746f20746865207a65726f2061646460008201527f7265737300000000000000000000000000000000000000000000000000000000602082015250565b6000611d90602483611795565b9150611d9b82611d34565b604082019050919050565b60006020820190508181036000830152611dbf81611d83565b9050919050565b7f4552433732313a207472616e7366657220746f206e6f6e20455243373231526560008201527f63656976657220696d706c656d656e7465720000000000000000000000000000602082015250565b6000611e22603283611795565b9150611e2d82611dc6565b604082019050919050565b60006020820190508181036000830152611e5181611e15565b9050919050565b7f4e487b7100000000000000000000000000000000000000000000000000000000600052601160045260246000fd5b6000611e928261134b565b9150611e9d8361134b565b9250827fffffffffffffffffffffffffffffffffffffffffffffffffffffffffffffffff03821115611ed257611ed1611e58565b5b828201905092915050565b7f4552433732313a206275726e206f6620746f6b656e2074686174206973206e6f60008201527f74206f776e000000000000000000000000000000000000000000000000000000602082015250565b6000611f39602583611795565b9150611f4482611edd565b604082019050919050565b60006020820190508181036000830152611f6881611f2c565b9050919050565b600081519050919050565b600082825260208201905092915050565b60005b83811015611fa9578082015181840152602081019050611f8e565b83811115611fb8576000848401525b50505050565b6000611fc982611f6f565b611fd38185611f7a565b9350611fe3818560208601611f8b565b611fec81611596565b840191505092915050565b600060808201905061200c60008301876113e0565b61201960208301866113e0565b61202660408301856114f6565b81810360608301526120388184611fbe565b905095945050505050565b600081905092915050565b600061205982611f6f565b6120638185612043565b9350612073818560208601611f8b565b80840191505092915050565b600061208b828461204e565b915081905092915050565b6000815190506120a5816112bc565b92915050565b6000602082840312156120c1576120c0611286565b5b60006120cf84828501612096565b91505092915050565b7f536166654d6174683a207375627472616374696f6e206f766572666c6f770000600082015250565b600061210e601e83611795565b9150612119826120d8565b602082019050919050565b6000602082019050818103600083015261213d81612101565b9050919050565b600061214f8261134b565b915061215a8361134b565b92508282101561216d5761216c611e58565b5b82820390509291505056fea2646970667358221220a4b5174f9a85aaa1b1ed34994fa9ad99a6a74cd8c9c3103d2fce46e828ae067764736f6c634300080a0033",
  "immutableReferences": {},
  "source": "// SPDX-License-Identifier: MIT\npragma solidity >=0.4.22 <0.9.0;\npragma experimental ABIEncoderV2;\n\nimport \"../utils/Context.sol\";\nimport \"./ERC165.sol\";\nimport \"./ERC721.sol\";\nimport \"../interface/IERC721Enumerable.sol\";\n\ncontract ERC721Burnable is Context, ERC721 {\n  /**\n   * @dev Burns a specific ERC721 token.\n   * @param tokenId uint256 id of the ERC721 token to be burned.\n   */\n  function burn(uint256 tokenId) public {\n    //solhint-disable-next-line max-line-length\n    require(_isApprovedOrOwner(_msgSender(), tokenId), \"ERC721Burnable: caller is not owner nor approved\");\n    _burn(tokenId);\n  }\n}\n",
  "sourcePath": "/home/ec2-user/test-contract/contracts/lib/contracts/ERC721Burnable.sol",
  "compiler": {
    "name": "solc",
    "version": "0.8.10+commit.fc410830.Emscripten.clang"
  },
  "schemaVersion": "3.4.3",
  "updatedAt": "2021-12-04T11:19:58.388Z",
  "devdoc": {
    "kind": "dev",
    "methods": {
      "approve(address,uint256)": {
        "details": "Approves another address to transfer the given token ID The zero address indicates there is no approved address. There can only be one approved address per token at a given time. Can only be called by the token owner or an approved operator.",
        "params": {
          "to": "address to be approved for the given token ID",
          "tokenId": "uint256 ID of the token to be approved"
        }
      },
      "balanceOf(address)": {
        "details": "Gets the balance of the specified address.",
        "params": {
          "owner": "address to query the balance of"
        },
        "returns": {
          "_0": "uint256 representing the amount owned by the passed address"
        }
      },
      "burn(uint256)": {
        "details": "Burns a specific ERC721 token.",
        "params": {
          "tokenId": "uint256 id of the ERC721 token to be burned."
        }
      },
      "getApproved(uint256)": {
        "details": "Gets the approved address for a token ID, or zero if no address set Reverts if the token ID does not exist.",
        "params": {
          "tokenId": "uint256 ID of the token to query the approval of"
        },
        "returns": {
          "_0": "address currently approved for the given token ID"
        }
      },
      "isApprovedForAll(address,address)": {
        "details": "Tells whether an operator is approved by a given owner.",
        "params": {
          "operator": "operator address which you want to query the approval of",
          "owner": "owner address which you want to query the approval of"
        },
        "returns": {
          "_0": "bool whether the given operator is approved by the given owner"
        }
      },
      "ownerOf(uint256)": {
        "details": "Gets the owner of the specified token ID.",
        "params": {
          "tokenId": "uint256 ID of the token to query the owner of"
        },
        "returns": {
          "_0": "address currently marked as the owner of the given token ID"
        }
      },
      "safeTransferFrom(address,address,uint256)": {
        "details": "Safely transfers the ownership of a given token ID to another address If the target address is a contract, it must implement {IERC721Receiver-onERC721Received}, which is called upon a safe transfer, and return the magic value `bytes4(keccak256(\"onERC721Received(address,address,uint256,bytes)\"))`; otherwise, the transfer is reverted. Requires the msg.sender to be the owner, approved, or operator",
        "params": {
          "from": "current owner of the token",
          "to": "address to receive the ownership of the given token ID",
          "tokenId": "uint256 ID of the token to be transferred"
        }
      },
      "safeTransferFrom(address,address,uint256,bytes)": {
        "details": "Safely transfers the ownership of a given token ID to another address If the target address is a contract, it must implement {IERC721Receiver-onERC721Received}, which is called upon a safe transfer, and return the magic value `bytes4(keccak256(\"onERC721Received(address,address,uint256,bytes)\"))`; otherwise, the transfer is reverted. Requires the _msgSender() to be the owner, approved, or operator",
        "params": {
          "_data": "bytes data to send along with a safe transfer check",
          "from": "current owner of the token",
          "to": "address to receive the ownership of the given token ID",
          "tokenId": "uint256 ID of the token to be transferred"
        }
      },
      "setApprovalForAll(address,bool)": {
        "details": "Sets or unsets the approval of a given operator An operator is allowed to transfer all tokens of the sender on their behalf.",
        "params": {
          "approved": "representing the status of the approval to be set",
          "to": "operator address to set the approval"
        }
      },
      "supportsInterface(bytes4)": {
        "details": "See {IERC165-supportsInterface}. Time complexity O(1), guaranteed to always use less than 30 000 gas."
      },
      "transferFrom(address,address,uint256)": {
        "details": "Transfers the ownership of a given token ID to another address. Usage of this method is discouraged, use {safeTransferFrom} whenever possible. Requires the msg.sender to be the owner, approved, or operator.",
        "params": {
          "from": "current owner of the token",
          "to": "address to receive the ownership of the given token ID",
          "tokenId": "uint256 ID of the token to be transferred"
        }
      }
    },
    "version": 1
  },
  "userdoc": {
    "kind": "user",
    "methods": {},
    "version": 1
  }
}