{
  "contractName": "ExchangeState",
  "abi": [
    {
      "anonymous": false,
      "inputs": [
        {
          "indexed": true,
          "internalType": "address",
          "name": "account",
          "type": "address"
        }
      ],
      "name": "OperatorAdded",
      "type": "event"
    },
    {
      "anonymous": false,
      "inputs": [
        {
          "indexed": true,
          "internalType": "address",
          "name": "account",
          "type": "address"
        }
      ],
      "name": "OperatorRemoved",
      "type": "event"
    },
    {
      "anonymous": false,
      "inputs": [
        {
          "indexed": true,
          "internalType": "address",
          "name": "previousOwner",
          "type": "address"
        },
        {
          "indexed": true,
          "internalType": "address",
          "name": "newOwner",
          "type": "address"
        }
      ],
      "name": "OwnershipTransferred",
      "type": "event"
    },
    {
      "inputs": [
        {
          "internalType": "address",
          "name": "account",
          "type": "address"
        }
      ],
      "name": "addOperator",
      "outputs": [],
      "stateMutability": "nonpayable",
      "type": "function"
    },
    {
      "inputs": [
        {
          "internalType": "bytes32",
          "name": "",
          "type": "bytes32"
        }
      ],
      "name": "completed",
      "outputs": [
        {
          "internalType": "uint256",
          "name": "",
          "type": "uint256"
        }
      ],
      "stateMutability": "view",
      "type": "function",
      "constant": true
    },
    {
      "inputs": [
        {
          "internalType": "address",
          "name": "account",
          "type": "address"
        }
      ],
      "name": "isOperator",
      "outputs": [
        {
          "internalType": "bool",
          "name": "",
          "type": "bool"
        }
      ],
      "stateMutability": "view",
      "type": "function",
      "constant": true
    },
    {
      "inputs": [],
      "name": "owner",
      "outputs": [
        {
          "internalType": "address",
          "name": "",
          "type": "address"
        }
      ],
      "stateMutability": "view",
      "type": "function",
      "constant": true
    },
    {
      "inputs": [
        {
          "internalType": "address",
          "name": "account",
          "type": "address"
        }
      ],
      "name": "removeOperator",
      "outputs": [],
      "stateMutability": "nonpayable",
      "type": "function"
    },
    {
      "inputs": [],
      "name": "renounceOwnership",
      "outputs": [],
      "stateMutability": "nonpayable",
      "type": "function"
    },
    {
      "inputs": [
        {
          "internalType": "address",
          "name": "newOwner",
          "type": "address"
        }
      ],
      "name": "transferOwnership",
      "outputs": [],
      "stateMutability": "nonpayable",
      "type": "function"
    },
    {
      "inputs": [
        {
          "components": [
            {
              "internalType": "address",
              "name": "owner",
              "type": "address"
            },
            {
              "internalType": "uint256",
              "name": "salt",
              "type": "uint256"
            },
            {
              "components": [
                {
                  "internalType": "address",
                  "name": "token",
                  "type": "address"
                },
                {
                  "internalType": "uint256",
                  "name": "tokenId",
                  "type": "uint256"
                },
                {
                  "internalType": "enum ExchangeDomain.AssetType",
                  "name": "assetType",
                  "type": "uint8"
                }
              ],
              "internalType": "struct ExchangeDomain.Asset",
              "name": "sellAsset",
              "type": "tuple"
            },
            {
              "components": [
                {
                  "internalType": "address",
                  "name": "token",
                  "type": "address"
                },
                {
                  "internalType": "uint256",
                  "name": "tokenId",
                  "type": "uint256"
                },
                {
                  "internalType": "enum ExchangeDomain.AssetType",
                  "name": "assetType",
                  "type": "uint8"
                }
              ],
              "internalType": "struct ExchangeDomain.Asset",
              "name": "buyAsset",
              "type": "tuple"
            }
          ],
          "internalType": "struct ExchangeDomain.OrderKey",
          "name": "key",
          "type": "tuple"
        }
      ],
      "name": "getCompleted",
      "outputs": [
        {
          "internalType": "uint256",
          "name": "",
          "type": "uint256"
        }
      ],
      "stateMutability": "view",
      "type": "function",
      "constant": true
    },
    {
      "inputs": [
        {
          "components": [
            {
              "internalType": "address",
              "name": "owner",
              "type": "address"
            },
            {
              "internalType": "uint256",
              "name": "salt",
              "type": "uint256"
            },
            {
              "components": [
                {
                  "internalType": "address",
                  "name": "token",
                  "type": "address"
                },
                {
                  "internalType": "uint256",
                  "name": "tokenId",
                  "type": "uint256"
                },
                {
                  "internalType": "enum ExchangeDomain.AssetType",
                  "name": "assetType",
                  "type": "uint8"
                }
              ],
              "internalType": "struct ExchangeDomain.Asset",
              "name": "sellAsset",
              "type": "tuple"
            },
            {
              "components": [
                {
                  "internalType": "address",
                  "name": "token",
                  "type": "address"
                },
                {
                  "internalType": "uint256",
                  "name": "tokenId",
                  "type": "uint256"
                },
                {
                  "internalType": "enum ExchangeDomain.AssetType",
                  "name": "assetType",
                  "type": "uint8"
                }
              ],
              "internalType": "struct ExchangeDomain.Asset",
              "name": "buyAsset",
              "type": "tuple"
            }
          ],
          "internalType": "struct ExchangeDomain.OrderKey",
          "name": "key",
          "type": "tuple"
        },
        {
          "internalType": "uint256",
          "name": "newCompleted",
          "type": "uint256"
        }
      ],
      "name": "setCompleted",
      "outputs": [],
      "stateMutability": "nonpayable",
      "type": "function"
    },
    {
      "inputs": [
        {
          "components": [
            {
              "internalType": "address",
              "name": "owner",
              "type": "address"
            },
            {
              "internalType": "uint256",
              "name": "salt",
              "type": "uint256"
            },
            {
              "components": [
                {
                  "internalType": "address",
                  "name": "token",
                  "type": "address"
                },
                {
                  "internalType": "uint256",
                  "name": "tokenId",
                  "type": "uint256"
                },
                {
                  "internalType": "enum ExchangeDomain.AssetType",
                  "name": "assetType",
                  "type": "uint8"
                }
              ],
              "internalType": "struct ExchangeDomain.Asset",
              "name": "sellAsset",
              "type": "tuple"
            },
            {
              "components": [
                {
                  "internalType": "address",
                  "name": "token",
                  "type": "address"
                },
                {
                  "internalType": "uint256",
                  "name": "tokenId",
                  "type": "uint256"
                },
                {
                  "internalType": "enum ExchangeDomain.AssetType",
                  "name": "assetType",
                  "type": "uint8"
                }
              ],
              "internalType": "struct ExchangeDomain.Asset",
              "name": "buyAsset",
              "type": "tuple"
            }
          ],
          "internalType": "struct ExchangeDomain.OrderKey",
          "name": "key",
          "type": "tuple"
        }
      ],
      "name": "getCompletedKey",
      "outputs": [
        {
          "internalType": "bytes32",
          "name": "",
          "type": "bytes32"
        }
      ],
      "stateMutability": "pure",
      "type": "function",
      "constant": true
    }
  ],
  "bytecode": "0x608060405234801561001057600080fd5b5060006100216100c460201b60201c565b9050806000806101000a81548173ffffffffffffffffffffffffffffffffffffffff021916908373ffffffffffffffffffffffffffffffffffffffff1602179055508073ffffffffffffffffffffffffffffffffffffffff16600073ffffffffffffffffffffffffffffffffffffffff167f8be0079c531659141344cd1fd0a4f28419497f9722a3daafe3b4186f6b6457e060405160405180910390a3506100cc565b600033905090565b6112b6806100db6000396000f3fe608060405234801561001057600080fd5b506004361061009e5760003560e01c8063ac8a584a11610066578063ac8a584a14610133578063dc10fb0a1461014f578063f2fde38b1461017f578063f6419d961461019b578063fb0000c0146101cb5761009e565b80633a076e9a146100a35780636d70f7ae146100bf578063715018a6146100ef5780638da5cb5b146100f95780639870d7fe14610117575b600080fd5b6100bd60048036038101906100b89190610aa3565b6101fb565b005b6100d960048036038101906100d49190610b43565b61027e565b6040516100e69190610b8b565b60405180910390f35b6100f761029b565b005b6101016103d5565b60405161010e9190610bb5565b60405180910390f35b610131600480360381019061012c9190610b43565b6103fe565b005b61014d60048036038101906101489190610b43565b610486565b005b61016960048036038101906101649190610d63565b61050e565b6040516101769190610daa565b60405180910390f35b61019960048036038101906101949190610b43565b610570565b005b6101b560048036038101906101b09190610df1565b610719565b6040516101c29190610e2d565b60405180910390f35b6101e560048036038101906101e09190610e48565b610731565b6040516101f29190610e2d565b60405180910390f35b61020b610206610766565b61027e565b61024a576040517f08c379a000000000000000000000000000000000000000000000000000000000815260040161024190610ef9565b60405180910390fd5b8060026000610268858036038101906102639190610d63565b61050e565b8152602001908152602001600020819055505050565b600061029482600161076e90919063ffffffff16565b9050919050565b6102a3610766565b73ffffffffffffffffffffffffffffffffffffffff166102c16103d5565b73ffffffffffffffffffffffffffffffffffffffff1614610317576040517f08c379a000000000000000000000000000000000000000000000000000000000815260040161030e90610f65565b60405180910390fd5b600073ffffffffffffffffffffffffffffffffffffffff1660008054906101000a900473ffffffffffffffffffffffffffffffffffffffff1673ffffffffffffffffffffffffffffffffffffffff167f8be0079c531659141344cd1fd0a4f28419497f9722a3daafe3b4186f6b6457e060405160405180910390a360008060006101000a81548173ffffffffffffffffffffffffffffffffffffffff021916908373ffffffffffffffffffffffffffffffffffffffff160217905550565b60008060009054906101000a900473ffffffffffffffffffffffffffffffffffffffff16905090565b610406610766565b73ffffffffffffffffffffffffffffffffffffffff166104246103d5565b73ffffffffffffffffffffffffffffffffffffffff161461047a576040517f08c379a000000000000000000000000000000000000000000000000000000000815260040161047190610f65565b60405180910390fd5b61048381610836565b50565b61048e610766565b73ffffffffffffffffffffffffffffffffffffffff166104ac6103d5565b73ffffffffffffffffffffffffffffffffffffffff1614610502576040517f08c379a00000000000000000000000000000000000000000000000000000000081526004016104f990610f65565b60405180910390fd5b61050b81610890565b50565b60008160000151826040015160000151836040015160200151846060015160000151856060015160200151866020015160405160200161055396959493929190610fee565b604051602081830303815290604052805190602001209050919050565b610578610766565b73ffffffffffffffffffffffffffffffffffffffff166105966103d5565b73ffffffffffffffffffffffffffffffffffffffff16146105ec576040517f08c379a00000000000000000000000000000000000000000000000000000000081526004016105e390610f65565b60405180910390fd5b600073ffffffffffffffffffffffffffffffffffffffff168173ffffffffffffffffffffffffffffffffffffffff16141561065c576040517f08c379a0000000000000000000000000000000000000000000000000000000008152600401610653906110d0565b60405180910390fd5b8073ffffffffffffffffffffffffffffffffffffffff1660008054906101000a900473ffffffffffffffffffffffffffffffffffffffff1673ffffffffffffffffffffffffffffffffffffffff167f8be0079c531659141344cd1fd0a4f28419497f9722a3daafe3b4186f6b6457e060405160405180910390a3806000806101000a81548173ffffffffffffffffffffffffffffffffffffffff021916908373ffffffffffffffffffffffffffffffffffffffff16021790555050565b60026020528060005260406000206000915090505481565b6000600260006107508480360381019061074b9190610d63565b61050e565b8152602001908152602001600020549050919050565b600033905090565b60008073ffffffffffffffffffffffffffffffffffffffff168273ffffffffffffffffffffffffffffffffffffffff1614156107df576040517f08c379a00000000000000000000000000000000000000000000000000000000081526004016107d690611162565b60405180910390fd5b8260000160008373ffffffffffffffffffffffffffffffffffffffff1673ffffffffffffffffffffffffffffffffffffffff16815260200190815260200160002060009054906101000a900460ff16905092915050565b61084a8160016108ea90919063ffffffff16565b8073ffffffffffffffffffffffffffffffffffffffff167fac6fa858e9350a46cec16539926e0fde25b7629f84b5a72bffaae4df888ae86d60405160405180910390a250565b6108a481600161099290919063ffffffff16565b8073ffffffffffffffffffffffffffffffffffffffff167f80c0b871b97b595b16a7741c1b06fed0c6f6f558639f18ccbce50724325dc40d60405160405180910390a250565b6108f4828261076e565b15610934576040517f08c379a000000000000000000000000000000000000000000000000000000000815260040161092b906111ce565b60405180910390fd5b60018260000160008373ffffffffffffffffffffffffffffffffffffffff1673ffffffffffffffffffffffffffffffffffffffff16815260200190815260200160002060006101000a81548160ff0219169083151502179055505050565b61099c828261076e565b6109db576040517f08c379a00000000000000000000000000000000000000000000000000000000081526004016109d290611260565b60405180910390fd5b60008260000160008373ffffffffffffffffffffffffffffffffffffffff1673ffffffffffffffffffffffffffffffffffffffff16815260200190815260200160002060006101000a81548160ff0219169083151502179055505050565b6000604051905090565b600080fd5b600080fd5b60006101008284031215610a6457610a63610a48565b5b81905092915050565b6000819050919050565b610a8081610a6d565b8114610a8b57600080fd5b50565b600081359050610a9d81610a77565b92915050565b6000806101208385031215610abb57610aba610a43565b5b6000610ac985828601610a4d565b925050610100610adb85828601610a8e565b9150509250929050565b600073ffffffffffffffffffffffffffffffffffffffff82169050919050565b6000610b1082610ae5565b9050919050565b610b2081610b05565b8114610b2b57600080fd5b50565b600081359050610b3d81610b17565b92915050565b600060208284031215610b5957610b58610a43565b5b6000610b6784828501610b2e565b91505092915050565b60008115159050919050565b610b8581610b70565b82525050565b6000602082019050610ba06000830184610b7c565b92915050565b610baf81610b05565b82525050565b6000602082019050610bca6000830184610ba6565b92915050565b600080fd5b6000601f19601f8301169050919050565b7f4e487b7100000000000000000000000000000000000000000000000000000000600052604160045260246000fd5b610c1e82610bd5565b810181811067ffffffffffffffff82111715610c3d57610c3c610be6565b5b80604052505050565b6000610c50610a39565b9050610c5c8282610c15565b919050565b60058110610c6e57600080fd5b50565b600081359050610c8081610c61565b92915050565b600060608284031215610c9c57610c9b610bd0565b5b610ca66060610c46565b90506000610cb684828501610b2e565b6000830152506020610cca84828501610a8e565b6020830152506040610cde84828501610c71565b60408301525092915050565b60006101008284031215610d0157610d00610bd0565b5b610d0b6080610c46565b90506000610d1b84828501610b2e565b6000830152506020610d2f84828501610a8e565b6020830152506040610d4384828501610c86565b60408301525060a0610d5784828501610c86565b60608301525092915050565b60006101008284031215610d7a57610d79610a43565b5b6000610d8884828501610cea565b91505092915050565b6000819050919050565b610da481610d91565b82525050565b6000602082019050610dbf6000830184610d9b565b92915050565b610dce81610d91565b8114610dd957600080fd5b50565b600081359050610deb81610dc5565b92915050565b600060208284031215610e0757610e06610a43565b5b6000610e1584828501610ddc565b91505092915050565b610e2781610a6d565b82525050565b6000602082019050610e426000830184610e1e565b92915050565b60006101008284031215610e5f57610e5e610a43565b5b6000610e6d84828501610a4d565b91505092915050565b600082825260208201905092915050565b7f4f70657261746f72526f6c653a2063616c6c657220646f6573206e6f7420686160008201527f766520746865204f70657261746f7220726f6c65000000000000000000000000602082015250565b6000610ee3603483610e76565b9150610eee82610e87565b604082019050919050565b60006020820190508181036000830152610f1281610ed6565b9050919050565b7f4f776e61626c653a2063616c6c6572206973206e6f7420746865206f776e6572600082015250565b6000610f4f602083610e76565b9150610f5a82610f19565b602082019050919050565b60006020820190508181036000830152610f7e81610f42565b9050919050565b60008160601b9050919050565b6000610f9d82610f85565b9050919050565b6000610faf82610f92565b9050919050565b610fc7610fc282610b05565b610fa4565b82525050565b6000819050919050565b610fe8610fe382610a6d565b610fcd565b82525050565b6000610ffa8289610fb6565b60148201915061100a8288610fb6565b60148201915061101a8287610fd7565b60208201915061102a8286610fb6565b60148201915061103a8285610fd7565b60208201915061104a8284610fd7565b602082019150819050979650505050505050565b7f4f776e61626c653a206e6577206f776e657220697320746865207a65726f206160008201527f6464726573730000000000000000000000000000000000000000000000000000602082015250565b60006110ba602683610e76565b91506110c58261105e565b604082019050919050565b600060208201905081810360008301526110e9816110ad565b9050919050565b7f526f6c65733a206163636f756e7420697320746865207a65726f20616464726560008201527f7373000000000000000000000000000000000000000000000000000000000000602082015250565b600061114c602283610e76565b9150611157826110f0565b604082019050919050565b6000602082019050818103600083015261117b8161113f565b9050919050565b7f526f6c65733a206163636f756e7420616c72656164792068617320726f6c6500600082015250565b60006111b8601f83610e76565b91506111c382611182565b602082019050919050565b600060208201905081810360008301526111e7816111ab565b9050919050565b7f526f6c65733a206163636f756e7420646f6573206e6f74206861766520726f6c60008201527f6500000000000000000000000000000000000000000000000000000000000000602082015250565b600061124a602183610e76565b9150611255826111ee565b604082019050919050565b600060208201905081810360008301526112798161123d565b905091905056fea264697066735822122034ba189d7988300d1e284cc2d829de835659274220c15afa98f89c8a38ae6d4b64736f6c634300080a0033",
  "immutableReferences": {},
  "source": "// SPDX-License-Identifier: MIT\npragma solidity >=0.4.22 <0.9.0;\npragma experimental ABIEncoderV2;\n\nimport \"./ExchangeDomain.sol\";\nimport \"./OwnableOperatorRole.sol\";\n\n\ncontract ExchangeState is OwnableOperatorRole {\n\n    // keccak256(OrderKey) => completed\n    mapping(bytes32 => uint256) public completed;\n\n    function getCompleted(ExchangeDomain.OrderKey calldata key) view external returns (uint256) {\n        return completed[getCompletedKey(key)];\n    }\n\n    function setCompleted(ExchangeDomain.OrderKey calldata key, uint256 newCompleted) external onlyOperator {\n        completed[getCompletedKey(key)] = newCompleted;\n    }\n\n    function getCompletedKey(ExchangeDomain.OrderKey memory key) pure public returns (bytes32) {\n        return keccak256(abi.encodePacked(key.owner, key.sellAsset.token, key.sellAsset.tokenId, key.buyAsset.token, key.buyAsset.tokenId, key.salt));\n    }\n}\n",
  "sourcePath": "/home/ec2-user/test-contract/contracts/exchange/ExchangeState.sol",
  "compiler": {
    "name": "solc",
    "version": "0.8.10+commit.fc410830.Emscripten.clang"
  },
  "schemaVersion": "3.4.3",
  "updatedAt": "2021-12-04T11:42:34.428Z",
  "networkType": "ethereum",
  "devdoc": {
    "kind": "dev",
    "methods": {
      "owner()": {
        "details": "Returns the address of the current owner."
      },
      "renounceOwnership()": {
        "details": "Leaves the contract without owner. It will not be possible to call `onlyOwner` functions anymore. Can only be called by the current owner. NOTE: Renouncing ownership will leave the contract without an owner, thereby removing any functionality that is only available to the owner."
      },
      "transferOwnership(address)": {
        "details": "Transfers ownership of the contract to a new account (`newOwner`). Can only be called by the current owner."
      }
    },
    "version": 1
  },
  "userdoc": {
    "kind": "user",
    "methods": {},
    "version": 1
  }
}