{
  "contractName": "ExchangeOrdersHolder",
  "abi": [
    {
      "inputs": [
        {
          "components": [
            {
              "components": [
                {
                  "internalType": "address",
                  "name": "owner",
                  "type": "address"
                },
                {
                  "internalType": "uint256",
                  "name": "salt",
                  "type": "uint256"
                },
                {
                  "components": [
                    {
                      "internalType": "address",
                      "name": "token",
                      "type": "address"
                    },
                    {
                      "internalType": "uint256",
                      "name": "tokenId",
                      "type": "uint256"
                    },
                    {
                      "internalType": "enum ExchangeDomain.AssetType",
                      "name": "assetType",
                      "type": "uint8"
                    }
                  ],
                  "internalType": "struct ExchangeDomain.Asset",
                  "name": "sellAsset",
                  "type": "tuple"
                },
                {
                  "components": [
                    {
                      "internalType": "address",
                      "name": "token",
                      "type": "address"
                    },
                    {
                      "internalType": "uint256",
                      "name": "tokenId",
                      "type": "uint256"
                    },
                    {
                      "internalType": "enum ExchangeDomain.AssetType",
                      "name": "assetType",
                      "type": "uint8"
                    }
                  ],
                  "internalType": "struct ExchangeDomain.Asset",
                  "name": "buyAsset",
                  "type": "tuple"
                }
              ],
              "internalType": "struct ExchangeDomain.OrderKey",
              "name": "key",
              "type": "tuple"
            },
            {
              "internalType": "uint256",
              "name": "selling",
              "type": "uint256"
            },
            {
              "internalType": "uint256",
              "name": "buying",
              "type": "uint256"
            },
            {
              "internalType": "uint256",
              "name": "sellerFee",
              "type": "uint256"
            }
          ],
          "internalType": "struct ExchangeDomain.Order",
          "name": "order",
          "type": "tuple"
        }
      ],
      "name": "add",
      "outputs": [],
      "stateMutability": "nonpayable",
      "type": "function"
    },
    {
      "inputs": [
        {
          "components": [
            {
              "components": [
                {
                  "internalType": "address",
                  "name": "owner",
                  "type": "address"
                },
                {
                  "internalType": "uint256",
                  "name": "salt",
                  "type": "uint256"
                },
                {
                  "components": [
                    {
                      "internalType": "address",
                      "name": "token",
                      "type": "address"
                    },
                    {
                      "internalType": "uint256",
                      "name": "tokenId",
                      "type": "uint256"
                    },
                    {
                      "internalType": "enum ExchangeDomain.AssetType",
                      "name": "assetType",
                      "type": "uint8"
                    }
                  ],
                  "internalType": "struct ExchangeDomain.Asset",
                  "name": "sellAsset",
                  "type": "tuple"
                },
                {
                  "components": [
                    {
                      "internalType": "address",
                      "name": "token",
                      "type": "address"
                    },
                    {
                      "internalType": "uint256",
                      "name": "tokenId",
                      "type": "uint256"
                    },
                    {
                      "internalType": "enum ExchangeDomain.AssetType",
                      "name": "assetType",
                      "type": "uint8"
                    }
                  ],
                  "internalType": "struct ExchangeDomain.Asset",
                  "name": "buyAsset",
                  "type": "tuple"
                }
              ],
              "internalType": "struct ExchangeDomain.OrderKey",
              "name": "key",
              "type": "tuple"
            },
            {
              "internalType": "uint256",
              "name": "selling",
              "type": "uint256"
            },
            {
              "internalType": "uint256",
              "name": "buying",
              "type": "uint256"
            },
            {
              "internalType": "uint256",
              "name": "sellerFee",
              "type": "uint256"
            }
          ],
          "internalType": "struct ExchangeDomain.Order",
          "name": "order",
          "type": "tuple"
        }
      ],
      "name": "exists",
      "outputs": [
        {
          "internalType": "bool",
          "name": "",
          "type": "bool"
        }
      ],
      "stateMutability": "view",
      "type": "function",
      "constant": true
    }
  ],
  "bytecode": "0x608060405234801561001057600080fd5b5061078a806100206000396000f3fe608060405234801561001057600080fd5b50600436106100365760003560e01c80632aee7a311461003b5780639f6cc6d61461006b575b600080fd5b610055600480360381019061005091906102d0565b610087565b6040516100629190610319565b60405180910390f35b610085600480360381019061008091906102d0565b610121565b005b6000806100a38380360381019061009e91906105d7565b610222565b9050600080600083815260200190815260200160002060405180606001604052908160008201548152602001600182015481526020016002820154815250509050836101200135816020015114801561010457508361010001358160000151145b801561011857508361014001358160400151145b92505050919050565b8060000160000160208101906101379190610605565b73ffffffffffffffffffffffffffffffffffffffff163373ffffffffffffffffffffffffffffffffffffffff16146101a4576040517f08c379a000000000000000000000000000000000000000000000000000000000815260040161019b906106b5565b60405180910390fd5b60006101bf828036038101906101ba91906105d7565b610222565b90506040518060600160405280836101000135815260200183610120013581526020018361014001358152506000808381526020019081526020016000206000820151816000015560208201518160010155604082015181600201559050505050565b60008160000151604001516000015182600001516040015160200151836000015160000151846000015160600151600001518560000151606001516020015186600001516020015160405160200161027f969594939291906106f3565b604051602081830303815290604052805190602001209050919050565b6000604051905090565b600080fd5b600080fd5b600061016082840312156102c7576102c66102ab565b5b81905092915050565b600061016082840312156102e7576102e66102a6565b5b60006102f5848285016102b0565b91505092915050565b60008115159050919050565b610313816102fe565b82525050565b600060208201905061032e600083018461030a565b92915050565b600080fd5b6000601f19601f8301169050919050565b7f4e487b7100000000000000000000000000000000000000000000000000000000600052604160045260246000fd5b61038282610339565b810181811067ffffffffffffffff821117156103a1576103a061034a565b5b80604052505050565b60006103b461029c565b90506103c08282610379565b919050565b600073ffffffffffffffffffffffffffffffffffffffff82169050919050565b60006103f0826103c5565b9050919050565b610400816103e5565b811461040b57600080fd5b50565b60008135905061041d816103f7565b92915050565b6000819050919050565b61043681610423565b811461044157600080fd5b50565b6000813590506104538161042d565b92915050565b6005811061046657600080fd5b50565b60008135905061047881610459565b92915050565b60006060828403121561049457610493610334565b5b61049e60606103aa565b905060006104ae8482850161040e565b60008301525060206104c284828501610444565b60208301525060406104d684828501610469565b60408301525092915050565b600061010082840312156104f9576104f8610334565b5b61050360806103aa565b905060006105138482850161040e565b600083015250602061052784828501610444565b602083015250604061053b8482850161047e565b60408301525060a061054f8482850161047e565b60608301525092915050565b6000610160828403121561057257610571610334565b5b61057c60806103aa565b9050600061058c848285016104e2565b6000830152506101006105a184828501610444565b6020830152506101206105b684828501610444565b6040830152506101406105cb84828501610444565b60608301525092915050565b600061016082840312156105ee576105ed6102a6565b5b60006105fc8482850161055b565b91505092915050565b60006020828403121561061b5761061a6102a6565b5b60006106298482850161040e565b91505092915050565b600082825260208201905092915050565b7f6f7264657220636f756c64206265206164646564206279206f776e6572206f6e60008201527f6c79000000000000000000000000000000000000000000000000000000000000602082015250565b600061069f602283610632565b91506106aa82610643565b604082019050919050565b600060208201905081810360008301526106ce81610692565b9050919050565b6106de816103e5565b82525050565b6106ed81610423565b82525050565b600060c08201905061070860008301896106d5565b61071560208301886106e4565b61072260408301876106d5565b61072f60608301866106d5565b61073c60808301856106e4565b61074960a08301846106e4565b97965050505050505056fea2646970667358221220337d6bdca9da4d5aff51a0bf14245564c212817a750126c94decdea80882d9b964736f6c634300080a0033",
  "immutableReferences": {},
  "source": "// SPDX-License-Identifier: MIT\npragma solidity >=0.4.22 <0.9.0;\npragma experimental ABIEncoderV2;\n\n\nimport \"./ExchangeDomain.sol\";\n\ncontract ExchangeOrdersHolder {\n\n    mapping(bytes32 => OrderParams) internal orders;\n\n    struct OrderParams {\n        /* how much has owner (in wei, or UINT256_MAX if ERC-721) */\n        uint selling;\n        /* how much wants owner (in wei, or UINT256_MAX if ERC-721) */\n        uint buying;\n\n        /* fee for selling */\n        uint sellerFee;\n    }\n\n    function add(ExchangeDomain.Order calldata order) external {\n        require(msg.sender == order.key.owner, \"order could be added by owner only\");\n        bytes32 key = prepareKey(order);\n        orders[key] = OrderParams(order.selling, order.buying, order.sellerFee);\n    }\n\n    function exists(ExchangeDomain.Order calldata order) external view returns (bool) {\n        bytes32 key = prepareKey(order);\n        OrderParams memory params = orders[key];\n        return params.buying == order.buying && params.selling == order.selling && params.sellerFee == order.sellerFee;\n    }\n\n    function prepareKey(ExchangeDomain.Order memory order) internal pure returns (bytes32) {\n        return keccak256(abi.encode(\n                order.key.sellAsset.token,\n                order.key.sellAsset.tokenId,\n                order.key.owner,\n                order.key.buyAsset.token,\n                order.key.buyAsset.tokenId,\n                order.key.salt\n            ));\n    }\n}\n",
  "sourcePath": "/home/ec2-user/test-contract/contracts/exchange/ExchangeOrdersHolder.sol",
  "compiler": {
    "name": "solc",
    "version": "0.8.10+commit.fc410830.Emscripten.clang"
  },
  "schemaVersion": "3.4.3",
  "updatedAt": "2021-12-04T11:42:34.434Z",
  "networkType": "ethereum",
  "devdoc": {
    "kind": "dev",
    "methods": {},
    "version": 1
  },
  "userdoc": {
    "kind": "user",
    "methods": {},
    "version": 1
  }
}