{
  "contractName": "HasContractURI",
  "abi": [
    {
      "inputs": [
        {
          "internalType": "string",
          "name": "_contractURI",
          "type": "string"
        }
      ],
      "stateMutability": "nonpayable",
      "type": "constructor"
    },
    {
      "inputs": [],
      "name": "contractURI",
      "outputs": [
        {
          "internalType": "string",
          "name": "",
          "type": "string"
        }
      ],
      "stateMutability": "view",
      "type": "function"
    },
    {
      "inputs": [
        {
          "internalType": "bytes4",
          "name": "interfaceId",
          "type": "bytes4"
        }
      ],
      "name": "supportsInterface",
      "outputs": [
        {
          "internalType": "bool",
          "name": "",
          "type": "bool"
        }
      ],
      "stateMutability": "view",
      "type": "function"
    }
  ],
  "bytecode": "0x60806040523480156200001157600080fd5b5060405162000885380380620008858339818101604052810190620000379190620003ac565b6200004f6301ffc9a760e01b6200008760201b60201c565b8060019080519060200190620000679291906200015f565b506200008063e8a3d48560e01b6200008760201b60201c565b50620004e5565b63ffffffff60e01b817bffffffffffffffffffffffffffffffffffffffffffffffffffffffff19161415620000f3576040517f08c379a0000000000000000000000000000000000000000000000000000000008152600401620000ea906200045e565b60405180910390fd5b6001600080837bffffffffffffffffffffffffffffffffffffffffffffffffffffffff19167bffffffffffffffffffffffffffffffffffffffffffffffffffffffff1916815260200190815260200160002060006101000a81548160ff02191690831515021790555050565b8280546200016d90620004af565b90600052602060002090601f016020900481019282620001915760008555620001dd565b82601f10620001ac57805160ff1916838001178555620001dd565b82800160010185558215620001dd579182015b82811115620001dc578251825591602001919060010190620001bf565b5b509050620001ec9190620001f0565b5090565b5b808211156200020b576000816000905550600101620001f1565b5090565b6000604051905090565b600080fd5b600080fd5b600080fd5b600080fd5b6000601f19601f8301169050919050565b7f4e487b7100000000000000000000000000000000000000000000000000000000600052604160045260246000fd5b62000278826200022d565b810181811067ffffffffffffffff821117156200029a57620002996200023e565b5b80604052505050565b6000620002af6200020f565b9050620002bd82826200026d565b919050565b600067ffffffffffffffff821115620002e057620002df6200023e565b5b620002eb826200022d565b9050602081019050919050565b60005b8381101562000318578082015181840152602081019050620002fb565b8381111562000328576000848401525b50505050565b6000620003456200033f84620002c2565b620002a3565b90508281526020810184848401111562000364576200036362000228565b5b62000371848285620002f8565b509392505050565b600082601f83011262000391576200039062000223565b5b8151620003a38482602086016200032e565b91505092915050565b600060208284031215620003c557620003c462000219565b5b600082015167ffffffffffffffff811115620003e657620003e56200021e565b5b620003f48482850162000379565b91505092915050565b600082825260208201905092915050565b7f4552433136353a20696e76616c696420696e7465726661636520696400000000600082015250565b600062000446601c83620003fd565b915062000453826200040e565b602082019050919050565b60006020820190508181036000830152620004798162000437565b9050919050565b7f4e487b7100000000000000000000000000000000000000000000000000000000600052602260045260246000fd5b60006002820490506001821680620004c857607f821691505b60208210811415620004df57620004de62000480565b5b50919050565b61039080620004f56000396000f3fe608060405234801561001057600080fd5b50600436106100365760003560e01c806301ffc9a71461003b578063e8a3d4851461006b575b600080fd5b610055600480360381019061005091906101db565b610089565b6040516100629190610223565b60405180910390f35b6100736100f0565b60405161008091906102d7565b60405180910390f35b6000806000837bffffffffffffffffffffffffffffffffffffffffffffffffffffffff19167bffffffffffffffffffffffffffffffffffffffffffffffffffffffff1916815260200190815260200160002060009054906101000a900460ff169050919050565b600180546100fd90610328565b80601f016020809104026020016040519081016040528092919081815260200182805461012990610328565b80156101765780601f1061014b57610100808354040283529160200191610176565b820191906000526020600020905b81548152906001019060200180831161015957829003601f168201915b505050505081565b600080fd5b60007fffffffff0000000000000000000000000000000000000000000000000000000082169050919050565b6101b881610183565b81146101c357600080fd5b50565b6000813590506101d5816101af565b92915050565b6000602082840312156101f1576101f061017e565b5b60006101ff848285016101c6565b91505092915050565b60008115159050919050565b61021d81610208565b82525050565b60006020820190506102386000830184610214565b92915050565b600081519050919050565b600082825260208201905092915050565b60005b8381101561027857808201518184015260208101905061025d565b83811115610287576000848401525b50505050565b6000601f19601f8301169050919050565b60006102a98261023e565b6102b38185610249565b93506102c381856020860161025a565b6102cc8161028d565b840191505092915050565b600060208201905081810360008301526102f1818461029e565b905092915050565b7f4e487b7100000000000000000000000000000000000000000000000000000000600052602260045260246000fd5b6000600282049050600182168061034057607f821691505b60208210811415610354576103536102f9565b5b5091905056fea26469706673582212208406ae08930d20f4924d9ecccbd1b2639d7483ef88894419fc150749d923d4e564736f6c634300080a0033",
  "immutableReferences": {},
  "source": "// SPDX-License-Identifier: MIT\npragma solidity >=0.4.22 <0.9.0;\npragma experimental ABIEncoderV2;\n\nimport \"./ERC165.sol\";\n\ncontract HasContractURI is ERC165 {\n\n    string public contractURI;\n\n    /*\n     * bytes4(keccak256('contractURI()')) == 0xe8a3d485\n     */\n    bytes4 private constant _INTERFACE_ID_CONTRACT_URI = 0xe8a3d485;\n\n    constructor(string memory _contractURI) {\n        contractURI = _contractURI;\n        _registerInterface(_INTERFACE_ID_CONTRACT_URI);\n    }\n\n    /**\n     * @dev Internal function to set the contract URI\n     * @param _contractURI string URI prefix to assign\n     */\n    function _setContractURI(string memory _contractURI) internal {\n        contractURI = _contractURI;\n    }\n}\n",
  "sourcePath": "/home/ec2-user/test-contract/contracts/lib/contracts/HasContractURI.sol",
  "compiler": {
    "name": "solc",
    "version": "0.8.10+commit.fc410830.Emscripten.clang"
  },
  "schemaVersion": "3.4.3",
  "updatedAt": "2021-12-04T11:19:58.402Z",
  "devdoc": {
    "kind": "dev",
    "methods": {
      "supportsInterface(bytes4)": {
        "details": "See {IERC165-supportsInterface}. Time complexity O(1), guaranteed to always use less than 30 000 gas."
      }
    },
    "version": 1
  },
  "userdoc": {
    "kind": "user",
    "methods": {},
    "version": 1
  }
}