{
  "contractName": "LibPart",
  "abi": [
    {
      "inputs": [],
      "name": "TYPE_HASH",
      "outputs": [
        {
          "internalType": "bytes32",
          "name": "",
          "type": "bytes32"
        }
      ],
      "stateMutability": "view",
      "type": "function"
    }
  ],
  "bytecode": "0x60dc610052600b82828239805160001a607314610045577f4e487b7100000000000000000000000000000000000000000000000000000000600052600060045260246000fd5b30600052607381538281f3fe730000000000000000000000000000000000000000301460806040526004361060335760003560e01c806364d4c819146038575b600080fd5b603e6052565b60405160499190608d565b60405180910390f35b7f397e04204c1e1a60ee8724b71f8244e10ab5f2e9009854d80f602bda21b59ebb81565b6000819050919050565b6087816076565b82525050565b600060208201905060a060008301846080565b9291505056fea2646970667358221220aa59e1c754ea1011443c7070b557ad5564408bc1c9fa1ee9bf28ab98fa6a5b4364736f6c634300080a0033",
  "immutableReferences": {},
  "source": "// SPDX-License-Identifier: MIT\npragma solidity >=0.4.22 <0.9.0;\npragma experimental ABIEncoderV2;\n\nlibrary LibPart {\n    bytes32 public constant TYPE_HASH = keccak256(\"Part(address account,uint96 value)\");\n\n    struct Part {\n        address payable account;\n        uint96 value;\n    }\n\n    function hash(Part memory part) internal pure returns (bytes32) {\n        return keccak256(abi.encode(TYPE_HASH, part.account, part.value));\n    }\n}\n",
  "sourcePath": "/home/ec2-user/test-contract/contracts/lib/utils/LibPart.sol",
  "compiler": {
    "name": "solc",
    "version": "0.8.10+commit.fc410830.Emscripten.clang"
  },
  "schemaVersion": "3.4.3",
  "updatedAt": "2021-12-04T11:19:58.424Z",
  "devdoc": {
    "kind": "dev",
    "methods": {},
    "version": 1
  },
  "userdoc": {
    "kind": "user",
    "methods": {},
    "version": 1
  }
}