{
  "contractName": "NFT1155",
  "abi": [
    {
      "inputs": [
        {
          "internalType": "string",
          "name": "_name",
          "type": "string"
        },
        {
          "internalType": "string",
          "name": "_symbol",
          "type": "string"
        },
        {
          "internalType": "address",
          "name": "signer",
          "type": "address"
        },
        {
          "internalType": "string",
          "name": "contractURI",
          "type": "string"
        },
        {
          "internalType": "string",
          "name": "tokenURIPrefix",
          "type": "string"
        }
      ],
      "stateMutability": "nonpayable",
      "type": "constructor"
    },
    {
      "anonymous": false,
      "inputs": [
        {
          "indexed": true,
          "internalType": "address",
          "name": "_owner",
          "type": "address"
        },
        {
          "indexed": true,
          "internalType": "address",
          "name": "_operator",
          "type": "address"
        },
        {
          "indexed": false,
          "internalType": "bool",
          "name": "_approved",
          "type": "bool"
        }
      ],
      "name": "ApprovalForAll",
      "type": "event"
    },
    {
      "anonymous": false,
      "inputs": [
        {
          "indexed": true,
          "internalType": "address",
          "name": "previousOwner",
          "type": "address"
        },
        {
          "indexed": true,
          "internalType": "address",
          "name": "newOwner",
          "type": "address"
        }
      ],
      "name": "OwnershipTransferred",
      "type": "event"
    },
    {
      "anonymous": false,
      "inputs": [
        {
          "indexed": false,
          "internalType": "uint256",
          "name": "tokenId",
          "type": "uint256"
        },
        {
          "indexed": false,
          "internalType": "address[]",
          "name": "recipients",
          "type": "address[]"
        },
        {
          "indexed": false,
          "internalType": "uint256[]",
          "name": "bps",
          "type": "uint256[]"
        }
      ],
      "name": "SecondarySaleFees",
      "type": "event"
    },
    {
      "anonymous": false,
      "inputs": [
        {
          "indexed": true,
          "internalType": "address",
          "name": "account",
          "type": "address"
        }
      ],
      "name": "SignerAdded",
      "type": "event"
    },
    {
      "anonymous": false,
      "inputs": [
        {
          "indexed": true,
          "internalType": "address",
          "name": "account",
          "type": "address"
        }
      ],
      "name": "SignerRemoved",
      "type": "event"
    },
    {
      "anonymous": false,
      "inputs": [
        {
          "indexed": true,
          "internalType": "address",
          "name": "_operator",
          "type": "address"
        },
        {
          "indexed": true,
          "internalType": "address",
          "name": "_from",
          "type": "address"
        },
        {
          "indexed": true,
          "internalType": "address",
          "name": "_to",
          "type": "address"
        },
        {
          "indexed": false,
          "internalType": "uint256[]",
          "name": "_ids",
          "type": "uint256[]"
        },
        {
          "indexed": false,
          "internalType": "uint256[]",
          "name": "_values",
          "type": "uint256[]"
        }
      ],
      "name": "TransferBatch",
      "type": "event"
    },
    {
      "anonymous": false,
      "inputs": [
        {
          "indexed": true,
          "internalType": "address",
          "name": "_operator",
          "type": "address"
        },
        {
          "indexed": true,
          "internalType": "address",
          "name": "_from",
          "type": "address"
        },
        {
          "indexed": true,
          "internalType": "address",
          "name": "_to",
          "type": "address"
        },
        {
          "indexed": false,
          "internalType": "uint256",
          "name": "_id",
          "type": "uint256"
        },
        {
          "indexed": false,
          "internalType": "uint256",
          "name": "_value",
          "type": "uint256"
        }
      ],
      "name": "TransferSingle",
      "type": "event"
    },
    {
      "anonymous": false,
      "inputs": [
        {
          "indexed": false,
          "internalType": "string",
          "name": "_value",
          "type": "string"
        },
        {
          "indexed": true,
          "internalType": "uint256",
          "name": "_id",
          "type": "uint256"
        }
      ],
      "name": "URI",
      "type": "event"
    },
    {
      "inputs": [
        {
          "internalType": "address",
          "name": "_owner",
          "type": "address"
        },
        {
          "internalType": "uint256",
          "name": "_id",
          "type": "uint256"
        }
      ],
      "name": "balanceOf",
      "outputs": [
        {
          "internalType": "uint256",
          "name": "",
          "type": "uint256"
        }
      ],
      "stateMutability": "view",
      "type": "function",
      "constant": true
    },
    {
      "inputs": [
        {
          "internalType": "address[]",
          "name": "_owners",
          "type": "address[]"
        },
        {
          "internalType": "uint256[]",
          "name": "_ids",
          "type": "uint256[]"
        }
      ],
      "name": "balanceOfBatch",
      "outputs": [
        {
          "internalType": "uint256[]",
          "name": "",
          "type": "uint256[]"
        }
      ],
      "stateMutability": "view",
      "type": "function",
      "constant": true
    },
    {
      "inputs": [
        {
          "internalType": "address",
          "name": "_owner",
          "type": "address"
        },
        {
          "internalType": "uint256",
          "name": "_id",
          "type": "uint256"
        },
        {
          "internalType": "uint256",
          "name": "_value",
          "type": "uint256"
        }
      ],
      "name": "burn",
      "outputs": [],
      "stateMutability": "nonpayable",
      "type": "function"
    },
    {
      "inputs": [],
      "name": "contractURI",
      "outputs": [
        {
          "internalType": "string",
          "name": "",
          "type": "string"
        }
      ],
      "stateMutability": "view",
      "type": "function",
      "constant": true
    },
    {
      "inputs": [
        {
          "internalType": "uint256",
          "name": "",
          "type": "uint256"
        }
      ],
      "name": "creators",
      "outputs": [
        {
          "internalType": "address",
          "name": "",
          "type": "address"
        }
      ],
      "stateMutability": "view",
      "type": "function",
      "constant": true
    },
    {
      "inputs": [
        {
          "internalType": "uint256",
          "name": "",
          "type": "uint256"
        },
        {
          "internalType": "uint256",
          "name": "",
          "type": "uint256"
        }
      ],
      "name": "fees",
      "outputs": [
        {
          "internalType": "address payable",
          "name": "recipient",
          "type": "address"
        },
        {
          "internalType": "uint256",
          "name": "value",
          "type": "uint256"
        }
      ],
      "stateMutability": "view",
      "type": "function",
      "constant": true
    },
    {
      "inputs": [
        {
          "internalType": "uint256",
          "name": "id",
          "type": "uint256"
        }
      ],
      "name": "getFeeBps",
      "outputs": [
        {
          "internalType": "uint256[]",
          "name": "",
          "type": "uint256[]"
        }
      ],
      "stateMutability": "view",
      "type": "function",
      "constant": true
    },
    {
      "inputs": [
        {
          "internalType": "uint256",
          "name": "id",
          "type": "uint256"
        }
      ],
      "name": "getFeeRecipients",
      "outputs": [
        {
          "internalType": "address payable[]",
          "name": "",
          "type": "address[]"
        }
      ],
      "stateMutability": "view",
      "type": "function",
      "constant": true
    },
    {
      "inputs": [
        {
          "internalType": "address",
          "name": "_owner",
          "type": "address"
        },
        {
          "internalType": "address",
          "name": "_operator",
          "type": "address"
        }
      ],
      "name": "isApprovedForAll",
      "outputs": [
        {
          "internalType": "bool",
          "name": "",
          "type": "bool"
        }
      ],
      "stateMutability": "view",
      "type": "function",
      "constant": true
    },
    {
      "inputs": [
        {
          "internalType": "address",
          "name": "account",
          "type": "address"
        }
      ],
      "name": "isSigner",
      "outputs": [
        {
          "internalType": "bool",
          "name": "",
          "type": "bool"
        }
      ],
      "stateMutability": "view",
      "type": "function",
      "constant": true
    },
    {
      "inputs": [],
      "name": "name",
      "outputs": [
        {
          "internalType": "string",
          "name": "",
          "type": "string"
        }
      ],
      "stateMutability": "view",
      "type": "function",
      "constant": true
    },
    {
      "inputs": [],
      "name": "owner",
      "outputs": [
        {
          "internalType": "address",
          "name": "",
          "type": "address"
        }
      ],
      "stateMutability": "view",
      "type": "function",
      "constant": true
    },
    {
      "inputs": [],
      "name": "renounceOwnership",
      "outputs": [],
      "stateMutability": "nonpayable",
      "type": "function"
    },
    {
      "inputs": [],
      "name": "renounceSigner",
      "outputs": [],
      "stateMutability": "nonpayable",
      "type": "function"
    },
    {
      "inputs": [
        {
          "internalType": "address",
          "name": "_from",
          "type": "address"
        },
        {
          "internalType": "address",
          "name": "_to",
          "type": "address"
        },
        {
          "internalType": "uint256[]",
          "name": "_ids",
          "type": "uint256[]"
        },
        {
          "internalType": "uint256[]",
          "name": "_values",
          "type": "uint256[]"
        },
        {
          "internalType": "bytes",
          "name": "_data",
          "type": "bytes"
        }
      ],
      "name": "safeBatchTransferFrom",
      "outputs": [],
      "stateMutability": "nonpayable",
      "type": "function"
    },
    {
      "inputs": [
        {
          "internalType": "address",
          "name": "_from",
          "type": "address"
        },
        {
          "internalType": "address",
          "name": "_to",
          "type": "address"
        },
        {
          "internalType": "uint256",
          "name": "_id",
          "type": "uint256"
        },
        {
          "internalType": "uint256",
          "name": "_value",
          "type": "uint256"
        },
        {
          "internalType": "bytes",
          "name": "_data",
          "type": "bytes"
        }
      ],
      "name": "safeTransferFrom",
      "outputs": [],
      "stateMutability": "nonpayable",
      "type": "function"
    },
    {
      "inputs": [
        {
          "internalType": "address",
          "name": "_operator",
          "type": "address"
        },
        {
          "internalType": "bool",
          "name": "_approved",
          "type": "bool"
        }
      ],
      "name": "setApprovalForAll",
      "outputs": [],
      "stateMutability": "nonpayable",
      "type": "function"
    },
    {
      "inputs": [
        {
          "internalType": "string",
          "name": "contractURI",
          "type": "string"
        }
      ],
      "name": "setContractURI",
      "outputs": [],
      "stateMutability": "nonpayable",
      "type": "function"
    },
    {
      "inputs": [
        {
          "internalType": "string",
          "name": "tokenURIPrefix",
          "type": "string"
        }
      ],
      "name": "setTokenURIPrefix",
      "outputs": [],
      "stateMutability": "nonpayable",
      "type": "function"
    },
    {
      "inputs": [
        {
          "internalType": "bytes4",
          "name": "interfaceId",
          "type": "bytes4"
        }
      ],
      "name": "supportsInterface",
      "outputs": [
        {
          "internalType": "bool",
          "name": "",
          "type": "bool"
        }
      ],
      "stateMutability": "view",
      "type": "function",
      "constant": true
    },
    {
      "inputs": [],
      "name": "symbol",
      "outputs": [
        {
          "internalType": "string",
          "name": "",
          "type": "string"
        }
      ],
      "stateMutability": "view",
      "type": "function",
      "constant": true
    },
    {
      "inputs": [],
      "name": "tokenURIPrefix",
      "outputs": [
        {
          "internalType": "string",
          "name": "",
          "type": "string"
        }
      ],
      "stateMutability": "view",
      "type": "function",
      "constant": true
    },
    {
      "inputs": [
        {
          "internalType": "address",
          "name": "newOwner",
          "type": "address"
        }
      ],
      "name": "transferOwnership",
      "outputs": [],
      "stateMutability": "nonpayable",
      "type": "function"
    },
    {
      "inputs": [
        {
          "internalType": "uint256",
          "name": "_id",
          "type": "uint256"
        }
      ],
      "name": "uri",
      "outputs": [
        {
          "internalType": "string",
          "name": "",
          "type": "string"
        }
      ],
      "stateMutability": "view",
      "type": "function",
      "constant": true
    },
    {
      "inputs": [
        {
          "internalType": "address",
          "name": "account",
          "type": "address"
        }
      ],
      "name": "addSigner",
      "outputs": [],
      "stateMutability": "nonpayable",
      "type": "function"
    },
    {
      "inputs": [
        {
          "internalType": "address",
          "name": "account",
          "type": "address"
        }
      ],
      "name": "removeSigner",
      "outputs": [],
      "stateMutability": "nonpayable",
      "type": "function"
    },
    {
      "inputs": [
        {
          "internalType": "uint256",
          "name": "id",
          "type": "uint256"
        },
        {
          "internalType": "uint8",
          "name": "v",
          "type": "uint8"
        },
        {
          "internalType": "bytes32",
          "name": "r",
          "type": "bytes32"
        },
        {
          "internalType": "bytes32",
          "name": "s",
          "type": "bytes32"
        },
        {
          "components": [
            {
              "internalType": "address payable",
              "name": "recipient",
              "type": "address"
            },
            {
              "internalType": "uint256",
              "name": "value",
              "type": "uint256"
            }
          ],
          "internalType": "struct ERC1155Base.Fee[]",
          "name": "fees",
          "type": "tuple[]"
        },
        {
          "internalType": "uint256",
          "name": "supply",
          "type": "uint256"
        },
        {
          "internalType": "string",
          "name": "uri",
          "type": "string"
        }
      ],
      "name": "mint",
      "outputs": [],
      "stateMutability": "nonpayable",
      "type": "function"
    }
  ],
  "bytecode": "0x60806040523480156200001157600080fd5b50604051620059ab380380620059ab833981810160405281019062000037919062000794565b8181818180620000546301ffc9a760e01b6200022360201b60201c565b6200006c63b779958460e01b6200022360201b60201c565b60006200007e620002fb60201b60201c565b905080600160006101000a81548173ffffffffffffffffffffffffffffffffffffffff021916908373ffffffffffffffffffffffffffffffffffffffff1602179055508073ffffffffffffffffffffffffffffffffffffffff16600073ffffffffffffffffffffffffffffffffffffffff167f8be0079c531659141344cd1fd0a4f28419497f9722a3daafe3b4186f6b6457e060405160405180910390a3506200013d62000131620002fb60201b60201c565b6200030360201b60201c565b806003908051906020019062000155929190620004e2565b505050806005908051906020019062000170929190620004e2565b506200018963e8a3d48560e01b6200022360201b60201c565b50620001a263d9b67a2660e01b6200022360201b60201c565b505084600a9080519060200190620001bc929190620004e2565b5083600b9080519060200190620001d5929190620004e2565b50620001e7836200030360201b60201c565b620002187fe37243f27916e395706434720b54132b80ef5cc8c56f39b0df6485e8dfb697cf6200022360201b60201c565b505050505062000a8a565b63ffffffff60e01b817bffffffffffffffffffffffffffffffffffffffffffffffffffffffff191614156200028f576040517f08c379a00000000000000000000000000000000000000000000000000000000081526004016200028690620008f9565b60405180910390fd5b6001600080837bffffffffffffffffffffffffffffffffffffffffffffffffffffffff19167bffffffffffffffffffffffffffffffffffffffffffffffffffffffff1916815260200190815260200160002060006101000a81548160ff02191690831515021790555050565b600033905090565b6200031e8160026200036460201b620020861790919060201c565b8073ffffffffffffffffffffffffffffffffffffffff167f47d1c22a25bb3a5d4e481b9b1e6944c2eade3181a0a20b495ed61d35b5323f2460405160405180910390a250565b6200037682826200041760201b60201c565b15620003b9576040517f08c379a0000000000000000000000000000000000000000000000000000000008152600401620003b0906200096b565b60405180910390fd5b60018260000160008373ffffffffffffffffffffffffffffffffffffffff1673ffffffffffffffffffffffffffffffffffffffff16815260200190815260200160002060006101000a81548160ff0219169083151502179055505050565b60008073ffffffffffffffffffffffffffffffffffffffff168273ffffffffffffffffffffffffffffffffffffffff1614156200048b576040517f08c379a0000000000000000000000000000000000000000000000000000000008152600401620004829062000a03565b60405180910390fd5b8260000160008373ffffffffffffffffffffffffffffffffffffffff1673ffffffffffffffffffffffffffffffffffffffff16815260200190815260200160002060009054906101000a900460ff16905092915050565b828054620004f09062000a54565b90600052602060002090601f01602090048101928262000514576000855562000560565b82601f106200052f57805160ff191683800117855562000560565b8280016001018555821562000560579182015b828111156200055f57825182559160200191906001019062000542565b5b5090506200056f919062000573565b5090565b5b808211156200058e57600081600090555060010162000574565b5090565b6000604051905090565b600080fd5b600080fd5b600080fd5b600080fd5b6000601f19601f8301169050919050565b7f4e487b7100000000000000000000000000000000000000000000000000000000600052604160045260246000fd5b620005fb82620005b0565b810181811067ffffffffffffffff821117156200061d576200061c620005c1565b5b80604052505050565b60006200063262000592565b9050620006408282620005f0565b919050565b600067ffffffffffffffff821115620006635762000662620005c1565b5b6200066e82620005b0565b9050602081019050919050565b60005b838110156200069b5780820151818401526020810190506200067e565b83811115620006ab576000848401525b50505050565b6000620006c8620006c28462000645565b62000626565b905082815260208101848484011115620006e757620006e6620005ab565b5b620006f48482856200067b565b509392505050565b600082601f830112620007145762000713620005a6565b5b815162000726848260208601620006b1565b91505092915050565b600073ffffffffffffffffffffffffffffffffffffffff82169050919050565b60006200075c826200072f565b9050919050565b6200076e816200074f565b81146200077a57600080fd5b50565b6000815190506200078e8162000763565b92915050565b600080600080600060a08688031215620007b357620007b26200059c565b5b600086015167ffffffffffffffff811115620007d457620007d3620005a1565b5b620007e288828901620006fc565b955050602086015167ffffffffffffffff811115620008065762000805620005a1565b5b6200081488828901620006fc565b945050604062000827888289016200077d565b935050606086015167ffffffffffffffff8111156200084b576200084a620005a1565b5b6200085988828901620006fc565b925050608086015167ffffffffffffffff8111156200087d576200087c620005a1565b5b6200088b88828901620006fc565b9150509295509295909350565b600082825260208201905092915050565b7f4552433136353a20696e76616c696420696e7465726661636520696400000000600082015250565b6000620008e1601c8362000898565b9150620008ee82620008a9565b602082019050919050565b600060208201905081810360008301526200091481620008d2565b9050919050565b7f526f6c65733a206163636f756e7420616c72656164792068617320726f6c6500600082015250565b600062000953601f8362000898565b915062000960826200091b565b602082019050919050565b60006020820190508181036000830152620009868162000944565b9050919050565b7f526f6c65733a206163636f756e7420697320746865207a65726f20616464726560008201527f7373000000000000000000000000000000000000000000000000000000000000602082015250565b6000620009eb60228362000898565b9150620009f8826200098d565b604082019050919050565b6000602082019050818103600083015262000a1e81620009dc565b9050919050565b7f4e487b7100000000000000000000000000000000000000000000000000000000600052602260045260246000fd5b6000600282049050600182168062000a6d57607f821691505b6020821081141562000a845762000a8362000a25565b5b50919050565b614f118062000a9a6000396000f3fe608060405234801561001057600080fd5b50600436106101a85760003560e01c806395d89b41116100f9578063e5c8b03d11610097578063eb12d61e11610071578063eb12d61e146104e0578063f242432a146104fc578063f2fde38b14610518578063f5298aca14610534576101a8565b8063e5c8b03d14610488578063e8a3d48514610492578063e985e9c5146104b0576101a8565b8063b9c4d9fb116100d3578063b9c4d9fb146103ee578063c0ac99831461041e578063c6bf32621461043c578063cd53d08e14610458576101a8565b806395d89b411461039857806399e0dd7c146103b6578063a22cb465146103d2576101a8565b80632eb2c2d611610166578063715018a611610140578063715018a6146103245780637df73e271461032e5780638da5cb5b1461035e578063938e3d7b1461037c576101a8565b80632eb2c2d6146102a75780634e1273f4146102c35780636308f1cd146102f3576101a8565b8062fdd58e146101ad57806301ffc9a7146101dd57806306fdde031461020d5780630e316ab71461022b5780630e89341c146102475780630ebd4c7f14610277575b600080fd5b6101c760048036038101906101c29190613155565b610550565b6040516101d491906131a4565b60405180910390f35b6101f760048036038101906101f29190613217565b6105ab565b604051610204919061325f565b60405180910390f35b610215610612565b6040516102229190613313565b60405180910390f35b61024560048036038101906102409190613335565b6106a0565b005b610261600480360381019061025c9190613362565b610728565b60405161026e9190613313565b60405180910390f35b610291600480360381019061028c9190613362565b61073a565b60405161029e919061344d565b60405180910390f35b6102c160048036038101906102bc919061352a565b6108bf565b005b6102dd60048036038101906102d8919061365c565b610dce565b6040516102ea919061344d565b60405180910390f35b61030d600480360381019061030891906136dd565b610f0e565b60405161031b92919061373e565b60405180910390f35b61032c610f6f565b005b61034860048036038101906103439190613335565b6110ac565b604051610355919061325f565b60405180910390f35b6103666110c9565b6040516103739190613776565b60405180910390f35b610396600480360381019061039191906138c1565b6110f3565b005b6103a061117b565b6040516103ad9190613313565b60405180910390f35b6103d060048036038101906103cb91906138c1565b611209565b005b6103ec60048036038101906103e79190613936565b611291565b005b61040860048036038101906104039190613362565b61138e565b6040516104159190613a34565b60405180910390f35b610426611541565b6040516104339190613313565b60405180910390f35b61045660048036038101906104519190613c09565b6115cf565b005b610472600480360381019061046d9190613362565b6116c9565b60405161047f9190613776565b60405180910390f35b6104906116fc565b005b61049a61170e565b6040516104a79190613313565b60405180910390f35b6104ca60048036038101906104c59190613ce3565b61179c565b6040516104d7919061325f565b60405180910390f35b6104fa60048036038101906104f59190613335565b611830565b005b61051660048036038101906105119190613d23565b6118b8565b005b610532600480360381019061052d9190613335565b611c99565b005b61054e60048036038101906105499190613dbd565b611e45565b005b60006006600083815260200190815260200160002060008473ffffffffffffffffffffffffffffffffffffffff1673ffffffffffffffffffffffffffffffffffffffff16815260200190815260200160002054905092915050565b6000806000837bffffffffffffffffffffffffffffffffffffffffffffffffffffffff19167bffffffffffffffffffffffffffffffffffffffffffffffffffffffff1916815260200190815260200160002060009054906101000a900460ff169050919050565b600a805461061f90613e3f565b80601f016020809104026020016040519081016040528092919081815260200182805461064b90613e3f565b80156106985780601f1061066d57610100808354040283529160200191610698565b820191906000526020600020905b81548152906001019060200180831161067b57829003601f168201915b505050505081565b6106a861212e565b73ffffffffffffffffffffffffffffffffffffffff166106c66110c9565b73ffffffffffffffffffffffffffffffffffffffff161461071c576040517f08c379a000000000000000000000000000000000000000000000000000000000815260040161071390613ebd565b60405180910390fd5b61072581612136565b50565b606061073382612190565b9050919050565b6060600060096000848152602001908152602001600020805480602002602001604051908101604052809291908181526020016000905b8282101561080357838290600052602060002090600202016040518060400160405290816000820160009054906101000a900473ffffffffffffffffffffffffffffffffffffffff1673ffffffffffffffffffffffffffffffffffffffff1673ffffffffffffffffffffffffffffffffffffffff16815260200160018201548152505081526020019060010190610771565b5050505090506000815167ffffffffffffffff81111561082657610825613796565b5b6040519080825280602002602001820160405280156108545781602001602082028036833780820191505090505b50905060005b82518110156108b45782818151811061087657610875613edd565b5b60200260200101516020015182828151811061089557610894613edd565b5b60200260200101818152505080806108ac90613f3b565b91505061085a565b508092505050919050565b600073ffffffffffffffffffffffffffffffffffffffff168773ffffffffffffffffffffffffffffffffffffffff16141561092f576040517f08c379a000000000000000000000000000000000000000000000000000000000815260040161092690613ff6565b60405180910390fd5b838390508686905014610977576040517f08c379a000000000000000000000000000000000000000000000000000000000815260040161096e90614088565b60405180910390fd5b3373ffffffffffffffffffffffffffffffffffffffff168873ffffffffffffffffffffffffffffffffffffffff161480610a3e575060011515600760008a73ffffffffffffffffffffffffffffffffffffffff1673ffffffffffffffffffffffffffffffffffffffff16815260200190815260200160002060003373ffffffffffffffffffffffffffffffffffffffff1673ffffffffffffffffffffffffffffffffffffffff16815260200190815260200160002060009054906101000a900460ff161515145b610a7d576040517f08c379a0000000000000000000000000000000000000000000000000000000008152600401610a749061411a565b60405180910390fd5b60005b86869050811015610c48576000878783818110610aa057610a9f613edd565b5b9050602002013590506000868684818110610abe57610abd613edd565b5b905060200201359050610b2a816006600085815260200190815260200160002060008e73ffffffffffffffffffffffffffffffffffffffff1673ffffffffffffffffffffffffffffffffffffffff168152602001908152602001600020546122d190919063ffffffff16565b6006600084815260200190815260200160002060008d73ffffffffffffffffffffffffffffffffffffffff1673ffffffffffffffffffffffffffffffffffffffff16815260200190815260200160002081905550610be16006600084815260200190815260200160002060008c73ffffffffffffffffffffffffffffffffffffffff1673ffffffffffffffffffffffffffffffffffffffff168152602001908152602001600020548261232a90919063ffffffff16565b6006600084815260200190815260200160002060008c73ffffffffffffffffffffffffffffffffffffffff1673ffffffffffffffffffffffffffffffffffffffff16815260200190815260200160002081905550505080610c4190613f3b565b9050610a80565b508673ffffffffffffffffffffffffffffffffffffffff168873ffffffffffffffffffffffffffffffffffffffff163373ffffffffffffffffffffffffffffffffffffffff167f4a39dc06d4c0dbc64b70af90fd698a233a518aa5d07e595d983b8c0526c8f7fb89898989604051610cc3949392919061419b565b60405180910390a4610cea8773ffffffffffffffffffffffffffffffffffffffff16612388565b15610dc457610dc3338989898980806020026020016040519081016040528093929190818152602001838360200280828437600081840152601f19601f82011690508083019250505050505050888880806020026020016040519081016040528093929190818152602001838360200280828437600081840152601f19601f8201169050808301925050505050505087878080601f016020809104026020016040519081016040528093929190818152602001838380828437600081840152601f19601f8201169050808301925050505050505061239b565b5b5050505050505050565b6060828290508585905014610de257600080fd5b60008585905067ffffffffffffffff811115610e0157610e00613796565b5b604051908082528060200260200182016040528015610e2f5781602001602082028036833780820191505090505b50905060005b86869050811015610f015760066000868684818110610e5757610e56613edd565b5b9050602002013581526020019081526020016000206000888884818110610e8157610e80613edd565b5b9050602002016020810190610e969190613335565b73ffffffffffffffffffffffffffffffffffffffff1673ffffffffffffffffffffffffffffffffffffffff16815260200190815260200160002054828281518110610ee457610ee3613edd565b5b60200260200101818152505080610efa90613f3b565b9050610e35565b5080915050949350505050565b60096020528160005260406000208181548110610f2a57600080fd5b9060005260206000209060020201600091509150508060000160009054906101000a900473ffffffffffffffffffffffffffffffffffffffff16908060010154905082565b610f7761212e565b73ffffffffffffffffffffffffffffffffffffffff16610f956110c9565b73ffffffffffffffffffffffffffffffffffffffff1614610feb576040517f08c379a0000000000000000000000000000000000000000000000000000000008152600401610fe290613ebd565b60405180910390fd5b600073ffffffffffffffffffffffffffffffffffffffff16600160009054906101000a900473ffffffffffffffffffffffffffffffffffffffff1673ffffffffffffffffffffffffffffffffffffffff167f8be0079c531659141344cd1fd0a4f28419497f9722a3daafe3b4186f6b6457e060405160405180910390a36000600160006101000a81548173ffffffffffffffffffffffffffffffffffffffff021916908373ffffffffffffffffffffffffffffffffffffffff160217905550565b60006110c28260026124ad90919063ffffffff16565b9050919050565b6000600160009054906101000a900473ffffffffffffffffffffffffffffffffffffffff16905090565b6110fb61212e565b73ffffffffffffffffffffffffffffffffffffffff166111196110c9565b73ffffffffffffffffffffffffffffffffffffffff161461116f576040517f08c379a000000000000000000000000000000000000000000000000000000000815260040161116690613ebd565b60405180910390fd5b61117881612575565b50565b600b805461118890613e3f565b80601f01602080910402602001604051908101604052809291908181526020018280546111b490613e3f565b80156112015780601f106111d657610100808354040283529160200191611201565b820191906000526020600020905b8154815290600101906020018083116111e457829003601f168201915b505050505081565b61121161212e565b73ffffffffffffffffffffffffffffffffffffffff1661122f6110c9565b73ffffffffffffffffffffffffffffffffffffffff1614611285576040517f08c379a000000000000000000000000000000000000000000000000000000000815260040161127c90613ebd565b60405180910390fd5b61128e8161258f565b50565b80600760003373ffffffffffffffffffffffffffffffffffffffff1673ffffffffffffffffffffffffffffffffffffffff16815260200190815260200160002060008473ffffffffffffffffffffffffffffffffffffffff1673ffffffffffffffffffffffffffffffffffffffff16815260200190815260200160002060006101000a81548160ff0219169083151502179055508173ffffffffffffffffffffffffffffffffffffffff163373ffffffffffffffffffffffffffffffffffffffff167f17307eab39ab6107e8899845ad3d59bd9653f200f220920489ca2b5937696c3183604051611382919061325f565b60405180910390a35050565b6060600060096000848152602001908152602001600020805480602002602001604051908101604052809291908181526020016000905b8282101561145757838290600052602060002090600202016040518060400160405290816000820160009054906101000a900473ffffffffffffffffffffffffffffffffffffffff1673ffffffffffffffffffffffffffffffffffffffff1673ffffffffffffffffffffffffffffffffffffffff168152602001600182015481525050815260200190600101906113c5565b5050505090506000815167ffffffffffffffff81111561147a57611479613796565b5b6040519080825280602002602001820160405280156114a85781602001602082028036833780820191505090505b50905060005b8251811015611536578281815181106114ca576114c9613edd565b5b6020026020010151600001518282815181106114e9576114e8613edd565b5b602002602001019073ffffffffffffffffffffffffffffffffffffffff16908173ffffffffffffffffffffffffffffffffffffffff1681525050808061152e90613f3b565b9150506114ae565b508092505050919050565b6003805461154e90613e3f565b80601f016020809104026020016040519081016040528092919081815260200182805461157a90613e3f565b80156115c75780601f1061159c576101008083540402835291602001916115c7565b820191906000526020600020905b8154815290600101906020018083116115aa57829003601f168201915b505050505081565b611674600130896040516020016115e792919061428f565b6040516020818303038152906040528051906020012060405160200161160d9190614333565b60405160208183030381529060405280519060200120888888604051600081526020016040526040516116439493929190614377565b6020604051602081039080840390855afa158015611665573d6000803e3d6000fd5b505050602060405103516110ac565b6116b3576040517f08c379a00000000000000000000000000000000000000000000000000000000081526004016116aa90614408565b60405180910390fd5b6116c033888585856125a9565b50505050505050565b60086020528060005260406000206000915054906101000a900473ffffffffffffffffffffffffffffffffffffffff1681565b61170c61170761212e565b612136565b565b6005805461171b90613e3f565b80601f016020809104026020016040519081016040528092919081815260200182805461174790613e3f565b80156117945780601f1061176957610100808354040283529160200191611794565b820191906000526020600020905b81548152906001019060200180831161177757829003601f168201915b505050505081565b6000600760008473ffffffffffffffffffffffffffffffffffffffff1673ffffffffffffffffffffffffffffffffffffffff16815260200190815260200160002060008373ffffffffffffffffffffffffffffffffffffffff1673ffffffffffffffffffffffffffffffffffffffff16815260200190815260200160002060009054906101000a900460ff16905092915050565b61183861212e565b73ffffffffffffffffffffffffffffffffffffffff166118566110c9565b73ffffffffffffffffffffffffffffffffffffffff16146118ac576040517f08c379a00000000000000000000000000000000000000000000000000000000081526004016118a390613ebd565b60405180910390fd5b6118b581612b8a565b50565b600073ffffffffffffffffffffffffffffffffffffffff168573ffffffffffffffffffffffffffffffffffffffff161415611928576040517f08c379a000000000000000000000000000000000000000000000000000000000815260040161191f90614474565b60405180910390fd5b3373ffffffffffffffffffffffffffffffffffffffff168673ffffffffffffffffffffffffffffffffffffffff1614806119ef575060011515600760008873ffffffffffffffffffffffffffffffffffffffff1673ffffffffffffffffffffffffffffffffffffffff16815260200190815260200160002060003373ffffffffffffffffffffffffffffffffffffffff1673ffffffffffffffffffffffffffffffffffffffff16815260200190815260200160002060009054906101000a900460ff161515145b611a2e576040517f08c379a0000000000000000000000000000000000000000000000000000000008152600401611a259061411a565b60405180910390fd5b611a91836006600087815260200190815260200160002060008973ffffffffffffffffffffffffffffffffffffffff1673ffffffffffffffffffffffffffffffffffffffff168152602001908152602001600020546122d190919063ffffffff16565b6006600086815260200190815260200160002060008873ffffffffffffffffffffffffffffffffffffffff1673ffffffffffffffffffffffffffffffffffffffff16815260200190815260200160002081905550611b486006600086815260200190815260200160002060008773ffffffffffffffffffffffffffffffffffffffff1673ffffffffffffffffffffffffffffffffffffffff168152602001908152602001600020548461232a90919063ffffffff16565b6006600086815260200190815260200160002060008773ffffffffffffffffffffffffffffffffffffffff1673ffffffffffffffffffffffffffffffffffffffff168152602001908152602001600020819055508473ffffffffffffffffffffffffffffffffffffffff168673ffffffffffffffffffffffffffffffffffffffff163373ffffffffffffffffffffffffffffffffffffffff167fc3d58168c5ae7397731d063d5bbf3d657854427343f4c083240f7aacaa2d0f628787604051611c12929190614494565b60405180910390a4611c398573ffffffffffffffffffffffffffffffffffffffff16612388565b15611c9157611c90338787878787878080601f016020809104026020016040519081016040528093929190818152602001838380828437600081840152601f19601f82011690508083019250505050505050612be4565b5b505050505050565b611ca161212e565b73ffffffffffffffffffffffffffffffffffffffff16611cbf6110c9565b73ffffffffffffffffffffffffffffffffffffffff1614611d15576040517f08c379a0000000000000000000000000000000000000000000000000000000008152600401611d0c90613ebd565b60405180910390fd5b600073ffffffffffffffffffffffffffffffffffffffff168173ffffffffffffffffffffffffffffffffffffffff161415611d85576040517f08c379a0000000000000000000000000000000000000000000000000000000008152600401611d7c9061452f565b60405180910390fd5b8073ffffffffffffffffffffffffffffffffffffffff16600160009054906101000a900473ffffffffffffffffffffffffffffffffffffffff1673ffffffffffffffffffffffffffffffffffffffff167f8be0079c531659141344cd1fd0a4f28419497f9722a3daafe3b4186f6b6457e060405160405180910390a380600160006101000a81548173ffffffffffffffffffffffffffffffffffffffff021916908373ffffffffffffffffffffffffffffffffffffffff16021790555050565b3373ffffffffffffffffffffffffffffffffffffffff168373ffffffffffffffffffffffffffffffffffffffff161480611f0c575060011515600760008573ffffffffffffffffffffffffffffffffffffffff1673ffffffffffffffffffffffffffffffffffffffff16815260200190815260200160002060003373ffffffffffffffffffffffffffffffffffffffff1673ffffffffffffffffffffffffffffffffffffffff16815260200190815260200160002060009054906101000a900460ff161515145b611f4b576040517f08c379a0000000000000000000000000000000000000000000000000000000008152600401611f42906145c1565b60405180910390fd5b611fae816006600085815260200190815260200160002060008673ffffffffffffffffffffffffffffffffffffffff1673ffffffffffffffffffffffffffffffffffffffff168152602001908152602001600020546122d190919063ffffffff16565b6006600084815260200190815260200160002060008573ffffffffffffffffffffffffffffffffffffffff1673ffffffffffffffffffffffffffffffffffffffff16815260200190815260200160002081905550600073ffffffffffffffffffffffffffffffffffffffff168373ffffffffffffffffffffffffffffffffffffffff163373ffffffffffffffffffffffffffffffffffffffff167fc3d58168c5ae7397731d063d5bbf3d657854427343f4c083240f7aacaa2d0f628585604051612079929190614494565b60405180910390a4505050565b61209082826124ad565b156120d0576040517f08c379a00000000000000000000000000000000000000000000000000000000081526004016120c79061462d565b60405180910390fd5b60018260000160008373ffffffffffffffffffffffffffffffffffffffff1673ffffffffffffffffffffffffffffffffffffffff16815260200190815260200160002060006101000a81548160ff0219169083151502179055505050565b600033905090565b61214a816002612cf690919063ffffffff16565b8073ffffffffffffffffffffffffffffffffffffffff167f3525e22824a8a7df2c9a6029941c824cf95b6447f1e13d5128fd3826d35afe8b60405160405180910390a250565b60606122ca6004600084815260200190815260200160002080546121b390613e3f565b80601f01602080910402602001604051908101604052809291908181526020018280546121df90613e3f565b801561222c5780601f106122015761010080835404028352916020019161222c565b820191906000526020600020905b81548152906001019060200180831161220f57829003601f168201915b50505050506003805461223e90613e3f565b80601f016020809104026020016040519081016040528092919081815260200182805461226a90613e3f565b80156122b75780601f1061228c576101008083540402835291602001916122b7565b820191906000526020600020905b81548152906001019060200180831161229a57829003601f168201915b5050505050612d9d90919063ffffffff16565b9050919050565b600082821115612316576040517f08c379a000000000000000000000000000000000000000000000000000000000815260040161230d90614699565b60405180910390fd5b818361232291906146b9565b905092915050565b600080828461233991906146ed565b90508381101561237e576040517f08c379a00000000000000000000000000000000000000000000000000000000081526004016123759061478f565b60405180910390fd5b8091505092915050565b600080823b905060008111915050919050565b63bc197c8160e01b7bffffffffffffffffffffffffffffffffffffffffffffffffffffffff19168473ffffffffffffffffffffffffffffffffffffffff1663bc197c8188888787876040518663ffffffff1660e01b8152600401612403959493929190614804565b6020604051808303816000875af1158015612422573d6000803e3d6000fd5b505050506040513d601f19601f820116820180604052508101906124469190614881565b7bffffffffffffffffffffffffffffffffffffffffffffffffffffffff1916146124a5576040517f08c379a000000000000000000000000000000000000000000000000000000000815260040161249c90614920565b60405180910390fd5b505050505050565b60008073ffffffffffffffffffffffffffffffffffffffff168273ffffffffffffffffffffffffffffffffffffffff16141561251e576040517f08c379a0000000000000000000000000000000000000000000000000000000008152600401612515906149b2565b60405180910390fd5b8260000160008373ffffffffffffffffffffffffffffffffffffffff1673ffffffffffffffffffffffffffffffffffffffff16815260200190815260200160002060009054906101000a900460ff16905092915050565b806005908051906020019061258b92919061300a565b5050565b80600390805190602001906125a592919061300a565b5050565b600073ffffffffffffffffffffffffffffffffffffffff166008600086815260200190815260200160002060009054906101000a900473ffffffffffffffffffffffffffffffffffffffff1673ffffffffffffffffffffffffffffffffffffffff161461264b576040517f08c379a000000000000000000000000000000000000000000000000000000000815260040161264290614a1e565b60405180910390fd5b600082141561268f576040517f08c379a000000000000000000000000000000000000000000000000000000000815260040161268690614a8a565b60405180910390fd5b60008151116126d3576040517f08c379a00000000000000000000000000000000000000000000000000000000081526004016126ca90614af6565b60405180910390fd5b846008600086815260200190815260200160002060006101000a81548173ffffffffffffffffffffffffffffffffffffffff021916908373ffffffffffffffffffffffffffffffffffffffff1602179055506000835167ffffffffffffffff81111561274257612741613796565b5b6040519080825280602002602001820160405280156127705781602001602082028036833780820191505090505b5090506000845167ffffffffffffffff8111156127905761278f613796565b5b6040519080825280602002602001820160405280156127be5781602001602082028036833780820191505090505b50905060005b8551811015612a2457600073ffffffffffffffffffffffffffffffffffffffff168682815181106127f8576127f7613edd565b5b60200260200101516000015173ffffffffffffffffffffffffffffffffffffffff16141561285b576040517f08c379a000000000000000000000000000000000000000000000000000000000815260040161285290614b62565b60405180910390fd5b60008682815181106128705761286f613edd565b5b60200260200101516020015114156128bd576040517f08c379a00000000000000000000000000000000000000000000000000000000081526004016128b490614bce565b60405180910390fd5b600960008881526020019081526020016000208682815181106128e3576128e2613edd565b5b6020026020010151908060018154018082558091505060019003906000526020600020906002020160009091909190915060008201518160000160006101000a81548173ffffffffffffffffffffffffffffffffffffffff021916908373ffffffffffffffffffffffffffffffffffffffff16021790555060208201518160010155505085818151811061297a57612979613edd565b5b60200260200101516000015183828151811061299957612998613edd565b5b602002602001019073ffffffffffffffffffffffffffffffffffffffff16908173ffffffffffffffffffffffffffffffffffffffff16815250508581815181106129e6576129e5613edd565b5b602002602001015160200151828281518110612a0557612a04613edd565b5b6020026020010181815250508080612a1c90613f3b565b9150506127c4565b50600085511115612a6b577f99aba1d63749cfd5ad1afda7c4663840924d54eb5f005bbbeadedc6ec13674b2868383604051612a6293929190614cac565b60405180910390a15b836006600088815260200190815260200160002060008973ffffffffffffffffffffffffffffffffffffffff1673ffffffffffffffffffffffffffffffffffffffff16815260200190815260200160002081905550612aca8684612f2d565b3373ffffffffffffffffffffffffffffffffffffffff16600073ffffffffffffffffffffffffffffffffffffffff163373ffffffffffffffffffffffffffffffffffffffff167fc3d58168c5ae7397731d063d5bbf3d657854427343f4c083240f7aacaa2d0f628988604051612b41929190614494565b60405180910390a4857f6bb7ff708619ba0610cba295a58592e0451dee2622938c8755667688daf3529b84604051612b799190613313565b60405180910390a250505050505050565b612b9e81600261208690919063ffffffff16565b8073ffffffffffffffffffffffffffffffffffffffff167f47d1c22a25bb3a5d4e481b9b1e6944c2eade3181a0a20b495ed61d35b5323f2460405160405180910390a250565b63f23a6e6160e01b7bffffffffffffffffffffffffffffffffffffffffffffffffffffffff19168473ffffffffffffffffffffffffffffffffffffffff1663f23a6e6188888787876040518663ffffffff1660e01b8152600401612c4c959493929190614cf1565b6020604051808303816000875af1158015612c6b573d6000803e3d6000fd5b505050506040513d601f19601f82011682018060405250810190612c8f9190614881565b7bffffffffffffffffffffffffffffffffffffffffffffffffffffffff191614612cee576040517f08c379a0000000000000000000000000000000000000000000000000000000008152600401612ce590614dbd565b60405180910390fd5b505050505050565b612d0082826124ad565b612d3f576040517f08c379a0000000000000000000000000000000000000000000000000000000008152600401612d3690614e4f565b60405180910390fd5b60008260000160008373ffffffffffffffffffffffffffffffffffffffff1673ffffffffffffffffffffffffffffffffffffffff16815260200190815260200160002060006101000a81548160ff0219169083151502179055505050565b606060008390506000839050600081518351612db991906146ed565b67ffffffffffffffff811115612dd257612dd1613796565b5b6040519080825280601f01601f191660200182016040528015612e045781602001600182028036833780820191505090505b5090506000805b8451811015612e9357848181518110612e2757612e26613edd565b5b602001015160f81c60f81b838380612e3e90613f3b565b945081518110612e5157612e50613edd565b5b60200101907effffffffffffffffffffffffffffffffffffffffffffffffffffffffffffff1916908160001a9053508080612e8b90613f3b565b915050612e0b565b5060005b8351811015612f1f57838181518110612eb357612eb2613edd565b5b602001015160f81c60f81b838380612eca90613f3b565b945081518110612edd57612edc613edd565b5b60200101907effffffffffffffffffffffffffffffffffffffffffffffffffffffffffffff1916908160001a9053508080612f1790613f3b565b915050612e97565b508194505050505092915050565b600073ffffffffffffffffffffffffffffffffffffffff166008600084815260200190815260200160002060009054906101000a900473ffffffffffffffffffffffffffffffffffffffff1673ffffffffffffffffffffffffffffffffffffffff161415612fd0576040517f08c379a0000000000000000000000000000000000000000000000000000000008152600401612fc790614ebb565b60405180910390fd5b612fda8282612fde565b5050565b8060046000848152602001908152602001600020908051906020019061300592919061300a565b505050565b82805461301690613e3f565b90600052602060002090601f016020900481019282613038576000855561307f565b82601f1061305157805160ff191683800117855561307f565b8280016001018555821561307f579182015b8281111561307e578251825591602001919060010190613063565b5b50905061308c9190613090565b5090565b5b808211156130a9576000816000905550600101613091565b5090565b6000604051905090565b600080fd5b600080fd5b600073ffffffffffffffffffffffffffffffffffffffff82169050919050565b60006130ec826130c1565b9050919050565b6130fc816130e1565b811461310757600080fd5b50565b600081359050613119816130f3565b92915050565b6000819050919050565b6131328161311f565b811461313d57600080fd5b50565b60008135905061314f81613129565b92915050565b6000806040838503121561316c5761316b6130b7565b5b600061317a8582860161310a565b925050602061318b85828601613140565b9150509250929050565b61319e8161311f565b82525050565b60006020820190506131b96000830184613195565b92915050565b60007fffffffff0000000000000000000000000000000000000000000000000000000082169050919050565b6131f4816131bf565b81146131ff57600080fd5b50565b600081359050613211816131eb565b92915050565b60006020828403121561322d5761322c6130b7565b5b600061323b84828501613202565b91505092915050565b60008115159050919050565b61325981613244565b82525050565b60006020820190506132746000830184613250565b92915050565b600081519050919050565b600082825260208201905092915050565b60005b838110156132b4578082015181840152602081019050613299565b838111156132c3576000848401525b50505050565b6000601f19601f8301169050919050565b60006132e58261327a565b6132ef8185613285565b93506132ff818560208601613296565b613308816132c9565b840191505092915050565b6000602082019050818103600083015261332d81846132da565b905092915050565b60006020828403121561334b5761334a6130b7565b5b60006133598482850161310a565b91505092915050565b600060208284031215613378576133776130b7565b5b600061338684828501613140565b91505092915050565b600081519050919050565b600082825260208201905092915050565b6000819050602082019050919050565b6133c48161311f565b82525050565b60006133d683836133bb565b60208301905092915050565b6000602082019050919050565b60006133fa8261338f565b613404818561339a565b935061340f836133ab565b8060005b8381101561344057815161342788826133ca565b9750613432836133e2565b925050600181019050613413565b5085935050505092915050565b6000602082019050818103600083015261346781846133ef565b905092915050565b600080fd5b600080fd5b600080fd5b60008083601f8401126134945761349361346f565b5b8235905067ffffffffffffffff8111156134b1576134b0613474565b5b6020830191508360208202830111156134cd576134cc613479565b5b9250929050565b60008083601f8401126134ea576134e961346f565b5b8235905067ffffffffffffffff81111561350757613506613474565b5b60208301915083600182028301111561352357613522613479565b5b9250929050565b60008060008060008060008060a0898b03121561354a576135496130b7565b5b60006135588b828c0161310a565b98505060206135698b828c0161310a565b975050604089013567ffffffffffffffff81111561358a576135896130bc565b5b6135968b828c0161347e565b9650965050606089013567ffffffffffffffff8111156135b9576135b86130bc565b5b6135c58b828c0161347e565b9450945050608089013567ffffffffffffffff8111156135e8576135e76130bc565b5b6135f48b828c016134d4565b92509250509295985092959890939650565b60008083601f84011261361c5761361b61346f565b5b8235905067ffffffffffffffff81111561363957613638613474565b5b60208301915083602082028301111561365557613654613479565b5b9250929050565b60008060008060408587031215613676576136756130b7565b5b600085013567ffffffffffffffff811115613694576136936130bc565b5b6136a087828801613606565b9450945050602085013567ffffffffffffffff8111156136c3576136c26130bc565b5b6136cf8782880161347e565b925092505092959194509250565b600080604083850312156136f4576136f36130b7565b5b600061370285828601613140565b925050602061371385828601613140565b9150509250929050565b6000613728826130c1565b9050919050565b6137388161371d565b82525050565b6000604082019050613753600083018561372f565b6137606020830184613195565b9392505050565b613770816130e1565b82525050565b600060208201905061378b6000830184613767565b92915050565b600080fd5b7f4e487b7100000000000000000000000000000000000000000000000000000000600052604160045260246000fd5b6137ce826132c9565b810181811067ffffffffffffffff821117156137ed576137ec613796565b5b80604052505050565b60006138006130ad565b905061380c82826137c5565b919050565b600067ffffffffffffffff82111561382c5761382b613796565b5b613835826132c9565b9050602081019050919050565b82818337600083830152505050565b600061386461385f84613811565b6137f6565b9050828152602081018484840111156138805761387f613791565b5b61388b848285613842565b509392505050565b600082601f8301126138a8576138a761346f565b5b81356138b8848260208601613851565b91505092915050565b6000602082840312156138d7576138d66130b7565b5b600082013567ffffffffffffffff8111156138f5576138f46130bc565b5b61390184828501613893565b91505092915050565b61391381613244565b811461391e57600080fd5b50565b6000813590506139308161390a565b92915050565b6000806040838503121561394d5761394c6130b7565b5b600061395b8582860161310a565b925050602061396c85828601613921565b9150509250929050565b600081519050919050565b600082825260208201905092915050565b6000819050602082019050919050565b6139ab8161371d565b82525050565b60006139bd83836139a2565b60208301905092915050565b6000602082019050919050565b60006139e182613976565b6139eb8185613981565b93506139f683613992565b8060005b83811015613a27578151613a0e88826139b1565b9750613a19836139c9565b9250506001810190506139fa565b5085935050505092915050565b60006020820190508181036000830152613a4e81846139d6565b905092915050565b600060ff82169050919050565b613a6c81613a56565b8114613a7757600080fd5b50565b600081359050613a8981613a63565b92915050565b6000819050919050565b613aa281613a8f565b8114613aad57600080fd5b50565b600081359050613abf81613a99565b92915050565b600067ffffffffffffffff821115613ae057613adf613796565b5b602082029050602081019050919050565b600080fd5b613aff8161371d565b8114613b0a57600080fd5b50565b600081359050613b1c81613af6565b92915050565b600060408284031215613b3857613b37613af1565b5b613b4260406137f6565b90506000613b5284828501613b0d565b6000830152506020613b6684828501613140565b60208301525092915050565b6000613b85613b8084613ac5565b6137f6565b90508083825260208201905060408402830185811115613ba857613ba7613479565b5b835b81811015613bd15780613bbd8882613b22565b845260208401935050604081019050613baa565b5050509392505050565b600082601f830112613bf057613bef61346f565b5b8135613c00848260208601613b72565b91505092915050565b600080600080600080600060e0888a031215613c2857613c276130b7565b5b6000613c368a828b01613140565b9750506020613c478a828b01613a7a565b9650506040613c588a828b01613ab0565b9550506060613c698a828b01613ab0565b945050608088013567ffffffffffffffff811115613c8a57613c896130bc565b5b613c968a828b01613bdb565b93505060a0613ca78a828b01613140565b92505060c088013567ffffffffffffffff811115613cc857613cc76130bc565b5b613cd48a828b01613893565b91505092959891949750929550565b60008060408385031215613cfa57613cf96130b7565b5b6000613d088582860161310a565b9250506020613d198582860161310a565b9150509250929050565b60008060008060008060a08789031215613d4057613d3f6130b7565b5b6000613d4e89828a0161310a565b9650506020613d5f89828a0161310a565b9550506040613d7089828a01613140565b9450506060613d8189828a01613140565b935050608087013567ffffffffffffffff811115613da257613da16130bc565b5b613dae89828a016134d4565b92509250509295509295509295565b600080600060608486031215613dd657613dd56130b7565b5b6000613de48682870161310a565b9350506020613df586828701613140565b9250506040613e0686828701613140565b9150509250925092565b7f4e487b7100000000000000000000000000000000000000000000000000000000600052602260045260246000fd5b60006002820490506001821680613e5757607f821691505b60208210811415613e6b57613e6a613e10565b5b50919050565b7f4f776e61626c653a2063616c6c6572206973206e6f7420746865206f776e6572600082015250565b6000613ea7602083613285565b9150613eb282613e71565b602082019050919050565b60006020820190508181036000830152613ed681613e9a565b9050919050565b7f4e487b7100000000000000000000000000000000000000000000000000000000600052603260045260246000fd5b7f4e487b7100000000000000000000000000000000000000000000000000000000600052601160045260246000fd5b6000613f468261311f565b91507fffffffffffffffffffffffffffffffffffffffffffffffffffffffffffffffff821415613f7957613f78613f0c565b5b600182019050919050565b7f64657374696e6174696f6e2061646472657373206d757374206265206e6f6e2d60008201527f7a65726f2e000000000000000000000000000000000000000000000000000000602082015250565b6000613fe0602583613285565b9150613feb82613f84565b604082019050919050565b6000602082019050818103600083015261400f81613fd3565b9050919050565b7f5f69647320616e64205f76616c756573206172726179206c656e676874206d7560008201527f7374206d617463682e0000000000000000000000000000000000000000000000602082015250565b6000614072602983613285565b915061407d82614016565b604082019050919050565b600060208201905081810360008301526140a181614065565b9050919050565b7f4e656564206f70657261746f7220617070726f76616c20666f7220337264207060008201527f61727479207472616e73666572732e0000000000000000000000000000000000602082015250565b6000614104602f83613285565b915061410f826140a8565b604082019050919050565b60006020820190508181036000830152614133816140f7565b9050919050565b600080fd5b600061414b838561339a565b93507f07ffffffffffffffffffffffffffffffffffffffffffffffffffffffffffffff83111561417e5761417d61413a565b5b60208302925061418f838584613842565b82840190509392505050565b600060408201905081810360008301526141b681868861413f565b905081810360208301526141cb81848661413f565b905095945050505050565b6000819050919050565b60006141fb6141f66141f1846130c1565b6141d6565b6130c1565b9050919050565b600061420d826141e0565b9050919050565b600061421f82614202565b9050919050565b60008160601b9050919050565b600061423e82614226565b9050919050565b600061425082614233565b9050919050565b61426861426382614214565b614245565b82525050565b6000819050919050565b6142896142848261311f565b61426e565b82525050565b600061429b8285614257565b6014820191506142ab8284614278565b6020820191508190509392505050565b600081905092915050565b7f19457468657265756d205369676e6564204d6573736167653a0a333200000000600082015250565b60006142fc601c836142bb565b9150614307826142c6565b601c82019050919050565b6000819050919050565b61432d61432882613a8f565b614312565b82525050565b600061433e826142ef565b915061434a828461431c565b60208201915081905092915050565b61436281613a8f565b82525050565b61437181613a56565b82525050565b600060808201905061438c6000830187614359565b6143996020830186614368565b6143a66040830185614359565b6143b36060830184614359565b95945050505050565b7f7369676e65722073686f756c64207369676e20746f6b656e4964000000000000600082015250565b60006143f2601a83613285565b91506143fd826143bc565b602082019050919050565b60006020820190508181036000830152614421816143e5565b9050919050565b7f5f746f206d757374206265206e6f6e2d7a65726f2e0000000000000000000000600082015250565b600061445e601583613285565b915061446982614428565b602082019050919050565b6000602082019050818103600083015261448d81614451565b9050919050565b60006040820190506144a96000830185613195565b6144b66020830184613195565b9392505050565b7f4f776e61626c653a206e6577206f776e657220697320746865207a65726f206160008201527f6464726573730000000000000000000000000000000000000000000000000000602082015250565b6000614519602683613285565b9150614524826144bd565b604082019050919050565b600060208201905081810360008301526145488161450c565b9050919050565b7f4e656564206f70657261746f7220617070726f76616c20666f7220337264207060008201527f61727479206275726e732e000000000000000000000000000000000000000000602082015250565b60006145ab602b83613285565b91506145b68261454f565b604082019050919050565b600060208201905081810360008301526145da8161459e565b9050919050565b7f526f6c65733a206163636f756e7420616c72656164792068617320726f6c6500600082015250565b6000614617601f83613285565b9150614622826145e1565b602082019050919050565b600060208201905081810360008301526146468161460a565b9050919050565b7f536166654d6174683a207375627472616374696f6e206f766572666c6f770000600082015250565b6000614683601e83613285565b915061468e8261464d565b602082019050919050565b600060208201905081810360008301526146b281614676565b9050919050565b60006146c48261311f565b91506146cf8361311f565b9250828210156146e2576146e1613f0c565b5b828203905092915050565b60006146f88261311f565b91506147038361311f565b9250827fffffffffffffffffffffffffffffffffffffffffffffffffffffffffffffffff0382111561473857614737613f0c565b5b828201905092915050565b7f536166654d6174683a206164646974696f6e206f766572666c6f770000000000600082015250565b6000614779601b83613285565b915061478482614743565b602082019050919050565b600060208201905081810360008301526147a88161476c565b9050919050565b600081519050919050565b600082825260208201905092915050565b60006147d6826147af565b6147e081856147ba565b93506147f0818560208601613296565b6147f9816132c9565b840191505092915050565b600060a0820190506148196000830188613767565b6148266020830187613767565b818103604083015261483881866133ef565b9050818103606083015261484c81856133ef565b9050818103608083015261486081846147cb565b90509695505050505050565b60008151905061487b816131eb565b92915050565b600060208284031215614897576148966130b7565b5b60006148a58482850161486c565b91505092915050565b7f636f6e74726163742072657475726e656420616e20756e6b6e6f776e2076616c60008201527f75652066726f6d206f6e45524331313535426174636852656365697665640000602082015250565b600061490a603e83613285565b9150614915826148ae565b604082019050919050565b60006020820190508181036000830152614939816148fd565b9050919050565b7f526f6c65733a206163636f756e7420697320746865207a65726f20616464726560008201527f7373000000000000000000000000000000000000000000000000000000000000602082015250565b600061499c602283613285565b91506149a782614940565b604082019050919050565b600060208201905081810360008301526149cb8161498f565b9050919050565b7f546f6b656e20697320616c7265616479206d696e746564000000000000000000600082015250565b6000614a08601783613285565b9150614a13826149d2565b602082019050919050565b60006020820190508181036000830152614a37816149fb565b9050919050565b7f537570706c792020626520706f73697469766500000000000000000000000000600082015250565b6000614a74601383613285565b9150614a7f82614a3e565b602082019050919050565b60006020820190508181036000830152614aa381614a67565b9050919050565b7f7572692020626520736574000000000000000000000000000000000000000000600082015250565b6000614ae0600b83613285565b9150614aeb82614aaa565b602082019050919050565b60006020820190508181036000830152614b0f81614ad3565b9050919050565b7f526563697069656e74202062652070726573656e740000000000000000000000600082015250565b6000614b4c601583613285565b9150614b5782614b16565b602082019050919050565b60006020820190508181036000830152614b7b81614b3f565b9050919050565b7f4665652076616c75652020626520706f73697469766500000000000000000000600082015250565b6000614bb8601683613285565b9150614bc382614b82565b602082019050919050565b60006020820190508181036000830152614be781614bab565b9050919050565b600081519050919050565b600082825260208201905092915050565b6000819050602082019050919050565b614c23816130e1565b82525050565b6000614c358383614c1a565b60208301905092915050565b6000602082019050919050565b6000614c5982614bee565b614c638185614bf9565b9350614c6e83614c0a565b8060005b83811015614c9f578151614c868882614c29565b9750614c9183614c41565b925050600181019050614c72565b5085935050505092915050565b6000606082019050614cc16000830186613195565b8181036020830152614cd38185614c4e565b90508181036040830152614ce781846133ef565b9050949350505050565b600060a082019050614d066000830188613767565b614d136020830187613767565b614d206040830186613195565b614d2d6060830185613195565b8181036080830152614d3f81846147cb565b90509695505050505050565b7f636f6e74726163742072657475726e656420616e20756e6b6e6f776e2076616c60008201527f75652066726f6d206f6e45524331313535526563656976656400000000000000602082015250565b6000614da7603983613285565b9150614db282614d4b565b604082019050919050565b60006020820190508181036000830152614dd681614d9a565b9050919050565b7f526f6c65733a206163636f756e7420646f6573206e6f74206861766520726f6c60008201527f6500000000000000000000000000000000000000000000000000000000000000602082015250565b6000614e39602183613285565b9150614e4482614ddd565b604082019050919050565b60006020820190508181036000830152614e6881614e2c565b9050919050565b7f5f736574546f6b656e5552493a20546f6b656e20206578697374000000000000600082015250565b6000614ea5601a83613285565b9150614eb082614e6f565b602082019050919050565b60006020820190508181036000830152614ed481614e98565b905091905056fea2646970667358221220dcbef540a52cc69b5417673a6f8aa752c7af89ede56f8a91a6de734a2467650064736f6c634300080a0033",
  "immutableReferences": {},
  "source": "// SPDX-License-Identifier: MIT\npragma solidity >=0.4.22 <0.9.0;\npragma experimental ABIEncoderV2;\n\nimport \"../lib/utils/Ownable.sol\";\nimport \"../lib/utils/SignerRole.sol\";\nimport \"../lib/contracts/ERC1155Base.sol\";\n\ncontract NFT1155 is Ownable, SignerRole, ERC1155Base {\n    string public name;\n    string public symbol;\n\n    constructor(string memory _name, string memory _symbol, address signer, string memory contractURI, string memory tokenURIPrefix) ERC1155Base(contractURI, tokenURIPrefix) {\n        name = _name;\n        symbol = _symbol;\n\n        _addSigner(signer);\n        _registerInterface(bytes4(keccak256('MINT_WITH_ADDRESS')));\n    }\n\n    function addSigner(address account) public override onlyOwner {\n        _addSigner(account);\n    }\n\n    function removeSigner(address account) public onlyOwner {\n        _removeSigner(account);\n    }\n\n    function mint(uint256 id, uint8 v, bytes32 r, bytes32 s, Fee[] memory fees, uint256 supply, string memory uri) public {\n        require(isSigner(ecrecover(keccak256(abi.encodePacked(\"\\x19Ethereum Signed Message:\\n32\", keccak256(abi.encodePacked(this, id)))), v, r, s)), \"signer should sign tokenId\");\n        _mint(msg.sender, id, fees, supply, uri);\n    }\n\n}\n",
  "sourcePath": "/home/ec2-user/test-contract/contracts/token/NFT1155.sol",
  "compiler": {
    "name": "solc",
    "version": "0.8.10+commit.fc410830.Emscripten.clang"
  },
  "schemaVersion": "3.4.3",
  "updatedAt": "2021-12-04T11:38:02.997Z",
  "networkType": "ethereum",
  "devdoc": {
    "kind": "dev",
    "methods": {
      "balanceOf(address,uint256)": {
        "params": {
          "_id": "ID of the Token",
          "_owner": "The address of the token holder"
        },
        "returns": {
          "_0": "The _owner's balance of the Token type requested"
        }
      },
      "balanceOfBatch(address[],uint256[])": {
        "params": {
          "_ids": "ID of the Tokens",
          "_owners": "The addresses of the token holders"
        },
        "returns": {
          "_0": "The _owner's balance of the Token types requested (i.e. balance for each (owner, id) pair)"
        }
      },
      "isApprovedForAll(address,address)": {
        "params": {
          "_operator": "Address of authorized operator",
          "_owner": "The owner of the Tokens"
        },
        "returns": {
          "_0": "True if the operator is approved, false if not"
        }
      },
      "owner()": {
        "details": "Returns the address of the current owner."
      },
      "renounceOwnership()": {
        "details": "Leaves the contract without owner. It will not be possible to call `onlyOwner` functions anymore. Can only be called by the current owner. NOTE: Renouncing ownership will leave the contract without an owner, thereby removing any functionality that is only available to the owner."
      },
      "safeBatchTransferFrom(address,address,uint256[],uint256[],bytes)": {
        "details": "Caller must be approved to manage the tokens being transferred out of the `_from` account (see \"Approval\" section of the standard). MUST revert if `_to` is the zero address. MUST revert if length of `_ids` is not the same as length of `_values`. MUST revert if any of the balance(s) of the holder(s) for token(s) in `_ids` is lower than the respective amount(s) in `_values` sent to the recipient. MUST revert on any other error. MUST emit `TransferSingle` or `TransferBatch` event(s) such that all the balance changes are reflected (see \"Safe Transfer Rules\" section of the standard). Balance changes and events MUST follow the ordering of the arrays (_ids[0]/_values[0] before _ids[1]/_values[1], etc). After the above conditions for the transfer(s) in the batch are met, this function MUST check if `_to` is a smart contract (e.g. code size > 0). If so, it MUST call the relevant `ERC1155TokenReceiver` hook(s) on `_to` and act appropriately (see \"Safe Transfer Rules\" section of the standard).",
        "params": {
          "_data": "Additional data with no specified format, MUST be sent unaltered in call to the `ERC1155TokenReceiver` hook(s) on `_to`",
          "_from": "Source address",
          "_ids": "IDs of each token type (order and length must match _values array)",
          "_to": "Target address",
          "_values": "Transfer amounts per token type (order and length must match _ids array)"
        }
      },
      "safeTransferFrom(address,address,uint256,uint256,bytes)": {
        "details": "Caller must be approved to manage the tokens being transferred out of the `_from` account (see \"Approval\" section of the standard). MUST revert if `_to` is the zero address. MUST revert if balance of holder for token `_id` is lower than the `_value` sent. MUST revert on any other error. MUST emit the `TransferSingle` event to reflect the balance change (see \"Safe Transfer Rules\" section of the standard). After the above conditions are met, this function MUST check if `_to` is a smart contract (e.g. code size > 0). If so, it MUST call `onERC1155Received` on `_to` and act appropriately (see \"Safe Transfer Rules\" section of the standard).",
        "params": {
          "_data": "Additional data with no specified format, MUST be sent unaltered in call to `onERC1155Received` on `_to`",
          "_from": "Source address",
          "_id": "ID of the token type",
          "_to": "Target address",
          "_value": "Transfer amount"
        }
      },
      "setApprovalForAll(address,bool)": {
        "details": "MUST emit the ApprovalForAll event on success.",
        "params": {
          "_approved": "True if the operator is approved, false to revoke approval",
          "_operator": "Address to add to the set of authorized operators"
        }
      },
      "supportsInterface(bytes4)": {
        "details": "See {IERC165-supportsInterface}. Time complexity O(1), guaranteed to always use less than 30 000 gas."
      },
      "transferOwnership(address)": {
        "details": "Transfers ownership of the contract to a new account (`newOwner`). Can only be called by the current owner."
      },
      "uri(uint256)": {
        "details": "URIs are defined in RFC 3986. The URI may point to a JSON file that conforms to the \"ERC-1155 Metadata URI JSON Schema\".",
        "returns": {
          "_0": "URI string"
        }
      }
    },
    "version": 1
  },
  "userdoc": {
    "kind": "user",
    "methods": {
      "balanceOf(address,uint256)": {
        "notice": "Get the balance of an account's Tokens."
      },
      "balanceOfBatch(address[],uint256[])": {
        "notice": "Get the balance of multiple account/token pairs"
      },
      "isApprovedForAll(address,address)": {
        "notice": "Queries the approval status of an operator for a given owner."
      },
      "safeBatchTransferFrom(address,address,uint256[],uint256[],bytes)": {
        "notice": "Transfers `_values` amount(s) of `_ids` from the `_from` address to the `_to` address specified (with safety call)."
      },
      "safeTransferFrom(address,address,uint256,uint256,bytes)": {
        "notice": "Transfers `_value` amount of an `_id` from the `_from` address to the `_to` address specified (with safety call)."
      },
      "setApprovalForAll(address,bool)": {
        "notice": "Enable or disable approval for a third party (\"operator\") to manage all of the caller's tokens."
      },
      "uri(uint256)": {
        "notice": "A distinct Uniform Resource Identifier (URI) for a given token."
      }
    },
    "version": 1
  }
}