{
  "contractName": "NFT721",
  "abi": [
    {
      "inputs": [
        {
          "internalType": "string",
          "name": "name",
          "type": "string"
        },
        {
          "internalType": "string",
          "name": "symbol",
          "type": "string"
        },
        {
          "internalType": "address",
          "name": "signer",
          "type": "address"
        },
        {
          "internalType": "string",
          "name": "contractURI",
          "type": "string"
        },
        {
          "internalType": "string",
          "name": "tokenURIPrefix",
          "type": "string"
        }
      ],
      "stateMutability": "nonpayable",
      "type": "constructor"
    },
    {
      "anonymous": false,
      "inputs": [
        {
          "indexed": true,
          "internalType": "address",
          "name": "owner",
          "type": "address"
        },
        {
          "indexed": true,
          "internalType": "address",
          "name": "approved",
          "type": "address"
        },
        {
          "indexed": true,
          "internalType": "uint256",
          "name": "tokenId",
          "type": "uint256"
        }
      ],
      "name": "Approval",
      "type": "event"
    },
    {
      "anonymous": false,
      "inputs": [
        {
          "indexed": true,
          "internalType": "address",
          "name": "owner",
          "type": "address"
        },
        {
          "indexed": true,
          "internalType": "address",
          "name": "operator",
          "type": "address"
        },
        {
          "indexed": false,
          "internalType": "bool",
          "name": "approved",
          "type": "bool"
        }
      ],
      "name": "ApprovalForAll",
      "type": "event"
    },
    {
      "anonymous": false,
      "inputs": [
        {
          "indexed": true,
          "internalType": "address",
          "name": "previousOwner",
          "type": "address"
        },
        {
          "indexed": true,
          "internalType": "address",
          "name": "newOwner",
          "type": "address"
        }
      ],
      "name": "OwnershipTransferred",
      "type": "event"
    },
    {
      "anonymous": false,
      "inputs": [
        {
          "indexed": false,
          "internalType": "uint256",
          "name": "tokenId",
          "type": "uint256"
        },
        {
          "indexed": false,
          "internalType": "address[]",
          "name": "recipients",
          "type": "address[]"
        },
        {
          "indexed": false,
          "internalType": "uint256[]",
          "name": "bps",
          "type": "uint256[]"
        }
      ],
      "name": "SecondarySaleFees",
      "type": "event"
    },
    {
      "anonymous": false,
      "inputs": [
        {
          "indexed": true,
          "internalType": "address",
          "name": "account",
          "type": "address"
        }
      ],
      "name": "SignerAdded",
      "type": "event"
    },
    {
      "anonymous": false,
      "inputs": [
        {
          "indexed": true,
          "internalType": "address",
          "name": "account",
          "type": "address"
        }
      ],
      "name": "SignerRemoved",
      "type": "event"
    },
    {
      "anonymous": false,
      "inputs": [
        {
          "indexed": true,
          "internalType": "address",
          "name": "from",
          "type": "address"
        },
        {
          "indexed": true,
          "internalType": "address",
          "name": "to",
          "type": "address"
        },
        {
          "indexed": true,
          "internalType": "uint256",
          "name": "tokenId",
          "type": "uint256"
        }
      ],
      "name": "Transfer",
      "type": "event"
    },
    {
      "inputs": [
        {
          "internalType": "address",
          "name": "to",
          "type": "address"
        },
        {
          "internalType": "uint256",
          "name": "tokenId",
          "type": "uint256"
        }
      ],
      "name": "approve",
      "outputs": [],
      "stateMutability": "nonpayable",
      "type": "function"
    },
    {
      "inputs": [
        {
          "internalType": "address",
          "name": "owner",
          "type": "address"
        }
      ],
      "name": "balanceOf",
      "outputs": [
        {
          "internalType": "uint256",
          "name": "",
          "type": "uint256"
        }
      ],
      "stateMutability": "view",
      "type": "function",
      "constant": true
    },
    {
      "inputs": [
        {
          "internalType": "uint256",
          "name": "tokenId",
          "type": "uint256"
        }
      ],
      "name": "burn",
      "outputs": [],
      "stateMutability": "nonpayable",
      "type": "function"
    },
    {
      "inputs": [],
      "name": "contractURI",
      "outputs": [
        {
          "internalType": "string",
          "name": "",
          "type": "string"
        }
      ],
      "stateMutability": "view",
      "type": "function",
      "constant": true
    },
    {
      "inputs": [
        {
          "internalType": "uint256",
          "name": "",
          "type": "uint256"
        },
        {
          "internalType": "uint256",
          "name": "",
          "type": "uint256"
        }
      ],
      "name": "fees",
      "outputs": [
        {
          "internalType": "address payable",
          "name": "recipient",
          "type": "address"
        },
        {
          "internalType": "uint256",
          "name": "value",
          "type": "uint256"
        }
      ],
      "stateMutability": "view",
      "type": "function",
      "constant": true
    },
    {
      "inputs": [
        {
          "internalType": "uint256",
          "name": "tokenId",
          "type": "uint256"
        }
      ],
      "name": "getApproved",
      "outputs": [
        {
          "internalType": "address",
          "name": "",
          "type": "address"
        }
      ],
      "stateMutability": "view",
      "type": "function",
      "constant": true
    },
    {
      "inputs": [
        {
          "internalType": "uint256",
          "name": "id",
          "type": "uint256"
        }
      ],
      "name": "getFeeBps",
      "outputs": [
        {
          "internalType": "uint256[]",
          "name": "",
          "type": "uint256[]"
        }
      ],
      "stateMutability": "view",
      "type": "function",
      "constant": true
    },
    {
      "inputs": [
        {
          "internalType": "uint256",
          "name": "id",
          "type": "uint256"
        }
      ],
      "name": "getFeeRecipients",
      "outputs": [
        {
          "internalType": "address payable[]",
          "name": "",
          "type": "address[]"
        }
      ],
      "stateMutability": "view",
      "type": "function",
      "constant": true
    },
    {
      "inputs": [
        {
          "internalType": "address",
          "name": "owner",
          "type": "address"
        },
        {
          "internalType": "address",
          "name": "operator",
          "type": "address"
        }
      ],
      "name": "isApprovedForAll",
      "outputs": [
        {
          "internalType": "bool",
          "name": "",
          "type": "bool"
        }
      ],
      "stateMutability": "view",
      "type": "function",
      "constant": true
    },
    {
      "inputs": [
        {
          "internalType": "address",
          "name": "account",
          "type": "address"
        }
      ],
      "name": "isSigner",
      "outputs": [
        {
          "internalType": "bool",
          "name": "",
          "type": "bool"
        }
      ],
      "stateMutability": "view",
      "type": "function",
      "constant": true
    },
    {
      "inputs": [],
      "name": "name",
      "outputs": [
        {
          "internalType": "string",
          "name": "",
          "type": "string"
        }
      ],
      "stateMutability": "view",
      "type": "function",
      "constant": true
    },
    {
      "inputs": [],
      "name": "owner",
      "outputs": [
        {
          "internalType": "address",
          "name": "",
          "type": "address"
        }
      ],
      "stateMutability": "view",
      "type": "function",
      "constant": true
    },
    {
      "inputs": [
        {
          "internalType": "uint256",
          "name": "tokenId",
          "type": "uint256"
        }
      ],
      "name": "ownerOf",
      "outputs": [
        {
          "internalType": "address",
          "name": "",
          "type": "address"
        }
      ],
      "stateMutability": "view",
      "type": "function",
      "constant": true
    },
    {
      "inputs": [],
      "name": "renounceOwnership",
      "outputs": [],
      "stateMutability": "nonpayable",
      "type": "function"
    },
    {
      "inputs": [],
      "name": "renounceSigner",
      "outputs": [],
      "stateMutability": "nonpayable",
      "type": "function"
    },
    {
      "inputs": [
        {
          "internalType": "address",
          "name": "from",
          "type": "address"
        },
        {
          "internalType": "address",
          "name": "to",
          "type": "address"
        },
        {
          "internalType": "uint256",
          "name": "tokenId",
          "type": "uint256"
        }
      ],
      "name": "safeTransferFrom",
      "outputs": [],
      "stateMutability": "nonpayable",
      "type": "function"
    },
    {
      "inputs": [
        {
          "internalType": "address",
          "name": "from",
          "type": "address"
        },
        {
          "internalType": "address",
          "name": "to",
          "type": "address"
        },
        {
          "internalType": "uint256",
          "name": "tokenId",
          "type": "uint256"
        },
        {
          "internalType": "bytes",
          "name": "_data",
          "type": "bytes"
        }
      ],
      "name": "safeTransferFrom",
      "outputs": [],
      "stateMutability": "nonpayable",
      "type": "function"
    },
    {
      "inputs": [
        {
          "internalType": "address",
          "name": "to",
          "type": "address"
        },
        {
          "internalType": "bool",
          "name": "approved",
          "type": "bool"
        }
      ],
      "name": "setApprovalForAll",
      "outputs": [],
      "stateMutability": "nonpayable",
      "type": "function"
    },
    {
      "inputs": [
        {
          "internalType": "bytes4",
          "name": "interfaceId",
          "type": "bytes4"
        }
      ],
      "name": "supportsInterface",
      "outputs": [
        {
          "internalType": "bool",
          "name": "",
          "type": "bool"
        }
      ],
      "stateMutability": "view",
      "type": "function",
      "constant": true
    },
    {
      "inputs": [],
      "name": "symbol",
      "outputs": [
        {
          "internalType": "string",
          "name": "",
          "type": "string"
        }
      ],
      "stateMutability": "view",
      "type": "function",
      "constant": true
    },
    {
      "inputs": [
        {
          "internalType": "uint256",
          "name": "index",
          "type": "uint256"
        }
      ],
      "name": "tokenByIndex",
      "outputs": [
        {
          "internalType": "uint256",
          "name": "",
          "type": "uint256"
        }
      ],
      "stateMutability": "view",
      "type": "function",
      "constant": true
    },
    {
      "inputs": [
        {
          "internalType": "address",
          "name": "owner",
          "type": "address"
        },
        {
          "internalType": "uint256",
          "name": "index",
          "type": "uint256"
        }
      ],
      "name": "tokenOfOwnerByIndex",
      "outputs": [
        {
          "internalType": "uint256",
          "name": "",
          "type": "uint256"
        }
      ],
      "stateMutability": "view",
      "type": "function",
      "constant": true
    },
    {
      "inputs": [
        {
          "internalType": "uint256",
          "name": "tokenId",
          "type": "uint256"
        }
      ],
      "name": "tokenURI",
      "outputs": [
        {
          "internalType": "string",
          "name": "",
          "type": "string"
        }
      ],
      "stateMutability": "view",
      "type": "function",
      "constant": true
    },
    {
      "inputs": [],
      "name": "tokenURIPrefix",
      "outputs": [
        {
          "internalType": "string",
          "name": "",
          "type": "string"
        }
      ],
      "stateMutability": "view",
      "type": "function",
      "constant": true
    },
    {
      "inputs": [],
      "name": "totalSupply",
      "outputs": [
        {
          "internalType": "uint256",
          "name": "",
          "type": "uint256"
        }
      ],
      "stateMutability": "view",
      "type": "function",
      "constant": true
    },
    {
      "inputs": [
        {
          "internalType": "address",
          "name": "from",
          "type": "address"
        },
        {
          "internalType": "address",
          "name": "to",
          "type": "address"
        },
        {
          "internalType": "uint256",
          "name": "tokenId",
          "type": "uint256"
        }
      ],
      "name": "transferFrom",
      "outputs": [],
      "stateMutability": "nonpayable",
      "type": "function"
    },
    {
      "inputs": [
        {
          "internalType": "address",
          "name": "newOwner",
          "type": "address"
        }
      ],
      "name": "transferOwnership",
      "outputs": [],
      "stateMutability": "nonpayable",
      "type": "function"
    },
    {
      "inputs": [
        {
          "internalType": "address",
          "name": "account",
          "type": "address"
        }
      ],
      "name": "addSigner",
      "outputs": [],
      "stateMutability": "nonpayable",
      "type": "function"
    },
    {
      "inputs": [
        {
          "internalType": "address",
          "name": "account",
          "type": "address"
        }
      ],
      "name": "removeSigner",
      "outputs": [],
      "stateMutability": "nonpayable",
      "type": "function"
    },
    {
      "inputs": [
        {
          "internalType": "uint256",
          "name": "tokenId",
          "type": "uint256"
        },
        {
          "internalType": "uint8",
          "name": "v",
          "type": "uint8"
        },
        {
          "internalType": "bytes32",
          "name": "r",
          "type": "bytes32"
        },
        {
          "internalType": "bytes32",
          "name": "s",
          "type": "bytes32"
        },
        {
          "components": [
            {
              "internalType": "address payable",
              "name": "recipient",
              "type": "address"
            },
            {
              "internalType": "uint256",
              "name": "value",
              "type": "uint256"
            }
          ],
          "internalType": "struct ERC721Base.Fee[]",
          "name": "_fees",
          "type": "tuple[]"
        },
        {
          "internalType": "string",
          "name": "tokenURI",
          "type": "string"
        }
      ],
      "name": "mint",
      "outputs": [],
      "stateMutability": "nonpayable",
      "type": "function"
    },
    {
      "inputs": [
        {
          "internalType": "string",
          "name": "tokenURIPrefix",
          "type": "string"
        }
      ],
      "name": "setTokenURIPrefix",
      "outputs": [],
      "stateMutability": "nonpayable",
      "type": "function"
    },
    {
      "inputs": [
        {
          "internalType": "string",
          "name": "contractURI",
          "type": "string"
        }
      ],
      "name": "setContractURI",
      "outputs": [],
      "stateMutability": "nonpayable",
      "type": "function"
    }
  ],
  "bytecode": "0x60806040523480156200001157600080fd5b506040516200600d3803806200600d8339818101604052810190620000379190620007de565b84848383808260006200004f6200026c60201b60201c565b9050806000806101000a81548173ffffffffffffffffffffffffffffffffffffffff021916908373ffffffffffffffffffffffffffffffffffffffff1602179055508073ffffffffffffffffffffffffffffffffffffffff16600073ffffffffffffffffffffffffffffffffffffffff167f8be0079c531659141344cd1fd0a4f28419497f9722a3daafe3b4186f6b6457e060405160405180910390a3506200010d620001016200026c60201b60201c565b6200027460201b60201c565b620001256301ffc9a760e01b620002d560201b60201c565b6200013d63b779958460e01b620002d560201b60201c565b8060039080519060200190620001559291906200052c565b506200016e63e8a3d48560e01b620002d560201b60201c565b508060049080519060200190620001879291906200052c565b5050620001a16380ac58cd60e01b620002d560201b60201c565b620001b963780e9d6360e01b620002d560201b60201c565b83600e9080519060200190620001d19291906200052c565b5082600f9080519060200190620001ea9291906200052c565b5062000203635b5e139f60e01b620002d560201b60201c565b6200021b63150b7a0260e01b620002d560201b60201c565b50505050620002507fe37243f27916e395706434720b54132b80ef5cc8c56f39b0df6485e8dfb697cf620002d560201b60201c565b62000261836200027460201b60201c565b505050505062000ad4565b600033905090565b6200028f816001620003ae60201b62001b6f1790919060201c565b8073ffffffffffffffffffffffffffffffffffffffff167f47d1c22a25bb3a5d4e481b9b1e6944c2eade3181a0a20b495ed61d35b5323f2460405160405180910390a250565b63ffffffff60e01b817bffffffffffffffffffffffffffffffffffffffffffffffffffffffff1916141562000341576040517f08c379a0000000000000000000000000000000000000000000000000000000008152600401620003389062000943565b60405180910390fd5b600160026000837bffffffffffffffffffffffffffffffffffffffffffffffffffffffff19167bffffffffffffffffffffffffffffffffffffffffffffffffffffffff1916815260200190815260200160002060006101000a81548160ff02191690831515021790555050565b620003c082826200046160201b60201c565b1562000403576040517f08c379a0000000000000000000000000000000000000000000000000000000008152600401620003fa90620009b5565b60405180910390fd5b60018260000160008373ffffffffffffffffffffffffffffffffffffffff1673ffffffffffffffffffffffffffffffffffffffff16815260200190815260200160002060006101000a81548160ff0219169083151502179055505050565b60008073ffffffffffffffffffffffffffffffffffffffff168273ffffffffffffffffffffffffffffffffffffffff161415620004d5576040517f08c379a0000000000000000000000000000000000000000000000000000000008152600401620004cc9062000a4d565b60405180910390fd5b8260000160008373ffffffffffffffffffffffffffffffffffffffff1673ffffffffffffffffffffffffffffffffffffffff16815260200190815260200160002060009054906101000a900460ff16905092915050565b8280546200053a9062000a9e565b90600052602060002090601f0160209004810192826200055e5760008555620005aa565b82601f106200057957805160ff1916838001178555620005aa565b82800160010185558215620005aa579182015b82811115620005a95782518255916020019190600101906200058c565b5b509050620005b99190620005bd565b5090565b5b80821115620005d8576000816000905550600101620005be565b5090565b6000604051905090565b600080fd5b600080fd5b600080fd5b600080fd5b6000601f19601f8301169050919050565b7f4e487b7100000000000000000000000000000000000000000000000000000000600052604160045260246000fd5b6200064582620005fa565b810181811067ffffffffffffffff821117156200066757620006666200060b565b5b80604052505050565b60006200067c620005dc565b90506200068a82826200063a565b919050565b600067ffffffffffffffff821115620006ad57620006ac6200060b565b5b620006b882620005fa565b9050602081019050919050565b60005b83811015620006e5578082015181840152602081019050620006c8565b83811115620006f5576000848401525b50505050565b6000620007126200070c846200068f565b62000670565b905082815260208101848484011115620007315762000730620005f5565b5b6200073e848285620006c5565b509392505050565b600082601f8301126200075e576200075d620005f0565b5b815162000770848260208601620006fb565b91505092915050565b600073ffffffffffffffffffffffffffffffffffffffff82169050919050565b6000620007a68262000779565b9050919050565b620007b88162000799565b8114620007c457600080fd5b50565b600081519050620007d881620007ad565b92915050565b600080600080600060a08688031215620007fd57620007fc620005e6565b5b600086015167ffffffffffffffff8111156200081e576200081d620005eb565b5b6200082c8882890162000746565b955050602086015167ffffffffffffffff81111562000850576200084f620005eb565b5b6200085e8882890162000746565b94505060406200087188828901620007c7565b935050606086015167ffffffffffffffff811115620008955762000894620005eb565b5b620008a38882890162000746565b925050608086015167ffffffffffffffff811115620008c757620008c6620005eb565b5b620008d58882890162000746565b9150509295509295909350565b600082825260208201905092915050565b7f4552433136353a20696e76616c696420696e7465726661636520696400000000600082015250565b60006200092b601c83620008e2565b91506200093882620008f3565b602082019050919050565b600060208201905081810360008301526200095e816200091c565b9050919050565b7f526f6c65733a206163636f756e7420616c72656164792068617320726f6c6500600082015250565b60006200099d601f83620008e2565b9150620009aa8262000965565b602082019050919050565b60006020820190508181036000830152620009d0816200098e565b9050919050565b7f526f6c65733a206163636f756e7420697320746865207a65726f20616464726560008201527f7373000000000000000000000000000000000000000000000000000000000000602082015250565b600062000a35602283620008e2565b915062000a4282620009d7565b604082019050919050565b6000602082019050818103600083015262000a688162000a26565b9050919050565b7f4e487b7100000000000000000000000000000000000000000000000000000000600052602260045260246000fd5b6000600282049050600182168062000ab757607f821691505b6020821081141562000ace5762000acd62000a6f565b5b50919050565b6155298062000ae46000396000f3fe608060405234801561001057600080fd5b50600436106101f05760003560e01c8063715018a61161010f578063b9c4d9fb116100a2578063e8a3d48511610071578063e8a3d485146105c8578063e985e9c5146105e6578063eb12d61e14610616578063f2fde38b14610632576101f0565b8063b9c4d9fb14610540578063c0ac998314610570578063c87b56dd1461058e578063e5c8b03d146105be576101f0565b806395d89b41116100de57806395d89b41146104ce57806399e0dd7c146104ec578063a22cb46514610508578063b88d4fde14610524576101f0565b8063715018a61461045a5780637df73e27146104645780638da5cb5b14610494578063938e3d7b146104b2576101f0565b80632f745c59116101875780636308f1cd116101565780636308f1cd146103ad5780636352211e146103de578063672a94001461040e57806370a082311461042a576101f0565b80632f745c591461031557806342842e0e1461034557806342966c68146103615780634f6ccce71461037d576101f0565b80630e316ab7116101c35780630e316ab71461028f5780630ebd4c7f146102ab57806318160ddd146102db57806323b872dd146102f9576101f0565b806301ffc9a7146101f557806306fdde0314610225578063081812fc14610243578063095ea7b314610273575b600080fd5b61020f600480360381019061020a9190613569565b61064e565b60405161021c91906135b1565b60405180910390f35b61022d6106b6565b60405161023a9190613665565b60405180910390f35b61025d600480360381019061025891906136bd565b610744565b60405161026a919061372b565b60405180910390f35b61028d60048036038101906102889190613772565b6107c9565b005b6102a960048036038101906102a491906137b2565b610984565b005b6102c560048036038101906102c091906136bd565b610a0c565b6040516102d2919061389d565b60405180910390f35b6102e3610b91565b6040516102f091906138ce565b60405180910390f35b610313600480360381019061030e91906138e9565b610b9e565b005b61032f600480360381019061032a9190613772565b610bfe565b60405161033c91906138ce565b60405180910390f35b61035f600480360381019061035a91906138e9565b610cae565b005b61037b600480360381019061037691906136bd565b610cce565b005b610397600480360381019061039291906136bd565b610d2a565b6040516103a491906138ce565b60405180910390f35b6103c760048036038101906103c2919061393c565b610d9b565b6040516103d592919061399d565b60405180910390f35b6103f860048036038101906103f391906136bd565b610dfc565b604051610405919061372b565b60405180910390f35b61042860048036038101906104239190613cb3565b610eae565b005b610444600480360381019061043f91906137b2565b610faf565b60405161045191906138ce565b60405180910390f35b61046261106e565b005b61047e600480360381019061047991906137b2565b6111a8565b60405161048b91906135b1565b60405180910390f35b61049c6111c5565b6040516104a9919061372b565b60405180910390f35b6104cc60048036038101906104c79190613d78565b6111ee565b005b6104d6611276565b6040516104e39190613665565b60405180910390f35b61050660048036038101906105019190613d78565b611304565b005b610522600480360381019061051d9190613ded565b61138c565b005b61053e60048036038101906105399190613ece565b61150d565b005b61055a600480360381019061055591906136bd565b61156f565b604051610567919061400f565b60405180910390f35b610578611722565b6040516105859190613665565b60405180910390f35b6105a860048036038101906105a391906136bd565b6117b0565b6040516105b59190613665565b60405180910390f35b6105c661180a565b005b6105d061181c565b6040516105dd9190613665565b60405180910390f35b61060060048036038101906105fb9190614031565b6118aa565b60405161060d91906135b1565b60405180910390f35b610630600480360381019061062b91906137b2565b61193e565b005b61064c600480360381019061064791906137b2565b6119c6565b005b600060026000837bffffffffffffffffffffffffffffffffffffffffffffffffffffffff19167bffffffffffffffffffffffffffffffffffffffffffffffffffffffff1916815260200190815260200160002060009054906101000a900460ff169050919050565b600e80546106c3906140a0565b80601f01602080910402602001604051908101604052809291908181526020018280546106ef906140a0565b801561073c5780601f106107115761010080835404028352916020019161073c565b820191906000526020600020905b81548152906001019060200180831161071f57829003601f168201915b505050505081565b600061074f82611c17565b61078e576040517f08c379a000000000000000000000000000000000000000000000000000000000815260040161078590614144565b60405180910390fd5b6007600083815260200190815260200160002060009054906101000a900473ffffffffffffffffffffffffffffffffffffffff169050919050565b60006107d482610dfc565b90508073ffffffffffffffffffffffffffffffffffffffff168373ffffffffffffffffffffffffffffffffffffffff161415610845576040517f08c379a000000000000000000000000000000000000000000000000000000000815260040161083c906141d6565b60405180910390fd5b8073ffffffffffffffffffffffffffffffffffffffff16610864611c89565b73ffffffffffffffffffffffffffffffffffffffff16148061089357506108928161088d611c89565b6118aa565b5b6108d2576040517f08c379a00000000000000000000000000000000000000000000000000000000081526004016108c990614268565b60405180910390fd5b826007600084815260200190815260200160002060006101000a81548173ffffffffffffffffffffffffffffffffffffffff021916908373ffffffffffffffffffffffffffffffffffffffff160217905550818373ffffffffffffffffffffffffffffffffffffffff168273ffffffffffffffffffffffffffffffffffffffff167f8c5be1e5ebec7d5bd14f71427d1e84f3dd0314c0f7b2291e5b200ac8c7c3b92560405160405180910390a4505050565b61098c611c89565b73ffffffffffffffffffffffffffffffffffffffff166109aa6111c5565b73ffffffffffffffffffffffffffffffffffffffff1614610a00576040517f08c379a00000000000000000000000000000000000000000000000000000000081526004016109f7906142d4565b60405180910390fd5b610a0981611c91565b50565b6060600060106000848152602001908152602001600020805480602002602001604051908101604052809291908181526020016000905b82821015610ad557838290600052602060002090600202016040518060400160405290816000820160009054906101000a900473ffffffffffffffffffffffffffffffffffffffff1673ffffffffffffffffffffffffffffffffffffffff1673ffffffffffffffffffffffffffffffffffffffff16815260200160018201548152505081526020019060010190610a43565b5050505090506000815167ffffffffffffffff811115610af857610af7613a3a565b5b604051908082528060200260200182016040528015610b265781602001602082028036833780820191505090505b50905060005b8251811015610b8657828181518110610b4857610b476142f4565b5b602002602001015160200151828281518110610b6757610b666142f4565b5b6020026020010181815250508080610b7e90614352565b915050610b2c565b508092505050919050565b6000600c80549050905090565b610baf610ba9611c89565b82611ceb565b610bee576040517f08c379a0000000000000000000000000000000000000000000000000000000008152600401610be59061440d565b60405180910390fd5b610bf9838383611dc9565b505050565b6000610c0983610faf565b8210610c4a576040517f08c379a0000000000000000000000000000000000000000000000000000000008152600401610c419061449f565b60405180910390fd5b600a60008473ffffffffffffffffffffffffffffffffffffffff1673ffffffffffffffffffffffffffffffffffffffff1681526020019081526020016000208281548110610c9b57610c9a6142f4565b5b9060005260206000200154905092915050565b610cc98383836040518060200160405280600081525061150d565b505050565b610cdf610cd9611c89565b82611ceb565b610d1e576040517f08c379a0000000000000000000000000000000000000000000000000000000008152600401610d1590614531565b60405180910390fd5b610d2781611ded565b50565b6000610d34610b91565b8210610d75576040517f08c379a0000000000000000000000000000000000000000000000000000000008152600401610d6c906145c3565b60405180910390fd5b600c8281548110610d8957610d886142f4565b5b90600052602060002001549050919050565b60106020528160005260406000208181548110610db757600080fd5b9060005260206000209060020201600091509150508060000160009054906101000a900473ffffffffffffffffffffffffffffffffffffffff16908060010154905082565b6000806006600084815260200190815260200160002060009054906101000a900473ffffffffffffffffffffffffffffffffffffffff169050600073ffffffffffffffffffffffffffffffffffffffff168173ffffffffffffffffffffffffffffffffffffffff161415610ea5576040517f08c379a0000000000000000000000000000000000000000000000000000000008152600401610e9c90614655565b60405180910390fd5b80915050919050565b610f5360013088604051602001610ec692919061472e565b60405160208183030381529060405280519060200120604051602001610eec91906147d2565b6040516020818303038152906040528051906020012087878760405160008152602001604052604051610f229493929190614816565b6020604051602081039080840390855afa158015610f44573d6000803e3d6000fd5b505050602060405103516111a8565b610f92576040517f08c379a0000000000000000000000000000000000000000000000000000000008152600401610f89906148a7565b60405180910390fd5b610f9d338784611e02565b610fa78682612159565b505050505050565b60008073ffffffffffffffffffffffffffffffffffffffff168273ffffffffffffffffffffffffffffffffffffffff161415611020576040517f08c379a000000000000000000000000000000000000000000000000000000000815260040161101790614939565b60405180910390fd5b611067600860008473ffffffffffffffffffffffffffffffffffffffff1673ffffffffffffffffffffffffffffffffffffffff1681526020019081526020016000206121af565b9050919050565b611076611c89565b73ffffffffffffffffffffffffffffffffffffffff166110946111c5565b73ffffffffffffffffffffffffffffffffffffffff16146110ea576040517f08c379a00000000000000000000000000000000000000000000000000000000081526004016110e1906142d4565b60405180910390fd5b600073ffffffffffffffffffffffffffffffffffffffff1660008054906101000a900473ffffffffffffffffffffffffffffffffffffffff1673ffffffffffffffffffffffffffffffffffffffff167f8be0079c531659141344cd1fd0a4f28419497f9722a3daafe3b4186f6b6457e060405160405180910390a360008060006101000a81548173ffffffffffffffffffffffffffffffffffffffff021916908373ffffffffffffffffffffffffffffffffffffffff160217905550565b60006111be8260016121bd90919063ffffffff16565b9050919050565b60008060009054906101000a900473ffffffffffffffffffffffffffffffffffffffff16905090565b6111f6611c89565b73ffffffffffffffffffffffffffffffffffffffff166112146111c5565b73ffffffffffffffffffffffffffffffffffffffff161461126a576040517f08c379a0000000000000000000000000000000000000000000000000000000008152600401611261906142d4565b60405180910390fd5b61127381612285565b50565b600f8054611283906140a0565b80601f01602080910402602001604051908101604052809291908181526020018280546112af906140a0565b80156112fc5780601f106112d1576101008083540402835291602001916112fc565b820191906000526020600020905b8154815290600101906020018083116112df57829003601f168201915b505050505081565b61130c611c89565b73ffffffffffffffffffffffffffffffffffffffff1661132a6111c5565b73ffffffffffffffffffffffffffffffffffffffff1614611380576040517f08c379a0000000000000000000000000000000000000000000000000000000008152600401611377906142d4565b60405180910390fd5b6113898161229f565b50565b611394611c89565b73ffffffffffffffffffffffffffffffffffffffff168273ffffffffffffffffffffffffffffffffffffffff161415611402576040517f08c379a00000000000000000000000000000000000000000000000000000000081526004016113f9906149a5565b60405180910390fd5b806009600061140f611c89565b73ffffffffffffffffffffffffffffffffffffffff1673ffffffffffffffffffffffffffffffffffffffff16815260200190815260200160002060008473ffffffffffffffffffffffffffffffffffffffff1673ffffffffffffffffffffffffffffffffffffffff16815260200190815260200160002060006101000a81548160ff0219169083151502179055508173ffffffffffffffffffffffffffffffffffffffff166114bc611c89565b73ffffffffffffffffffffffffffffffffffffffff167f17307eab39ab6107e8899845ad3d59bd9653f200f220920489ca2b5937696c318360405161150191906135b1565b60405180910390a35050565b61151e611518611c89565b83611ceb565b61155d576040517f08c379a00000000000000000000000000000000000000000000000000000000081526004016115549061440d565b60405180910390fd5b611569848484846122b9565b50505050565b6060600060106000848152602001908152602001600020805480602002602001604051908101604052809291908181526020016000905b8282101561163857838290600052602060002090600202016040518060400160405290816000820160009054906101000a900473ffffffffffffffffffffffffffffffffffffffff1673ffffffffffffffffffffffffffffffffffffffff1673ffffffffffffffffffffffffffffffffffffffff168152602001600182015481525050815260200190600101906115a6565b5050505090506000815167ffffffffffffffff81111561165b5761165a613a3a565b5b6040519080825280602002602001820160405280156116895781602001602082028036833780820191505090505b50905060005b8251811015611717578281815181106116ab576116aa6142f4565b5b6020026020010151600001518282815181106116ca576116c96142f4565b5b602002602001019073ffffffffffffffffffffffffffffffffffffffff16908173ffffffffffffffffffffffffffffffffffffffff1681525050808061170f90614352565b91505061168f565b508092505050919050565b6004805461172f906140a0565b80601f016020809104026020016040519081016040528092919081815260200182805461175b906140a0565b80156117a85780601f1061177d576101008083540402835291602001916117a8565b820191906000526020600020905b81548152906001019060200180831161178b57829003601f168201915b505050505081565b60606117bb82611c17565b6117fa576040517f08c379a00000000000000000000000000000000000000000000000000000000081526004016117f190614a37565b60405180910390fd5b61180382612315565b9050919050565b61181a611815611c89565b611c91565b565b60038054611829906140a0565b80601f0160208091040260200160405190810160405280929190818152602001828054611855906140a0565b80156118a25780601f10611877576101008083540402835291602001916118a2565b820191906000526020600020905b81548152906001019060200180831161188557829003601f168201915b505050505081565b6000600960008473ffffffffffffffffffffffffffffffffffffffff1673ffffffffffffffffffffffffffffffffffffffff16815260200190815260200160002060008373ffffffffffffffffffffffffffffffffffffffff1673ffffffffffffffffffffffffffffffffffffffff16815260200190815260200160002060009054906101000a900460ff16905092915050565b611946611c89565b73ffffffffffffffffffffffffffffffffffffffff166119646111c5565b73ffffffffffffffffffffffffffffffffffffffff16146119ba576040517f08c379a00000000000000000000000000000000000000000000000000000000081526004016119b1906142d4565b60405180910390fd5b6119c381612456565b50565b6119ce611c89565b73ffffffffffffffffffffffffffffffffffffffff166119ec6111c5565b73ffffffffffffffffffffffffffffffffffffffff1614611a42576040517f08c379a0000000000000000000000000000000000000000000000000000000008152600401611a39906142d4565b60405180910390fd5b600073ffffffffffffffffffffffffffffffffffffffff168173ffffffffffffffffffffffffffffffffffffffff161415611ab2576040517f08c379a0000000000000000000000000000000000000000000000000000000008152600401611aa990614ac9565b60405180910390fd5b8073ffffffffffffffffffffffffffffffffffffffff1660008054906101000a900473ffffffffffffffffffffffffffffffffffffffff1673ffffffffffffffffffffffffffffffffffffffff167f8be0079c531659141344cd1fd0a4f28419497f9722a3daafe3b4186f6b6457e060405160405180910390a3806000806101000a81548173ffffffffffffffffffffffffffffffffffffffff021916908373ffffffffffffffffffffffffffffffffffffffff16021790555050565b611b7982826121bd565b15611bb9576040517f08c379a0000000000000000000000000000000000000000000000000000000008152600401611bb090614b35565b60405180910390fd5b60018260000160008373ffffffffffffffffffffffffffffffffffffffff1673ffffffffffffffffffffffffffffffffffffffff16815260200190815260200160002060006101000a81548160ff0219169083151502179055505050565b6000806006600084815260200190815260200160002060009054906101000a900473ffffffffffffffffffffffffffffffffffffffff169050600073ffffffffffffffffffffffffffffffffffffffff168173ffffffffffffffffffffffffffffffffffffffff161415915050919050565b600033905090565b611ca58160016124b090919063ffffffff16565b8073ffffffffffffffffffffffffffffffffffffffff167f3525e22824a8a7df2c9a6029941c824cf95b6447f1e13d5128fd3826d35afe8b60405160405180910390a250565b6000611cf682611c17565b611d35576040517f08c379a0000000000000000000000000000000000000000000000000000000008152600401611d2c90614bc7565b60405180910390fd5b6000611d4083610dfc565b90508073ffffffffffffffffffffffffffffffffffffffff168473ffffffffffffffffffffffffffffffffffffffff161480611daf57508373ffffffffffffffffffffffffffffffffffffffff16611d9784610744565b73ffffffffffffffffffffffffffffffffffffffff16145b80611dc05750611dbf81856118aa565b5b91505092915050565b611dd4838383612557565b611dde8382612786565b611de88282612944565b505050565b611dff611df982610dfc565b82612a08565b50565b611e0c8383612a1f565b6000815167ffffffffffffffff811115611e2957611e28613a3a565b5b604051908082528060200260200182016040528015611e575781602001602082028036833780820191505090505b5090506000825167ffffffffffffffff811115611e7757611e76613a3a565b5b604051908082528060200260200182016040528015611ea55781602001602082028036833780820191505090505b50905060005b835181101561210b57600073ffffffffffffffffffffffffffffffffffffffff16848281518110611edf57611ede6142f4565b5b60200260200101516000015173ffffffffffffffffffffffffffffffffffffffff161415611f42576040517f08c379a0000000000000000000000000000000000000000000000000000000008152600401611f3990614c33565b60405180910390fd5b6000848281518110611f5757611f566142f4565b5b6020026020010151602001511415611fa4576040517f08c379a0000000000000000000000000000000000000000000000000000000008152600401611f9b90614c9f565b60405180910390fd5b60106000868152602001908152602001600020848281518110611fca57611fc96142f4565b5b6020026020010151908060018154018082558091505060019003906000526020600020906002020160009091909190915060008201518160000160006101000a81548173ffffffffffffffffffffffffffffffffffffffff021916908373ffffffffffffffffffffffffffffffffffffffff160217905550602082015181600101555050838181518110612061576120606142f4565b5b6020026020010151600001518382815181106120805761207f6142f4565b5b602002602001019073ffffffffffffffffffffffffffffffffffffffff16908173ffffffffffffffffffffffffffffffffffffffff16815250508381815181106120cd576120cc6142f4565b5b6020026020010151602001518282815181106120ec576120eb6142f4565b5b602002602001018181525050808061210390614352565b915050611eab565b50600083511115612152577f99aba1d63749cfd5ad1afda7c4663840924d54eb5f005bbbeadedc6ec13674b284838360405161214993929190614d7d565b60405180910390a15b5050505050565b61216282611c17565b6121a1576040517f08c379a000000000000000000000000000000000000000000000000000000000815260040161219890614e34565b60405180910390fd5b6121ab8282612a40565b5050565b600081600001549050919050565b60008073ffffffffffffffffffffffffffffffffffffffff168273ffffffffffffffffffffffffffffffffffffffff16141561222e576040517f08c379a000000000000000000000000000000000000000000000000000000000815260040161222590614ec6565b60405180910390fd5b8260000160008373ffffffffffffffffffffffffffffffffffffffff1673ffffffffffffffffffffffffffffffffffffffff16815260200190815260200160002060009054906101000a900460ff16905092915050565b806003908051906020019061229b92919061341a565b5050565b80600490805190602001906122b592919061341a565b5050565b6122c4848484611dc9565b6122d084848484612a6c565b61230f576040517f08c379a000000000000000000000000000000000000000000000000000000000815260040161230690614f58565b60405180910390fd5b50505050565b606061244f600560008481526020019081526020016000208054612338906140a0565b80601f0160208091040260200160405190810160405280929190818152602001828054612364906140a0565b80156123b15780601f10612386576101008083540402835291602001916123b1565b820191906000526020600020905b81548152906001019060200180831161239457829003601f168201915b5050505050600480546123c3906140a0565b80601f01602080910402602001604051908101604052809291908181526020018280546123ef906140a0565b801561243c5780601f106124115761010080835404028352916020019161243c565b820191906000526020600020905b81548152906001019060200180831161241f57829003601f168201915b5050505050612c4c90919063ffffffff16565b9050919050565b61246a816001611b6f90919063ffffffff16565b8073ffffffffffffffffffffffffffffffffffffffff167f47d1c22a25bb3a5d4e481b9b1e6944c2eade3181a0a20b495ed61d35b5323f2460405160405180910390a250565b6124ba82826121bd565b6124f9576040517f08c379a00000000000000000000000000000000000000000000000000000000081526004016124f090614fea565b60405180910390fd5b60008260000160008373ffffffffffffffffffffffffffffffffffffffff1673ffffffffffffffffffffffffffffffffffffffff16815260200190815260200160002060006101000a81548160ff0219169083151502179055505050565b8273ffffffffffffffffffffffffffffffffffffffff1661257782610dfc565b73ffffffffffffffffffffffffffffffffffffffff16146125cd576040517f08c379a00000000000000000000000000000000000000000000000000000000081526004016125c49061507c565b60405180910390fd5b600073ffffffffffffffffffffffffffffffffffffffff168273ffffffffffffffffffffffffffffffffffffffff16141561263d576040517f08c379a00000000000000000000000000000000000000000000000000000000081526004016126349061510e565b60405180910390fd5b61264681612ddc565b61268d600860008573ffffffffffffffffffffffffffffffffffffffff1673ffffffffffffffffffffffffffffffffffffffff168152602001908152602001600020612e9a565b6126d4600860008473ffffffffffffffffffffffffffffffffffffffff1673ffffffffffffffffffffffffffffffffffffffff168152602001908152602001600020612ebd565b816006600083815260200190815260200160002060006101000a81548173ffffffffffffffffffffffffffffffffffffffff021916908373ffffffffffffffffffffffffffffffffffffffff160217905550808273ffffffffffffffffffffffffffffffffffffffff168473ffffffffffffffffffffffffffffffffffffffff167fddf252ad1be2c89b69c2b068fc378daa952ba7f163c4a11628f55a4df523b3ef60405160405180910390a4505050565b60006127de6001600a60008673ffffffffffffffffffffffffffffffffffffffff1673ffffffffffffffffffffffffffffffffffffffff16815260200190815260200160002080549050612edc90919063ffffffff16565b90506000600b60008481526020019081526020016000205490508181146128d9576000600a60008673ffffffffffffffffffffffffffffffffffffffff1673ffffffffffffffffffffffffffffffffffffffff1681526020019081526020016000208381548110612852576128516142f4565b5b9060005260206000200154905080600a60008773ffffffffffffffffffffffffffffffffffffffff1673ffffffffffffffffffffffffffffffffffffffff16815260200190815260200160002083815481106128b1576128b06142f4565b5b906000526020600020018190555081600b600083815260200190815260200160002081905550505b600a60008573ffffffffffffffffffffffffffffffffffffffff1673ffffffffffffffffffffffffffffffffffffffff1681526020019081526020016000208054806129285761292761512e565b5b6001900381819060005260206000200160009055905550505050565b600a60008373ffffffffffffffffffffffffffffffffffffffff1673ffffffffffffffffffffffffffffffffffffffff16815260200190815260200160002080549050600b600083815260200190815260200160002081905550600a60008373ffffffffffffffffffffffffffffffffffffffff1673ffffffffffffffffffffffffffffffffffffffff1681526020019081526020016000208190806001815401808255809150506001900390600052602060002001600090919091909150555050565b612a128282612f35565b612a1b81612f6f565b5050565b612a298282612fb9565b612a338282612944565b612a3c8161316b565b5050565b80600560008481526020019081526020016000209080519060200190612a6792919061341a565b505050565b6000612a8d8473ffffffffffffffffffffffffffffffffffffffff166131b4565b612a9a5760019050612c44565b6000808573ffffffffffffffffffffffffffffffffffffffff1663150b7a0260e01b612ac4611c89565b898888604051602401612ada94939291906151b2565b604051602081830303815290604052907bffffffffffffffffffffffffffffffffffffffffffffffffffffffff19166020820180517bffffffffffffffffffffffffffffffffffffffffffffffffffffffff8381831617835250505050604051612b44919061523a565b6000604051808303816000865af19150503d8060008114612b81576040519150601f19603f3d011682016040523d82523d6000602084013e612b86565b606091505b509150915081612bde57600081511115612ba35780518082602001fd5b6040517f08c379a0000000000000000000000000000000000000000000000000000000008152600401612bd590614f58565b60405180910390fd5b600081806020019051810190612bf49190615266565b905063150b7a0260e01b7bffffffffffffffffffffffffffffffffffffffffffffffffffffffff1916817bffffffffffffffffffffffffffffffffffffffffffffffffffffffff19161493505050505b949350505050565b606060008390506000839050600081518351612c689190615293565b67ffffffffffffffff811115612c8157612c80613a3a565b5b6040519080825280601f01601f191660200182016040528015612cb35781602001600182028036833780820191505090505b5090506000805b8451811015612d4257848181518110612cd657612cd56142f4565b5b602001015160f81c60f81b838380612ced90614352565b945081518110612d0057612cff6142f4565b5b60200101907effffffffffffffffffffffffffffffffffffffffffffffffffffffffffffff1916908160001a9053508080612d3a90614352565b915050612cba565b5060005b8351811015612dce57838181518110612d6257612d616142f4565b5b602001015160f81c60f81b838380612d7990614352565b945081518110612d8c57612d8b6142f4565b5b60200101907effffffffffffffffffffffffffffffffffffffffffffffffffffffffffffff1916908160001a9053508080612dc690614352565b915050612d46565b508194505050505092915050565b600073ffffffffffffffffffffffffffffffffffffffff166007600083815260200190815260200160002060009054906101000a900473ffffffffffffffffffffffffffffffffffffffff1673ffffffffffffffffffffffffffffffffffffffff1614612e975760006007600083815260200190815260200160002060006101000a81548173ffffffffffffffffffffffffffffffffffffffff021916908373ffffffffffffffffffffffffffffffffffffffff1602179055505b50565b612eb260018260000154612edc90919063ffffffff16565b816000018190555050565b6001816000016000828254612ed29190615293565b9250508190555050565b600082821115612f21576040517f08c379a0000000000000000000000000000000000000000000000000000000008152600401612f1890615335565b60405180910390fd5b8183612f2d9190615355565b905092915050565b612f3f82826131c7565b612f498282612786565b6000600b600083815260200190815260200160002081905550612f6b81613340565b5050565b6000600560008381526020019081526020016000208054612f8f906140a0565b905014612fb657600560008281526020019081526020016000206000612fb591906134a0565b5b50565b600073ffffffffffffffffffffffffffffffffffffffff168273ffffffffffffffffffffffffffffffffffffffff161415613029576040517f08c379a0000000000000000000000000000000000000000000000000000000008152600401613020906153d5565b60405180910390fd5b61303281611c17565b15613072576040517f08c379a000000000000000000000000000000000000000000000000000000000815260040161306990615441565b60405180910390fd5b816006600083815260200190815260200160002060006101000a81548173ffffffffffffffffffffffffffffffffffffffff021916908373ffffffffffffffffffffffffffffffffffffffff16021790555061310b600860008473ffffffffffffffffffffffffffffffffffffffff1673ffffffffffffffffffffffffffffffffffffffff168152602001908152602001600020612ebd565b808273ffffffffffffffffffffffffffffffffffffffff16600073ffffffffffffffffffffffffffffffffffffffff167fddf252ad1be2c89b69c2b068fc378daa952ba7f163c4a11628f55a4df523b3ef60405160405180910390a45050565b600c80549050600d600083815260200190815260200160002081905550600c81908060018154018082558091505060019003906000526020600020016000909190919091505550565b600080823b905060008111915050919050565b8173ffffffffffffffffffffffffffffffffffffffff166131e782610dfc565b73ffffffffffffffffffffffffffffffffffffffff161461323d576040517f08c379a0000000000000000000000000000000000000000000000000000000008152600401613234906154d3565b60405180910390fd5b61324681612ddc565b61328d600860008473ffffffffffffffffffffffffffffffffffffffff1673ffffffffffffffffffffffffffffffffffffffff168152602001908152602001600020612e9a565b60006006600083815260200190815260200160002060006101000a81548173ffffffffffffffffffffffffffffffffffffffff021916908373ffffffffffffffffffffffffffffffffffffffff16021790555080600073ffffffffffffffffffffffffffffffffffffffff168373ffffffffffffffffffffffffffffffffffffffff167fddf252ad1be2c89b69c2b068fc378daa952ba7f163c4a11628f55a4df523b3ef60405160405180910390a45050565b600061335b6001600c80549050612edc90919063ffffffff16565b90506000600d60008481526020019081526020016000205490506000600c838154811061338b5761338a6142f4565b5b9060005260206000200154905080600c83815481106133ad576133ac6142f4565b5b906000526020600020018190555081600d600083815260200190815260200160002081905550600c8054806133e5576133e461512e565b5b600190038181906000526020600020016000905590556000600d60008681526020019081526020016000208190555050505050565b828054613426906140a0565b90600052602060002090601f016020900481019282613448576000855561348f565b82601f1061346157805160ff191683800117855561348f565b8280016001018555821561348f579182015b8281111561348e578251825591602001919060010190613473565b5b50905061349c91906134e0565b5090565b5080546134ac906140a0565b6000825580601f106134be57506134dd565b601f0160209004906000526020600020908101906134dc91906134e0565b5b50565b5b808211156134f95760008160009055506001016134e1565b5090565b6000604051905090565b600080fd5b600080fd5b60007fffffffff0000000000000000000000000000000000000000000000000000000082169050919050565b61354681613511565b811461355157600080fd5b50565b6000813590506135638161353d565b92915050565b60006020828403121561357f5761357e613507565b5b600061358d84828501613554565b91505092915050565b60008115159050919050565b6135ab81613596565b82525050565b60006020820190506135c660008301846135a2565b92915050565b600081519050919050565b600082825260208201905092915050565b60005b838110156136065780820151818401526020810190506135eb565b83811115613615576000848401525b50505050565b6000601f19601f8301169050919050565b6000613637826135cc565b61364181856135d7565b93506136518185602086016135e8565b61365a8161361b565b840191505092915050565b6000602082019050818103600083015261367f818461362c565b905092915050565b6000819050919050565b61369a81613687565b81146136a557600080fd5b50565b6000813590506136b781613691565b92915050565b6000602082840312156136d3576136d2613507565b5b60006136e1848285016136a8565b91505092915050565b600073ffffffffffffffffffffffffffffffffffffffff82169050919050565b6000613715826136ea565b9050919050565b6137258161370a565b82525050565b6000602082019050613740600083018461371c565b92915050565b61374f8161370a565b811461375a57600080fd5b50565b60008135905061376c81613746565b92915050565b6000806040838503121561378957613788613507565b5b60006137978582860161375d565b92505060206137a8858286016136a8565b9150509250929050565b6000602082840312156137c8576137c7613507565b5b60006137d68482850161375d565b91505092915050565b600081519050919050565b600082825260208201905092915050565b6000819050602082019050919050565b61381481613687565b82525050565b6000613826838361380b565b60208301905092915050565b6000602082019050919050565b600061384a826137df565b61385481856137ea565b935061385f836137fb565b8060005b83811015613890578151613877888261381a565b975061388283613832565b925050600181019050613863565b5085935050505092915050565b600060208201905081810360008301526138b7818461383f565b905092915050565b6138c881613687565b82525050565b60006020820190506138e360008301846138bf565b92915050565b60008060006060848603121561390257613901613507565b5b60006139108682870161375d565b93505060206139218682870161375d565b9250506040613932868287016136a8565b9150509250925092565b6000806040838503121561395357613952613507565b5b6000613961858286016136a8565b9250506020613972858286016136a8565b9150509250929050565b6000613987826136ea565b9050919050565b6139978161397c565b82525050565b60006040820190506139b2600083018561398e565b6139bf60208301846138bf565b9392505050565b600060ff82169050919050565b6139dc816139c6565b81146139e757600080fd5b50565b6000813590506139f9816139d3565b92915050565b6000819050919050565b613a12816139ff565b8114613a1d57600080fd5b50565b600081359050613a2f81613a09565b92915050565b600080fd5b7f4e487b7100000000000000000000000000000000000000000000000000000000600052604160045260246000fd5b613a728261361b565b810181811067ffffffffffffffff82111715613a9157613a90613a3a565b5b80604052505050565b6000613aa46134fd565b9050613ab08282613a69565b919050565b600067ffffffffffffffff821115613ad057613acf613a3a565b5b602082029050602081019050919050565b600080fd5b600080fd5b613af48161397c565b8114613aff57600080fd5b50565b600081359050613b1181613aeb565b92915050565b600060408284031215613b2d57613b2c613ae6565b5b613b376040613a9a565b90506000613b4784828501613b02565b6000830152506020613b5b848285016136a8565b60208301525092915050565b6000613b7a613b7584613ab5565b613a9a565b90508083825260208201905060408402830185811115613b9d57613b9c613ae1565b5b835b81811015613bc65780613bb28882613b17565b845260208401935050604081019050613b9f565b5050509392505050565b600082601f830112613be557613be4613a35565b5b8135613bf5848260208601613b67565b91505092915050565b600080fd5b600067ffffffffffffffff821115613c1e57613c1d613a3a565b5b613c278261361b565b9050602081019050919050565b82818337600083830152505050565b6000613c56613c5184613c03565b613a9a565b905082815260208101848484011115613c7257613c71613bfe565b5b613c7d848285613c34565b509392505050565b600082601f830112613c9a57613c99613a35565b5b8135613caa848260208601613c43565b91505092915050565b60008060008060008060c08789031215613cd057613ccf613507565b5b6000613cde89828a016136a8565b9650506020613cef89828a016139ea565b9550506040613d0089828a01613a20565b9450506060613d1189828a01613a20565b935050608087013567ffffffffffffffff811115613d3257613d3161350c565b5b613d3e89828a01613bd0565b92505060a087013567ffffffffffffffff811115613d5f57613d5e61350c565b5b613d6b89828a01613c85565b9150509295509295509295565b600060208284031215613d8e57613d8d613507565b5b600082013567ffffffffffffffff811115613dac57613dab61350c565b5b613db884828501613c85565b91505092915050565b613dca81613596565b8114613dd557600080fd5b50565b600081359050613de781613dc1565b92915050565b60008060408385031215613e0457613e03613507565b5b6000613e128582860161375d565b9250506020613e2385828601613dd8565b9150509250929050565b600067ffffffffffffffff821115613e4857613e47613a3a565b5b613e518261361b565b9050602081019050919050565b6000613e71613e6c84613e2d565b613a9a565b905082815260208101848484011115613e8d57613e8c613bfe565b5b613e98848285613c34565b509392505050565b600082601f830112613eb557613eb4613a35565b5b8135613ec5848260208601613e5e565b91505092915050565b60008060008060808587031215613ee857613ee7613507565b5b6000613ef68782880161375d565b9450506020613f078782880161375d565b9350506040613f18878288016136a8565b925050606085013567ffffffffffffffff811115613f3957613f3861350c565b5b613f4587828801613ea0565b91505092959194509250565b600081519050919050565b600082825260208201905092915050565b6000819050602082019050919050565b613f868161397c565b82525050565b6000613f988383613f7d565b60208301905092915050565b6000602082019050919050565b6000613fbc82613f51565b613fc68185613f5c565b9350613fd183613f6d565b8060005b83811015614002578151613fe98882613f8c565b9750613ff483613fa4565b925050600181019050613fd5565b5085935050505092915050565b600060208201905081810360008301526140298184613fb1565b905092915050565b6000806040838503121561404857614047613507565b5b60006140568582860161375d565b92505060206140678582860161375d565b9150509250929050565b7f4e487b7100000000000000000000000000000000000000000000000000000000600052602260045260246000fd5b600060028204905060018216806140b857607f821691505b602082108114156140cc576140cb614071565b5b50919050565b7f4552433732313a20617070726f76656420717565727920666f72206e6f6e657860008201527f697374656e7420746f6b656e0000000000000000000000000000000000000000602082015250565b600061412e602c836135d7565b9150614139826140d2565b604082019050919050565b6000602082019050818103600083015261415d81614121565b9050919050565b7f4552433732313a20617070726f76616c20746f2063757272656e74206f776e6560008201527f7200000000000000000000000000000000000000000000000000000000000000602082015250565b60006141c06021836135d7565b91506141cb82614164565b604082019050919050565b600060208201905081810360008301526141ef816141b3565b9050919050565b7f4552433732313a20617070726f76652063616c6c6572206973206e6f74206f7760008201527f6e6572206e6f7220617070726f76656420666f7220616c6c0000000000000000602082015250565b60006142526038836135d7565b915061425d826141f6565b604082019050919050565b6000602082019050818103600083015261428181614245565b9050919050565b7f4f776e61626c653a2063616c6c6572206973206e6f7420746865206f776e6572600082015250565b60006142be6020836135d7565b91506142c982614288565b602082019050919050565b600060208201905081810360008301526142ed816142b1565b9050919050565b7f4e487b7100000000000000000000000000000000000000000000000000000000600052603260045260246000fd5b7f4e487b7100000000000000000000000000000000000000000000000000000000600052601160045260246000fd5b600061435d82613687565b91507fffffffffffffffffffffffffffffffffffffffffffffffffffffffffffffffff8214156143905761438f614323565b5b600182019050919050565b7f4552433732313a207472616e736665722063616c6c6572206973206e6f74206f60008201527f776e6572206e6f7220617070726f766564000000000000000000000000000000602082015250565b60006143f76031836135d7565b91506144028261439b565b604082019050919050565b60006020820190508181036000830152614426816143ea565b9050919050565b7f455243373231456e756d657261626c653a206f776e657220696e646578206f7560008201527f74206f6620626f756e6473000000000000000000000000000000000000000000602082015250565b6000614489602b836135d7565b91506144948261442d565b604082019050919050565b600060208201905081810360008301526144b88161447c565b9050919050565b7f4552433732314275726e61626c653a2063616c6c6572206973206e6f74206f7760008201527f6e6572206e6f7220617070726f76656400000000000000000000000000000000602082015250565b600061451b6030836135d7565b9150614526826144bf565b604082019050919050565b6000602082019050818103600083015261454a8161450e565b9050919050565b7f455243373231456e756d657261626c653a20676c6f62616c20696e646578206f60008201527f7574206f6620626f756e64730000000000000000000000000000000000000000602082015250565b60006145ad602c836135d7565b91506145b882614551565b604082019050919050565b600060208201905081810360008301526145dc816145a0565b9050919050565b7f4552433732313a206f776e657220717565727920666f72206e6f6e657869737460008201527f656e7420746f6b656e0000000000000000000000000000000000000000000000602082015250565b600061463f6029836135d7565b915061464a826145e3565b604082019050919050565b6000602082019050818103600083015261466e81614632565b9050919050565b6000819050919050565b600061469a614695614690846136ea565b614675565b6136ea565b9050919050565b60006146ac8261467f565b9050919050565b60006146be826146a1565b9050919050565b60008160601b9050919050565b60006146dd826146c5565b9050919050565b60006146ef826146d2565b9050919050565b614707614702826146b3565b6146e4565b82525050565b6000819050919050565b61472861472382613687565b61470d565b82525050565b600061473a82856146f6565b60148201915061474a8284614717565b6020820191508190509392505050565b600081905092915050565b7f19457468657265756d205369676e6564204d6573736167653a0a333200000000600082015250565b600061479b601c8361475a565b91506147a682614765565b601c82019050919050565b6000819050919050565b6147cc6147c7826139ff565b6147b1565b82525050565b60006147dd8261478e565b91506147e982846147bb565b60208201915081905092915050565b614801816139ff565b82525050565b614810816139c6565b82525050565b600060808201905061482b60008301876147f8565b6148386020830186614807565b61484560408301856147f8565b61485260608301846147f8565b95945050505050565b7f6f776e65722073686f756c64207369676e20746f6b656e496400000000000000600082015250565b60006148916019836135d7565b915061489c8261485b565b602082019050919050565b600060208201905081810360008301526148c081614884565b9050919050565b7f4552433732313a2062616c616e636520717565727920666f7220746865207a6560008201527f726f206164647265737300000000000000000000000000000000000000000000602082015250565b6000614923602a836135d7565b915061492e826148c7565b604082019050919050565b6000602082019050818103600083015261495281614916565b9050919050565b7f4552433732313a20617070726f766520746f2063616c6c657200000000000000600082015250565b600061498f6019836135d7565b915061499a82614959565b602082019050919050565b600060208201905081810360008301526149be81614982565b9050919050565b7f4552433732314d657461646174613a2055524920717565727920666f72206e6f60008201527f6e6578697374656e7420746f6b656e0000000000000000000000000000000000602082015250565b6000614a21602f836135d7565b9150614a2c826149c5565b604082019050919050565b60006020820190508181036000830152614a5081614a14565b9050919050565b7f4f776e61626c653a206e6577206f776e657220697320746865207a65726f206160008201527f6464726573730000000000000000000000000000000000000000000000000000602082015250565b6000614ab36026836135d7565b9150614abe82614a57565b604082019050919050565b60006020820190508181036000830152614ae281614aa6565b9050919050565b7f526f6c65733a206163636f756e7420616c72656164792068617320726f6c6500600082015250565b6000614b1f601f836135d7565b9150614b2a82614ae9565b602082019050919050565b60006020820190508181036000830152614b4e81614b12565b9050919050565b7f4552433732313a206f70657261746f7220717565727920666f72206e6f6e657860008201527f697374656e7420746f6b656e0000000000000000000000000000000000000000602082015250565b6000614bb1602c836135d7565b9150614bbc82614b55565b604082019050919050565b60006020820190508181036000830152614be081614ba4565b9050919050565b7f526563697069656e74202062652070726573656e740000000000000000000000600082015250565b6000614c1d6015836135d7565b9150614c2882614be7565b602082019050919050565b60006020820190508181036000830152614c4c81614c10565b9050919050565b7f4665652076616c75652020626520706f73697469766500000000000000000000600082015250565b6000614c896016836135d7565b9150614c9482614c53565b602082019050919050565b60006020820190508181036000830152614cb881614c7c565b9050919050565b600081519050919050565b600082825260208201905092915050565b6000819050602082019050919050565b614cf48161370a565b82525050565b6000614d068383614ceb565b60208301905092915050565b6000602082019050919050565b6000614d2a82614cbf565b614d348185614cca565b9350614d3f83614cdb565b8060005b83811015614d70578151614d578882614cfa565b9750614d6283614d12565b925050600181019050614d43565b5085935050505092915050565b6000606082019050614d9260008301866138bf565b8181036020830152614da48185614d1f565b90508181036040830152614db8818461383f565b9050949350505050565b7f4552433732314d657461646174613a2055524920736574206f66206e6f6e657860008201527f697374656e7420746f6b656e0000000000000000000000000000000000000000602082015250565b6000614e1e602c836135d7565b9150614e2982614dc2565b604082019050919050565b60006020820190508181036000830152614e4d81614e11565b9050919050565b7f526f6c65733a206163636f756e7420697320746865207a65726f20616464726560008201527f7373000000000000000000000000000000000000000000000000000000000000602082015250565b6000614eb06022836135d7565b9150614ebb82614e54565b604082019050919050565b60006020820190508181036000830152614edf81614ea3565b9050919050565b7f4552433732313a207472616e7366657220746f206e6f6e20455243373231526560008201527f63656976657220696d706c656d656e7465720000000000000000000000000000602082015250565b6000614f426032836135d7565b9150614f4d82614ee6565b604082019050919050565b60006020820190508181036000830152614f7181614f35565b9050919050565b7f526f6c65733a206163636f756e7420646f6573206e6f74206861766520726f6c60008201527f6500000000000000000000000000000000000000000000000000000000000000602082015250565b6000614fd46021836135d7565b9150614fdf82614f78565b604082019050919050565b6000602082019050818103600083015261500381614fc7565b9050919050565b7f4552433732313a207472616e73666572206f6620746f6b656e2074686174206960008201527f73206e6f74206f776e0000000000000000000000000000000000000000000000602082015250565b60006150666029836135d7565b91506150718261500a565b604082019050919050565b6000602082019050818103600083015261509581615059565b9050919050565b7f4552433732313a207472616e7366657220746f20746865207a65726f2061646460008201527f7265737300000000000000000000000000000000000000000000000000000000602082015250565b60006150f86024836135d7565b91506151038261509c565b604082019050919050565b60006020820190508181036000830152615127816150eb565b9050919050565b7f4e487b7100000000000000000000000000000000000000000000000000000000600052603160045260246000fd5b600081519050919050565b600082825260208201905092915050565b60006151848261515d565b61518e8185615168565b935061519e8185602086016135e8565b6151a78161361b565b840191505092915050565b60006080820190506151c7600083018761371c565b6151d4602083018661371c565b6151e160408301856138bf565b81810360608301526151f38184615179565b905095945050505050565b600081905092915050565b60006152148261515d565b61521e81856151fe565b935061522e8185602086016135e8565b80840191505092915050565b60006152468284615209565b915081905092915050565b6000815190506152608161353d565b92915050565b60006020828403121561527c5761527b613507565b5b600061528a84828501615251565b91505092915050565b600061529e82613687565b91506152a983613687565b9250827fffffffffffffffffffffffffffffffffffffffffffffffffffffffffffffffff038211156152de576152dd614323565b5b828201905092915050565b7f536166654d6174683a207375627472616374696f6e206f766572666c6f770000600082015250565b600061531f601e836135d7565b915061532a826152e9565b602082019050919050565b6000602082019050818103600083015261534e81615312565b9050919050565b600061536082613687565b915061536b83613687565b92508282101561537e5761537d614323565b5b828203905092915050565b7f4552433732313a206d696e7420746f20746865207a65726f2061646472657373600082015250565b60006153bf6020836135d7565b91506153ca82615389565b602082019050919050565b600060208201905081810360008301526153ee816153b2565b9050919050565b7f4552433732313a20746f6b656e20616c7265616479206d696e74656400000000600082015250565b600061542b601c836135d7565b9150615436826153f5565b602082019050919050565b6000602082019050818103600083015261545a8161541e565b9050919050565b7f4552433732313a206275726e206f6620746f6b656e2074686174206973206e6f60008201527f74206f776e000000000000000000000000000000000000000000000000000000602082015250565b60006154bd6025836135d7565b91506154c882615461565b604082019050919050565b600060208201905081810360008301526154ec816154b0565b905091905056fea264697066735822122020fc240ffb5e6b6a348cbda327414f629bfd2b907c961bc652c5ee100d9b1a4964736f6c634300080a0033",
  "immutableReferences": {},
  "source": "// SPDX-License-Identifier: MIT\npragma solidity >=0.4.22 <0.9.0;\npragma experimental ABIEncoderV2;\n\nimport \"../lib/interface/IERC721.sol\";\nimport \"../lib/contracts/ERC721Base.sol\";\nimport \"../lib/utils/SignerRole.sol\";\nimport \"../lib/utils/Ownable.sol\";\n\n/**\n * @title NFT721\n * @dev anyone can mint token.\n */\ncontract NFT721 is Ownable, SignerRole, IERC721, ERC721Base {\n\n    constructor (string memory name, string memory symbol, address signer, string memory contractURI, string memory tokenURIPrefix) ERC721Base(name, symbol, contractURI, tokenURIPrefix) {\n        _registerInterface(bytes4(keccak256('MINT_WITH_ADDRESS')));\n        _addSigner(signer);\n        // transferOwnership(newOwner);\n    }\n\n    function addSigner(address account) public override onlyOwner {\n        _addSigner(account);\n    }\n\n    function removeSigner(address account) public onlyOwner {\n        _removeSigner(account);\n    }\n\n    function mint(uint256 tokenId, uint8 v, bytes32 r, bytes32 s, Fee[] memory _fees, string memory tokenURI) public {\n        require(isSigner(ecrecover(keccak256(abi.encodePacked(\"\\x19Ethereum Signed Message:\\n32\", keccak256(abi.encodePacked(this, tokenId)))), v, r, s)), \"owner should sign tokenId\");\n        _mint(msg.sender, tokenId, _fees);\n        _setTokenURI(tokenId, tokenURI);\n    }\n\n    function setTokenURIPrefix(string memory tokenURIPrefix) public onlyOwner {\n        _setTokenURIPrefix(tokenURIPrefix);\n    }\n\n    function setContractURI(string memory contractURI) public onlyOwner {\n        _setContractURI(contractURI);\n    }\n}\n",
  "sourcePath": "/home/ec2-user/test-contract/contracts/token/NFT721.sol",
  "compiler": {
    "name": "solc",
    "version": "0.8.10+commit.fc410830.Emscripten.clang"
  },
  "schemaVersion": "3.4.3",
  "updatedAt": "2021-12-04T11:37:35.200Z",
  "networkType": "ethereum",
  "devdoc": {
    "details": "anyone can mint token.",
    "kind": "dev",
    "methods": {
      "approve(address,uint256)": {
        "details": "Approves another address to transfer the given token ID The zero address indicates there is no approved address. There can only be one approved address per token at a given time. Can only be called by the token owner or an approved operator.",
        "params": {
          "to": "address to be approved for the given token ID",
          "tokenId": "uint256 ID of the token to be approved"
        }
      },
      "balanceOf(address)": {
        "details": "Gets the balance of the specified address.",
        "params": {
          "owner": "address to query the balance of"
        },
        "returns": {
          "_0": "uint256 representing the amount owned by the passed address"
        }
      },
      "burn(uint256)": {
        "details": "Burns a specific ERC721 token.",
        "params": {
          "tokenId": "uint256 id of the ERC721 token to be burned."
        }
      },
      "getApproved(uint256)": {
        "details": "Gets the approved address for a token ID, or zero if no address set Reverts if the token ID does not exist.",
        "params": {
          "tokenId": "uint256 ID of the token to query the approval of"
        },
        "returns": {
          "_0": "address currently approved for the given token ID"
        }
      },
      "isApprovedForAll(address,address)": {
        "details": "Tells whether an operator is approved by a given owner.",
        "params": {
          "operator": "operator address which you want to query the approval of",
          "owner": "owner address which you want to query the approval of"
        },
        "returns": {
          "_0": "bool whether the given operator is approved by the given owner"
        }
      },
      "owner()": {
        "details": "Returns the address of the current owner."
      },
      "ownerOf(uint256)": {
        "details": "Gets the owner of the specified token ID.",
        "params": {
          "tokenId": "uint256 ID of the token to query the owner of"
        },
        "returns": {
          "_0": "address currently marked as the owner of the given token ID"
        }
      },
      "renounceOwnership()": {
        "details": "Leaves the contract without owner. It will not be possible to call `onlyOwner` functions anymore. Can only be called by the current owner. NOTE: Renouncing ownership will leave the contract without an owner, thereby removing any functionality that is only available to the owner."
      },
      "safeTransferFrom(address,address,uint256)": {
        "details": "Safely transfers the ownership of a given token ID to another address If the target address is a contract, it must implement {IERC721Receiver-onERC721Received}, which is called upon a safe transfer, and return the magic value `bytes4(keccak256(\"onERC721Received(address,address,uint256,bytes)\"))`; otherwise, the transfer is reverted. Requires the msg.sender to be the owner, approved, or operator",
        "params": {
          "from": "current owner of the token",
          "to": "address to receive the ownership of the given token ID",
          "tokenId": "uint256 ID of the token to be transferred"
        }
      },
      "safeTransferFrom(address,address,uint256,bytes)": {
        "details": "Safely transfers the ownership of a given token ID to another address If the target address is a contract, it must implement {IERC721Receiver-onERC721Received}, which is called upon a safe transfer, and return the magic value `bytes4(keccak256(\"onERC721Received(address,address,uint256,bytes)\"))`; otherwise, the transfer is reverted. Requires the _msgSender() to be the owner, approved, or operator",
        "params": {
          "_data": "bytes data to send along with a safe transfer check",
          "from": "current owner of the token",
          "to": "address to receive the ownership of the given token ID",
          "tokenId": "uint256 ID of the token to be transferred"
        }
      },
      "setApprovalForAll(address,bool)": {
        "details": "Sets or unsets the approval of a given operator An operator is allowed to transfer all tokens of the sender on their behalf.",
        "params": {
          "approved": "representing the status of the approval to be set",
          "to": "operator address to set the approval"
        }
      },
      "supportsInterface(bytes4)": {
        "details": "See {IERC165-supportsInterface}. Time complexity O(1), guaranteed to always use less than 30 000 gas."
      },
      "tokenByIndex(uint256)": {
        "details": "Gets the token ID at a given index of all the tokens in this contract Reverts if the index is greater or equal to the total number of tokens.",
        "params": {
          "index": "uint256 representing the index to be accessed of the tokens list"
        },
        "returns": {
          "_0": "uint256 token ID at the given index of the tokens list"
        }
      },
      "tokenOfOwnerByIndex(address,uint256)": {
        "details": "Gets the token ID at a given index of the tokens list of the requested owner.",
        "params": {
          "index": "uint256 representing the index to be accessed of the requested tokens list",
          "owner": "address owning the tokens list to be accessed"
        },
        "returns": {
          "_0": "uint256 token ID at the given index of the tokens list owned by the requested address"
        }
      },
      "tokenURI(uint256)": {
        "details": "Returns an URI for a given token ID. Throws if the token ID does not exist. May return an empty string.",
        "params": {
          "tokenId": "uint256 ID of the token to query"
        }
      },
      "totalSupply()": {
        "details": "Gets the total amount of tokens stored by the contract.",
        "returns": {
          "_0": "uint256 representing the total amount of tokens"
        }
      },
      "transferFrom(address,address,uint256)": {
        "details": "Transfers the ownership of a given token ID to another address. Usage of this method is discouraged, use {safeTransferFrom} whenever possible. Requires the msg.sender to be the owner, approved, or operator.",
        "params": {
          "from": "current owner of the token",
          "to": "address to receive the ownership of the given token ID",
          "tokenId": "uint256 ID of the token to be transferred"
        }
      },
      "transferOwnership(address)": {
        "details": "Transfers ownership of the contract to a new account (`newOwner`). Can only be called by the current owner."
      }
    },
    "title": "NFT721",
    "version": 1
  },
  "userdoc": {
    "kind": "user",
    "methods": {},
    "version": 1
  }
}