{
  "contractName": "NftExchange",
  "abi": [
    {
      "inputs": [
        {
          "internalType": "contract TransferProxy",
          "name": "_transferProxy",
          "type": "address"
        },
        {
          "internalType": "contract TransferProxyForDeprecated",
          "name": "_transferProxyForDeprecated",
          "type": "address"
        },
        {
          "internalType": "contract ERC20TransferProxy",
          "name": "_erc20TransferProxy",
          "type": "address"
        },
        {
          "internalType": "contract ExchangeState",
          "name": "_state",
          "type": "address"
        },
        {
          "internalType": "contract ExchangeOrdersHolder",
          "name": "_ordersHolder",
          "type": "address"
        },
        {
          "internalType": "address payable",
          "name": "_beneficiary",
          "type": "address"
        },
        {
          "internalType": "address",
          "name": "_buyerFeeSigner",
          "type": "address"
        }
      ],
      "stateMutability": "nonpayable",
      "type": "constructor"
    },
    {
      "anonymous": false,
      "inputs": [
        {
          "indexed": true,
          "internalType": "address",
          "name": "sellToken",
          "type": "address"
        },
        {
          "indexed": true,
          "internalType": "uint256",
          "name": "sellTokenId",
          "type": "uint256"
        },
        {
          "indexed": false,
          "internalType": "uint256",
          "name": "sellValue",
          "type": "uint256"
        },
        {
          "indexed": false,
          "internalType": "address",
          "name": "owner",
          "type": "address"
        },
        {
          "indexed": false,
          "internalType": "address",
          "name": "buyToken",
          "type": "address"
        },
        {
          "indexed": false,
          "internalType": "uint256",
          "name": "buyTokenId",
          "type": "uint256"
        },
        {
          "indexed": false,
          "internalType": "uint256",
          "name": "buyValue",
          "type": "uint256"
        },
        {
          "indexed": false,
          "internalType": "address",
          "name": "buyer",
          "type": "address"
        },
        {
          "indexed": false,
          "internalType": "uint256",
          "name": "amount",
          "type": "uint256"
        },
        {
          "indexed": false,
          "internalType": "uint256",
          "name": "salt",
          "type": "uint256"
        }
      ],
      "name": "Buy",
      "type": "event"
    },
    {
      "anonymous": false,
      "inputs": [
        {
          "indexed": true,
          "internalType": "address",
          "name": "sellToken",
          "type": "address"
        },
        {
          "indexed": true,
          "internalType": "uint256",
          "name": "sellTokenId",
          "type": "uint256"
        },
        {
          "indexed": false,
          "internalType": "address",
          "name": "owner",
          "type": "address"
        },
        {
          "indexed": false,
          "internalType": "address",
          "name": "buyToken",
          "type": "address"
        },
        {
          "indexed": false,
          "internalType": "uint256",
          "name": "buyTokenId",
          "type": "uint256"
        },
        {
          "indexed": false,
          "internalType": "uint256",
          "name": "salt",
          "type": "uint256"
        }
      ],
      "name": "Cancel",
      "type": "event"
    },
    {
      "anonymous": false,
      "inputs": [
        {
          "indexed": true,
          "internalType": "address",
          "name": "previousOwner",
          "type": "address"
        },
        {
          "indexed": true,
          "internalType": "address",
          "name": "newOwner",
          "type": "address"
        }
      ],
      "name": "OwnershipTransferred",
      "type": "event"
    },
    {
      "inputs": [],
      "name": "beneficiary",
      "outputs": [
        {
          "internalType": "address payable",
          "name": "",
          "type": "address"
        }
      ],
      "stateMutability": "view",
      "type": "function",
      "constant": true
    },
    {
      "inputs": [],
      "name": "buyerFeeSigner",
      "outputs": [
        {
          "internalType": "address",
          "name": "",
          "type": "address"
        }
      ],
      "stateMutability": "view",
      "type": "function",
      "constant": true
    },
    {
      "inputs": [],
      "name": "erc20TransferProxy",
      "outputs": [
        {
          "internalType": "contract ERC20TransferProxy",
          "name": "",
          "type": "address"
        }
      ],
      "stateMutability": "view",
      "type": "function",
      "constant": true
    },
    {
      "inputs": [],
      "name": "ordersHolder",
      "outputs": [
        {
          "internalType": "contract ExchangeOrdersHolder",
          "name": "",
          "type": "address"
        }
      ],
      "stateMutability": "view",
      "type": "function",
      "constant": true
    },
    {
      "inputs": [],
      "name": "owner",
      "outputs": [
        {
          "internalType": "address",
          "name": "",
          "type": "address"
        }
      ],
      "stateMutability": "view",
      "type": "function",
      "constant": true
    },
    {
      "inputs": [],
      "name": "renounceOwnership",
      "outputs": [],
      "stateMutability": "nonpayable",
      "type": "function"
    },
    {
      "inputs": [],
      "name": "state",
      "outputs": [
        {
          "internalType": "contract ExchangeState",
          "name": "",
          "type": "address"
        }
      ],
      "stateMutability": "view",
      "type": "function",
      "constant": true
    },
    {
      "inputs": [
        {
          "internalType": "address",
          "name": "newOwner",
          "type": "address"
        }
      ],
      "name": "transferOwnership",
      "outputs": [],
      "stateMutability": "nonpayable",
      "type": "function"
    },
    {
      "inputs": [],
      "name": "transferProxy",
      "outputs": [
        {
          "internalType": "contract TransferProxy",
          "name": "",
          "type": "address"
        }
      ],
      "stateMutability": "view",
      "type": "function",
      "constant": true
    },
    {
      "inputs": [],
      "name": "transferProxyForDeprecated",
      "outputs": [
        {
          "internalType": "contract TransferProxyForDeprecated",
          "name": "",
          "type": "address"
        }
      ],
      "stateMutability": "view",
      "type": "function",
      "constant": true
    },
    {
      "inputs": [
        {
          "internalType": "address payable",
          "name": "newBeneficiary",
          "type": "address"
        }
      ],
      "name": "setBeneficiary",
      "outputs": [],
      "stateMutability": "nonpayable",
      "type": "function"
    },
    {
      "inputs": [
        {
          "internalType": "address",
          "name": "newBuyerFeeSigner",
          "type": "address"
        }
      ],
      "name": "setBuyerFeeSigner",
      "outputs": [],
      "stateMutability": "nonpayable",
      "type": "function"
    },
    {
      "inputs": [
        {
          "components": [
            {
              "components": [
                {
                  "internalType": "address",
                  "name": "owner",
                  "type": "address"
                },
                {
                  "internalType": "uint256",
                  "name": "salt",
                  "type": "uint256"
                },
                {
                  "components": [
                    {
                      "internalType": "address",
                      "name": "token",
                      "type": "address"
                    },
                    {
                      "internalType": "uint256",
                      "name": "tokenId",
                      "type": "uint256"
                    },
                    {
                      "internalType": "enum ExchangeDomain.AssetType",
                      "name": "assetType",
                      "type": "uint8"
                    }
                  ],
                  "internalType": "struct ExchangeDomain.Asset",
                  "name": "sellAsset",
                  "type": "tuple"
                },
                {
                  "components": [
                    {
                      "internalType": "address",
                      "name": "token",
                      "type": "address"
                    },
                    {
                      "internalType": "uint256",
                      "name": "tokenId",
                      "type": "uint256"
                    },
                    {
                      "internalType": "enum ExchangeDomain.AssetType",
                      "name": "assetType",
                      "type": "uint8"
                    }
                  ],
                  "internalType": "struct ExchangeDomain.Asset",
                  "name": "buyAsset",
                  "type": "tuple"
                }
              ],
              "internalType": "struct ExchangeDomain.OrderKey",
              "name": "key",
              "type": "tuple"
            },
            {
              "internalType": "uint256",
              "name": "selling",
              "type": "uint256"
            },
            {
              "internalType": "uint256",
              "name": "buying",
              "type": "uint256"
            },
            {
              "internalType": "uint256",
              "name": "sellerFee",
              "type": "uint256"
            }
          ],
          "internalType": "struct ExchangeDomain.Order",
          "name": "order",
          "type": "tuple"
        },
        {
          "components": [
            {
              "internalType": "uint8",
              "name": "v",
              "type": "uint8"
            },
            {
              "internalType": "bytes32",
              "name": "r",
              "type": "bytes32"
            },
            {
              "internalType": "bytes32",
              "name": "s",
              "type": "bytes32"
            }
          ],
          "internalType": "struct ExchangeDomain.Sig",
          "name": "sig",
          "type": "tuple"
        },
        {
          "internalType": "uint256",
          "name": "buyerFee",
          "type": "uint256"
        },
        {
          "components": [
            {
              "internalType": "uint8",
              "name": "v",
              "type": "uint8"
            },
            {
              "internalType": "bytes32",
              "name": "r",
              "type": "bytes32"
            },
            {
              "internalType": "bytes32",
              "name": "s",
              "type": "bytes32"
            }
          ],
          "internalType": "struct ExchangeDomain.Sig",
          "name": "buyerFeeSig",
          "type": "tuple"
        },
        {
          "internalType": "uint256",
          "name": "amount",
          "type": "uint256"
        },
        {
          "internalType": "address",
          "name": "buyer",
          "type": "address"
        }
      ],
      "name": "exchange",
      "outputs": [],
      "stateMutability": "payable",
      "type": "function",
      "payable": true
    },
    {
      "inputs": [
        {
          "components": [
            {
              "internalType": "address",
              "name": "owner",
              "type": "address"
            },
            {
              "internalType": "uint256",
              "name": "salt",
              "type": "uint256"
            },
            {
              "components": [
                {
                  "internalType": "address",
                  "name": "token",
                  "type": "address"
                },
                {
                  "internalType": "uint256",
                  "name": "tokenId",
                  "type": "uint256"
                },
                {
                  "internalType": "enum ExchangeDomain.AssetType",
                  "name": "assetType",
                  "type": "uint8"
                }
              ],
              "internalType": "struct ExchangeDomain.Asset",
              "name": "sellAsset",
              "type": "tuple"
            },
            {
              "components": [
                {
                  "internalType": "address",
                  "name": "token",
                  "type": "address"
                },
                {
                  "internalType": "uint256",
                  "name": "tokenId",
                  "type": "uint256"
                },
                {
                  "internalType": "enum ExchangeDomain.AssetType",
                  "name": "assetType",
                  "type": "uint8"
                }
              ],
              "internalType": "struct ExchangeDomain.Asset",
              "name": "buyAsset",
              "type": "tuple"
            }
          ],
          "internalType": "struct ExchangeDomain.OrderKey",
          "name": "key",
          "type": "tuple"
        }
      ],
      "name": "cancel",
      "outputs": [],
      "stateMutability": "nonpayable",
      "type": "function"
    },
    {
      "inputs": [
        {
          "components": [
            {
              "components": [
                {
                  "internalType": "address",
                  "name": "owner",
                  "type": "address"
                },
                {
                  "internalType": "uint256",
                  "name": "salt",
                  "type": "uint256"
                },
                {
                  "components": [
                    {
                      "internalType": "address",
                      "name": "token",
                      "type": "address"
                    },
                    {
                      "internalType": "uint256",
                      "name": "tokenId",
                      "type": "uint256"
                    },
                    {
                      "internalType": "enum ExchangeDomain.AssetType",
                      "name": "assetType",
                      "type": "uint8"
                    }
                  ],
                  "internalType": "struct ExchangeDomain.Asset",
                  "name": "sellAsset",
                  "type": "tuple"
                },
                {
                  "components": [
                    {
                      "internalType": "address",
                      "name": "token",
                      "type": "address"
                    },
                    {
                      "internalType": "uint256",
                      "name": "tokenId",
                      "type": "uint256"
                    },
                    {
                      "internalType": "enum ExchangeDomain.AssetType",
                      "name": "assetType",
                      "type": "uint8"
                    }
                  ],
                  "internalType": "struct ExchangeDomain.Asset",
                  "name": "buyAsset",
                  "type": "tuple"
                }
              ],
              "internalType": "struct ExchangeDomain.OrderKey",
              "name": "key",
              "type": "tuple"
            },
            {
              "internalType": "uint256",
              "name": "selling",
              "type": "uint256"
            },
            {
              "internalType": "uint256",
              "name": "buying",
              "type": "uint256"
            },
            {
              "internalType": "uint256",
              "name": "sellerFee",
              "type": "uint256"
            }
          ],
          "internalType": "struct ExchangeDomain.Order",
          "name": "order",
          "type": "tuple"
        },
        {
          "internalType": "uint256",
          "name": "fee",
          "type": "uint256"
        }
      ],
      "name": "prepareBuyerFeeMessage",
      "outputs": [
        {
          "internalType": "string",
          "name": "",
          "type": "string"
        }
      ],
      "stateMutability": "pure",
      "type": "function",
      "constant": true
    },
    {
      "inputs": [
        {
          "components": [
            {
              "components": [
                {
                  "internalType": "address",
                  "name": "owner",
                  "type": "address"
                },
                {
                  "internalType": "uint256",
                  "name": "salt",
                  "type": "uint256"
                },
                {
                  "components": [
                    {
                      "internalType": "address",
                      "name": "token",
                      "type": "address"
                    },
                    {
                      "internalType": "uint256",
                      "name": "tokenId",
                      "type": "uint256"
                    },
                    {
                      "internalType": "enum ExchangeDomain.AssetType",
                      "name": "assetType",
                      "type": "uint8"
                    }
                  ],
                  "internalType": "struct ExchangeDomain.Asset",
                  "name": "sellAsset",
                  "type": "tuple"
                },
                {
                  "components": [
                    {
                      "internalType": "address",
                      "name": "token",
                      "type": "address"
                    },
                    {
                      "internalType": "uint256",
                      "name": "tokenId",
                      "type": "uint256"
                    },
                    {
                      "internalType": "enum ExchangeDomain.AssetType",
                      "name": "assetType",
                      "type": "uint8"
                    }
                  ],
                  "internalType": "struct ExchangeDomain.Asset",
                  "name": "buyAsset",
                  "type": "tuple"
                }
              ],
              "internalType": "struct ExchangeDomain.OrderKey",
              "name": "key",
              "type": "tuple"
            },
            {
              "internalType": "uint256",
              "name": "selling",
              "type": "uint256"
            },
            {
              "internalType": "uint256",
              "name": "buying",
              "type": "uint256"
            },
            {
              "internalType": "uint256",
              "name": "sellerFee",
              "type": "uint256"
            }
          ],
          "internalType": "struct ExchangeDomain.Order",
          "name": "order",
          "type": "tuple"
        }
      ],
      "name": "prepareMessage",
      "outputs": [
        {
          "internalType": "string",
          "name": "",
          "type": "string"
        }
      ],
      "stateMutability": "pure",
      "type": "function",
      "constant": true
    }
  ],
  "bytecode": "0x60806040523480156200001157600080fd5b5060405162004961380380620049618339818101604052810190620000379190620004cb565b600062000049620002bb60201b60201c565b9050806000806101000a81548173ffffffffffffffffffffffffffffffffffffffff021916908373ffffffffffffffffffffffffffffffffffffffff1602179055508073ffffffffffffffffffffffffffffffffffffffff16600073ffffffffffffffffffffffffffffffffffffffff167f8be0079c531659141344cd1fd0a4f28419497f9722a3daafe3b4186f6b6457e060405160405180910390a35086600360006101000a81548173ffffffffffffffffffffffffffffffffffffffff021916908373ffffffffffffffffffffffffffffffffffffffff16021790555085600460006101000a81548173ffffffffffffffffffffffffffffffffffffffff021916908373ffffffffffffffffffffffffffffffffffffffff16021790555084600560006101000a81548173ffffffffffffffffffffffffffffffffffffffff021916908373ffffffffffffffffffffffffffffffffffffffff16021790555083600660006101000a81548173ffffffffffffffffffffffffffffffffffffffff021916908373ffffffffffffffffffffffffffffffffffffffff16021790555082600760006101000a81548173ffffffffffffffffffffffffffffffffffffffff021916908373ffffffffffffffffffffffffffffffffffffffff16021790555081600160006101000a81548173ffffffffffffffffffffffffffffffffffffffff021916908373ffffffffffffffffffffffffffffffffffffffff16021790555080600260006101000a81548173ffffffffffffffffffffffffffffffffffffffff021916908373ffffffffffffffffffffffffffffffffffffffff160217905550505050505050506200057e565b600033905090565b600080fd5b600073ffffffffffffffffffffffffffffffffffffffff82169050919050565b6000620002f582620002c8565b9050919050565b60006200030982620002e8565b9050919050565b6200031b81620002fc565b81146200032757600080fd5b50565b6000815190506200033b8162000310565b92915050565b60006200034e82620002e8565b9050919050565b620003608162000341565b81146200036c57600080fd5b50565b600081519050620003808162000355565b92915050565b60006200039382620002e8565b9050919050565b620003a58162000386565b8114620003b157600080fd5b50565b600081519050620003c5816200039a565b92915050565b6000620003d882620002e8565b9050919050565b620003ea81620003cb565b8114620003f657600080fd5b50565b6000815190506200040a81620003df565b92915050565b60006200041d82620002e8565b9050919050565b6200042f8162000410565b81146200043b57600080fd5b50565b6000815190506200044f8162000424565b92915050565b60006200046282620002c8565b9050919050565b620004748162000455565b81146200048057600080fd5b50565b600081519050620004948162000469565b92915050565b620004a581620002e8565b8114620004b157600080fd5b50565b600081519050620004c5816200049a565b92915050565b600080600080600080600060e0888a031215620004ed57620004ec620002c3565b5b6000620004fd8a828b016200032a565b9750506020620005108a828b016200036f565b9650506040620005238a828b01620003b4565b9550506060620005368a828b01620003f9565b9450506080620005498a828b016200043e565b93505060a06200055c8a828b0162000483565b92505060c06200056f8a828b01620004b4565b91505092959891949750929550565b6143d3806200058e6000396000f3fe6080604052600436106100f35760003560e01c8063715018a61161008a578063c19d93fb11610059578063c19d93fb146102f9578063ca120b1f14610324578063f2fde38b1461034d578063fee03e9e14610376576100f3565b8063715018a6146102705780638da5cb5b146102875780639704dc44146102b25780639cec6392146102dd576100f3565b806338af3eed116100c657806338af3eed146101c65780634df97bc5146101f157806355d5d3261461021c5780636e667db314610245576100f3565b806302329e10146100f8578063049944b6146101235780631b4c9874146101605780631c31f7101461019d575b600080fd5b34801561010457600080fd5b5061010d6103a1565b60405161011a9190612955565b60405180910390f35b34801561012f57600080fd5b5061014a60048036038101906101459190612c07565b6103c7565b6040516101579190612cbd565b60405180910390f35b34801561016c57600080fd5b5061018760048036038101906101829190612cdf565b6103ff565b6040516101949190612cbd565b60405180910390f35b3480156101a957600080fd5b506101c460048036038101906101bf9190612d5f565b61043a565b005b3480156101d257600080fd5b506101db6104fa565b6040516101e89190612d9b565b60405180910390f35b3480156101fd57600080fd5b50610206610520565b6040516102139190612dc5565b60405180910390f35b34801561022857600080fd5b50610243600480360381019061023e9190612de0565b610546565b005b34801561025157600080fd5b5061025a610606565b6040516102679190612e2e565b60405180910390f35b34801561027c57600080fd5b5061028561062c565b005b34801561029357600080fd5b5061029c610766565b6040516102a99190612dc5565b60405180910390f35b3480156102be57600080fd5b506102c761078f565b6040516102d49190612e6a565b60405180910390f35b6102f760048036038101906102f29190612ec9565b6107b5565b005b34801561030557600080fd5b5061030e610ac5565b60405161031b9190612f7d565b60405180910390f35b34801561033057600080fd5b5061034b60048036038101906103469190612fb8565b610aeb565b005b34801561035957600080fd5b50610374600480360381019061036f9190612de0565b610cae565b005b34801561038257600080fd5b5061038b610e57565b6040516103989190613007565b60405180910390f35b600460009054906101000a900473ffffffffffffffffffffffffffffffffffffffff1681565b60606103f8826040516020016103dd91906131a8565b60405160208183030381529060405280519060200120610e7d565b9050919050565b606061043283836040516020016104179291906131d3565b60405160208183030381529060405280519060200120610e7d565b905092915050565b61044261107d565b73ffffffffffffffffffffffffffffffffffffffff16610460610766565b73ffffffffffffffffffffffffffffffffffffffff16146104b6576040517f08c379a00000000000000000000000000000000000000000000000000000000081526004016104ad9061324a565b60405180910390fd5b80600160006101000a81548173ffffffffffffffffffffffffffffffffffffffff021916908373ffffffffffffffffffffffffffffffffffffffff16021790555050565b600160009054906101000a900473ffffffffffffffffffffffffffffffffffffffff1681565b600260009054906101000a900473ffffffffffffffffffffffffffffffffffffffff1681565b61054e61107d565b73ffffffffffffffffffffffffffffffffffffffff1661056c610766565b73ffffffffffffffffffffffffffffffffffffffff16146105c2576040517f08c379a00000000000000000000000000000000000000000000000000000000081526004016105b99061324a565b60405180910390fd5b80600260006101000a81548173ffffffffffffffffffffffffffffffffffffffff021916908373ffffffffffffffffffffffffffffffffffffffff16021790555050565b600360009054906101000a900473ffffffffffffffffffffffffffffffffffffffff1681565b61063461107d565b73ffffffffffffffffffffffffffffffffffffffff16610652610766565b73ffffffffffffffffffffffffffffffffffffffff16146106a8576040517f08c379a000000000000000000000000000000000000000000000000000000000815260040161069f9061324a565b60405180910390fd5b600073ffffffffffffffffffffffffffffffffffffffff1660008054906101000a900473ffffffffffffffffffffffffffffffffffffffff1673ffffffffffffffffffffffffffffffffffffffff167f8be0079c531659141344cd1fd0a4f28419497f9722a3daafe3b4186f6b6457e060405160405180910390a360008060006101000a81548173ffffffffffffffffffffffffffffffffffffffff021916908373ffffffffffffffffffffffffffffffffffffffff160217905550565b60008060009054906101000a900473ffffffffffffffffffffffffffffffffffffffff16905090565b600760009054906101000a900473ffffffffffffffffffffffffffffffffffffffff1681565b6107df868036038101906107c99190612c07565b868036038101906107da919061333d565b611085565b61080a868036038101906107f39190612c07565b8585803603810190610805919061333d565b61123e565b600061083b87610100013561082d858a61012001356112fe90919063ffffffff16565b61137990919063ffffffff16565b905061086087600001803603810190610854919061336a565b886101000135856113d1565b6000600481111561087457610873613040565b5b87600001604001604001602081019061088d9190613398565b600481111561089f5761089e613040565b5b14156108e0576040517f08c379a00000000000000000000000000000000000000000000000000000000081526004016108d790613437565b60405180910390fd5b600060048111156108f4576108f3613040565b5b8760000160a001604001602081019061090d9190613398565b600481111561091f5761091e613040565b5b14156109305761092f8186611561565b5b600061096c88600001604001604001602081019061094e9190613398565b8960000160a00160400160208101906109679190613398565b6115ca565b9050600073ffffffffffffffffffffffffffffffffffffffff168373ffffffffffffffffffffffffffffffffffffffff1614156109a7573392505b610a24886000016040018036038101906109c19190613457565b858a60000160000160208101906109d89190612de0565b86600160028111156109ed576109ec613040565b5b866002811115610a00576109ff613040565b5b148b8e61014001358f60000160a001803603810190610a1f9190613457565b6116ce565b610aa08860000160a001803603810190610a3e9190613457565b83338b6000016000016020810190610a569190612de0565b600280811115610a6957610a68613040565b5b866002811115610a7c57610a7b613040565b5b148d61014001358c8f600001604001803603810190610a9b9190613457565b6116ce565b610abb88803603810190610ab49190612c07565b85856116fe565b5050505050505050565b600660009054906101000a900473ffffffffffffffffffffffffffffffffffffffff1681565b3373ffffffffffffffffffffffffffffffffffffffff16816000016020810190610b159190612de0565b73ffffffffffffffffffffffffffffffffffffffff1614610b6b576040517f08c379a0000000000000000000000000000000000000000000000000000000008152600401610b62906134d0565b60405180910390fd5b600660009054906101000a900473ffffffffffffffffffffffffffffffffffffffff1673ffffffffffffffffffffffffffffffffffffffff16633a076e9a827fffffffffffffffffffffffffffffffffffffffffffffffffffffffffffffffff6040518363ffffffff1660e01b8152600401610be8929190613610565b600060405180830381600087803b158015610c0257600080fd5b505af1158015610c16573d6000803e3d6000fd5b505050508060400160200135816040016000016020810190610c389190612de0565b73ffffffffffffffffffffffffffffffffffffffff167fbfe0e802e586c99960de1a111c80f598b281996d65080d74dbe29986f55b274a338460a0016000016020810190610c869190612de0565b8560a001602001358660200135604051610ca3949392919061363b565b60405180910390a350565b610cb661107d565b73ffffffffffffffffffffffffffffffffffffffff16610cd4610766565b73ffffffffffffffffffffffffffffffffffffffff1614610d2a576040517f08c379a0000000000000000000000000000000000000000000000000000000008152600401610d219061324a565b60405180910390fd5b600073ffffffffffffffffffffffffffffffffffffffff168173ffffffffffffffffffffffffffffffffffffffff161415610d9a576040517f08c379a0000000000000000000000000000000000000000000000000000000008152600401610d91906136f2565b60405180910390fd5b8073ffffffffffffffffffffffffffffffffffffffff1660008054906101000a900473ffffffffffffffffffffffffffffffffffffffff1673ffffffffffffffffffffffffffffffffffffffff167f8be0079c531659141344cd1fd0a4f28419497f9722a3daafe3b4186f6b6457e060405160405180910390a3806000806101000a81548173ffffffffffffffffffffffffffffffffffffffff021916908373ffffffffffffffffffffffffffffffffffffffff16021790555050565b600560009054906101000a900473ffffffffffffffffffffffffffffffffffffffff1681565b606060006040518060400160405280601081526020017f303132333435363738396162636465660000000000000000000000000000000081525090506000604067ffffffffffffffff811115610ed657610ed561299a565b5b6040519080825280601f01601f191660200182016040528015610f085781602001600182028036833780820191505090505b50905060005b602081101561107257826004868360208110610f2d57610f2c613712565b5b1a60f81b7effffffffffffffffffffffffffffffffffffffffffffffffffffffffffffff1916901c60f81c60ff1681518110610f6c57610f6b613712565b5b602001015160f81c60f81b82600283610f859190613770565b81518110610f9657610f95613712565b5b60200101907effffffffffffffffffffffffffffffffffffffffffffffffffffffffffffff1916908160001a90535082600f60f81b868360208110610fde57610fdd613712565b5b1a60f81b1660f81c60ff1681518110610ffa57610ff9613712565b5b602001015160f81c60f81b826002836110139190613770565b600161101f91906137ca565b815181106110305761102f613712565b5b60200101907effffffffffffffffffffffffffffffffffffffffffffffffffffffffffffff1916908160001a905350808061106a90613820565b915050610f0e565b508092505050919050565b600033905090565b6000816000015160ff161480156110a257506000801b8160200151145b80156110b457506000801b8160400151145b1561119957600760009054906101000a900473ffffffffffffffffffffffffffffffffffffffff1673ffffffffffffffffffffffffffffffffffffffff16632aee7a31836040518263ffffffff1660e01b815260040161111491906131a8565b602060405180830381865afa158015611131573d6000803e3d6000fd5b505050506040513d601f19601f8201168201806040525081019061115591906138a1565b611194576040517f08c379a000000000000000000000000000000000000000000000000000000000815260040161118b9061391a565b60405180910390fd5b61123a565b81600001516000015173ffffffffffffffffffffffffffffffffffffffff166111e38260000151836020015184604001516111d3876103c7565b6117a8909392919063ffffffff16565b73ffffffffffffffffffffffffffffffffffffffff1614611239576040517f08c379a00000000000000000000000000000000000000000000000000000000081526004016112309061391a565b60405180910390fd5b5b5050565b600260009054906101000a900473ffffffffffffffffffffffffffffffffffffffff1673ffffffffffffffffffffffffffffffffffffffff166112a382600001518360200151846040015161129388886103ff565b6117a8909392919063ffffffff16565b73ffffffffffffffffffffffffffffffffffffffff16146112f9576040517f08c379a00000000000000000000000000000000000000000000000000000000081526004016112f090613986565b60405180910390fd5b505050565b6000808314156113115760009050611373565b6000828461131f9190613770565b905082848261132e91906139d5565b1461136e576040517f08c379a000000000000000000000000000000000000000000000000000000000815260040161136590613a78565b60405180910390fd5b809150505b92915050565b60008082116113bd576040517f08c379a00000000000000000000000000000000000000000000000000000000081526004016113b490613ae4565b60405180910390fd5b81836113c991906139d5565b905092915050565b6000600660009054906101000a900473ffffffffffffffffffffffffffffffffffffffff1673ffffffffffffffffffffffffffffffffffffffff1663fb0000c0856040518263ffffffff1660e01b815260040161142e9190613b5a565b602060405180830381865afa15801561144b573d6000803e3d6000fd5b505050506040513d601f19601f8201168201806040525081019061146f9190613b8b565b90506000611486838361199590919063ffffffff16565b9050838111156114cb576040517f08c379a00000000000000000000000000000000000000000000000000000000081526004016114c290613c2a565b60405180910390fd5b600660009054906101000a900473ffffffffffffffffffffffffffffffffffffffff1673ffffffffffffffffffffffffffffffffffffffff16633a076e9a86836040518363ffffffff1660e01b8152600401611528929190613c4a565b600060405180830381600087803b15801561154257600080fd5b505af1158015611556573d6000803e3d6000fd5b505050505050505050565b600061157682846119f390919063ffffffff16565b9050808361158491906137ca565b34146115c5576040517f08c379a00000000000000000000000000000000000000000000000000000000081526004016115bc90613cc1565b60405180910390fd5b505050565b6000600360048111156115e0576115df613040565b5b8360048111156115f3576115f2613040565b5b1480611622575060048081111561160d5761160c613040565b5b8360048111156116205761161f613040565b5b145b801561168057506003600481111561163d5761163c613040565b5b8260048111156116505761164f613040565b5b148061167f575060048081111561166a57611669613040565b5b82600481111561167d5761167c613040565b5b145b5b1561168e57600090506116c8565b8160048111156116a1576116a0613040565b5b8360048111156116b4576116b3613040565b5b11156116c357600290506116c8565b600190505b92915050565b836116e4576116df88888888611a24565b6116f4565b6116f388888888878787611e89565b5b5050505050505050565b826000015160400151602001518360000151604001516000015173ffffffffffffffffffffffffffffffffffffffff167fdddcdb07e460849cf04a4445b7af9faf01b7f5c7ba75deaf969ac5ed830312c3856020015186600001516000015187600001516060015160000151886000015160600151602001518960400151888a8c600001516020015160405161179b989796959493929190613ce1565b60405180910390a3505050565b60008085905060006119316040518060400160405280601a81526020017f19457468657265756d205369676e6564204d6573736167653a0a0000000000008152506117f38451612206565b84600067ffffffffffffffff81111561180f5761180e61299a565b5b6040519080825280601f01601f1916602001820160405280156118415781602001600182028036833780820191505090505b50600067ffffffffffffffff81111561185d5761185c61299a565b5b6040519080825280601f01601f19166020018201604052801561188f5781602001600182028036833780820191505090505b50600067ffffffffffffffff8111156118ab576118aa61299a565b5b6040519080825280601f01601f1916602001820160405280156118dd5781602001600182028036833780820191505090505b50600067ffffffffffffffff8111156118f9576118f861299a565b5b6040519080825280601f01601f19166020018201604052801561192b5781602001600182028036833780820191505090505b50612370565b9050600181805190602001208787876040516000815260200160405260405161195d9493929190613d7d565b6020604051602081039080840390855afa15801561197f573d6000803e3d6000fd5b5050506020604051035192505050949350505050565b60008082846119a491906137ca565b9050838110156119e9576040517f08c379a00000000000000000000000000000000000000000000000000000000081526004016119e090613e0e565b60405180910390fd5b8091505092915050565b6000611a1c612710611a0e84866112fe90919063ffffffff16565b61137990919063ffffffff16565b905092915050565b60006004811115611a3857611a37613040565b5b84604001516004811115611a4f57611a4e613040565b5b1415611aa75760008190508073ffffffffffffffffffffffffffffffffffffffff166108fc859081150290604051600060405180830381858888f19350505050158015611aa0573d6000803e3d6000fd5b5050611e83565b60016004811115611abb57611aba613040565b5b84604001516004811115611ad257611ad1613040565b5b1415611bbb576000846020015114611b1f576040517f08c379a0000000000000000000000000000000000000000000000000000000008152600401611b1690613e7a565b60405180910390fd5b600560009054906101000a900473ffffffffffffffffffffffffffffffffffffffff1673ffffffffffffffffffffffffffffffffffffffff1663776062c385600001518484876040518563ffffffff1660e01b8152600401611b849493929190613ebb565b600060405180830381600087803b158015611b9e57600080fd5b505af1158015611bb2573d6000803e3d6000fd5b50505050611e82565b60036004811115611bcf57611bce613040565b5b84604001516004811115611be657611be5613040565b5b1415611ccf5760018314611c2f576040517f08c379a0000000000000000000000000000000000000000000000000000000008152600401611c2690613f4c565b60405180910390fd5b600360009054906101000a900473ffffffffffffffffffffffffffffffffffffffff1673ffffffffffffffffffffffffffffffffffffffff1663f709b9068560000151848488602001516040518563ffffffff1660e01b8152600401611c989493929190613f8d565b600060405180830381600087803b158015611cb257600080fd5b505af1158015611cc6573d6000803e3d6000fd5b50505050611e81565b600480811115611ce257611ce1613040565b5b84604001516004811115611cf957611cf8613040565b5b1415611de25760018314611d42576040517f08c379a0000000000000000000000000000000000000000000000000000000008152600401611d3990613f4c565b60405180910390fd5b600460009054906101000a900473ffffffffffffffffffffffffffffffffffffffff1673ffffffffffffffffffffffffffffffffffffffff16638450ebe48560000151848488602001516040518563ffffffff1660e01b8152600401611dab9493929190613f8d565b600060405180830381600087803b158015611dc557600080fd5b505af1158015611dd9573d6000803e3d6000fd5b50505050611e80565b600360009054906101000a900473ffffffffffffffffffffffffffffffffffffffff1673ffffffffffffffffffffffffffffffffffffffff16639c1c2ee9856000015184848860200151886040518663ffffffff1660e01b8152600401611e4d95949392919061402a565b600060405180830381600087803b158015611e6757600080fd5b505af1158015611e7b573d6000803e3d6000fd5b505050505b5b5b5b50505050565b6000611e9888878987876127f1565b905060026004811115611eae57611ead613040565b5b82604001516004811115611ec557611ec4613040565b5b148015611f535750816000015173ffffffffffffffffffffffffffffffffffffffff166301ffc9a763b779958460e01b6040518263ffffffff1660e01b8152600401611f1191906140cb565b602060405180830381865afa158015611f2e573d6000803e3d6000fd5b505050506040513d601f19601f82011682018060405250810190611f5291906138a1565b5b80612045575060036004811115611f6d57611f6c613040565b5b82604001516004811115611f8457611f83613040565b5b1480611fb75750600480811115611f9e57611f9d613040565b5b82604001516004811115611fb557611fb4613040565b5b145b80156120445750816000015173ffffffffffffffffffffffffffffffffffffffff166301ffc9a763b779958460e01b6040518263ffffffff1660e01b815260040161200291906140cb565b602060405180830381865afa15801561201f573d6000803e3d6000fd5b505050506040513d601f19601f8201168201806040525081019061204391906138a1565b5b5b156121ea5760008260000151905060008173ffffffffffffffffffffffffffffffffffffffff1663b9c4d9fb85602001516040518263ffffffff1660e01b815260040161209291906140e6565b600060405180830381865afa1580156120af573d6000803e3d6000fd5b505050506040513d6000823e3d601f19601f820116820180604052508101906120d891906141e3565b905060008273ffffffffffffffffffffffffffffffffffffffff16630ebd4c7f86602001516040518263ffffffff1660e01b815260040161211991906140e6565b600060405180830381865afa158015612136573d6000803e3d6000fd5b505050506040513d6000823e3d601f19601f8201168201806040525081019061215f91906142ef565b9050815181511461216f57600080fd5b60005b81518110156121e5576000806121a3878e86868151811061219657612195613712565b5b602002602001015161287b565b915091508196506121d08e828e8887815181106121c3576121c2613712565b5b6020026020010151611a24565b505080806121dd90613820565b915050612172565b505050505b60008590506121fb89838984611a24565b505050505050505050565b6060600082141561224e576040518060400160405280600181526020017f3000000000000000000000000000000000000000000000000000000000000000815250905061236b565b600082905060005b6000821461228057808061226990613820565b915050600a8261227991906139d5565b9150612256565b60008167ffffffffffffffff81111561229c5761229b61299a565b5b6040519080825280601f01601f1916602001820160405280156122ce5781602001600182028036833780820191505090505b50905060008290508593505b60008414612363576001816122ef9190614338565b9050600a846122fe919061436c565b603061230a91906137ca565b60f81b8282815181106123205761231f613712565b5b60200101907effffffffffffffffffffffffffffffffffffffffffffffffffffffffffffff1916908160001a905350600a8461235c91906139d5565b93506122da565b819450505050505b919050565b6060600082518451865188518a518c518e5161238c91906137ca565b61239691906137ca565b6123a091906137ca565b6123aa91906137ca565b6123b491906137ca565b6123be91906137ca565b67ffffffffffffffff8111156123d7576123d661299a565b5b6040519080825280601f01601f1916602001820160405280156124095781602001600182028036833780820191505090505b5090506000805b8a51811015612498578a818151811061242c5761242b613712565b5b602001015160f81c60f81b83838061244390613820565b94508151811061245657612455613712565b5b60200101907effffffffffffffffffffffffffffffffffffffffffffffffffffffffffffff1916908160001a905350808061249090613820565b915050612410565b5060005b8951811015612524578981815181106124b8576124b7613712565b5b602001015160f81c60f81b8383806124cf90613820565b9450815181106124e2576124e1613712565b5b60200101907effffffffffffffffffffffffffffffffffffffffffffffffffffffffffffff1916908160001a905350808061251c90613820565b91505061249c565b5060005b88518110156125b05788818151811061254457612543613712565b5b602001015160f81c60f81b83838061255b90613820565b94508151811061256e5761256d613712565b5b60200101907effffffffffffffffffffffffffffffffffffffffffffffffffffffffffffff1916908160001a90535080806125a890613820565b915050612528565b5060005b875181101561263c578781815181106125d0576125cf613712565b5b602001015160f81c60f81b8383806125e790613820565b9450815181106125fa576125f9613712565b5b60200101907effffffffffffffffffffffffffffffffffffffffffffffffffffffffffffff1916908160001a905350808061263490613820565b9150506125b4565b5060005b86518110156126c85786818151811061265c5761265b613712565b5b602001015160f81c60f81b83838061267390613820565b94508151811061268657612685613712565b5b60200101907effffffffffffffffffffffffffffffffffffffffffffffffffffffffffffff1916908160001a90535080806126c090613820565b915050612640565b5060005b8551811015612754578581815181106126e8576126e7613712565b5b602001015160f81c60f81b8383806126ff90613820565b94508151811061271257612711613712565b5b60200101907effffffffffffffffffffffffffffffffffffffffffffffffffffffffffffff1916908160001a905350808061274c90613820565b9150506126cc565b5060005b84518110156127e05784818151811061277457612773613712565b5b602001015160f81c60f81b83838061278b90613820565b94508151811061279e5761279d613712565b5b60200101907effffffffffffffffffffffffffffffffffffffffffffffffffffffffffffff1916908160001a90535080806127d890613820565b915050612758565b508192505050979650505050505050565b600080600061280186878761287b565b91509150600061281a85886119f390919063ffffffff16565b90506000612831838361199590919063ffffffff16565b9050600081111561286b5761286a8a828b600160009054906101000a900473ffffffffffffffffffffffffffffffffffffffff16611a24565b5b8394505050505095945050505050565b60008061289a8561289585876119f390919063ffffffff16565b6128a6565b91509150935093915050565b600080828411156128c75782846128bd9190614338565b91508290506128cf565b600091508390505b9250929050565b600073ffffffffffffffffffffffffffffffffffffffff82169050919050565b6000819050919050565b600061291b612916612911846128d6565b6128f6565b6128d6565b9050919050565b600061292d82612900565b9050919050565b600061293f82612922565b9050919050565b61294f81612934565b82525050565b600060208201905061296a6000830184612946565b92915050565b6000604051905090565b600080fd5b600080fd5b600080fd5b6000601f19601f8301169050919050565b7f4e487b7100000000000000000000000000000000000000000000000000000000600052604160045260246000fd5b6129d282612989565b810181811067ffffffffffffffff821117156129f1576129f061299a565b5b80604052505050565b6000612a04612970565b9050612a1082826129c9565b919050565b6000612a20826128d6565b9050919050565b612a3081612a15565b8114612a3b57600080fd5b50565b600081359050612a4d81612a27565b92915050565b6000819050919050565b612a6681612a53565b8114612a7157600080fd5b50565b600081359050612a8381612a5d565b92915050565b60058110612a9657600080fd5b50565b600081359050612aa881612a89565b92915050565b600060608284031215612ac457612ac3612984565b5b612ace60606129fa565b90506000612ade84828501612a3e565b6000830152506020612af284828501612a74565b6020830152506040612b0684828501612a99565b60408301525092915050565b60006101008284031215612b2957612b28612984565b5b612b3360806129fa565b90506000612b4384828501612a3e565b6000830152506020612b5784828501612a74565b6020830152506040612b6b84828501612aae565b60408301525060a0612b7f84828501612aae565b60608301525092915050565b60006101608284031215612ba257612ba1612984565b5b612bac60806129fa565b90506000612bbc84828501612b12565b600083015250610100612bd184828501612a74565b602083015250610120612be684828501612a74565b604083015250610140612bfb84828501612a74565b60608301525092915050565b60006101608284031215612c1e57612c1d61297a565b5b6000612c2c84828501612b8b565b91505092915050565b600081519050919050565b600082825260208201905092915050565b60005b83811015612c6f578082015181840152602081019050612c54565b83811115612c7e576000848401525b50505050565b6000612c8f82612c35565b612c998185612c40565b9350612ca9818560208601612c51565b612cb281612989565b840191505092915050565b60006020820190508181036000830152612cd78184612c84565b905092915050565b6000806101808385031215612cf757612cf661297a565b5b6000612d0585828601612b8b565b925050610160612d1785828601612a74565b9150509250929050565b6000612d2c826128d6565b9050919050565b612d3c81612d21565b8114612d4757600080fd5b50565b600081359050612d5981612d33565b92915050565b600060208284031215612d7557612d7461297a565b5b6000612d8384828501612d4a565b91505092915050565b612d9581612d21565b82525050565b6000602082019050612db06000830184612d8c565b92915050565b612dbf81612a15565b82525050565b6000602082019050612dda6000830184612db6565b92915050565b600060208284031215612df657612df561297a565b5b6000612e0484828501612a3e565b91505092915050565b6000612e1882612922565b9050919050565b612e2881612e0d565b82525050565b6000602082019050612e436000830184612e1f565b92915050565b6000612e5482612922565b9050919050565b612e6481612e49565b82525050565b6000602082019050612e7f6000830184612e5b565b92915050565b600080fd5b60006101608284031215612ea157612ea0612e85565b5b81905092915050565b600060608284031215612ec057612ebf612e85565b5b81905092915050565b6000806000806000806102808789031215612ee757612ee661297a565b5b6000612ef589828a01612e8a565b965050610160612f0789828a01612eaa565b9550506101c0612f1989828a01612a74565b9450506101e0612f2b89828a01612eaa565b935050610240612f3d89828a01612a74565b925050610260612f4f89828a01612a3e565b9150509295509295509295565b6000612f6782612922565b9050919050565b612f7781612f5c565b82525050565b6000602082019050612f926000830184612f6e565b92915050565b60006101008284031215612faf57612fae612e85565b5b81905092915050565b60006101008284031215612fcf57612fce61297a565b5b6000612fdd84828501612f98565b91505092915050565b6000612ff182612922565b9050919050565b61300181612fe6565b82525050565b600060208201905061301c6000830184612ff8565b92915050565b61302b81612a15565b82525050565b61303a81612a53565b82525050565b7f4e487b7100000000000000000000000000000000000000000000000000000000600052602160045260246000fd5b600581106130805761307f613040565b5b50565b60008190506130918261306f565b919050565b60006130a182613083565b9050919050565b6130b181613096565b82525050565b6060820160008201516130cd6000850182613022565b5060208201516130e06020850182613031565b5060408201516130f360408501826130a8565b50505050565b610100820160008201516131106000850182613022565b5060208201516131236020850182613031565b50604082015161313660408501826130b7565b50606082015161314960a08501826130b7565b50505050565b6101608201600082015161316660008501826130f9565b50602082015161317a610100850182613031565b50604082015161318e610120850182613031565b5060608201516131a2610140850182613031565b50505050565b6000610160820190506131be600083018461314f565b92915050565b6131cd81612a53565b82525050565b6000610180820190506131e9600083018561314f565b6131f76101608301846131c4565b9392505050565b7f4f776e61626c653a2063616c6c6572206973206e6f7420746865206f776e6572600082015250565b6000613234602083612c40565b915061323f826131fe565b602082019050919050565b6000602082019050818103600083015261326381613227565b9050919050565b600060ff82169050919050565b6132808161326a565b811461328b57600080fd5b50565b60008135905061329d81613277565b92915050565b6000819050919050565b6132b6816132a3565b81146132c157600080fd5b50565b6000813590506132d3816132ad565b92915050565b6000606082840312156132ef576132ee612984565b5b6132f960606129fa565b905060006133098482850161328e565b600083015250602061331d848285016132c4565b6020830152506040613331848285016132c4565b60408301525092915050565b6000606082840312156133535761335261297a565b5b6000613361848285016132d9565b91505092915050565b600061010082840312156133815761338061297a565b5b600061338f84828501612b12565b91505092915050565b6000602082840312156133ae576133ad61297a565b5b60006133bc84828501612a99565b91505092915050565b7f455448206973206e6f7420737570706f72746564206f6e2073656c6c2073696460008201527f6500000000000000000000000000000000000000000000000000000000000000602082015250565b6000613421602183612c40565b915061342c826133c5565b604082019050919050565b6000602082019050818103600083015261345081613414565b9050919050565b60006060828403121561346d5761346c61297a565b5b600061347b84828501612aae565b91505092915050565b7f6e6f7420616e206f776e65720000000000000000000000000000000000000000600082015250565b60006134ba600c83612c40565b91506134c582613484565b602082019050919050565b600060208201905081810360008301526134e9816134ad565b9050919050565b60006134ff6020840184612a3e565b905092915050565b60006135166020840184612a74565b905092915050565b600082905092915050565b60006135386020840184612a99565b905092915050565b6060820161355160008301836134f0565b61355e6000850182613022565b5061356c6020830183613507565b6135796020850182613031565b506135876040830183613529565b61359460408501826130a8565b50505050565b61010082016135ac60008301836134f0565b6135b96000850182613022565b506135c76020830183613507565b6135d46020850182613031565b506135e2604083018361351e565b6135ef6040850182613540565b506135fd60a083018361351e565b61360a60a0850182613540565b50505050565b600061012082019050613626600083018561359a565b6136346101008301846131c4565b9392505050565b60006080820190506136506000830187612db6565b61365d6020830186612db6565b61366a60408301856131c4565b61367760608301846131c4565b95945050505050565b7f4f776e61626c653a206e6577206f776e657220697320746865207a65726f206160008201527f6464726573730000000000000000000000000000000000000000000000000000602082015250565b60006136dc602683612c40565b91506136e782613680565b604082019050919050565b6000602082019050818103600083015261370b816136cf565b9050919050565b7f4e487b7100000000000000000000000000000000000000000000000000000000600052603260045260246000fd5b7f4e487b7100000000000000000000000000000000000000000000000000000000600052601160045260246000fd5b600061377b82612a53565b915061378683612a53565b9250817fffffffffffffffffffffffffffffffffffffffffffffffffffffffffffffffff04831182151516156137bf576137be613741565b5b828202905092915050565b60006137d582612a53565b91506137e083612a53565b9250827fffffffffffffffffffffffffffffffffffffffffffffffffffffffffffffffff0382111561381557613814613741565b5b828201905092915050565b600061382b82612a53565b91507fffffffffffffffffffffffffffffffffffffffffffffffffffffffffffffffff82141561385e5761385d613741565b5b600182019050919050565b60008115159050919050565b61387e81613869565b811461388957600080fd5b50565b60008151905061389b81613875565b92915050565b6000602082840312156138b7576138b661297a565b5b60006138c58482850161388c565b91505092915050565b7f696e636f7272656374207369676e617475726500000000000000000000000000600082015250565b6000613904601383612c40565b915061390f826138ce565b602082019050919050565b60006020820190508181036000830152613933816138f7565b9050919050565b7f696e636f727265637420627579657220666565207369676e6174757265000000600082015250565b6000613970601d83612c40565b915061397b8261393a565b602082019050919050565b6000602082019050818103600083015261399f81613963565b9050919050565b7f4e487b7100000000000000000000000000000000000000000000000000000000600052601260045260246000fd5b60006139e082612a53565b91506139eb83612a53565b9250826139fb576139fa6139a6565b5b828204905092915050565b7f536166654d6174683a206d756c7469706c69636174696f6e206f766572666c6f60008201527f7700000000000000000000000000000000000000000000000000000000000000602082015250565b6000613a62602183612c40565b9150613a6d82613a06565b604082019050919050565b60006020820190508181036000830152613a9181613a55565b9050919050565b7f536166654d6174683a206469766973696f6e206279207a65726f000000000000600082015250565b6000613ace601a83612c40565b9150613ad982613a98565b602082019050919050565b60006020820190508181036000830152613afd81613ac1565b9050919050565b61010082016000820151613b1b6000850182613022565b506020820151613b2e6020850182613031565b506040820151613b4160408501826130b7565b506060820151613b5460a08501826130b7565b50505050565b600061010082019050613b706000830184613b04565b92915050565b600081519050613b8581612a5d565b92915050565b600060208284031215613ba157613ba061297a565b5b6000613baf84828501613b76565b91505092915050565b7f6e6f7420656e6f7567682073746f636b206f66206f7264657220666f7220627560008201527f79696e6700000000000000000000000000000000000000000000000000000000602082015250565b6000613c14602483612c40565b9150613c1f82613bb8565b604082019050919050565b60006020820190508181036000830152613c4381613c07565b9050919050565b600061012082019050613c606000830185613b04565b613c6e6101008301846131c4565b9392505050565b7f6d73672e76616c756520697320696e636f727265637400000000000000000000600082015250565b6000613cab601683612c40565b9150613cb682613c75565b602082019050919050565b60006020820190508181036000830152613cda81613c9e565b9050919050565b600061010082019050613cf7600083018b6131c4565b613d04602083018a612db6565b613d116040830189612db6565b613d1e60608301886131c4565b613d2b60808301876131c4565b613d3860a0830186612db6565b613d4560c08301856131c4565b613d5260e08301846131c4565b9998505050505050505050565b613d68816132a3565b82525050565b613d778161326a565b82525050565b6000608082019050613d926000830187613d5f565b613d9f6020830186613d6e565b613dac6040830185613d5f565b613db96060830184613d5f565b95945050505050565b7f536166654d6174683a206164646974696f6e206f766572666c6f770000000000600082015250565b6000613df8601b83612c40565b9150613e0382613dc2565b602082019050919050565b60006020820190508181036000830152613e2781613deb565b9050919050565b7f746f6b656e496420206265203000000000000000000000000000000000000000600082015250565b6000613e64600d83612c40565b9150613e6f82613e2e565b602082019050919050565b60006020820190508181036000830152613e9381613e57565b9050919050565b6000613ea582612922565b9050919050565b613eb581613e9a565b82525050565b6000608082019050613ed06000830187613eac565b613edd6020830186612db6565b613eea6040830185612db6565b613ef760608301846131c4565b95945050505050565b7f76616c756520206265203120666f72204552432d373231000000000000000000600082015250565b6000613f36601783612c40565b9150613f4182613f00565b602082019050919050565b60006020820190508181036000830152613f6581613f29565b9050919050565b6000613f7782612922565b9050919050565b613f8781613f6c565b82525050565b6000608082019050613fa26000830187613f7e565b613faf6020830186612db6565b613fbc6040830185612db6565b613fc960608301846131c4565b95945050505050565b6000613fdd82612922565b9050919050565b613fed81613fd2565b82525050565b600082825260208201905092915050565b50565b6000614014600083613ff3565b915061401f82614004565b600082019050919050565b600060c08201905061403f6000830188613fe4565b61404c6020830187612db6565b6140596040830186612db6565b61406660608301856131c4565b61407360808301846131c4565b81810360a083015261408481614007565b90509695505050505050565b60007fffffffff0000000000000000000000000000000000000000000000000000000082169050919050565b6140c581614090565b82525050565b60006020820190506140e060008301846140bc565b92915050565b60006020820190506140fb60008301846131c4565b92915050565b600080fd5b600067ffffffffffffffff8211156141215761412061299a565b5b602082029050602081019050919050565b600080fd5b60008151905061414681612d33565b92915050565b600061415f61415a84614106565b6129fa565b9050808382526020820190506020840283018581111561418257614181614132565b5b835b818110156141ab57806141978882614137565b845260208401935050602081019050614184565b5050509392505050565b600082601f8301126141ca576141c9614101565b5b81516141da84826020860161414c565b91505092915050565b6000602082840312156141f9576141f861297a565b5b600082015167ffffffffffffffff8111156142175761421661297f565b5b614223848285016141b5565b91505092915050565b600067ffffffffffffffff8211156142475761424661299a565b5b602082029050602081019050919050565b600061426b6142668461422c565b6129fa565b9050808382526020820190506020840283018581111561428e5761428d614132565b5b835b818110156142b757806142a38882613b76565b845260208401935050602081019050614290565b5050509392505050565b600082601f8301126142d6576142d5614101565b5b81516142e6848260208601614258565b91505092915050565b6000602082840312156143055761430461297a565b5b600082015167ffffffffffffffff8111156143235761432261297f565b5b61432f848285016142c1565b91505092915050565b600061434382612a53565b915061434e83612a53565b92508282101561436157614360613741565b5b828203905092915050565b600061437782612a53565b915061438283612a53565b925082614392576143916139a6565b5b82820690509291505056fea26469706673582212205690dc01b2d3607c864db159395399d0090608cf9cc30fece4e109f7dcc4579c64736f6c634300080a0033",
  "immutableReferences": {},
  "source": "// SPDX-License-Identifier: MIT\npragma solidity >=0.4.22 <0.9.0;\npragma experimental ABIEncoderV2;\n\nimport \"../lib/math/SafeMath.sol\";\nimport \"../lib/interface/IERC1155.sol\";\nimport \"../lib/utils/StringLibrary.sol\";\nimport \"../lib/utils/BytesLibrary.sol\";\nimport \"../lib/contracts/ERC165.sol\";\nimport \"./OwnableOperatorRole.sol\";\nimport \"./ERC20TransferProxy.sol\";\nimport \"./TransferProxy.sol\";\nimport \"./ExchangeOrdersHolder.sol\";\nimport \"./ExchangeDomain.sol\";\nimport \"./ExchangeState.sol\";\nimport \"./TransferProxyForDeprecated.sol\";\n\nimport \"../lib/contracts/HasSecondarySaleFees.sol\";\nimport \"../lib/utils/Ownable.sol\";\n\ncontract NftExchange is Ownable, ExchangeDomain {\n    using SafeMath for uint;\n    using UintLibrary for uint;\n    using StringLibrary for string;\n    using BytesLibrary for bytes32;\n\n    enum FeeSide {NONE, SELL, BUY}\n\n    event Buy(\n        address indexed sellToken, uint256 indexed sellTokenId, uint256 sellValue,\n        address owner,\n        address buyToken, uint256 buyTokenId, uint256 buyValue,\n        address buyer,\n        uint256 amount,\n        uint256 salt\n    );\n\n    event Cancel(\n        address indexed sellToken, uint256 indexed sellTokenId,\n        address owner,\n        address buyToken, uint256 buyTokenId,\n        uint256 salt\n    );\n\n    bytes4 private constant _INTERFACE_ID_FEES = 0xb7799584;\n    uint256 private constant UINT256_MAX = 2 ** 256 - 1;\n\n    address payable public beneficiary;\n    address public buyerFeeSigner;\n\n    TransferProxy public transferProxy;\n    TransferProxyForDeprecated public transferProxyForDeprecated;\n    ERC20TransferProxy public erc20TransferProxy;\n    ExchangeState public state;\n    ExchangeOrdersHolder public ordersHolder;\n\n    constructor(\n        TransferProxy _transferProxy, TransferProxyForDeprecated _transferProxyForDeprecated, ERC20TransferProxy _erc20TransferProxy, ExchangeState _state,\n        ExchangeOrdersHolder _ordersHolder, address payable _beneficiary, address _buyerFeeSigner\n    ) {\n        transferProxy = _transferProxy;\n        transferProxyForDeprecated = _transferProxyForDeprecated;\n        erc20TransferProxy = _erc20TransferProxy;\n        state = _state;\n        ordersHolder = _ordersHolder;\n        beneficiary = _beneficiary;\n        buyerFeeSigner = _buyerFeeSigner;\n    }\n\n    function setBeneficiary(address payable newBeneficiary) external onlyOwner {\n        beneficiary = newBeneficiary;\n    }\n\n    function setBuyerFeeSigner(address newBuyerFeeSigner) external onlyOwner {\n        buyerFeeSigner = newBuyerFeeSigner;\n    }\n\n    function exchange(\n        Order calldata order,\n        Sig calldata sig,\n        uint buyerFee,\n        Sig calldata buyerFeeSig,\n        uint amount,\n        address buyer\n    ) payable external {\n        validateOrderSig(order, sig);\n        validateBuyerFeeSig(order, buyerFee, buyerFeeSig);\n        uint paying = order.buying.mul(amount).div(order.selling);\n        verifyOpenAndModifyOrderState(order.key, order.selling, amount);\n        require(order.key.sellAsset.assetType != AssetType.ETH, \"ETH is not supported on sell side\");\n        if (order.key.buyAsset.assetType == AssetType.ETH) {\n            validateEthTransfer(paying, buyerFee);\n        }\n        FeeSide feeSide = getFeeSide(order.key.sellAsset.assetType, order.key.buyAsset.assetType);\n        if (buyer == address(0x0)) {\n            buyer = msg.sender;\n        }\n        /* SELL = accept, BUY = buy */\n        transferWithFeesPossibility(order.key.sellAsset, amount, order.key.owner, buyer, feeSide == FeeSide.SELL, buyerFee, order.sellerFee, order.key.buyAsset); \n        transferWithFeesPossibility(order.key.buyAsset, paying, msg.sender, order.key.owner, feeSide == FeeSide.BUY, order.sellerFee, buyerFee, order.key.sellAsset);\n        emitBuy(order, amount, buyer);\n    }\n\n    function validateEthTransfer(uint value, uint buyerFee) internal view {\n        uint256 buyerFeeValue = value.bp(buyerFee);\n        require(msg.value == value + buyerFeeValue, \"msg.value is incorrect\");\n    }\n\n    function cancel(OrderKey calldata key) external {\n        require(key.owner == msg.sender, \"not an owner\");\n        state.setCompleted(key, UINT256_MAX);\n        emit Cancel(key.sellAsset.token, key.sellAsset.tokenId, msg.sender, key.buyAsset.token, key.buyAsset.tokenId, key.salt);\n    }\n\n    function validateOrderSig(\n        Order memory order,\n        Sig memory sig\n    ) internal view {\n        if (sig.v == 0 && sig.r == bytes32(0x0) && sig.s == bytes32(0x0)) {\n            require(ordersHolder.exists(order), \"incorrect signature\");\n        } else {\n            require(prepareMessage(order).recover(sig.v, sig.r, sig.s) == order.key.owner, \"incorrect signature\");\n        }\n    }\n\n    function validateBuyerFeeSig(\n        Order memory order,\n        uint buyerFee,\n        Sig memory sig\n    ) internal view {\n        require(prepareBuyerFeeMessage(order, buyerFee).recover(sig.v, sig.r, sig.s) == buyerFeeSigner, \"incorrect buyer fee signature\");\n    }\n\n    function prepareBuyerFeeMessage(Order memory order, uint fee) public pure returns (string memory) {\n        return keccak256(abi.encode(order, fee)).toString();\n    }\n\n    function prepareMessage(Order memory order) public pure returns (string memory) {\n        return keccak256(abi.encode(order)).toString();\n    }\n\n    function transferWithFeesPossibility(Asset memory firstType, uint value, address from, address to, bool hasFee, uint256 sellerFee, uint256 buyerFee, Asset memory secondType) internal {\n        if (!hasFee) {\n            transfer(firstType, value, from, to);\n        } else {\n            transferWithFees(firstType, value, from, to, sellerFee, buyerFee, secondType);\n        }\n    }\n\n    function transfer(Asset memory asset, uint value, address from, address to) internal {\n        if (asset.assetType == AssetType.ETH) {\n            address payable toPayable = payable(to);\n            toPayable.transfer(value);\n        } else if (asset.assetType == AssetType.ERC20) {\n            require(asset.tokenId == 0, \"tokenId  be 0\");\n            erc20TransferProxy.erc20safeTransferFrom(IERC20(asset.token), from, to, value);\n        } else if (asset.assetType == AssetType.ERC721) {\n            require(value == 1, \"value  be 1 for ERC-721\");\n            transferProxy.erc721safeTransferFrom(IERC721(asset.token), from, to, asset.tokenId);\n        } else if (asset.assetType == AssetType.ERC721Deprecated) {\n            require(value == 1, \"value  be 1 for ERC-721\");\n            transferProxyForDeprecated.erc721TransferFrom(IERC721(asset.token), from, to, asset.tokenId);\n        } else {\n            transferProxy.erc1155safeTransferFrom(IERC1155(asset.token), from, to, asset.tokenId, value, \"\");\n        }\n    }\n\n    function transferWithFees(Asset memory firstType, uint value, address from, address to, uint256 sellerFee, uint256 buyerFee, Asset memory secondType) internal {\n        uint restValue = transferFeeToBeneficiary(firstType, from, value, sellerFee, buyerFee);\n        if (\n            secondType.assetType == AssetType.ERC1155 && IERC1155(secondType.token).supportsInterface(_INTERFACE_ID_FEES) ||\n            (secondType.assetType == AssetType.ERC721 || secondType.assetType == AssetType.ERC721Deprecated) && IERC721(secondType.token).supportsInterface(_INTERFACE_ID_FEES)\n        ) {\n            HasSecondarySaleFees withFees = HasSecondarySaleFees(secondType.token);\n            address payable[] memory recipients = withFees.getFeeRecipients(secondType.tokenId);\n            uint[] memory fees = withFees.getFeeBps(secondType.tokenId);\n            require(fees.length == recipients.length);\n            for (uint256 i = 0; i < fees.length; i++) {\n                (uint newRestValue, uint current) = subFeeInBp(restValue, value, fees[i]);\n                restValue = newRestValue;\n                transfer(firstType, current, from, recipients[i]);\n            }\n        }\n        address payable toPayable = payable(to);\n        transfer(firstType, restValue, from, toPayable);\n    }\n\n    function transferFeeToBeneficiary(Asset memory asset, address from, uint total, uint sellerFee, uint buyerFee) internal returns (uint) {\n        (uint restValue, uint sellerFeeValue) = subFeeInBp(total, total, sellerFee);\n        uint buyerFeeValue = total.bp(buyerFee);\n        uint beneficiaryFee = buyerFeeValue.add(sellerFeeValue);\n        if (beneficiaryFee > 0) {\n            transfer(asset, beneficiaryFee, from, beneficiary);\n        }\n        return restValue;\n    }\n\n    function emitBuy(Order memory order, uint amount, address buyer) internal {\n        emit Buy(order.key.sellAsset.token, order.key.sellAsset.tokenId, order.selling,\n            order.key.owner,\n            order.key.buyAsset.token, order.key.buyAsset.tokenId, order.buying,\n            buyer,\n            amount,\n            order.key.salt\n        );\n    }\n\n    function subFeeInBp(uint value, uint total, uint feeInBp) internal pure returns (uint newValue, uint realFee) {\n        return subFee(value, total.bp(feeInBp));\n    }\n\n    function subFee(uint value, uint fee) internal pure returns (uint newValue, uint realFee) {\n        if (value > fee) {\n            newValue = value - fee;\n            realFee = fee;\n        } else {\n            newValue = 0;\n            realFee = value;\n        }\n    }\n\n    function verifyOpenAndModifyOrderState(OrderKey memory key, uint selling, uint amount) internal {\n        uint completed = state.getCompleted(key);\n        uint newCompleted = completed.add(amount);\n        require(newCompleted <= selling, \"not enough stock of order for buying\");\n        state.setCompleted(key, newCompleted);\n    }\n\n    function getFeeSide(AssetType sellType, AssetType buyType) internal pure returns (FeeSide) {\n        if ((sellType == AssetType.ERC721 || sellType == AssetType.ERC721Deprecated) &&\n            (buyType == AssetType.ERC721 || buyType == AssetType.ERC721Deprecated)) {\n            return FeeSide.NONE;\n        }\n        if (uint(sellType) > uint(buyType)) {\n            return FeeSide.BUY;\n        }\n        return FeeSide.SELL;\n    }\n}\n",
  "sourcePath": "/home/ec2-user/test-contract/contracts/exchange/NftExchange.sol",
  "compiler": {
    "name": "solc",
    "version": "0.8.10+commit.fc410830.Emscripten.clang"
  },
  "schemaVersion": "3.4.3",
  "updatedAt": "2021-12-04T11:42:34.387Z",
  "networkType": "ethereum",
  "devdoc": {
    "kind": "dev",
    "methods": {
      "owner()": {
        "details": "Returns the address of the current owner."
      },
      "renounceOwnership()": {
        "details": "Leaves the contract without owner. It will not be possible to call `onlyOwner` functions anymore. Can only be called by the current owner. NOTE: Renouncing ownership will leave the contract without an owner, thereby removing any functionality that is only available to the owner."
      },
      "transferOwnership(address)": {
        "details": "Transfers ownership of the contract to a new account (`newOwner`). Can only be called by the current owner."
      }
    },
    "version": 1
  },
  "userdoc": {
    "kind": "user",
    "methods": {},
    "version": 1
  }
}