{
  "contractName": "OperatorRole",
  "abi": [
    {
      "inputs": [],
      "stateMutability": "nonpayable",
      "type": "constructor"
    },
    {
      "anonymous": false,
      "inputs": [
        {
          "indexed": true,
          "internalType": "address",
          "name": "account",
          "type": "address"
        }
      ],
      "name": "OperatorAdded",
      "type": "event"
    },
    {
      "anonymous": false,
      "inputs": [
        {
          "indexed": true,
          "internalType": "address",
          "name": "account",
          "type": "address"
        }
      ],
      "name": "OperatorRemoved",
      "type": "event"
    },
    {
      "inputs": [
        {
          "internalType": "address",
          "name": "account",
          "type": "address"
        }
      ],
      "name": "isOperator",
      "outputs": [
        {
          "internalType": "bool",
          "name": "",
          "type": "bool"
        }
      ],
      "stateMutability": "view",
      "type": "function"
    }
  ],
  "bytecode": "0x608060405234801561001057600080fd5b506102e4806100206000396000f3fe608060405234801561001057600080fd5b506004361061002b5760003560e01c80636d70f7ae14610030575b600080fd5b61004a600480360381019061004591906101a8565b610060565b60405161005791906101f0565b60405180910390f35b600061007682600061007d90919063ffffffff16565b9050919050565b60008073ffffffffffffffffffffffffffffffffffffffff168273ffffffffffffffffffffffffffffffffffffffff1614156100ee576040517f08c379a00000000000000000000000000000000000000000000000000000000081526004016100e59061028e565b60405180910390fd5b8260000160008373ffffffffffffffffffffffffffffffffffffffff1673ffffffffffffffffffffffffffffffffffffffff16815260200190815260200160002060009054906101000a900460ff16905092915050565b600080fd5b600073ffffffffffffffffffffffffffffffffffffffff82169050919050565b60006101758261014a565b9050919050565b6101858161016a565b811461019057600080fd5b50565b6000813590506101a28161017c565b92915050565b6000602082840312156101be576101bd610145565b5b60006101cc84828501610193565b91505092915050565b60008115159050919050565b6101ea816101d5565b82525050565b600060208201905061020560008301846101e1565b92915050565b600082825260208201905092915050565b7f526f6c65733a206163636f756e7420697320746865207a65726f20616464726560008201527f7373000000000000000000000000000000000000000000000000000000000000602082015250565b600061027860228361020b565b91506102838261021c565b604082019050919050565b600060208201905081810360008301526102a78161026b565b905091905056fea26469706673582212209e9f14425c34bc49ac1aff84332fe2c564aa624b4591b7c3a31e961d2ccd514164736f6c634300080a0033",
  "immutableReferences": {},
  "source": "// SPDX-License-Identifier: MIT\npragma solidity >=0.4.22 <0.9.0;\npragma experimental ABIEncoderV2;\n\nimport \"../lib/utils/Context.sol\";\nimport \"../lib/utils/Roles.sol\";\n\ncontract OperatorRole is Context {\n    using Roles for Roles.Role;\n\n    event OperatorAdded(address indexed account);\n    event OperatorRemoved(address indexed account);\n\n    Roles.Role private _operators;\n\n    constructor () {\n    }\n\n    modifier onlyOperator() {\n        require(isOperator(_msgSender()), \"OperatorRole: caller does not have the Operator role\");\n        _;\n    }\n\n    function isOperator(address account) public view returns (bool) {\n        return _operators.has(account);\n    }\n\n    function _addOperator(address account) internal {\n        _operators.add(account);\n        emit OperatorAdded(account);\n    }\n\n    function _removeOperator(address account) internal {\n        _operators.remove(account);\n        emit OperatorRemoved(account);\n    }\n}\n",
  "sourcePath": "/home/ec2-user/test-contract/contracts/exchange/OperatorRole.sol",
  "compiler": {
    "name": "solc",
    "version": "0.8.10+commit.fc410830.Emscripten.clang"
  },
  "schemaVersion": "3.4.3",
  "updatedAt": "2021-12-04T11:19:58.316Z",
  "devdoc": {
    "kind": "dev",
    "methods": {},
    "version": 1
  },
  "userdoc": {
    "kind": "user",
    "methods": {},
    "version": 1
  }
}