{
  "contractName": "SignerRole",
  "abi": [
    {
      "inputs": [],
      "stateMutability": "nonpayable",
      "type": "constructor"
    },
    {
      "anonymous": false,
      "inputs": [
        {
          "indexed": true,
          "internalType": "address",
          "name": "account",
          "type": "address"
        }
      ],
      "name": "SignerAdded",
      "type": "event"
    },
    {
      "anonymous": false,
      "inputs": [
        {
          "indexed": true,
          "internalType": "address",
          "name": "account",
          "type": "address"
        }
      ],
      "name": "SignerRemoved",
      "type": "event"
    },
    {
      "inputs": [
        {
          "internalType": "address",
          "name": "account",
          "type": "address"
        }
      ],
      "name": "isSigner",
      "outputs": [
        {
          "internalType": "bool",
          "name": "",
          "type": "bool"
        }
      ],
      "stateMutability": "view",
      "type": "function"
    },
    {
      "inputs": [
        {
          "internalType": "address",
          "name": "account",
          "type": "address"
        }
      ],
      "name": "addSigner",
      "outputs": [],
      "stateMutability": "nonpayable",
      "type": "function"
    },
    {
      "inputs": [],
      "name": "renounceSigner",
      "outputs": [],
      "stateMutability": "nonpayable",
      "type": "function"
    }
  ],
  "bytecode": "0x608060405234801561001057600080fd5b5061002d61002261003260201b60201c565b61003a60201b60201c565b61031d565b600033905090565b61005281600061009860201b6101261790919060201c565b8073ffffffffffffffffffffffffffffffffffffffff167f47d1c22a25bb3a5d4e481b9b1e6944c2eade3181a0a20b495ed61d35b5323f2460405160405180910390a250565b6100a8828261014660201b60201c565b156100e8576040517f08c379a00000000000000000000000000000000000000000000000000000000081526004016100df9061026b565b60405180910390fd5b60018260000160008373ffffffffffffffffffffffffffffffffffffffff1673ffffffffffffffffffffffffffffffffffffffff16815260200190815260200160002060006101000a81548160ff0219169083151502179055505050565b60008073ffffffffffffffffffffffffffffffffffffffff168273ffffffffffffffffffffffffffffffffffffffff1614156101b7576040517f08c379a00000000000000000000000000000000000000000000000000000000081526004016101ae906102fd565b60405180910390fd5b8260000160008373ffffffffffffffffffffffffffffffffffffffff1673ffffffffffffffffffffffffffffffffffffffff16815260200190815260200160002060009054906101000a900460ff16905092915050565b600082825260208201905092915050565b7f526f6c65733a206163636f756e7420616c72656164792068617320726f6c6500600082015250565b6000610255601f8361020e565b91506102608261021f565b602082019050919050565b6000602082019050818103600083015261028481610248565b9050919050565b7f526f6c65733a206163636f756e7420697320746865207a65726f20616464726560008201527f7373000000000000000000000000000000000000000000000000000000000000602082015250565b60006102e760228361020e565b91506102f28261028b565b604082019050919050565b60006020820190508181036000830152610316816102da565b9050919050565b6107288061032c6000396000f3fe608060405234801561001057600080fd5b50600436106100415760003560e01c80637df73e2714610046578063e5c8b03d14610076578063eb12d61e14610080575b600080fd5b610060600480360381019061005b919061045c565b61009c565b60405161006d91906104a4565b60405180910390f35b61007e6100b9565b005b61009a6004803603810190610095919061045c565b6100cb565b005b60006100b28260006101ce90919063ffffffff16565b9050919050565b6100c96100c4610296565b61029e565b565b6100db6100d6610296565b61009c565b61011a576040517f08c379a000000000000000000000000000000000000000000000000000000000815260040161011190610542565b60405180910390fd5b610123816102f8565b50565b61013082826101ce565b15610170576040517f08c379a0000000000000000000000000000000000000000000000000000000008152600401610167906105ae565b60405180910390fd5b60018260000160008373ffffffffffffffffffffffffffffffffffffffff1673ffffffffffffffffffffffffffffffffffffffff16815260200190815260200160002060006101000a81548160ff0219169083151502179055505050565b60008073ffffffffffffffffffffffffffffffffffffffff168273ffffffffffffffffffffffffffffffffffffffff16141561023f576040517f08c379a000000000000000000000000000000000000000000000000000000000815260040161023690610640565b60405180910390fd5b8260000160008373ffffffffffffffffffffffffffffffffffffffff1673ffffffffffffffffffffffffffffffffffffffff16815260200190815260200160002060009054906101000a900460ff16905092915050565b600033905090565b6102b281600061035290919063ffffffff16565b8073ffffffffffffffffffffffffffffffffffffffff167f3525e22824a8a7df2c9a6029941c824cf95b6447f1e13d5128fd3826d35afe8b60405160405180910390a250565b61030c81600061012690919063ffffffff16565b8073ffffffffffffffffffffffffffffffffffffffff167f47d1c22a25bb3a5d4e481b9b1e6944c2eade3181a0a20b495ed61d35b5323f2460405160405180910390a250565b61035c82826101ce565b61039b576040517f08c379a0000000000000000000000000000000000000000000000000000000008152600401610392906106d2565b60405180910390fd5b60008260000160008373ffffffffffffffffffffffffffffffffffffffff1673ffffffffffffffffffffffffffffffffffffffff16815260200190815260200160002060006101000a81548160ff0219169083151502179055505050565b600080fd5b600073ffffffffffffffffffffffffffffffffffffffff82169050919050565b6000610429826103fe565b9050919050565b6104398161041e565b811461044457600080fd5b50565b60008135905061045681610430565b92915050565b600060208284031215610472576104716103f9565b5b600061048084828501610447565b91505092915050565b60008115159050919050565b61049e81610489565b82525050565b60006020820190506104b96000830184610495565b92915050565b600082825260208201905092915050565b7f5369676e6572526f6c653a2063616c6c657220646f6573206e6f74206861766560008201527f20746865205369676e657220726f6c6500000000000000000000000000000000602082015250565b600061052c6030836104bf565b9150610537826104d0565b604082019050919050565b6000602082019050818103600083015261055b8161051f565b9050919050565b7f526f6c65733a206163636f756e7420616c72656164792068617320726f6c6500600082015250565b6000610598601f836104bf565b91506105a382610562565b602082019050919050565b600060208201905081810360008301526105c78161058b565b9050919050565b7f526f6c65733a206163636f756e7420697320746865207a65726f20616464726560008201527f7373000000000000000000000000000000000000000000000000000000000000602082015250565b600061062a6022836104bf565b9150610635826105ce565b604082019050919050565b600060208201905081810360008301526106598161061d565b9050919050565b7f526f6c65733a206163636f756e7420646f6573206e6f74206861766520726f6c60008201527f6500000000000000000000000000000000000000000000000000000000000000602082015250565b60006106bc6021836104bf565b91506106c782610660565b604082019050919050565b600060208201905081810360008301526106eb816106af565b905091905056fea2646970667358221220c71ee757ba2cfca576f1d79146826dc865af4df612fafaecfc4188c4beef641464736f6c634300080a0033",
  "immutableReferences": {},
  "source": "// SPDX-License-Identifier: MIT\npragma solidity >=0.4.22 <0.9.0;\npragma experimental ABIEncoderV2;\n\nimport \"../utils/Context.sol\";\nimport \"./Roles.sol\";\n\ncontract SignerRole is Context {\n    using Roles for Roles.Role;\n\n    event SignerAdded(address indexed account);\n    event SignerRemoved(address indexed account);\n\n    Roles.Role private _signers;\n\n    constructor () {\n        _addSigner(_msgSender());\n    }\n\n    modifier onlySigner() {\n        require(isSigner(_msgSender()), \"SignerRole: caller does not have the Signer role\");\n        _;\n    }\n\n    function isSigner(address account) public view returns (bool) {\n        return _signers.has(account);\n    }\n\n    function addSigner(address account) public virtual onlySigner {\n        _addSigner(account);\n    }\n\n    function renounceSigner() public {\n        _removeSigner(_msgSender());\n    }\n\n    function _addSigner(address account) internal {\n        _signers.add(account);\n        emit SignerAdded(account);\n    }\n\n    function _removeSigner(address account) internal {\n        _signers.remove(account);\n        emit SignerRemoved(account);\n    }\n}\n",
  "sourcePath": "/home/ec2-user/test-contract/contracts/lib/utils/SignerRole.sol",
  "compiler": {
    "name": "solc",
    "version": "0.8.10+commit.fc410830.Emscripten.clang"
  },
  "schemaVersion": "3.4.3",
  "updatedAt": "2021-12-04T11:19:58.427Z",
  "devdoc": {
    "kind": "dev",
    "methods": {},
    "version": 1
  },
  "userdoc": {
    "kind": "user",
    "methods": {},
    "version": 1
  }
}