{
  "contractName": "TransferProxy",
  "abi": [
    {
      "anonymous": false,
      "inputs": [
        {
          "indexed": true,
          "internalType": "address",
          "name": "account",
          "type": "address"
        }
      ],
      "name": "OperatorAdded",
      "type": "event"
    },
    {
      "anonymous": false,
      "inputs": [
        {
          "indexed": true,
          "internalType": "address",
          "name": "account",
          "type": "address"
        }
      ],
      "name": "OperatorRemoved",
      "type": "event"
    },
    {
      "anonymous": false,
      "inputs": [
        {
          "indexed": true,
          "internalType": "address",
          "name": "previousOwner",
          "type": "address"
        },
        {
          "indexed": true,
          "internalType": "address",
          "name": "newOwner",
          "type": "address"
        }
      ],
      "name": "OwnershipTransferred",
      "type": "event"
    },
    {
      "inputs": [
        {
          "internalType": "address",
          "name": "account",
          "type": "address"
        }
      ],
      "name": "addOperator",
      "outputs": [],
      "stateMutability": "nonpayable",
      "type": "function"
    },
    {
      "inputs": [
        {
          "internalType": "address",
          "name": "account",
          "type": "address"
        }
      ],
      "name": "isOperator",
      "outputs": [
        {
          "internalType": "bool",
          "name": "",
          "type": "bool"
        }
      ],
      "stateMutability": "view",
      "type": "function",
      "constant": true
    },
    {
      "inputs": [],
      "name": "owner",
      "outputs": [
        {
          "internalType": "address",
          "name": "",
          "type": "address"
        }
      ],
      "stateMutability": "view",
      "type": "function",
      "constant": true
    },
    {
      "inputs": [
        {
          "internalType": "address",
          "name": "account",
          "type": "address"
        }
      ],
      "name": "removeOperator",
      "outputs": [],
      "stateMutability": "nonpayable",
      "type": "function"
    },
    {
      "inputs": [],
      "name": "renounceOwnership",
      "outputs": [],
      "stateMutability": "nonpayable",
      "type": "function"
    },
    {
      "inputs": [
        {
          "internalType": "address",
          "name": "newOwner",
          "type": "address"
        }
      ],
      "name": "transferOwnership",
      "outputs": [],
      "stateMutability": "nonpayable",
      "type": "function"
    },
    {
      "inputs": [
        {
          "internalType": "contract IERC721",
          "name": "token",
          "type": "address"
        },
        {
          "internalType": "address",
          "name": "from",
          "type": "address"
        },
        {
          "internalType": "address",
          "name": "to",
          "type": "address"
        },
        {
          "internalType": "uint256",
          "name": "tokenId",
          "type": "uint256"
        }
      ],
      "name": "erc721safeTransferFrom",
      "outputs": [],
      "stateMutability": "nonpayable",
      "type": "function"
    },
    {
      "inputs": [
        {
          "internalType": "contract IERC1155",
          "name": "token",
          "type": "address"
        },
        {
          "internalType": "address",
          "name": "from",
          "type": "address"
        },
        {
          "internalType": "address",
          "name": "to",
          "type": "address"
        },
        {
          "internalType": "uint256",
          "name": "id",
          "type": "uint256"
        },
        {
          "internalType": "uint256",
          "name": "value",
          "type": "uint256"
        },
        {
          "internalType": "bytes",
          "name": "data",
          "type": "bytes"
        }
      ],
      "name": "erc1155safeTransferFrom",
      "outputs": [],
      "stateMutability": "nonpayable",
      "type": "function"
    }
  ],
  "bytecode": "0x608060405234801561001057600080fd5b5060006100216100c460201b60201c565b9050806000806101000a81548173ffffffffffffffffffffffffffffffffffffffff021916908373ffffffffffffffffffffffffffffffffffffffff1602179055508073ffffffffffffffffffffffffffffffffffffffff16600073ffffffffffffffffffffffffffffffffffffffff167f8be0079c531659141344cd1fd0a4f28419497f9722a3daafe3b4186f6b6457e060405160405180910390a3506100cc565b600033905090565b611197806100db6000396000f3fe608060405234801561001057600080fd5b50600436106100885760003560e01c80639c1c2ee91161005b5780639c1c2ee914610101578063ac8a584a1461011d578063f2fde38b14610139578063f709b9061461015557610088565b80636d70f7ae1461008d578063715018a6146100bd5780638da5cb5b146100c75780639870d7fe146100e5575b600080fd5b6100a760048036038101906100a29190610a76565b610171565b6040516100b49190610abe565b60405180910390f35b6100c561018e565b005b6100cf6102c8565b6040516100dc9190610ae8565b60405180910390f35b6100ff60048036038101906100fa9190610a76565b6102f1565b005b61011b60048036038101906101169190610bdc565b610379565b005b61013760048036038101906101329190610a76565b610446565b005b610153600480360381019061014e9190610a76565b6104ce565b005b61016f600480360381019061016a9190610cc9565b610677565b005b600061018782600161073b90919063ffffffff16565b9050919050565b610196610803565b73ffffffffffffffffffffffffffffffffffffffff166101b46102c8565b73ffffffffffffffffffffffffffffffffffffffff161461020a576040517f08c379a000000000000000000000000000000000000000000000000000000000815260040161020190610d8d565b60405180910390fd5b600073ffffffffffffffffffffffffffffffffffffffff1660008054906101000a900473ffffffffffffffffffffffffffffffffffffffff1673ffffffffffffffffffffffffffffffffffffffff167f8be0079c531659141344cd1fd0a4f28419497f9722a3daafe3b4186f6b6457e060405160405180910390a360008060006101000a81548173ffffffffffffffffffffffffffffffffffffffff021916908373ffffffffffffffffffffffffffffffffffffffff160217905550565b60008060009054906101000a900473ffffffffffffffffffffffffffffffffffffffff16905090565b6102f9610803565b73ffffffffffffffffffffffffffffffffffffffff166103176102c8565b73ffffffffffffffffffffffffffffffffffffffff161461036d576040517f08c379a000000000000000000000000000000000000000000000000000000000815260040161036490610d8d565b60405180910390fd5b6103768161080b565b50565b610389610384610803565b610171565b6103c8576040517f08c379a00000000000000000000000000000000000000000000000000000000081526004016103bf90610e1f565b60405180910390fd5b8673ffffffffffffffffffffffffffffffffffffffff1663f242432a8787878787876040518763ffffffff1660e01b815260040161040b96959493929190610eac565b600060405180830381600087803b15801561042557600080fd5b505af1158015610439573d6000803e3d6000fd5b5050505050505050505050565b61044e610803565b73ffffffffffffffffffffffffffffffffffffffff1661046c6102c8565b73ffffffffffffffffffffffffffffffffffffffff16146104c2576040517f08c379a00000000000000000000000000000000000000000000000000000000081526004016104b990610d8d565b60405180910390fd5b6104cb81610865565b50565b6104d6610803565b73ffffffffffffffffffffffffffffffffffffffff166104f46102c8565b73ffffffffffffffffffffffffffffffffffffffff161461054a576040517f08c379a000000000000000000000000000000000000000000000000000000000815260040161054190610d8d565b60405180910390fd5b600073ffffffffffffffffffffffffffffffffffffffff168173ffffffffffffffffffffffffffffffffffffffff1614156105ba576040517f08c379a00000000000000000000000000000000000000000000000000000000081526004016105b190610f7a565b60405180910390fd5b8073ffffffffffffffffffffffffffffffffffffffff1660008054906101000a900473ffffffffffffffffffffffffffffffffffffffff1673ffffffffffffffffffffffffffffffffffffffff167f8be0079c531659141344cd1fd0a4f28419497f9722a3daafe3b4186f6b6457e060405160405180910390a3806000806101000a81548173ffffffffffffffffffffffffffffffffffffffff021916908373ffffffffffffffffffffffffffffffffffffffff16021790555050565b610687610682610803565b610171565b6106c6576040517f08c379a00000000000000000000000000000000000000000000000000000000081526004016106bd90610e1f565b60405180910390fd5b8373ffffffffffffffffffffffffffffffffffffffff166342842e0e8484846040518463ffffffff1660e01b815260040161070393929190610f9a565b600060405180830381600087803b15801561071d57600080fd5b505af1158015610731573d6000803e3d6000fd5b5050505050505050565b60008073ffffffffffffffffffffffffffffffffffffffff168273ffffffffffffffffffffffffffffffffffffffff1614156107ac576040517f08c379a00000000000000000000000000000000000000000000000000000000081526004016107a390611043565b60405180910390fd5b8260000160008373ffffffffffffffffffffffffffffffffffffffff1673ffffffffffffffffffffffffffffffffffffffff16815260200190815260200160002060009054906101000a900460ff16905092915050565b600033905090565b61081f8160016108bf90919063ffffffff16565b8073ffffffffffffffffffffffffffffffffffffffff167fac6fa858e9350a46cec16539926e0fde25b7629f84b5a72bffaae4df888ae86d60405160405180910390a250565b61087981600161096790919063ffffffff16565b8073ffffffffffffffffffffffffffffffffffffffff167f80c0b871b97b595b16a7741c1b06fed0c6f6f558639f18ccbce50724325dc40d60405160405180910390a250565b6108c9828261073b565b15610909576040517f08c379a0000000000000000000000000000000000000000000000000000000008152600401610900906110af565b60405180910390fd5b60018260000160008373ffffffffffffffffffffffffffffffffffffffff1673ffffffffffffffffffffffffffffffffffffffff16815260200190815260200160002060006101000a81548160ff0219169083151502179055505050565b610971828261073b565b6109b0576040517f08c379a00000000000000000000000000000000000000000000000000000000081526004016109a790611141565b60405180910390fd5b60008260000160008373ffffffffffffffffffffffffffffffffffffffff1673ffffffffffffffffffffffffffffffffffffffff16815260200190815260200160002060006101000a81548160ff0219169083151502179055505050565b600080fd5b600080fd5b600073ffffffffffffffffffffffffffffffffffffffff82169050919050565b6000610a4382610a18565b9050919050565b610a5381610a38565b8114610a5e57600080fd5b50565b600081359050610a7081610a4a565b92915050565b600060208284031215610a8c57610a8b610a0e565b5b6000610a9a84828501610a61565b91505092915050565b60008115159050919050565b610ab881610aa3565b82525050565b6000602082019050610ad36000830184610aaf565b92915050565b610ae281610a38565b82525050565b6000602082019050610afd6000830184610ad9565b92915050565b6000610b0e82610a38565b9050919050565b610b1e81610b03565b8114610b2957600080fd5b50565b600081359050610b3b81610b15565b92915050565b6000819050919050565b610b5481610b41565b8114610b5f57600080fd5b50565b600081359050610b7181610b4b565b92915050565b600080fd5b600080fd5b600080fd5b60008083601f840112610b9c57610b9b610b77565b5b8235905067ffffffffffffffff811115610bb957610bb8610b7c565b5b602083019150836001820283011115610bd557610bd4610b81565b5b9250929050565b600080600080600080600060c0888a031215610bfb57610bfa610a0e565b5b6000610c098a828b01610b2c565b9750506020610c1a8a828b01610a61565b9650506040610c2b8a828b01610a61565b9550506060610c3c8a828b01610b62565b9450506080610c4d8a828b01610b62565b93505060a088013567ffffffffffffffff811115610c6e57610c6d610a13565b5b610c7a8a828b01610b86565b925092505092959891949750929550565b6000610c9682610a38565b9050919050565b610ca681610c8b565b8114610cb157600080fd5b50565b600081359050610cc381610c9d565b92915050565b60008060008060808587031215610ce357610ce2610a0e565b5b6000610cf187828801610cb4565b9450506020610d0287828801610a61565b9350506040610d1387828801610a61565b9250506060610d2487828801610b62565b91505092959194509250565b600082825260208201905092915050565b7f4f776e61626c653a2063616c6c6572206973206e6f7420746865206f776e6572600082015250565b6000610d77602083610d30565b9150610d8282610d41565b602082019050919050565b60006020820190508181036000830152610da681610d6a565b9050919050565b7f4f70657261746f72526f6c653a2063616c6c657220646f6573206e6f7420686160008201527f766520746865204f70657261746f7220726f6c65000000000000000000000000602082015250565b6000610e09603483610d30565b9150610e1482610dad565b604082019050919050565b60006020820190508181036000830152610e3881610dfc565b9050919050565b610e4881610b41565b82525050565b600082825260208201905092915050565b82818337600083830152505050565b6000601f19601f8301169050919050565b6000610e8b8385610e4e565b9350610e98838584610e5f565b610ea183610e6e565b840190509392505050565b600060a082019050610ec16000830189610ad9565b610ece6020830188610ad9565b610edb6040830187610e3f565b610ee86060830186610e3f565b8181036080830152610efb818486610e7f565b9050979650505050505050565b7f4f776e61626c653a206e6577206f776e657220697320746865207a65726f206160008201527f6464726573730000000000000000000000000000000000000000000000000000602082015250565b6000610f64602683610d30565b9150610f6f82610f08565b604082019050919050565b60006020820190508181036000830152610f9381610f57565b9050919050565b6000606082019050610faf6000830186610ad9565b610fbc6020830185610ad9565b610fc96040830184610e3f565b949350505050565b7f526f6c65733a206163636f756e7420697320746865207a65726f20616464726560008201527f7373000000000000000000000000000000000000000000000000000000000000602082015250565b600061102d602283610d30565b915061103882610fd1565b604082019050919050565b6000602082019050818103600083015261105c81611020565b9050919050565b7f526f6c65733a206163636f756e7420616c72656164792068617320726f6c6500600082015250565b6000611099601f83610d30565b91506110a482611063565b602082019050919050565b600060208201905081810360008301526110c88161108c565b9050919050565b7f526f6c65733a206163636f756e7420646f6573206e6f74206861766520726f6c60008201527f6500000000000000000000000000000000000000000000000000000000000000602082015250565b600061112b602183610d30565b9150611136826110cf565b604082019050919050565b6000602082019050818103600083015261115a8161111e565b905091905056fea26469706673582212202fe52422d677bfec6b62cc0da5b9699cf58c36100cce36812f772f480b5d5c7c64736f6c634300080a0033",
  "immutableReferences": {},
  "source": "// SPDX-License-Identifier: MIT\npragma solidity >=0.4.22 <0.9.0;\npragma experimental ABIEncoderV2;\n\nimport \"../lib/interface/IERC721.sol\";\nimport \"../lib/interface/IERC1155.sol\";\n\nimport \"./OwnableOperatorRole.sol\";\n\ncontract TransferProxy is OwnableOperatorRole {\n\n    function erc721safeTransferFrom(IERC721 token, address from, address to, uint256 tokenId) external onlyOperator {\n        token.safeTransferFrom(from, to, tokenId);\n    }\n\n    function erc1155safeTransferFrom(IERC1155 token, address from, address to, uint256 id, uint256 value, bytes calldata data) external onlyOperator {\n        token.safeTransferFrom(from, to, id, value, data);\n    }\n}\n",
  "sourcePath": "/home/ec2-user/test-contract/contracts/exchange/TransferProxy.sol",
  "compiler": {
    "name": "solc",
    "version": "0.8.10+commit.fc410830.Emscripten.clang"
  },
  "schemaVersion": "3.4.3",
  "updatedAt": "2021-12-04T11:42:34.413Z",
  "networkType": "ethereum",
  "devdoc": {
    "kind": "dev",
    "methods": {
      "owner()": {
        "details": "Returns the address of the current owner."
      },
      "renounceOwnership()": {
        "details": "Leaves the contract without owner. It will not be possible to call `onlyOwner` functions anymore. Can only be called by the current owner. NOTE: Renouncing ownership will leave the contract without an owner, thereby removing any functionality that is only available to the owner."
      },
      "transferOwnership(address)": {
        "details": "Transfers ownership of the contract to a new account (`newOwner`). Can only be called by the current owner."
      }
    },
    "version": 1
  },
  "userdoc": {
    "kind": "user",
    "methods": {},
    "version": 1
  }
}