{
  "contractName": "Egg",
  "abi": [
    {
      "inputs": [
        {
          "internalType": "address",
          "name": "_nftAddress",
          "type": "address"
        },
        {
          "internalType": "uint256",
          "name": "_delay",
          "type": "uint256"
        }
      ],
      "stateMutability": "nonpayable",
      "type": "constructor"
    },
    {
      "anonymous": false,
      "inputs": [
        {
          "indexed": true,
          "internalType": "address",
          "name": "account",
          "type": "address"
        },
        {
          "indexed": true,
          "internalType": "address",
          "name": "operator",
          "type": "address"
        },
        {
          "indexed": false,
          "internalType": "bool",
          "name": "approved",
          "type": "bool"
        }
      ],
      "name": "ApprovalForAll",
      "type": "event"
    },
    {
      "anonymous": false,
      "inputs": [
        {
          "indexed": true,
          "internalType": "address",
          "name": "to",
          "type": "address"
        },
        {
          "indexed": false,
          "internalType": "uint256",
          "name": "optionId",
          "type": "uint256"
        },
        {
          "indexed": false,
          "internalType": "uint256",
          "name": "readyTimestamp",
          "type": "uint256"
        }
      ],
      "name": "EggHatched",
      "type": "event"
    },
    {
      "anonymous": false,
      "inputs": [
        {
          "indexed": true,
          "internalType": "address",
          "name": "previousOwner",
          "type": "address"
        },
        {
          "indexed": true,
          "internalType": "address",
          "name": "newOwner",
          "type": "address"
        }
      ],
      "name": "OwnershipTransferred",
      "type": "event"
    },
    {
      "anonymous": false,
      "inputs": [
        {
          "indexed": false,
          "internalType": "address",
          "name": "account",
          "type": "address"
        }
      ],
      "name": "Paused",
      "type": "event"
    },
    {
      "anonymous": false,
      "inputs": [
        {
          "indexed": true,
          "internalType": "address",
          "name": "operator",
          "type": "address"
        },
        {
          "indexed": true,
          "internalType": "address",
          "name": "from",
          "type": "address"
        },
        {
          "indexed": true,
          "internalType": "address",
          "name": "to",
          "type": "address"
        },
        {
          "indexed": false,
          "internalType": "uint256[]",
          "name": "ids",
          "type": "uint256[]"
        },
        {
          "indexed": false,
          "internalType": "uint256[]",
          "name": "values",
          "type": "uint256[]"
        }
      ],
      "name": "TransferBatch",
      "type": "event"
    },
    {
      "anonymous": false,
      "inputs": [
        {
          "indexed": true,
          "internalType": "address",
          "name": "operator",
          "type": "address"
        },
        {
          "indexed": true,
          "internalType": "address",
          "name": "from",
          "type": "address"
        },
        {
          "indexed": true,
          "internalType": "address",
          "name": "to",
          "type": "address"
        },
        {
          "indexed": false,
          "internalType": "uint256",
          "name": "id",
          "type": "uint256"
        },
        {
          "indexed": false,
          "internalType": "uint256",
          "name": "value",
          "type": "uint256"
        }
      ],
      "name": "TransferSingle",
      "type": "event"
    },
    {
      "anonymous": false,
      "inputs": [
        {
          "indexed": false,
          "internalType": "string",
          "name": "value",
          "type": "string"
        },
        {
          "indexed": true,
          "internalType": "uint256",
          "name": "id",
          "type": "uint256"
        }
      ],
      "name": "URI",
      "type": "event"
    },
    {
      "anonymous": false,
      "inputs": [
        {
          "indexed": false,
          "internalType": "address",
          "name": "account",
          "type": "address"
        }
      ],
      "name": "Unpaused",
      "type": "event"
    },
    {
      "inputs": [],
      "name": "NUM_OPTIONS",
      "outputs": [
        {
          "internalType": "uint256",
          "name": "",
          "type": "uint256"
        }
      ],
      "stateMutability": "view",
      "type": "function",
      "constant": true
    },
    {
      "inputs": [
        {
          "internalType": "address",
          "name": "account",
          "type": "address"
        },
        {
          "internalType": "uint256",
          "name": "id",
          "type": "uint256"
        }
      ],
      "name": "balanceOf",
      "outputs": [
        {
          "internalType": "uint256",
          "name": "",
          "type": "uint256"
        }
      ],
      "stateMutability": "view",
      "type": "function",
      "constant": true
    },
    {
      "inputs": [
        {
          "internalType": "address[]",
          "name": "accounts",
          "type": "address[]"
        },
        {
          "internalType": "uint256[]",
          "name": "ids",
          "type": "uint256[]"
        }
      ],
      "name": "balanceOfBatch",
      "outputs": [
        {
          "internalType": "uint256[]",
          "name": "",
          "type": "uint256[]"
        }
      ],
      "stateMutability": "view",
      "type": "function",
      "constant": true
    },
    {
      "inputs": [
        {
          "internalType": "address",
          "name": "account",
          "type": "address"
        },
        {
          "internalType": "uint256",
          "name": "id",
          "type": "uint256"
        },
        {
          "internalType": "uint256",
          "name": "value",
          "type": "uint256"
        }
      ],
      "name": "burn",
      "outputs": [],
      "stateMutability": "nonpayable",
      "type": "function"
    },
    {
      "inputs": [
        {
          "internalType": "address",
          "name": "account",
          "type": "address"
        },
        {
          "internalType": "uint256[]",
          "name": "ids",
          "type": "uint256[]"
        },
        {
          "internalType": "uint256[]",
          "name": "values",
          "type": "uint256[]"
        }
      ],
      "name": "burnBatch",
      "outputs": [],
      "stateMutability": "nonpayable",
      "type": "function"
    },
    {
      "inputs": [
        {
          "internalType": "address",
          "name": "account",
          "type": "address"
        },
        {
          "internalType": "address",
          "name": "operator",
          "type": "address"
        }
      ],
      "name": "isApprovedForAll",
      "outputs": [
        {
          "internalType": "bool",
          "name": "",
          "type": "bool"
        }
      ],
      "stateMutability": "view",
      "type": "function",
      "constant": true
    },
    {
      "inputs": [],
      "name": "nftAddress",
      "outputs": [
        {
          "internalType": "address",
          "name": "",
          "type": "address"
        }
      ],
      "stateMutability": "view",
      "type": "function",
      "constant": true
    },
    {
      "inputs": [],
      "name": "owner",
      "outputs": [
        {
          "internalType": "address",
          "name": "",
          "type": "address"
        }
      ],
      "stateMutability": "view",
      "type": "function",
      "constant": true
    },
    {
      "inputs": [],
      "name": "paused",
      "outputs": [
        {
          "internalType": "bool",
          "name": "",
          "type": "bool"
        }
      ],
      "stateMutability": "view",
      "type": "function",
      "constant": true
    },
    {
      "inputs": [],
      "name": "renounceOwnership",
      "outputs": [],
      "stateMutability": "nonpayable",
      "type": "function"
    },
    {
      "inputs": [
        {
          "internalType": "address",
          "name": "from",
          "type": "address"
        },
        {
          "internalType": "address",
          "name": "to",
          "type": "address"
        },
        {
          "internalType": "uint256[]",
          "name": "ids",
          "type": "uint256[]"
        },
        {
          "internalType": "uint256[]",
          "name": "amounts",
          "type": "uint256[]"
        },
        {
          "internalType": "bytes",
          "name": "data",
          "type": "bytes"
        }
      ],
      "name": "safeBatchTransferFrom",
      "outputs": [],
      "stateMutability": "nonpayable",
      "type": "function"
    },
    {
      "inputs": [
        {
          "internalType": "address",
          "name": "from",
          "type": "address"
        },
        {
          "internalType": "address",
          "name": "to",
          "type": "address"
        },
        {
          "internalType": "uint256",
          "name": "id",
          "type": "uint256"
        },
        {
          "internalType": "uint256",
          "name": "amount",
          "type": "uint256"
        },
        {
          "internalType": "bytes",
          "name": "data",
          "type": "bytes"
        }
      ],
      "name": "safeTransferFrom",
      "outputs": [],
      "stateMutability": "nonpayable",
      "type": "function"
    },
    {
      "inputs": [
        {
          "internalType": "address",
          "name": "operator",
          "type": "address"
        },
        {
          "internalType": "bool",
          "name": "approved",
          "type": "bool"
        }
      ],
      "name": "setApprovalForAll",
      "outputs": [],
      "stateMutability": "nonpayable",
      "type": "function"
    },
    {
      "inputs": [
        {
          "internalType": "bytes4",
          "name": "interfaceId",
          "type": "bytes4"
        }
      ],
      "name": "supportsInterface",
      "outputs": [
        {
          "internalType": "bool",
          "name": "",
          "type": "bool"
        }
      ],
      "stateMutability": "view",
      "type": "function",
      "constant": true
    },
    {
      "inputs": [
        {
          "internalType": "address",
          "name": "newOwner",
          "type": "address"
        }
      ],
      "name": "transferOwnership",
      "outputs": [],
      "stateMutability": "nonpayable",
      "type": "function"
    },
    {
      "inputs": [
        {
          "internalType": "uint256",
          "name": "",
          "type": "uint256"
        }
      ],
      "name": "uri",
      "outputs": [
        {
          "internalType": "string",
          "name": "",
          "type": "string"
        }
      ],
      "stateMutability": "view",
      "type": "function",
      "constant": true
    },
    {
      "inputs": [
        {
          "internalType": "string",
          "name": "newuri",
          "type": "string"
        }
      ],
      "name": "setURI",
      "outputs": [],
      "stateMutability": "nonpayable",
      "type": "function"
    },
    {
      "inputs": [],
      "name": "pause",
      "outputs": [],
      "stateMutability": "nonpayable",
      "type": "function"
    },
    {
      "inputs": [],
      "name": "unpause",
      "outputs": [],
      "stateMutability": "nonpayable",
      "type": "function"
    },
    {
      "inputs": [
        {
          "internalType": "address",
          "name": "_owner",
          "type": "address"
        }
      ],
      "name": "supplyForOwner",
      "outputs": [
        {
          "internalType": "uint256",
          "name": "",
          "type": "uint256"
        }
      ],
      "stateMutability": "view",
      "type": "function",
      "constant": true
    },
    {
      "inputs": [
        {
          "internalType": "uint256",
          "name": "_optionId",
          "type": "uint256"
        }
      ],
      "name": "hatch",
      "outputs": [],
      "stateMutability": "nonpayable",
      "type": "function"
    },
    {
      "inputs": [
        {
          "internalType": "address",
          "name": "account",
          "type": "address"
        },
        {
          "internalType": "uint256",
          "name": "id",
          "type": "uint256"
        },
        {
          "internalType": "uint256",
          "name": "amount",
          "type": "uint256"
        },
        {
          "internalType": "bytes",
          "name": "data",
          "type": "bytes"
        }
      ],
      "name": "mint",
      "outputs": [],
      "stateMutability": "nonpayable",
      "type": "function"
    },
    {
      "inputs": [
        {
          "internalType": "address",
          "name": "to",
          "type": "address"
        },
        {
          "internalType": "uint256[]",
          "name": "ids",
          "type": "uint256[]"
        },
        {
          "internalType": "uint256[]",
          "name": "amounts",
          "type": "uint256[]"
        },
        {
          "internalType": "bytes",
          "name": "data",
          "type": "bytes"
        }
      ],
      "name": "mintBatch",
      "outputs": [],
      "stateMutability": "nonpayable",
      "type": "function"
    }
  ],
  "bytecode": "0x60806040523480156200001157600080fd5b50604051620047373803806200473783398181016040528101906200003791906200032d565b60405180606001604052806024815260200162004713602491396200006281620000ee60201b60201c565b5062000083620000776200010a60201b60201c565b6200011260201b60201c565b6000600360146101000a81548160ff02191690831515021790555081600460006101000a81548173ffffffffffffffffffffffffffffffffffffffff021916908373ffffffffffffffffffffffffffffffffffffffff160217905550806005819055505050620003d9565b806002908051906020019062000106929190620001d8565b5050565b600033905090565b6000600360009054906101000a900473ffffffffffffffffffffffffffffffffffffffff16905081600360006101000a81548173ffffffffffffffffffffffffffffffffffffffff021916908373ffffffffffffffffffffffffffffffffffffffff1602179055508173ffffffffffffffffffffffffffffffffffffffff168173ffffffffffffffffffffffffffffffffffffffff167f8be0079c531659141344cd1fd0a4f28419497f9722a3daafe3b4186f6b6457e060405160405180910390a35050565b828054620001e690620003a3565b90600052602060002090601f0160209004810192826200020a576000855562000256565b82601f106200022557805160ff191683800117855562000256565b8280016001018555821562000256579182015b828111156200025557825182559160200191906001019062000238565b5b50905062000265919062000269565b5090565b5b80821115620002845760008160009055506001016200026a565b5090565b600080fd5b600073ffffffffffffffffffffffffffffffffffffffff82169050919050565b6000620002ba826200028d565b9050919050565b620002cc81620002ad565b8114620002d857600080fd5b50565b600081519050620002ec81620002c1565b92915050565b6000819050919050565b6200030781620002f2565b81146200031357600080fd5b50565b6000815190506200032781620002fc565b92915050565b6000806040838503121562000347576200034662000288565b5b60006200035785828601620002db565b92505060206200036a8582860162000316565b9150509250929050565b7f4e487b7100000000000000000000000000000000000000000000000000000000600052602260045260246000fd5b60006002820490506001821680620003bc57607f821691505b60208210811415620003d357620003d262000374565b5b50919050565b61432a80620003e96000396000f3fe608060405234801561001057600080fd5b506004361061014c5760003560e01c80636b20c454116100c3578063c8c188421161007c578063c8c188421461034f578063cf39bb5a1461036b578063e985e9c51461039b578063f242432a146103cb578063f2fde38b146103e7578063f5298aca146104035761014c565b80636b20c454146102c9578063715018a6146102e5578063731133e9146102ef5780638456cb591461030b5780638da5cb5b14610315578063a22cb465146103335761014c565b80632eb2c2d6116101155780632eb2c2d6146102195780633db62e2c146102355780633f4ba83a146102535780634e1273f41461025d5780635bf8633a1461028d5780635c975abb146102ab5761014c565b8062fdd58e1461015157806301ffc9a71461018157806302fe5305146101b15780630e89341c146101cd5780631f7fdffa146101fd575b600080fd5b61016b600480360381019061016691906128fd565b61041f565b604051610178919061294c565b60405180910390f35b61019b600480360381019061019691906129bf565b6104e8565b6040516101a89190612a07565b60405180910390f35b6101cb60048036038101906101c69190612b68565b6105ca565b005b6101e760048036038101906101e29190612bb1565b610652565b6040516101f49190612c66565b60405180910390f35b61021760048036038101906102129190612df1565b6106e6565b005b610233600480360381019061022e9190612eac565b610774565b005b61023d610815565b60405161024a919061294c565b60405180910390f35b61025b61081a565b005b6102776004803603810190610272919061303e565b6108a0565b6040516102849190613174565b60405180910390f35b6102956109b9565b6040516102a291906131a5565b60405180910390f35b6102b36109df565b6040516102c09190612a07565b60405180910390f35b6102e360048036038101906102de91906131c0565b6109f6565b005b6102ed610a93565b005b6103096004803603810190610304919061324b565b610b1b565b005b610313610bec565b005b61031d610c72565b60405161032a91906131a5565b60405180910390f35b61034d600480360381019061034891906132fa565b610c9c565b005b61036960048036038101906103649190612bb1565b610cb2565b005b6103856004803603810190610380919061333a565b610db6565b604051610392919061294c565b60405180910390f35b6103b560048036038101906103b09190613367565b610dca565b6040516103c29190612a07565b60405180910390f35b6103e560048036038101906103e091906133a7565b610e5e565b005b61040160048036038101906103fc919061333a565b610eff565b005b61041d6004803603810190610418919061343e565b610ff7565b005b60008073ffffffffffffffffffffffffffffffffffffffff168373ffffffffffffffffffffffffffffffffffffffff161415610490576040517f08c379a000000000000000000000000000000000000000000000000000000000815260040161048790613503565b60405180910390fd5b60008083815260200190815260200160002060008473ffffffffffffffffffffffffffffffffffffffff1673ffffffffffffffffffffffffffffffffffffffff16815260200190815260200160002054905092915050565b60007fd9b67a26000000000000000000000000000000000000000000000000000000007bffffffffffffffffffffffffffffffffffffffffffffffffffffffff1916827bffffffffffffffffffffffffffffffffffffffffffffffffffffffff191614806105b357507f0e89341c000000000000000000000000000000000000000000000000000000007bffffffffffffffffffffffffffffffffffffffffffffffffffffffff1916827bffffffffffffffffffffffffffffffffffffffffffffffffffffffff1916145b806105c357506105c282611094565b5b9050919050565b6105d26110fe565b73ffffffffffffffffffffffffffffffffffffffff166105f0610c72565b73ffffffffffffffffffffffffffffffffffffffff1614610646576040517f08c379a000000000000000000000000000000000000000000000000000000000815260040161063d9061356f565b60405180910390fd5b61064f81611106565b50565b606060028054610661906135be565b80601f016020809104026020016040519081016040528092919081815260200182805461068d906135be565b80156106da5780601f106106af576101008083540402835291602001916106da565b820191906000526020600020905b8154815290600101906020018083116106bd57829003601f168201915b50505050509050919050565b6106ee6110fe565b73ffffffffffffffffffffffffffffffffffffffff1661070c610c72565b73ffffffffffffffffffffffffffffffffffffffff1614610762576040517f08c379a00000000000000000000000000000000000000000000000000000000081526004016107599061356f565b60405180910390fd5b61076e84848484611120565b50505050565b61077c6110fe565b73ffffffffffffffffffffffffffffffffffffffff168573ffffffffffffffffffffffffffffffffffffffff1614806107c257506107c1856107bc6110fe565b610dca565b5b610801576040517f08c379a00000000000000000000000000000000000000000000000000000000081526004016107f890613662565b60405180910390fd5b61080e858585858561133e565b5050505050565b600481565b6108226110fe565b73ffffffffffffffffffffffffffffffffffffffff16610840610c72565b73ffffffffffffffffffffffffffffffffffffffff1614610896576040517f08c379a000000000000000000000000000000000000000000000000000000000815260040161088d9061356f565b60405180910390fd5b61089e611652565b565b606081518351146108e6576040517f08c379a00000000000000000000000000000000000000000000000000000000081526004016108dd906136f4565b60405180910390fd5b6000835167ffffffffffffffff81111561090357610902612a3d565b5b6040519080825280602002602001820160405280156109315781602001602082028036833780820191505090505b50905060005b84518110156109ae5761097e85828151811061095657610955613714565b5b602002602001015185838151811061097157610970613714565b5b602002602001015161041f565b82828151811061099157610990613714565b5b602002602001018181525050806109a790613772565b9050610937565b508091505092915050565b600460009054906101000a900473ffffffffffffffffffffffffffffffffffffffff1681565b6000600360149054906101000a900460ff16905090565b6109fe6110fe565b73ffffffffffffffffffffffffffffffffffffffff168373ffffffffffffffffffffffffffffffffffffffff161480610a445750610a4383610a3e6110fe565b610dca565b5b610a83576040517f08c379a0000000000000000000000000000000000000000000000000000000008152600401610a7a9061382d565b60405180910390fd5b610a8e8383836116f4565b505050565b610a9b6110fe565b73ffffffffffffffffffffffffffffffffffffffff16610ab9610c72565b73ffffffffffffffffffffffffffffffffffffffff1614610b0f576040517f08c379a0000000000000000000000000000000000000000000000000000000008152600401610b069061356f565b60405180910390fd5b610b1960006119a5565b565b610b236110fe565b73ffffffffffffffffffffffffffffffffffffffff16610b41610c72565b73ffffffffffffffffffffffffffffffffffffffff1614610b97576040517f08c379a0000000000000000000000000000000000000000000000000000000008152600401610b8e9061356f565b60405180910390fd5b60048310610bda576040517f08c379a0000000000000000000000000000000000000000000000000000000008152600401610bd190613899565b60405180910390fd5b610be684848484611a6b565b50505050565b610bf46110fe565b73ffffffffffffffffffffffffffffffffffffffff16610c12610c72565b73ffffffffffffffffffffffffffffffffffffffff1614610c68576040517f08c379a0000000000000000000000000000000000000000000000000000000008152600401610c5f9061356f565b60405180910390fd5b610c70611c01565b565b6000600360009054906101000a900473ffffffffffffffffffffffffffffffffffffffff16905090565b610cae610ca76110fe565b8383611ca4565b5050565b610cbe33826001611e11565b6000600460009054906101000a900473ffffffffffffffffffffffffffffffffffffffff1690508073ffffffffffffffffffffffffffffffffffffffff1663731133e9338460016040518463ffffffff1660e01b8152600401610d239392919061395b565b600060405180830381600087803b158015610d3d57600080fd5b505af1158015610d51573d6000803e3d6000fd5b505050503373ffffffffffffffffffffffffffffffffffffffff167ffb5524208c13c35801d6a771c1506a0a169687ef04692d793cd26722df18e7ce8360055442610d9c91906139a5565b604051610daa9291906139fb565b60405180910390a25050565b6000610dc382600461202e565b9050919050565b6000600160008473ffffffffffffffffffffffffffffffffffffffff1673ffffffffffffffffffffffffffffffffffffffff16815260200190815260200160002060008373ffffffffffffffffffffffffffffffffffffffff1673ffffffffffffffffffffffffffffffffffffffff16815260200190815260200160002060009054906101000a900460ff16905092915050565b610e666110fe565b73ffffffffffffffffffffffffffffffffffffffff168573ffffffffffffffffffffffffffffffffffffffff161480610eac5750610eab85610ea66110fe565b610dca565b5b610eeb576040517f08c379a0000000000000000000000000000000000000000000000000000000008152600401610ee29061382d565b60405180910390fd5b610ef8858585858561206f565b5050505050565b610f076110fe565b73ffffffffffffffffffffffffffffffffffffffff16610f25610c72565b73ffffffffffffffffffffffffffffffffffffffff1614610f7b576040517f08c379a0000000000000000000000000000000000000000000000000000000008152600401610f729061356f565b60405180910390fd5b600073ffffffffffffffffffffffffffffffffffffffff168173ffffffffffffffffffffffffffffffffffffffff161415610feb576040517f08c379a0000000000000000000000000000000000000000000000000000000008152600401610fe290613a96565b60405180910390fd5b610ff4816119a5565b50565b610fff6110fe565b73ffffffffffffffffffffffffffffffffffffffff168373ffffffffffffffffffffffffffffffffffffffff16148061104557506110448361103f6110fe565b610dca565b5b611084576040517f08c379a000000000000000000000000000000000000000000000000000000000815260040161107b9061382d565b60405180910390fd5b61108f838383611e11565b505050565b60007f01ffc9a7000000000000000000000000000000000000000000000000000000007bffffffffffffffffffffffffffffffffffffffffffffffffffffffff1916827bffffffffffffffffffffffffffffffffffffffffffffffffffffffff1916149050919050565b600033905090565b806002908051906020019061111c9291906127b2565b5050565b600073ffffffffffffffffffffffffffffffffffffffff168473ffffffffffffffffffffffffffffffffffffffff161415611190576040517f08c379a000000000000000000000000000000000000000000000000000000000815260040161118790613b28565b60405180910390fd5b81518351146111d4576040517f08c379a00000000000000000000000000000000000000000000000000000000081526004016111cb90613bba565b60405180910390fd5b60006111de6110fe565b90506111ef816000878787876122f1565b60005b84518110156112a85783818151811061120e5761120d613714565b5b602002602001015160008087848151811061122c5761122b613714565b5b6020026020010151815260200190815260200160002060008873ffffffffffffffffffffffffffffffffffffffff1673ffffffffffffffffffffffffffffffffffffffff168152602001908152602001600020600082825461128e91906139a5565b9250508190555080806112a090613772565b9150506111f2565b508473ffffffffffffffffffffffffffffffffffffffff16600073ffffffffffffffffffffffffffffffffffffffff168273ffffffffffffffffffffffffffffffffffffffff167f4a39dc06d4c0dbc64b70af90fd698a233a518aa5d07e595d983b8c0526c8f7fb8787604051611320929190613bda565b60405180910390a46113378160008787878761234f565b5050505050565b8151835114611382576040517f08c379a000000000000000000000000000000000000000000000000000000000815260040161137990613bba565b60405180910390fd5b600073ffffffffffffffffffffffffffffffffffffffff168473ffffffffffffffffffffffffffffffffffffffff1614156113f2576040517f08c379a00000000000000000000000000000000000000000000000000000000081526004016113e990613c83565b60405180910390fd5b60006113fc6110fe565b905061140c8187878787876122f1565b60005b84518110156115bd57600085828151811061142d5761142c613714565b5b60200260200101519050600085838151811061144c5761144b613714565b5b60200260200101519050600080600084815260200190815260200160002060008b73ffffffffffffffffffffffffffffffffffffffff1673ffffffffffffffffffffffffffffffffffffffff168152602001908152602001600020549050818110156114ed576040517f08c379a00000000000000000000000000000000000000000000000000000000081526004016114e490613d15565b60405180910390fd5b81810360008085815260200190815260200160002060008c73ffffffffffffffffffffffffffffffffffffffff1673ffffffffffffffffffffffffffffffffffffffff168152602001908152602001600020819055508160008085815260200190815260200160002060008b73ffffffffffffffffffffffffffffffffffffffff1673ffffffffffffffffffffffffffffffffffffffff16815260200190815260200160002060008282546115a291906139a5565b92505081905550505050806115b690613772565b905061140f565b508473ffffffffffffffffffffffffffffffffffffffff168673ffffffffffffffffffffffffffffffffffffffff168273ffffffffffffffffffffffffffffffffffffffff167f4a39dc06d4c0dbc64b70af90fd698a233a518aa5d07e595d983b8c0526c8f7fb8787604051611634929190613bda565b60405180910390a461164a81878787878761234f565b505050505050565b61165a6109df565b611699576040517f08c379a000000000000000000000000000000000000000000000000000000000815260040161169090613d81565b60405180910390fd5b6000600360146101000a81548160ff0219169083151502179055507f5db9ee0a495bf2e6ff9c91a7834c1ba4fdd244a5e8aa4e537bd38aeae4b073aa6116dd6110fe565b6040516116ea91906131a5565b60405180910390a1565b600073ffffffffffffffffffffffffffffffffffffffff168373ffffffffffffffffffffffffffffffffffffffff161415611764576040517f08c379a000000000000000000000000000000000000000000000000000000000815260040161175b90613e13565b60405180910390fd5b80518251146117a8576040517f08c379a000000000000000000000000000000000000000000000000000000000815260040161179f90613bba565b60405180910390fd5b60006117b26110fe565b90506117d2818560008686604051806020016040528060008152506122f1565b60005b835181101561191f5760008482815181106117f3576117f2613714565b5b60200260200101519050600084838151811061181257611811613714565b5b60200260200101519050600080600084815260200190815260200160002060008973ffffffffffffffffffffffffffffffffffffffff1673ffffffffffffffffffffffffffffffffffffffff168152602001908152602001600020549050818110156118b3576040517f08c379a00000000000000000000000000000000000000000000000000000000081526004016118aa90613ea5565b60405180910390fd5b81810360008085815260200190815260200160002060008a73ffffffffffffffffffffffffffffffffffffffff1673ffffffffffffffffffffffffffffffffffffffff16815260200190815260200160002081905550505050808061191790613772565b9150506117d5565b50600073ffffffffffffffffffffffffffffffffffffffff168473ffffffffffffffffffffffffffffffffffffffff168273ffffffffffffffffffffffffffffffffffffffff167f4a39dc06d4c0dbc64b70af90fd698a233a518aa5d07e595d983b8c0526c8f7fb8686604051611997929190613bda565b60405180910390a450505050565b6000600360009054906101000a900473ffffffffffffffffffffffffffffffffffffffff16905081600360006101000a81548173ffffffffffffffffffffffffffffffffffffffff021916908373ffffffffffffffffffffffffffffffffffffffff1602179055508173ffffffffffffffffffffffffffffffffffffffff168173ffffffffffffffffffffffffffffffffffffffff167f8be0079c531659141344cd1fd0a4f28419497f9722a3daafe3b4186f6b6457e060405160405180910390a35050565b600073ffffffffffffffffffffffffffffffffffffffff168473ffffffffffffffffffffffffffffffffffffffff161415611adb576040517f08c379a0000000000000000000000000000000000000000000000000000000008152600401611ad290613b28565b60405180910390fd5b6000611ae56110fe565b9050611b0681600087611af788612536565b611b0088612536565b876122f1565b8260008086815260200190815260200160002060008773ffffffffffffffffffffffffffffffffffffffff1673ffffffffffffffffffffffffffffffffffffffff1681526020019081526020016000206000828254611b6591906139a5565b925050819055508473ffffffffffffffffffffffffffffffffffffffff16600073ffffffffffffffffffffffffffffffffffffffff168273ffffffffffffffffffffffffffffffffffffffff167fc3d58168c5ae7397731d063d5bbf3d657854427343f4c083240f7aacaa2d0f628787604051611be39291906139fb565b60405180910390a4611bfa816000878787876125b0565b5050505050565b611c096109df565b15611c49576040517f08c379a0000000000000000000000000000000000000000000000000000000008152600401611c4090613f11565b60405180910390fd5b6001600360146101000a81548160ff0219169083151502179055507f62e78cea01bee320cd4e420270b5ea74000d11b0c9f74754ebdbfc544b05a258611c8d6110fe565b604051611c9a91906131a5565b60405180910390a1565b8173ffffffffffffffffffffffffffffffffffffffff168373ffffffffffffffffffffffffffffffffffffffff161415611d13576040517f08c379a0000000000000000000000000000000000000000000000000000000008152600401611d0a90613fa3565b60405180910390fd5b80600160008573ffffffffffffffffffffffffffffffffffffffff1673ffffffffffffffffffffffffffffffffffffffff16815260200190815260200160002060008473ffffffffffffffffffffffffffffffffffffffff1673ffffffffffffffffffffffffffffffffffffffff16815260200190815260200160002060006101000a81548160ff0219169083151502179055508173ffffffffffffffffffffffffffffffffffffffff168373ffffffffffffffffffffffffffffffffffffffff167f17307eab39ab6107e8899845ad3d59bd9653f200f220920489ca2b5937696c3183604051611e049190612a07565b60405180910390a3505050565b600073ffffffffffffffffffffffffffffffffffffffff168373ffffffffffffffffffffffffffffffffffffffff161415611e81576040517f08c379a0000000000000000000000000000000000000000000000000000000008152600401611e7890613e13565b60405180910390fd5b6000611e8b6110fe565b9050611ebb81856000611e9d87612536565b611ea687612536565b604051806020016040528060008152506122f1565b600080600085815260200190815260200160002060008673ffffffffffffffffffffffffffffffffffffffff1673ffffffffffffffffffffffffffffffffffffffff16815260200190815260200160002054905082811015611f52576040517f08c379a0000000000000000000000000000000000000000000000000000000008152600401611f4990613ea5565b60405180910390fd5b82810360008086815260200190815260200160002060008773ffffffffffffffffffffffffffffffffffffffff1673ffffffffffffffffffffffffffffffffffffffff16815260200190815260200160002081905550600073ffffffffffffffffffffffffffffffffffffffff168573ffffffffffffffffffffffffffffffffffffffff168373ffffffffffffffffffffffffffffffffffffffff167fc3d58168c5ae7397731d063d5bbf3d657854427343f4c083240f7aacaa2d0f62878760405161201f9291906139fb565b60405180910390a45050505050565b600080600090505b8281101561206857612048848261041f565b8261205391906139a5565b9150808061206090613772565b915050612036565b5092915050565b600073ffffffffffffffffffffffffffffffffffffffff168473ffffffffffffffffffffffffffffffffffffffff1614156120df576040517f08c379a00000000000000000000000000000000000000000000000000000000081526004016120d690613c83565b60405180910390fd5b60006120e96110fe565b90506121098187876120fa88612536565b61210388612536565b876122f1565b600080600086815260200190815260200160002060008873ffffffffffffffffffffffffffffffffffffffff1673ffffffffffffffffffffffffffffffffffffffff168152602001908152602001600020549050838110156121a0576040517f08c379a000000000000000000000000000000000000000000000000000000000815260040161219790613d15565b60405180910390fd5b83810360008087815260200190815260200160002060008973ffffffffffffffffffffffffffffffffffffffff1673ffffffffffffffffffffffffffffffffffffffff168152602001908152602001600020819055508360008087815260200190815260200160002060008873ffffffffffffffffffffffffffffffffffffffff1673ffffffffffffffffffffffffffffffffffffffff168152602001908152602001600020600082825461225591906139a5565b925050819055508573ffffffffffffffffffffffffffffffffffffffff168773ffffffffffffffffffffffffffffffffffffffff168373ffffffffffffffffffffffffffffffffffffffff167fc3d58168c5ae7397731d063d5bbf3d657854427343f4c083240f7aacaa2d0f6288886040516122d29291906139fb565b60405180910390a46122e88288888888886125b0565b50505050505050565b6122f96109df565b15612339576040517f08c379a000000000000000000000000000000000000000000000000000000000815260040161233090613f11565b60405180910390fd5b612347868686868686612797565b505050505050565b61236e8473ffffffffffffffffffffffffffffffffffffffff1661279f565b1561252e578373ffffffffffffffffffffffffffffffffffffffff1663bc197c8187878686866040518663ffffffff1660e01b81526004016123b4959493929190614007565b602060405180830381600087803b1580156123ce57600080fd5b505af19250505080156123ff57506040513d601f19601f820116820180604052508101906123fc9190614084565b60015b6124a55761240b6140be565b806308c379a0141561246857506124206140e0565b8061242b575061246a565b806040517f08c379a000000000000000000000000000000000000000000000000000000000815260040161245f9190612c66565b60405180910390fd5b505b6040517f08c379a000000000000000000000000000000000000000000000000000000000815260040161249c906141e8565b60405180910390fd5b63bc197c8160e01b7bffffffffffffffffffffffffffffffffffffffffffffffffffffffff1916817bffffffffffffffffffffffffffffffffffffffffffffffffffffffff19161461252c576040517f08c379a00000000000000000000000000000000000000000000000000000000081526004016125239061427a565b60405180910390fd5b505b505050505050565b60606000600167ffffffffffffffff81111561255557612554612a3d565b5b6040519080825280602002602001820160405280156125835781602001602082028036833780820191505090505b509050828160008151811061259b5761259a613714565b5b60200260200101818152505080915050919050565b6125cf8473ffffffffffffffffffffffffffffffffffffffff1661279f565b1561278f578373ffffffffffffffffffffffffffffffffffffffff1663f23a6e6187878686866040518663ffffffff1660e01b815260040161261595949392919061429a565b602060405180830381600087803b15801561262f57600080fd5b505af192505050801561266057506040513d601f19601f8201168201806040525081019061265d9190614084565b60015b6127065761266c6140be565b806308c379a014156126c957506126816140e0565b8061268c57506126cb565b806040517f08c379a00000000000000000000000000000000000000000000000000000000081526004016126c09190612c66565b60405180910390fd5b505b6040517f08c379a00000000000000000000000000000000000000000000000000000000081526004016126fd906141e8565b60405180910390fd5b63f23a6e6160e01b7bffffffffffffffffffffffffffffffffffffffffffffffffffffffff1916817bffffffffffffffffffffffffffffffffffffffffffffffffffffffff19161461278d576040517f08c379a00000000000000000000000000000000000000000000000000000000081526004016127849061427a565b60405180910390fd5b505b505050505050565b505050505050565b600080823b905060008111915050919050565b8280546127be906135be565b90600052602060002090601f0160209004810192826127e05760008555612827565b82601f106127f957805160ff1916838001178555612827565b82800160010185558215612827579182015b8281111561282657825182559160200191906001019061280b565b5b5090506128349190612838565b5090565b5b80821115612851576000816000905550600101612839565b5090565b6000604051905090565b600080fd5b600080fd5b600073ffffffffffffffffffffffffffffffffffffffff82169050919050565b600061289482612869565b9050919050565b6128a481612889565b81146128af57600080fd5b50565b6000813590506128c18161289b565b92915050565b6000819050919050565b6128da816128c7565b81146128e557600080fd5b50565b6000813590506128f7816128d1565b92915050565b600080604083850312156129145761291361285f565b5b6000612922858286016128b2565b9250506020612933858286016128e8565b9150509250929050565b612946816128c7565b82525050565b6000602082019050612961600083018461293d565b92915050565b60007fffffffff0000000000000000000000000000000000000000000000000000000082169050919050565b61299c81612967565b81146129a757600080fd5b50565b6000813590506129b981612993565b92915050565b6000602082840312156129d5576129d461285f565b5b60006129e3848285016129aa565b91505092915050565b60008115159050919050565b612a01816129ec565b82525050565b6000602082019050612a1c60008301846129f8565b92915050565b600080fd5b600080fd5b6000601f19601f8301169050919050565b7f4e487b7100000000000000000000000000000000000000000000000000000000600052604160045260246000fd5b612a7582612a2c565b810181811067ffffffffffffffff82111715612a9457612a93612a3d565b5b80604052505050565b6000612aa7612855565b9050612ab38282612a6c565b919050565b600067ffffffffffffffff821115612ad357612ad2612a3d565b5b612adc82612a2c565b9050602081019050919050565b82818337600083830152505050565b6000612b0b612b0684612ab8565b612a9d565b905082815260208101848484011115612b2757612b26612a27565b5b612b32848285612ae9565b509392505050565b600082601f830112612b4f57612b4e612a22565b5b8135612b5f848260208601612af8565b91505092915050565b600060208284031215612b7e57612b7d61285f565b5b600082013567ffffffffffffffff811115612b9c57612b9b612864565b5b612ba884828501612b3a565b91505092915050565b600060208284031215612bc757612bc661285f565b5b6000612bd5848285016128e8565b91505092915050565b600081519050919050565b600082825260208201905092915050565b60005b83811015612c18578082015181840152602081019050612bfd565b83811115612c27576000848401525b50505050565b6000612c3882612bde565b612c428185612be9565b9350612c52818560208601612bfa565b612c5b81612a2c565b840191505092915050565b60006020820190508181036000830152612c808184612c2d565b905092915050565b600067ffffffffffffffff821115612ca357612ca2612a3d565b5b602082029050602081019050919050565b600080fd5b6000612ccc612cc784612c88565b612a9d565b90508083825260208201905060208402830185811115612cef57612cee612cb4565b5b835b81811015612d185780612d0488826128e8565b845260208401935050602081019050612cf1565b5050509392505050565b600082601f830112612d3757612d36612a22565b5b8135612d47848260208601612cb9565b91505092915050565b600067ffffffffffffffff821115612d6b57612d6a612a3d565b5b612d7482612a2c565b9050602081019050919050565b6000612d94612d8f84612d50565b612a9d565b905082815260208101848484011115612db057612daf612a27565b5b612dbb848285612ae9565b509392505050565b600082601f830112612dd857612dd7612a22565b5b8135612de8848260208601612d81565b91505092915050565b60008060008060808587031215612e0b57612e0a61285f565b5b6000612e19878288016128b2565b945050602085013567ffffffffffffffff811115612e3a57612e39612864565b5b612e4687828801612d22565b935050604085013567ffffffffffffffff811115612e6757612e66612864565b5b612e7387828801612d22565b925050606085013567ffffffffffffffff811115612e9457612e93612864565b5b612ea087828801612dc3565b91505092959194509250565b600080600080600060a08688031215612ec857612ec761285f565b5b6000612ed6888289016128b2565b9550506020612ee7888289016128b2565b945050604086013567ffffffffffffffff811115612f0857612f07612864565b5b612f1488828901612d22565b935050606086013567ffffffffffffffff811115612f3557612f34612864565b5b612f4188828901612d22565b925050608086013567ffffffffffffffff811115612f6257612f61612864565b5b612f6e88828901612dc3565b9150509295509295909350565b600067ffffffffffffffff821115612f9657612f95612a3d565b5b602082029050602081019050919050565b6000612fba612fb584612f7b565b612a9d565b90508083825260208201905060208402830185811115612fdd57612fdc612cb4565b5b835b818110156130065780612ff288826128b2565b845260208401935050602081019050612fdf565b5050509392505050565b600082601f83011261302557613024612a22565b5b8135613035848260208601612fa7565b91505092915050565b600080604083850312156130555761305461285f565b5b600083013567ffffffffffffffff81111561307357613072612864565b5b61307f85828601613010565b925050602083013567ffffffffffffffff8111156130a05761309f612864565b5b6130ac85828601612d22565b9150509250929050565b600081519050919050565b600082825260208201905092915050565b6000819050602082019050919050565b6130eb816128c7565b82525050565b60006130fd83836130e2565b60208301905092915050565b6000602082019050919050565b6000613121826130b6565b61312b81856130c1565b9350613136836130d2565b8060005b8381101561316757815161314e88826130f1565b975061315983613109565b92505060018101905061313a565b5085935050505092915050565b6000602082019050818103600083015261318e8184613116565b905092915050565b61319f81612889565b82525050565b60006020820190506131ba6000830184613196565b92915050565b6000806000606084860312156131d9576131d861285f565b5b60006131e7868287016128b2565b935050602084013567ffffffffffffffff81111561320857613207612864565b5b61321486828701612d22565b925050604084013567ffffffffffffffff81111561323557613234612864565b5b61324186828701612d22565b9150509250925092565b600080600080608085870312156132655761326461285f565b5b6000613273878288016128b2565b9450506020613284878288016128e8565b9350506040613295878288016128e8565b925050606085013567ffffffffffffffff8111156132b6576132b5612864565b5b6132c287828801612dc3565b91505092959194509250565b6132d7816129ec565b81146132e257600080fd5b50565b6000813590506132f4816132ce565b92915050565b600080604083850312156133115761331061285f565b5b600061331f858286016128b2565b9250506020613330858286016132e5565b9150509250929050565b6000602082840312156133505761334f61285f565b5b600061335e848285016128b2565b91505092915050565b6000806040838503121561337e5761337d61285f565b5b600061338c858286016128b2565b925050602061339d858286016128b2565b9150509250929050565b600080600080600060a086880312156133c3576133c261285f565b5b60006133d1888289016128b2565b95505060206133e2888289016128b2565b94505060406133f3888289016128e8565b9350506060613404888289016128e8565b925050608086013567ffffffffffffffff81111561342557613424612864565b5b61343188828901612dc3565b9150509295509295909350565b6000806000606084860312156134575761345661285f565b5b6000613465868287016128b2565b9350506020613476868287016128e8565b9250506040613487868287016128e8565b9150509250925092565b7f455243313135353a2062616c616e636520717565727920666f7220746865207a60008201527f65726f2061646472657373000000000000000000000000000000000000000000602082015250565b60006134ed602b83612be9565b91506134f882613491565b604082019050919050565b6000602082019050818103600083015261351c816134e0565b9050919050565b7f4f776e61626c653a2063616c6c6572206973206e6f7420746865206f776e6572600082015250565b6000613559602083612be9565b915061356482613523565b602082019050919050565b600060208201905081810360008301526135888161354c565b9050919050565b7f4e487b7100000000000000000000000000000000000000000000000000000000600052602260045260246000fd5b600060028204905060018216806135d657607f821691505b602082108114156135ea576135e961358f565b5b50919050565b7f455243313135353a207472616e736665722063616c6c6572206973206e6f742060008201527f6f776e6572206e6f7220617070726f7665640000000000000000000000000000602082015250565b600061364c603283612be9565b9150613657826135f0565b604082019050919050565b6000602082019050818103600083015261367b8161363f565b9050919050565b7f455243313135353a206163636f756e747320616e6420696473206c656e67746860008201527f206d69736d617463680000000000000000000000000000000000000000000000602082015250565b60006136de602983612be9565b91506136e982613682565b604082019050919050565b6000602082019050818103600083015261370d816136d1565b9050919050565b7f4e487b7100000000000000000000000000000000000000000000000000000000600052603260045260246000fd5b7f4e487b7100000000000000000000000000000000000000000000000000000000600052601160045260246000fd5b600061377d826128c7565b91507fffffffffffffffffffffffffffffffffffffffffffffffffffffffffffffffff8214156137b0576137af613743565b5b600182019050919050565b7f455243313135353a2063616c6c6572206973206e6f74206f776e6572206e6f7260008201527f20617070726f7665640000000000000000000000000000000000000000000000602082015250565b6000613817602983612be9565b9150613822826137bb565b604082019050919050565b600060208201905081810360008301526138468161380a565b9050919050565b7f556e617661696c61626c65204f7074696f6e0000000000000000000000000000600082015250565b6000613883601283612be9565b915061388e8261384d565b602082019050919050565b600060208201905081810360008301526138b281613876565b9050919050565b6000819050919050565b6000819050919050565b60006138e86138e36138de846138b9565b6138c3565b6128c7565b9050919050565b6138f8816138cd565b82525050565b600082825260208201905092915050565b7f3078303000000000000000000000000000000000000000000000000000000000600082015250565b60006139456004836138fe565b91506139508261390f565b602082019050919050565b60006080820190506139706000830186613196565b61397d602083018561293d565b61398a60408301846138ef565b818103606083015261399b81613938565b9050949350505050565b60006139b0826128c7565b91506139bb836128c7565b9250827fffffffffffffffffffffffffffffffffffffffffffffffffffffffffffffffff038211156139f0576139ef613743565b5b828201905092915050565b6000604082019050613a10600083018561293d565b613a1d602083018461293d565b9392505050565b7f4f776e61626c653a206e6577206f776e657220697320746865207a65726f206160008201527f6464726573730000000000000000000000000000000000000000000000000000602082015250565b6000613a80602683612be9565b9150613a8b82613a24565b604082019050919050565b60006020820190508181036000830152613aaf81613a73565b9050919050565b7f455243313135353a206d696e7420746f20746865207a65726f2061646472657360008201527f7300000000000000000000000000000000000000000000000000000000000000602082015250565b6000613b12602183612be9565b9150613b1d82613ab6565b604082019050919050565b60006020820190508181036000830152613b4181613b05565b9050919050565b7f455243313135353a2069647320616e6420616d6f756e7473206c656e6774682060008201527f6d69736d61746368000000000000000000000000000000000000000000000000602082015250565b6000613ba4602883612be9565b9150613baf82613b48565b604082019050919050565b60006020820190508181036000830152613bd381613b97565b9050919050565b60006040820190508181036000830152613bf48185613116565b90508181036020830152613c088184613116565b90509392505050565b7f455243313135353a207472616e7366657220746f20746865207a65726f20616460008201527f6472657373000000000000000000000000000000000000000000000000000000602082015250565b6000613c6d602583612be9565b9150613c7882613c11565b604082019050919050565b60006020820190508181036000830152613c9c81613c60565b9050919050565b7f455243313135353a20696e73756666696369656e742062616c616e636520666f60008201527f72207472616e7366657200000000000000000000000000000000000000000000602082015250565b6000613cff602a83612be9565b9150613d0a82613ca3565b604082019050919050565b60006020820190508181036000830152613d2e81613cf2565b9050919050565b7f5061757361626c653a206e6f7420706175736564000000000000000000000000600082015250565b6000613d6b601483612be9565b9150613d7682613d35565b602082019050919050565b60006020820190508181036000830152613d9a81613d5e565b9050919050565b7f455243313135353a206275726e2066726f6d20746865207a65726f206164647260008201527f6573730000000000000000000000000000000000000000000000000000000000602082015250565b6000613dfd602383612be9565b9150613e0882613da1565b604082019050919050565b60006020820190508181036000830152613e2c81613df0565b9050919050565b7f455243313135353a206275726e20616d6f756e7420657863656564732062616c60008201527f616e636500000000000000000000000000000000000000000000000000000000602082015250565b6000613e8f602483612be9565b9150613e9a82613e33565b604082019050919050565b60006020820190508181036000830152613ebe81613e82565b9050919050565b7f5061757361626c653a2070617573656400000000000000000000000000000000600082015250565b6000613efb601083612be9565b9150613f0682613ec5565b602082019050919050565b60006020820190508181036000830152613f2a81613eee565b9050919050565b7f455243313135353a2073657474696e6720617070726f76616c2073746174757360008201527f20666f722073656c660000000000000000000000000000000000000000000000602082015250565b6000613f8d602983612be9565b9150613f9882613f31565b604082019050919050565b60006020820190508181036000830152613fbc81613f80565b9050919050565b600081519050919050565b6000613fd982613fc3565b613fe381856138fe565b9350613ff3818560208601612bfa565b613ffc81612a2c565b840191505092915050565b600060a08201905061401c6000830188613196565b6140296020830187613196565b818103604083015261403b8186613116565b9050818103606083015261404f8185613116565b905081810360808301526140638184613fce565b90509695505050505050565b60008151905061407e81612993565b92915050565b60006020828403121561409a5761409961285f565b5b60006140a88482850161406f565b91505092915050565b60008160e01c9050919050565b600060033d11156140dd5760046000803e6140da6000516140b1565b90505b90565b600060443d10156140f057614173565b6140f8612855565b60043d036004823e80513d602482011167ffffffffffffffff82111715614120575050614173565b808201805167ffffffffffffffff81111561413e5750505050614173565b80602083010160043d03850181111561415b575050505050614173565b61416a82602001850186612a6c565b82955050505050505b90565b7f455243313135353a207472616e7366657220746f206e6f6e204552433131353560008201527f526563656976657220696d706c656d656e746572000000000000000000000000602082015250565b60006141d2603483612be9565b91506141dd82614176565b604082019050919050565b60006020820190508181036000830152614201816141c5565b9050919050565b7f455243313135353a204552433131353552656365697665722072656a6563746560008201527f6420746f6b656e73000000000000000000000000000000000000000000000000602082015250565b6000614264602883612be9565b915061426f82614208565b604082019050919050565b6000602082019050818103600083015261429381614257565b9050919050565b600060a0820190506142af6000830188613196565b6142bc6020830187613196565b6142c9604083018661293d565b6142d6606083018561293d565b81810360808301526142e88184613fce565b9050969550505050505056fea2646970667358221220a494576bfe441a91a380c105117559bd74258e32001e0e1aafb514ccdafc863064736f6c6343000809003368747470733a2f2f6173736574732e686265617374732e636f6d2f656767732f7b69647d",
  "immutableReferences": {},
  "source": "// SPDX-License-Identifier: MIT\n\npragma solidity >=0.4.22 <0.9.0;\n\nimport \"./HatchingEgg.sol\";\nimport \"./ERC1155SupplyForOwner.sol\";\n\nimport \"@openzeppelin/contracts/token/ERC1155/ERC1155.sol\";\nimport \"@openzeppelin/contracts/access/Ownable.sol\";\nimport \"@openzeppelin/contracts/security/Pausable.sol\";\nimport \"@openzeppelin/contracts/token/ERC1155/extensions/ERC1155Burnable.sol\";\n\ncontract Egg is\n    ERC1155,\n    Ownable,\n    Pausable,\n    ERC1155Burnable,\n    ERC1155SupplyForOwner\n{\n    address public nftAddress; // Hatching egg address\n\n    enum Colors {\n        RED,\n        GREEN,\n        YELLOW,\n        BLUE\n    }\n\n    event EggHatched(\n        address indexed to,\n        uint256 optionId,\n        uint256 readyTimestamp\n    );\n\n    uint256 public constant NUM_OPTIONS = 4;\n    uint256 private delay;\n\n    constructor(address _nftAddress, uint256 _delay)\n        ERC1155(\"https://assets.hbeasts.com/eggs/{id}\")\n    {\n        nftAddress = _nftAddress;\n        delay = _delay;\n    }\n\n    function setURI(string memory newuri) public onlyOwner {\n        _setURI(newuri);\n    }\n\n    function pause() public onlyOwner {\n        _pause();\n    }\n\n    function unpause() public onlyOwner {\n        _unpause();\n    }\n\n    function supplyForOwner(address _owner) public view returns (uint256) {\n        return _supplyForOwner(_owner, NUM_OPTIONS);\n    }\n\n    function hatch(uint256 _optionId) public {\n        _burn(msg.sender, _optionId, 1);\n        HatchingEgg hatching = HatchingEgg(nftAddress);\n        hatching.mint(msg.sender, _optionId, 1, \"0x00\");\n        emit EggHatched(msg.sender, _optionId, block.timestamp + delay);\n    }\n\n    function mint(\n        address account,\n        uint256 id,\n        uint256 amount,\n        bytes memory data\n    ) public onlyOwner {\n        require(id < NUM_OPTIONS, \"Unavailable Option\");\n        _mint(account, id, amount, data);\n    }\n\n    function mintBatch(\n        address to,\n        uint256[] memory ids,\n        uint256[] memory amounts,\n        bytes memory data\n    ) public onlyOwner {\n        _mintBatch(to, ids, amounts, data);\n    }\n\n    function _beforeTokenTransfer(\n        address operator,\n        address from,\n        address to,\n        uint256[] memory ids,\n        uint256[] memory amounts,\n        bytes memory data\n    ) internal override(ERC1155) whenNotPaused {\n        super._beforeTokenTransfer(operator, from, to, ids, amounts, data);\n    }\n}\n",
  "sourcePath": "/home/isaiah/codes/NFT/contract/legendofbeasts/contracts/Egg.sol",
  "compiler": {
    "name": "solc",
    "version": "0.8.9+commit.e5eed63a.Emscripten.clang"
  },
  "schemaVersion": "3.4.3",
  "updatedAt": "2022-01-03T09:38:35.172Z",
  "networkType": "ethereum",
  "devdoc": {
    "kind": "dev",
    "methods": {
      "balanceOf(address,uint256)": {
        "details": "See {IERC1155-balanceOf}. Requirements: - `account` cannot be the zero address."
      },
      "balanceOfBatch(address[],uint256[])": {
        "details": "See {IERC1155-balanceOfBatch}. Requirements: - `accounts` and `ids` must have the same length."
      },
      "isApprovedForAll(address,address)": {
        "details": "See {IERC1155-isApprovedForAll}."
      },
      "owner()": {
        "details": "Returns the address of the current owner."
      },
      "paused()": {
        "details": "Returns true if the contract is paused, and false otherwise."
      },
      "renounceOwnership()": {
        "details": "Leaves the contract without owner. It will not be possible to call `onlyOwner` functions anymore. Can only be called by the current owner. NOTE: Renouncing ownership will leave the contract without an owner, thereby removing any functionality that is only available to the owner."
      },
      "safeBatchTransferFrom(address,address,uint256[],uint256[],bytes)": {
        "details": "See {IERC1155-safeBatchTransferFrom}."
      },
      "safeTransferFrom(address,address,uint256,uint256,bytes)": {
        "details": "See {IERC1155-safeTransferFrom}."
      },
      "setApprovalForAll(address,bool)": {
        "details": "See {IERC1155-setApprovalForAll}."
      },
      "supportsInterface(bytes4)": {
        "details": "See {IERC165-supportsInterface}."
      },
      "transferOwnership(address)": {
        "details": "Transfers ownership of the contract to a new account (`newOwner`). Can only be called by the current owner."
      },
      "uri(uint256)": {
        "details": "See {IERC1155MetadataURI-uri}. This implementation returns the same URI for *all* token types. It relies on the token type ID substitution mechanism https://eips.ethereum.org/EIPS/eip-1155#metadata[defined in the EIP]. Clients calling this function must replace the `\\{id\\}` substring with the actual token type ID."
      }
    },
    "version": 1
  },
  "userdoc": {
    "kind": "user",
    "methods": {},
    "version": 1
  }
}