{
  "contractName": "Egg",
  "abi": [
    {
      "inputs": [
        {
          "internalType": "address",
          "name": "_nftAddress",
          "type": "address"
        },
        {
          "internalType": "uint256",
          "name": "_delay",
          "type": "uint256"
        }
      ],
      "stateMutability": "nonpayable",
      "type": "constructor"
    },
    {
      "anonymous": false,
      "inputs": [
        {
          "indexed": true,
          "internalType": "address",
          "name": "account",
          "type": "address"
        },
        {
          "indexed": true,
          "internalType": "address",
          "name": "operator",
          "type": "address"
        },
        {
          "indexed": false,
          "internalType": "bool",
          "name": "approved",
          "type": "bool"
        }
      ],
      "name": "ApprovalForAll",
      "type": "event"
    },
    {
      "anonymous": false,
      "inputs": [
        {
          "indexed": true,
          "internalType": "address",
          "name": "to",
          "type": "address"
        },
        {
          "indexed": false,
          "internalType": "uint256",
          "name": "optionId",
          "type": "uint256"
        },
        {
          "indexed": false,
          "internalType": "uint256",
          "name": "readyTimestamp",
          "type": "uint256"
        }
      ],
      "name": "EggHatched",
      "type": "event"
    },
    {
      "anonymous": false,
      "inputs": [
        {
          "indexed": true,
          "internalType": "address",
          "name": "previousOwner",
          "type": "address"
        },
        {
          "indexed": true,
          "internalType": "address",
          "name": "newOwner",
          "type": "address"
        }
      ],
      "name": "OwnershipTransferred",
      "type": "event"
    },
    {
      "anonymous": false,
      "inputs": [
        {
          "indexed": false,
          "internalType": "address",
          "name": "account",
          "type": "address"
        }
      ],
      "name": "Paused",
      "type": "event"
    },
    {
      "anonymous": false,
      "inputs": [
        {
          "indexed": true,
          "internalType": "address",
          "name": "operator",
          "type": "address"
        },
        {
          "indexed": true,
          "internalType": "address",
          "name": "from",
          "type": "address"
        },
        {
          "indexed": true,
          "internalType": "address",
          "name": "to",
          "type": "address"
        },
        {
          "indexed": false,
          "internalType": "uint256[]",
          "name": "ids",
          "type": "uint256[]"
        },
        {
          "indexed": false,
          "internalType": "uint256[]",
          "name": "values",
          "type": "uint256[]"
        }
      ],
      "name": "TransferBatch",
      "type": "event"
    },
    {
      "anonymous": false,
      "inputs": [
        {
          "indexed": true,
          "internalType": "address",
          "name": "operator",
          "type": "address"
        },
        {
          "indexed": true,
          "internalType": "address",
          "name": "from",
          "type": "address"
        },
        {
          "indexed": true,
          "internalType": "address",
          "name": "to",
          "type": "address"
        },
        {
          "indexed": false,
          "internalType": "uint256",
          "name": "id",
          "type": "uint256"
        },
        {
          "indexed": false,
          "internalType": "uint256",
          "name": "value",
          "type": "uint256"
        }
      ],
      "name": "TransferSingle",
      "type": "event"
    },
    {
      "anonymous": false,
      "inputs": [
        {
          "indexed": false,
          "internalType": "string",
          "name": "value",
          "type": "string"
        },
        {
          "indexed": true,
          "internalType": "uint256",
          "name": "id",
          "type": "uint256"
        }
      ],
      "name": "URI",
      "type": "event"
    },
    {
      "anonymous": false,
      "inputs": [
        {
          "indexed": false,
          "internalType": "address",
          "name": "account",
          "type": "address"
        }
      ],
      "name": "Unpaused",
      "type": "event"
    },
    {
      "inputs": [],
      "name": "NUM_OPTIONS",
      "outputs": [
        {
          "internalType": "uint256",
          "name": "",
          "type": "uint256"
        }
      ],
      "stateMutability": "view",
      "type": "function",
      "constant": true
    },
    {
      "inputs": [
        {
          "internalType": "address",
          "name": "account",
          "type": "address"
        },
        {
          "internalType": "uint256",
          "name": "id",
          "type": "uint256"
        }
      ],
      "name": "balanceOf",
      "outputs": [
        {
          "internalType": "uint256",
          "name": "",
          "type": "uint256"
        }
      ],
      "stateMutability": "view",
      "type": "function",
      "constant": true
    },
    {
      "inputs": [
        {
          "internalType": "address[]",
          "name": "accounts",
          "type": "address[]"
        },
        {
          "internalType": "uint256[]",
          "name": "ids",
          "type": "uint256[]"
        }
      ],
      "name": "balanceOfBatch",
      "outputs": [
        {
          "internalType": "uint256[]",
          "name": "",
          "type": "uint256[]"
        }
      ],
      "stateMutability": "view",
      "type": "function",
      "constant": true
    },
    {
      "inputs": [
        {
          "internalType": "address",
          "name": "account",
          "type": "address"
        },
        {
          "internalType": "uint256",
          "name": "id",
          "type": "uint256"
        },
        {
          "internalType": "uint256",
          "name": "value",
          "type": "uint256"
        }
      ],
      "name": "burn",
      "outputs": [],
      "stateMutability": "nonpayable",
      "type": "function"
    },
    {
      "inputs": [
        {
          "internalType": "address",
          "name": "account",
          "type": "address"
        },
        {
          "internalType": "uint256[]",
          "name": "ids",
          "type": "uint256[]"
        },
        {
          "internalType": "uint256[]",
          "name": "values",
          "type": "uint256[]"
        }
      ],
      "name": "burnBatch",
      "outputs": [],
      "stateMutability": "nonpayable",
      "type": "function"
    },
    {
      "inputs": [
        {
          "internalType": "address",
          "name": "account",
          "type": "address"
        },
        {
          "internalType": "address",
          "name": "operator",
          "type": "address"
        }
      ],
      "name": "isApprovedForAll",
      "outputs": [
        {
          "internalType": "bool",
          "name": "",
          "type": "bool"
        }
      ],
      "stateMutability": "view",
      "type": "function",
      "constant": true
    },
    {
      "inputs": [],
      "name": "nftAddress",
      "outputs": [
        {
          "internalType": "address",
          "name": "",
          "type": "address"
        }
      ],
      "stateMutability": "view",
      "type": "function",
      "constant": true
    },
    {
      "inputs": [],
      "name": "owner",
      "outputs": [
        {
          "internalType": "address",
          "name": "",
          "type": "address"
        }
      ],
      "stateMutability": "view",
      "type": "function",
      "constant": true
    },
    {
      "inputs": [],
      "name": "paused",
      "outputs": [
        {
          "internalType": "bool",
          "name": "",
          "type": "bool"
        }
      ],
      "stateMutability": "view",
      "type": "function",
      "constant": true
    },
    {
      "inputs": [],
      "name": "renounceOwnership",
      "outputs": [],
      "stateMutability": "nonpayable",
      "type": "function"
    },
    {
      "inputs": [
        {
          "internalType": "address",
          "name": "from",
          "type": "address"
        },
        {
          "internalType": "address",
          "name": "to",
          "type": "address"
        },
        {
          "internalType": "uint256[]",
          "name": "ids",
          "type": "uint256[]"
        },
        {
          "internalType": "uint256[]",
          "name": "amounts",
          "type": "uint256[]"
        },
        {
          "internalType": "bytes",
          "name": "data",
          "type": "bytes"
        }
      ],
      "name": "safeBatchTransferFrom",
      "outputs": [],
      "stateMutability": "nonpayable",
      "type": "function"
    },
    {
      "inputs": [
        {
          "internalType": "address",
          "name": "from",
          "type": "address"
        },
        {
          "internalType": "address",
          "name": "to",
          "type": "address"
        },
        {
          "internalType": "uint256",
          "name": "id",
          "type": "uint256"
        },
        {
          "internalType": "uint256",
          "name": "amount",
          "type": "uint256"
        },
        {
          "internalType": "bytes",
          "name": "data",
          "type": "bytes"
        }
      ],
      "name": "safeTransferFrom",
      "outputs": [],
      "stateMutability": "nonpayable",
      "type": "function"
    },
    {
      "inputs": [
        {
          "internalType": "address",
          "name": "operator",
          "type": "address"
        },
        {
          "internalType": "bool",
          "name": "approved",
          "type": "bool"
        }
      ],
      "name": "setApprovalForAll",
      "outputs": [],
      "stateMutability": "nonpayable",
      "type": "function"
    },
    {
      "inputs": [
        {
          "internalType": "bytes4",
          "name": "interfaceId",
          "type": "bytes4"
        }
      ],
      "name": "supportsInterface",
      "outputs": [
        {
          "internalType": "bool",
          "name": "",
          "type": "bool"
        }
      ],
      "stateMutability": "view",
      "type": "function",
      "constant": true
    },
    {
      "inputs": [
        {
          "internalType": "address",
          "name": "newOwner",
          "type": "address"
        }
      ],
      "name": "transferOwnership",
      "outputs": [],
      "stateMutability": "nonpayable",
      "type": "function"
    },
    {
      "inputs": [
        {
          "internalType": "uint256",
          "name": "_tokenId",
          "type": "uint256"
        }
      ],
      "name": "uri",
      "outputs": [
        {
          "internalType": "string",
          "name": "",
          "type": "string"
        }
      ],
      "stateMutability": "pure",
      "type": "function",
      "constant": true
    },
    {
      "inputs": [
        {
          "internalType": "string",
          "name": "newuri",
          "type": "string"
        }
      ],
      "name": "setURI",
      "outputs": [],
      "stateMutability": "nonpayable",
      "type": "function"
    },
    {
      "inputs": [],
      "name": "pause",
      "outputs": [],
      "stateMutability": "nonpayable",
      "type": "function"
    },
    {
      "inputs": [],
      "name": "unpause",
      "outputs": [],
      "stateMutability": "nonpayable",
      "type": "function"
    },
    {
      "inputs": [],
      "name": "numOptions",
      "outputs": [
        {
          "internalType": "uint256",
          "name": "",
          "type": "uint256"
        }
      ],
      "stateMutability": "pure",
      "type": "function",
      "constant": true
    },
    {
      "inputs": [
        {
          "internalType": "uint256",
          "name": "_optionId",
          "type": "uint256"
        }
      ],
      "name": "hatch",
      "outputs": [],
      "stateMutability": "nonpayable",
      "type": "function"
    },
    {
      "inputs": [
        {
          "internalType": "address",
          "name": "account",
          "type": "address"
        },
        {
          "internalType": "uint256",
          "name": "id",
          "type": "uint256"
        },
        {
          "internalType": "uint256",
          "name": "amount",
          "type": "uint256"
        },
        {
          "internalType": "bytes",
          "name": "data",
          "type": "bytes"
        }
      ],
      "name": "mint",
      "outputs": [],
      "stateMutability": "nonpayable",
      "type": "function"
    },
    {
      "inputs": [
        {
          "internalType": "address",
          "name": "to",
          "type": "address"
        },
        {
          "internalType": "uint256[]",
          "name": "ids",
          "type": "uint256[]"
        },
        {
          "internalType": "uint256[]",
          "name": "amounts",
          "type": "uint256[]"
        },
        {
          "internalType": "bytes",
          "name": "data",
          "type": "bytes"
        }
      ],
      "name": "mintBatch",
      "outputs": [],
      "stateMutability": "nonpayable",
      "type": "function"
    }
  ],
  "bytecode": "0x60806040523480156200001157600080fd5b506040516200498a3803806200498a83398181016040528101906200003791906200032d565b60405180606001604052806024815260200162004966602491396200006281620000ee60201b60201c565b5062000083620000776200010a60201b60201c565b6200011260201b60201c565b6000600360146101000a81548160ff02191690831515021790555081600460006101000a81548173ffffffffffffffffffffffffffffffffffffffff021916908373ffffffffffffffffffffffffffffffffffffffff160217905550806005819055505050620003d9565b806002908051906020019062000106929190620001d8565b5050565b600033905090565b6000600360009054906101000a900473ffffffffffffffffffffffffffffffffffffffff16905081600360006101000a81548173ffffffffffffffffffffffffffffffffffffffff021916908373ffffffffffffffffffffffffffffffffffffffff1602179055508173ffffffffffffffffffffffffffffffffffffffff168173ffffffffffffffffffffffffffffffffffffffff167f8be0079c531659141344cd1fd0a4f28419497f9722a3daafe3b4186f6b6457e060405160405180910390a35050565b828054620001e690620003a3565b90600052602060002090601f0160209004810192826200020a576000855562000256565b82601f106200022557805160ff191683800117855562000256565b8280016001018555821562000256579182015b828111156200025557825182559160200191906001019062000238565b5b50905062000265919062000269565b5090565b5b80821115620002845760008160009055506001016200026a565b5090565b600080fd5b600073ffffffffffffffffffffffffffffffffffffffff82169050919050565b6000620002ba826200028d565b9050919050565b620002cc81620002ad565b8114620002d857600080fd5b50565b600081519050620002ec81620002c1565b92915050565b6000819050919050565b6200030781620002f2565b81146200031357600080fd5b50565b6000815190506200032781620002fc565b92915050565b6000806040838503121562000347576200034662000288565b5b60006200035785828601620002db565b92505060206200036a8582860162000316565b9150509250929050565b7f4e487b7100000000000000000000000000000000000000000000000000000000600052602260045260246000fd5b60006002820490506001821680620003bc57607f821691505b60208210811415620003d357620003d262000374565b5b50919050565b61457d80620003e96000396000f3fe608060405234801561001057600080fd5b506004361061014c5760003560e01c80635c975abb116100c3578063a22cb4651161007c578063a22cb46514610351578063c8c188421461036d578063e985e9c514610389578063f242432a146103b9578063f2fde38b146103d5578063f5298aca146103f15761014c565b80635c975abb146102c95780636b20c454146102e7578063715018a614610303578063731133e91461030d5780638456cb59146103295780638da5cb5b146103335761014c565b80632eb2c2d6116101155780632eb2c2d6146102195780633db62e2c146102355780633f4ba83a146102535780634b97aed91461025d5780634e1273f41461027b5780635bf8633a146102ab5761014c565b8062fdd58e1461015157806301ffc9a71461018157806302fe5305146101b15780630e89341c146101cd5780631f7fdffa146101fd575b600080fd5b61016b600480360381019061016691906129d4565b61040d565b6040516101789190612a23565b60405180910390f35b61019b60048036038101906101969190612a96565b6104d6565b6040516101a89190612ade565b60405180910390f35b6101cb60048036038101906101c69190612c3f565b6105b8565b005b6101e760048036038101906101e29190612c88565b610640565b6040516101f49190612d3d565b60405180910390f35b61021760048036038101906102129190612ec8565b6106a8565b005b610233600480360381019061022e9190612f83565b610736565b005b61023d6107d7565b60405161024a9190612a23565b60405180910390f35b61025b6107dc565b005b610265610862565b6040516102729190612a23565b60405180910390f35b61029560048036038101906102909190613115565b61086b565b6040516102a2919061324b565b60405180910390f35b6102b3610984565b6040516102c0919061327c565b60405180910390f35b6102d16109aa565b6040516102de9190612ade565b60405180910390f35b61030160048036038101906102fc9190613297565b6109c1565b005b61030b610a5e565b005b61032760048036038101906103229190613322565b610ae6565b005b610331610bb7565b005b61033b610c3d565b604051610348919061327c565b60405180910390f35b61036b600480360381019061036691906133d1565b610c67565b005b61038760048036038101906103829190612c88565b610c7d565b005b6103a3600480360381019061039e9190613411565b610d81565b6040516103b09190612ade565b60405180910390f35b6103d360048036038101906103ce9190613451565b610e15565b005b6103ef60048036038101906103ea91906134e8565b610eb6565b005b61040b60048036038101906104069190613515565b610fae565b005b60008073ffffffffffffffffffffffffffffffffffffffff168373ffffffffffffffffffffffffffffffffffffffff16141561047e576040517f08c379a0000000000000000000000000000000000000000000000000000000008152600401610475906135da565b60405180910390fd5b60008083815260200190815260200160002060008473ffffffffffffffffffffffffffffffffffffffff1673ffffffffffffffffffffffffffffffffffffffff16815260200190815260200160002054905092915050565b60007fd9b67a26000000000000000000000000000000000000000000000000000000007bffffffffffffffffffffffffffffffffffffffffffffffffffffffff1916827bffffffffffffffffffffffffffffffffffffffffffffffffffffffff191614806105a157507f0e89341c000000000000000000000000000000000000000000000000000000007bffffffffffffffffffffffffffffffffffffffffffffffffffffffff1916827bffffffffffffffffffffffffffffffffffffffffffffffffffffffff1916145b806105b157506105b08261104b565b5b9050919050565b6105c06110b5565b73ffffffffffffffffffffffffffffffffffffffff166105de610c3d565b73ffffffffffffffffffffffffffffffffffffffff1614610634576040517f08c379a000000000000000000000000000000000000000000000000000000000815260040161062b90613646565b60405180910390fd5b61063d816110bd565b50565b60606040518060400160405280602081526020017f68747470733a2f2f6173736574732e686265617374732e636f6d2f656767732f815250610681836110d7565b6040516020016106929291906136ee565b6040516020818303038152906040529050919050565b6106b06110b5565b73ffffffffffffffffffffffffffffffffffffffff166106ce610c3d565b73ffffffffffffffffffffffffffffffffffffffff1614610724576040517f08c379a000000000000000000000000000000000000000000000000000000000815260040161071b90613646565b60405180910390fd5b61073084848484611238565b50505050565b61073e6110b5565b73ffffffffffffffffffffffffffffffffffffffff168573ffffffffffffffffffffffffffffffffffffffff16148061078457506107838561077e6110b5565b610d81565b5b6107c3576040517f08c379a00000000000000000000000000000000000000000000000000000000081526004016107ba9061378f565b60405180910390fd5b6107d08585858585611456565b5050505050565b600481565b6107e46110b5565b73ffffffffffffffffffffffffffffffffffffffff16610802610c3d565b73ffffffffffffffffffffffffffffffffffffffff1614610858576040517f08c379a000000000000000000000000000000000000000000000000000000000815260040161084f90613646565b60405180910390fd5b61086061176a565b565b60006004905090565b606081518351146108b1576040517f08c379a00000000000000000000000000000000000000000000000000000000081526004016108a890613821565b60405180910390fd5b6000835167ffffffffffffffff8111156108ce576108cd612b14565b5b6040519080825280602002602001820160405280156108fc5781602001602082028036833780820191505090505b50905060005b84518110156109795761094985828151811061092157610920613841565b5b602002602001015185838151811061093c5761093b613841565b5b602002602001015161040d565b82828151811061095c5761095b613841565b5b602002602001018181525050806109729061389f565b9050610902565b508091505092915050565b600460009054906101000a900473ffffffffffffffffffffffffffffffffffffffff1681565b6000600360149054906101000a900460ff16905090565b6109c96110b5565b73ffffffffffffffffffffffffffffffffffffffff168373ffffffffffffffffffffffffffffffffffffffff161480610a0f5750610a0e83610a096110b5565b610d81565b5b610a4e576040517f08c379a0000000000000000000000000000000000000000000000000000000008152600401610a459061395a565b60405180910390fd5b610a5983838361180c565b505050565b610a666110b5565b73ffffffffffffffffffffffffffffffffffffffff16610a84610c3d565b73ffffffffffffffffffffffffffffffffffffffff1614610ada576040517f08c379a0000000000000000000000000000000000000000000000000000000008152600401610ad190613646565b60405180910390fd5b610ae46000611abd565b565b610aee6110b5565b73ffffffffffffffffffffffffffffffffffffffff16610b0c610c3d565b73ffffffffffffffffffffffffffffffffffffffff1614610b62576040517f08c379a0000000000000000000000000000000000000000000000000000000008152600401610b5990613646565b60405180910390fd5b60048310610ba5576040517f08c379a0000000000000000000000000000000000000000000000000000000008152600401610b9c906139c6565b60405180910390fd5b610bb184848484611b83565b50505050565b610bbf6110b5565b73ffffffffffffffffffffffffffffffffffffffff16610bdd610c3d565b73ffffffffffffffffffffffffffffffffffffffff1614610c33576040517f08c379a0000000000000000000000000000000000000000000000000000000008152600401610c2a90613646565b60405180910390fd5b610c3b611d19565b565b6000600360009054906101000a900473ffffffffffffffffffffffffffffffffffffffff16905090565b610c79610c726110b5565b8383611dbc565b5050565b610c8933826001611f29565b6000600460009054906101000a900473ffffffffffffffffffffffffffffffffffffffff1690508073ffffffffffffffffffffffffffffffffffffffff1663731133e9338460016040518463ffffffff1660e01b8152600401610cee93929190613a88565b600060405180830381600087803b158015610d0857600080fd5b505af1158015610d1c573d6000803e3d6000fd5b505050503373ffffffffffffffffffffffffffffffffffffffff167ffb5524208c13c35801d6a771c1506a0a169687ef04692d793cd26722df18e7ce8360055442610d679190613ad2565b604051610d75929190613b28565b60405180910390a25050565b6000600160008473ffffffffffffffffffffffffffffffffffffffff1673ffffffffffffffffffffffffffffffffffffffff16815260200190815260200160002060008373ffffffffffffffffffffffffffffffffffffffff1673ffffffffffffffffffffffffffffffffffffffff16815260200190815260200160002060009054906101000a900460ff16905092915050565b610e1d6110b5565b73ffffffffffffffffffffffffffffffffffffffff168573ffffffffffffffffffffffffffffffffffffffff161480610e635750610e6285610e5d6110b5565b610d81565b5b610ea2576040517f08c379a0000000000000000000000000000000000000000000000000000000008152600401610e999061395a565b60405180910390fd5b610eaf8585858585612146565b5050505050565b610ebe6110b5565b73ffffffffffffffffffffffffffffffffffffffff16610edc610c3d565b73ffffffffffffffffffffffffffffffffffffffff1614610f32576040517f08c379a0000000000000000000000000000000000000000000000000000000008152600401610f2990613646565b60405180910390fd5b600073ffffffffffffffffffffffffffffffffffffffff168173ffffffffffffffffffffffffffffffffffffffff161415610fa2576040517f08c379a0000000000000000000000000000000000000000000000000000000008152600401610f9990613bc3565b60405180910390fd5b610fab81611abd565b50565b610fb66110b5565b73ffffffffffffffffffffffffffffffffffffffff168373ffffffffffffffffffffffffffffffffffffffff161480610ffc5750610ffb83610ff66110b5565b610d81565b5b61103b576040517f08c379a00000000000000000000000000000000000000000000000000000000081526004016110329061395a565b60405180910390fd5b611046838383611f29565b505050565b60007f01ffc9a7000000000000000000000000000000000000000000000000000000007bffffffffffffffffffffffffffffffffffffffffffffffffffffffff1916827bffffffffffffffffffffffffffffffffffffffffffffffffffffffff1916149050919050565b600033905090565b80600290805190602001906110d3929190612889565b5050565b6060600082141561111f576040518060400160405280600181526020017f30000000000000000000000000000000000000000000000000000000000000008152509050611233565b600082905060005b6000821461115157808061113a9061389f565b915050600a8261114a9190613c12565b9150611127565b60008167ffffffffffffffff81111561116d5761116c612b14565b5b6040519080825280601f01601f19166020018201604052801561119f5781602001600182028036833780820191505090505b5090505b6000851461122c576001826111b89190613c43565b9150600a856111c79190613c77565b60306111d39190613ad2565b60f81b8183815181106111e9576111e8613841565b5b60200101907effffffffffffffffffffffffffffffffffffffffffffffffffffffffffffff1916908160001a905350600a856112259190613c12565b94506111a3565b8093505050505b919050565b600073ffffffffffffffffffffffffffffffffffffffff168473ffffffffffffffffffffffffffffffffffffffff1614156112a8576040517f08c379a000000000000000000000000000000000000000000000000000000000815260040161129f90613d1a565b60405180910390fd5b81518351146112ec576040517f08c379a00000000000000000000000000000000000000000000000000000000081526004016112e390613dac565b60405180910390fd5b60006112f66110b5565b9050611307816000878787876123c8565b60005b84518110156113c05783818151811061132657611325613841565b5b602002602001015160008087848151811061134457611343613841565b5b6020026020010151815260200190815260200160002060008873ffffffffffffffffffffffffffffffffffffffff1673ffffffffffffffffffffffffffffffffffffffff16815260200190815260200160002060008282546113a69190613ad2565b9250508190555080806113b89061389f565b91505061130a565b508473ffffffffffffffffffffffffffffffffffffffff16600073ffffffffffffffffffffffffffffffffffffffff168273ffffffffffffffffffffffffffffffffffffffff167f4a39dc06d4c0dbc64b70af90fd698a233a518aa5d07e595d983b8c0526c8f7fb8787604051611438929190613dcc565b60405180910390a461144f81600087878787612426565b5050505050565b815183511461149a576040517f08c379a000000000000000000000000000000000000000000000000000000000815260040161149190613dac565b60405180910390fd5b600073ffffffffffffffffffffffffffffffffffffffff168473ffffffffffffffffffffffffffffffffffffffff16141561150a576040517f08c379a000000000000000000000000000000000000000000000000000000000815260040161150190613e75565b60405180910390fd5b60006115146110b5565b90506115248187878787876123c8565b60005b84518110156116d557600085828151811061154557611544613841565b5b60200260200101519050600085838151811061156457611563613841565b5b60200260200101519050600080600084815260200190815260200160002060008b73ffffffffffffffffffffffffffffffffffffffff1673ffffffffffffffffffffffffffffffffffffffff16815260200190815260200160002054905081811015611605576040517f08c379a00000000000000000000000000000000000000000000000000000000081526004016115fc90613f07565b60405180910390fd5b81810360008085815260200190815260200160002060008c73ffffffffffffffffffffffffffffffffffffffff1673ffffffffffffffffffffffffffffffffffffffff168152602001908152602001600020819055508160008085815260200190815260200160002060008b73ffffffffffffffffffffffffffffffffffffffff1673ffffffffffffffffffffffffffffffffffffffff16815260200190815260200160002060008282546116ba9190613ad2565b92505081905550505050806116ce9061389f565b9050611527565b508473ffffffffffffffffffffffffffffffffffffffff168673ffffffffffffffffffffffffffffffffffffffff168273ffffffffffffffffffffffffffffffffffffffff167f4a39dc06d4c0dbc64b70af90fd698a233a518aa5d07e595d983b8c0526c8f7fb878760405161174c929190613dcc565b60405180910390a4611762818787878787612426565b505050505050565b6117726109aa565b6117b1576040517f08c379a00000000000000000000000000000000000000000000000000000000081526004016117a890613f73565b60405180910390fd5b6000600360146101000a81548160ff0219169083151502179055507f5db9ee0a495bf2e6ff9c91a7834c1ba4fdd244a5e8aa4e537bd38aeae4b073aa6117f56110b5565b604051611802919061327c565b60405180910390a1565b600073ffffffffffffffffffffffffffffffffffffffff168373ffffffffffffffffffffffffffffffffffffffff16141561187c576040517f08c379a000000000000000000000000000000000000000000000000000000000815260040161187390614005565b60405180910390fd5b80518251146118c0576040517f08c379a00000000000000000000000000000000000000000000000000000000081526004016118b790613dac565b60405180910390fd5b60006118ca6110b5565b90506118ea818560008686604051806020016040528060008152506123c8565b60005b8351811015611a3757600084828151811061190b5761190a613841565b5b60200260200101519050600084838151811061192a57611929613841565b5b60200260200101519050600080600084815260200190815260200160002060008973ffffffffffffffffffffffffffffffffffffffff1673ffffffffffffffffffffffffffffffffffffffff168152602001908152602001600020549050818110156119cb576040517f08c379a00000000000000000000000000000000000000000000000000000000081526004016119c290614097565b60405180910390fd5b81810360008085815260200190815260200160002060008a73ffffffffffffffffffffffffffffffffffffffff1673ffffffffffffffffffffffffffffffffffffffff168152602001908152602001600020819055505050508080611a2f9061389f565b9150506118ed565b50600073ffffffffffffffffffffffffffffffffffffffff168473ffffffffffffffffffffffffffffffffffffffff168273ffffffffffffffffffffffffffffffffffffffff167f4a39dc06d4c0dbc64b70af90fd698a233a518aa5d07e595d983b8c0526c8f7fb8686604051611aaf929190613dcc565b60405180910390a450505050565b6000600360009054906101000a900473ffffffffffffffffffffffffffffffffffffffff16905081600360006101000a81548173ffffffffffffffffffffffffffffffffffffffff021916908373ffffffffffffffffffffffffffffffffffffffff1602179055508173ffffffffffffffffffffffffffffffffffffffff168173ffffffffffffffffffffffffffffffffffffffff167f8be0079c531659141344cd1fd0a4f28419497f9722a3daafe3b4186f6b6457e060405160405180910390a35050565b600073ffffffffffffffffffffffffffffffffffffffff168473ffffffffffffffffffffffffffffffffffffffff161415611bf3576040517f08c379a0000000000000000000000000000000000000000000000000000000008152600401611bea90613d1a565b60405180910390fd5b6000611bfd6110b5565b9050611c1e81600087611c0f8861260d565b611c188861260d565b876123c8565b8260008086815260200190815260200160002060008773ffffffffffffffffffffffffffffffffffffffff1673ffffffffffffffffffffffffffffffffffffffff1681526020019081526020016000206000828254611c7d9190613ad2565b925050819055508473ffffffffffffffffffffffffffffffffffffffff16600073ffffffffffffffffffffffffffffffffffffffff168273ffffffffffffffffffffffffffffffffffffffff167fc3d58168c5ae7397731d063d5bbf3d657854427343f4c083240f7aacaa2d0f628787604051611cfb929190613b28565b60405180910390a4611d1281600087878787612687565b5050505050565b611d216109aa565b15611d61576040517f08c379a0000000000000000000000000000000000000000000000000000000008152600401611d5890614103565b60405180910390fd5b6001600360146101000a81548160ff0219169083151502179055507f62e78cea01bee320cd4e420270b5ea74000d11b0c9f74754ebdbfc544b05a258611da56110b5565b604051611db2919061327c565b60405180910390a1565b8173ffffffffffffffffffffffffffffffffffffffff168373ffffffffffffffffffffffffffffffffffffffff161415611e2b576040517f08c379a0000000000000000000000000000000000000000000000000000000008152600401611e2290614195565b60405180910390fd5b80600160008573ffffffffffffffffffffffffffffffffffffffff1673ffffffffffffffffffffffffffffffffffffffff16815260200190815260200160002060008473ffffffffffffffffffffffffffffffffffffffff1673ffffffffffffffffffffffffffffffffffffffff16815260200190815260200160002060006101000a81548160ff0219169083151502179055508173ffffffffffffffffffffffffffffffffffffffff168373ffffffffffffffffffffffffffffffffffffffff167f17307eab39ab6107e8899845ad3d59bd9653f200f220920489ca2b5937696c3183604051611f1c9190612ade565b60405180910390a3505050565b600073ffffffffffffffffffffffffffffffffffffffff168373ffffffffffffffffffffffffffffffffffffffff161415611f99576040517f08c379a0000000000000000000000000000000000000000000000000000000008152600401611f9090614005565b60405180910390fd5b6000611fa36110b5565b9050611fd381856000611fb58761260d565b611fbe8761260d565b604051806020016040528060008152506123c8565b600080600085815260200190815260200160002060008673ffffffffffffffffffffffffffffffffffffffff1673ffffffffffffffffffffffffffffffffffffffff1681526020019081526020016000205490508281101561206a576040517f08c379a000000000000000000000000000000000000000000000000000000000815260040161206190614097565b60405180910390fd5b82810360008086815260200190815260200160002060008773ffffffffffffffffffffffffffffffffffffffff1673ffffffffffffffffffffffffffffffffffffffff16815260200190815260200160002081905550600073ffffffffffffffffffffffffffffffffffffffff168573ffffffffffffffffffffffffffffffffffffffff168373ffffffffffffffffffffffffffffffffffffffff167fc3d58168c5ae7397731d063d5bbf3d657854427343f4c083240f7aacaa2d0f628787604051612137929190613b28565b60405180910390a45050505050565b600073ffffffffffffffffffffffffffffffffffffffff168473ffffffffffffffffffffffffffffffffffffffff1614156121b6576040517f08c379a00000000000000000000000000000000000000000000000000000000081526004016121ad90613e75565b60405180910390fd5b60006121c06110b5565b90506121e08187876121d18861260d565b6121da8861260d565b876123c8565b600080600086815260200190815260200160002060008873ffffffffffffffffffffffffffffffffffffffff1673ffffffffffffffffffffffffffffffffffffffff16815260200190815260200160002054905083811015612277576040517f08c379a000000000000000000000000000000000000000000000000000000000815260040161226e90613f07565b60405180910390fd5b83810360008087815260200190815260200160002060008973ffffffffffffffffffffffffffffffffffffffff1673ffffffffffffffffffffffffffffffffffffffff168152602001908152602001600020819055508360008087815260200190815260200160002060008873ffffffffffffffffffffffffffffffffffffffff1673ffffffffffffffffffffffffffffffffffffffff168152602001908152602001600020600082825461232c9190613ad2565b925050819055508573ffffffffffffffffffffffffffffffffffffffff168773ffffffffffffffffffffffffffffffffffffffff168373ffffffffffffffffffffffffffffffffffffffff167fc3d58168c5ae7397731d063d5bbf3d657854427343f4c083240f7aacaa2d0f6288886040516123a9929190613b28565b60405180910390a46123bf828888888888612687565b50505050505050565b6123d06109aa565b15612410576040517f08c379a000000000000000000000000000000000000000000000000000000000815260040161240790614103565b60405180910390fd5b61241e86868686868661286e565b505050505050565b6124458473ffffffffffffffffffffffffffffffffffffffff16612876565b15612605578373ffffffffffffffffffffffffffffffffffffffff1663bc197c8187878686866040518663ffffffff1660e01b815260040161248b9594939291906141f9565b602060405180830381600087803b1580156124a557600080fd5b505af19250505080156124d657506040513d601f19601f820116820180604052508101906124d39190614276565b60015b61257c576124e26142b0565b806308c379a0141561253f57506124f76142d2565b806125025750612541565b806040517f08c379a00000000000000000000000000000000000000000000000000000000081526004016125369190612d3d565b60405180910390fd5b505b6040517f08c379a0000000000000000000000000000000000000000000000000000000008152600401612573906143da565b60405180910390fd5b63bc197c8160e01b7bffffffffffffffffffffffffffffffffffffffffffffffffffffffff1916817bffffffffffffffffffffffffffffffffffffffffffffffffffffffff191614612603576040517f08c379a00000000000000000000000000000000000000000000000000000000081526004016125fa9061446c565b60405180910390fd5b505b505050505050565b60606000600167ffffffffffffffff81111561262c5761262b612b14565b5b60405190808252806020026020018201604052801561265a5781602001602082028036833780820191505090505b509050828160008151811061267257612671613841565b5b60200260200101818152505080915050919050565b6126a68473ffffffffffffffffffffffffffffffffffffffff16612876565b15612866578373ffffffffffffffffffffffffffffffffffffffff1663f23a6e6187878686866040518663ffffffff1660e01b81526004016126ec95949392919061448c565b602060405180830381600087803b15801561270657600080fd5b505af192505050801561273757506040513d601f19601f820116820180604052508101906127349190614276565b60015b6127dd576127436142b0565b806308c379a014156127a057506127586142d2565b8061276357506127a2565b806040517f08c379a00000000000000000000000000000000000000000000000000000000081526004016127979190612d3d565b60405180910390fd5b505b6040517f08c379a00000000000000000000000000000000000000000000000000000000081526004016127d4906143da565b60405180910390fd5b63f23a6e6160e01b7bffffffffffffffffffffffffffffffffffffffffffffffffffffffff1916817bffffffffffffffffffffffffffffffffffffffffffffffffffffffff191614612864576040517f08c379a000000000000000000000000000000000000000000000000000000000815260040161285b9061446c565b60405180910390fd5b505b505050505050565b505050505050565b600080823b905060008111915050919050565b82805461289590614515565b90600052602060002090601f0160209004810192826128b757600085556128fe565b82601f106128d057805160ff19168380011785556128fe565b828001600101855582156128fe579182015b828111156128fd5782518255916020019190600101906128e2565b5b50905061290b919061290f565b5090565b5b80821115612928576000816000905550600101612910565b5090565b6000604051905090565b600080fd5b600080fd5b600073ffffffffffffffffffffffffffffffffffffffff82169050919050565b600061296b82612940565b9050919050565b61297b81612960565b811461298657600080fd5b50565b60008135905061299881612972565b92915050565b6000819050919050565b6129b18161299e565b81146129bc57600080fd5b50565b6000813590506129ce816129a8565b92915050565b600080604083850312156129eb576129ea612936565b5b60006129f985828601612989565b9250506020612a0a858286016129bf565b9150509250929050565b612a1d8161299e565b82525050565b6000602082019050612a386000830184612a14565b92915050565b60007fffffffff0000000000000000000000000000000000000000000000000000000082169050919050565b612a7381612a3e565b8114612a7e57600080fd5b50565b600081359050612a9081612a6a565b92915050565b600060208284031215612aac57612aab612936565b5b6000612aba84828501612a81565b91505092915050565b60008115159050919050565b612ad881612ac3565b82525050565b6000602082019050612af36000830184612acf565b92915050565b600080fd5b600080fd5b6000601f19601f8301169050919050565b7f4e487b7100000000000000000000000000000000000000000000000000000000600052604160045260246000fd5b612b4c82612b03565b810181811067ffffffffffffffff82111715612b6b57612b6a612b14565b5b80604052505050565b6000612b7e61292c565b9050612b8a8282612b43565b919050565b600067ffffffffffffffff821115612baa57612ba9612b14565b5b612bb382612b03565b9050602081019050919050565b82818337600083830152505050565b6000612be2612bdd84612b8f565b612b74565b905082815260208101848484011115612bfe57612bfd612afe565b5b612c09848285612bc0565b509392505050565b600082601f830112612c2657612c25612af9565b5b8135612c36848260208601612bcf565b91505092915050565b600060208284031215612c5557612c54612936565b5b600082013567ffffffffffffffff811115612c7357612c7261293b565b5b612c7f84828501612c11565b91505092915050565b600060208284031215612c9e57612c9d612936565b5b6000612cac848285016129bf565b91505092915050565b600081519050919050565b600082825260208201905092915050565b60005b83811015612cef578082015181840152602081019050612cd4565b83811115612cfe576000848401525b50505050565b6000612d0f82612cb5565b612d198185612cc0565b9350612d29818560208601612cd1565b612d3281612b03565b840191505092915050565b60006020820190508181036000830152612d578184612d04565b905092915050565b600067ffffffffffffffff821115612d7a57612d79612b14565b5b602082029050602081019050919050565b600080fd5b6000612da3612d9e84612d5f565b612b74565b90508083825260208201905060208402830185811115612dc657612dc5612d8b565b5b835b81811015612def5780612ddb88826129bf565b845260208401935050602081019050612dc8565b5050509392505050565b600082601f830112612e0e57612e0d612af9565b5b8135612e1e848260208601612d90565b91505092915050565b600067ffffffffffffffff821115612e4257612e41612b14565b5b612e4b82612b03565b9050602081019050919050565b6000612e6b612e6684612e27565b612b74565b905082815260208101848484011115612e8757612e86612afe565b5b612e92848285612bc0565b509392505050565b600082601f830112612eaf57612eae612af9565b5b8135612ebf848260208601612e58565b91505092915050565b60008060008060808587031215612ee257612ee1612936565b5b6000612ef087828801612989565b945050602085013567ffffffffffffffff811115612f1157612f1061293b565b5b612f1d87828801612df9565b935050604085013567ffffffffffffffff811115612f3e57612f3d61293b565b5b612f4a87828801612df9565b925050606085013567ffffffffffffffff811115612f6b57612f6a61293b565b5b612f7787828801612e9a565b91505092959194509250565b600080600080600060a08688031215612f9f57612f9e612936565b5b6000612fad88828901612989565b9550506020612fbe88828901612989565b945050604086013567ffffffffffffffff811115612fdf57612fde61293b565b5b612feb88828901612df9565b935050606086013567ffffffffffffffff81111561300c5761300b61293b565b5b61301888828901612df9565b925050608086013567ffffffffffffffff8111156130395761303861293b565b5b61304588828901612e9a565b9150509295509295909350565b600067ffffffffffffffff82111561306d5761306c612b14565b5b602082029050602081019050919050565b600061309161308c84613052565b612b74565b905080838252602082019050602084028301858111156130b4576130b3612d8b565b5b835b818110156130dd57806130c98882612989565b8452602084019350506020810190506130b6565b5050509392505050565b600082601f8301126130fc576130fb612af9565b5b813561310c84826020860161307e565b91505092915050565b6000806040838503121561312c5761312b612936565b5b600083013567ffffffffffffffff81111561314a5761314961293b565b5b613156858286016130e7565b925050602083013567ffffffffffffffff8111156131775761317661293b565b5b61318385828601612df9565b9150509250929050565b600081519050919050565b600082825260208201905092915050565b6000819050602082019050919050565b6131c28161299e565b82525050565b60006131d483836131b9565b60208301905092915050565b6000602082019050919050565b60006131f88261318d565b6132028185613198565b935061320d836131a9565b8060005b8381101561323e57815161322588826131c8565b9750613230836131e0565b925050600181019050613211565b5085935050505092915050565b6000602082019050818103600083015261326581846131ed565b905092915050565b61327681612960565b82525050565b6000602082019050613291600083018461326d565b92915050565b6000806000606084860312156132b0576132af612936565b5b60006132be86828701612989565b935050602084013567ffffffffffffffff8111156132df576132de61293b565b5b6132eb86828701612df9565b925050604084013567ffffffffffffffff81111561330c5761330b61293b565b5b61331886828701612df9565b9150509250925092565b6000806000806080858703121561333c5761333b612936565b5b600061334a87828801612989565b945050602061335b878288016129bf565b935050604061336c878288016129bf565b925050606085013567ffffffffffffffff81111561338d5761338c61293b565b5b61339987828801612e9a565b91505092959194509250565b6133ae81612ac3565b81146133b957600080fd5b50565b6000813590506133cb816133a5565b92915050565b600080604083850312156133e8576133e7612936565b5b60006133f685828601612989565b9250506020613407858286016133bc565b9150509250929050565b6000806040838503121561342857613427612936565b5b600061343685828601612989565b925050602061344785828601612989565b9150509250929050565b600080600080600060a0868803121561346d5761346c612936565b5b600061347b88828901612989565b955050602061348c88828901612989565b945050604061349d888289016129bf565b93505060606134ae888289016129bf565b925050608086013567ffffffffffffffff8111156134cf576134ce61293b565b5b6134db88828901612e9a565b9150509295509295909350565b6000602082840312156134fe576134fd612936565b5b600061350c84828501612989565b91505092915050565b60008060006060848603121561352e5761352d612936565b5b600061353c86828701612989565b935050602061354d868287016129bf565b925050604061355e868287016129bf565b9150509250925092565b7f455243313135353a2062616c616e636520717565727920666f7220746865207a60008201527f65726f2061646472657373000000000000000000000000000000000000000000602082015250565b60006135c4602b83612cc0565b91506135cf82613568565b604082019050919050565b600060208201905081810360008301526135f3816135b7565b9050919050565b7f4f776e61626c653a2063616c6c6572206973206e6f7420746865206f776e6572600082015250565b6000613630602083612cc0565b915061363b826135fa565b602082019050919050565b6000602082019050818103600083015261365f81613623565b9050919050565b600081905092915050565b600061367c82612cb5565b6136868185613666565b9350613696818560208601612cd1565b80840191505092915050565b7f2e6a736f6e000000000000000000000000000000000000000000000000000000600082015250565b60006136d8600583613666565b91506136e3826136a2565b600582019050919050565b60006136fa8285613671565b91506137068284613671565b9150613711826136cb565b91508190509392505050565b7f455243313135353a207472616e736665722063616c6c6572206973206e6f742060008201527f6f776e6572206e6f7220617070726f7665640000000000000000000000000000602082015250565b6000613779603283612cc0565b91506137848261371d565b604082019050919050565b600060208201905081810360008301526137a88161376c565b9050919050565b7f455243313135353a206163636f756e747320616e6420696473206c656e67746860008201527f206d69736d617463680000000000000000000000000000000000000000000000602082015250565b600061380b602983612cc0565b9150613816826137af565b604082019050919050565b6000602082019050818103600083015261383a816137fe565b9050919050565b7f4e487b7100000000000000000000000000000000000000000000000000000000600052603260045260246000fd5b7f4e487b7100000000000000000000000000000000000000000000000000000000600052601160045260246000fd5b60006138aa8261299e565b91507fffffffffffffffffffffffffffffffffffffffffffffffffffffffffffffffff8214156138dd576138dc613870565b5b600182019050919050565b7f455243313135353a2063616c6c6572206973206e6f74206f776e6572206e6f7260008201527f20617070726f7665640000000000000000000000000000000000000000000000602082015250565b6000613944602983612cc0565b915061394f826138e8565b604082019050919050565b6000602082019050818103600083015261397381613937565b9050919050565b7f556e617661696c61626c65204f7074696f6e0000000000000000000000000000600082015250565b60006139b0601283612cc0565b91506139bb8261397a565b602082019050919050565b600060208201905081810360008301526139df816139a3565b9050919050565b6000819050919050565b6000819050919050565b6000613a15613a10613a0b846139e6565b6139f0565b61299e565b9050919050565b613a25816139fa565b82525050565b600082825260208201905092915050565b7f3078303000000000000000000000000000000000000000000000000000000000600082015250565b6000613a72600483613a2b565b9150613a7d82613a3c565b602082019050919050565b6000608082019050613a9d600083018661326d565b613aaa6020830185612a14565b613ab76040830184613a1c565b8181036060830152613ac881613a65565b9050949350505050565b6000613add8261299e565b9150613ae88361299e565b9250827fffffffffffffffffffffffffffffffffffffffffffffffffffffffffffffffff03821115613b1d57613b1c613870565b5b828201905092915050565b6000604082019050613b3d6000830185612a14565b613b4a6020830184612a14565b9392505050565b7f4f776e61626c653a206e6577206f776e657220697320746865207a65726f206160008201527f6464726573730000000000000000000000000000000000000000000000000000602082015250565b6000613bad602683612cc0565b9150613bb882613b51565b604082019050919050565b60006020820190508181036000830152613bdc81613ba0565b9050919050565b7f4e487b7100000000000000000000000000000000000000000000000000000000600052601260045260246000fd5b6000613c1d8261299e565b9150613c288361299e565b925082613c3857613c37613be3565b5b828204905092915050565b6000613c4e8261299e565b9150613c598361299e565b925082821015613c6c57613c6b613870565b5b828203905092915050565b6000613c828261299e565b9150613c8d8361299e565b925082613c9d57613c9c613be3565b5b828206905092915050565b7f455243313135353a206d696e7420746f20746865207a65726f2061646472657360008201527f7300000000000000000000000000000000000000000000000000000000000000602082015250565b6000613d04602183612cc0565b9150613d0f82613ca8565b604082019050919050565b60006020820190508181036000830152613d3381613cf7565b9050919050565b7f455243313135353a2069647320616e6420616d6f756e7473206c656e6774682060008201527f6d69736d61746368000000000000000000000000000000000000000000000000602082015250565b6000613d96602883612cc0565b9150613da182613d3a565b604082019050919050565b60006020820190508181036000830152613dc581613d89565b9050919050565b60006040820190508181036000830152613de681856131ed565b90508181036020830152613dfa81846131ed565b90509392505050565b7f455243313135353a207472616e7366657220746f20746865207a65726f20616460008201527f6472657373000000000000000000000000000000000000000000000000000000602082015250565b6000613e5f602583612cc0565b9150613e6a82613e03565b604082019050919050565b60006020820190508181036000830152613e8e81613e52565b9050919050565b7f455243313135353a20696e73756666696369656e742062616c616e636520666f60008201527f72207472616e7366657200000000000000000000000000000000000000000000602082015250565b6000613ef1602a83612cc0565b9150613efc82613e95565b604082019050919050565b60006020820190508181036000830152613f2081613ee4565b9050919050565b7f5061757361626c653a206e6f7420706175736564000000000000000000000000600082015250565b6000613f5d601483612cc0565b9150613f6882613f27565b602082019050919050565b60006020820190508181036000830152613f8c81613f50565b9050919050565b7f455243313135353a206275726e2066726f6d20746865207a65726f206164647260008201527f6573730000000000000000000000000000000000000000000000000000000000602082015250565b6000613fef602383612cc0565b9150613ffa82613f93565b604082019050919050565b6000602082019050818103600083015261401e81613fe2565b9050919050565b7f455243313135353a206275726e20616d6f756e7420657863656564732062616c60008201527f616e636500000000000000000000000000000000000000000000000000000000602082015250565b6000614081602483612cc0565b915061408c82614025565b604082019050919050565b600060208201905081810360008301526140b081614074565b9050919050565b7f5061757361626c653a2070617573656400000000000000000000000000000000600082015250565b60006140ed601083612cc0565b91506140f8826140b7565b602082019050919050565b6000602082019050818103600083015261411c816140e0565b9050919050565b7f455243313135353a2073657474696e6720617070726f76616c2073746174757360008201527f20666f722073656c660000000000000000000000000000000000000000000000602082015250565b600061417f602983612cc0565b915061418a82614123565b604082019050919050565b600060208201905081810360008301526141ae81614172565b9050919050565b600081519050919050565b60006141cb826141b5565b6141d58185613a2b565b93506141e5818560208601612cd1565b6141ee81612b03565b840191505092915050565b600060a08201905061420e600083018861326d565b61421b602083018761326d565b818103604083015261422d81866131ed565b9050818103606083015261424181856131ed565b9050818103608083015261425581846141c0565b90509695505050505050565b60008151905061427081612a6a565b92915050565b60006020828403121561428c5761428b612936565b5b600061429a84828501614261565b91505092915050565b60008160e01c9050919050565b600060033d11156142cf5760046000803e6142cc6000516142a3565b90505b90565b600060443d10156142e257614365565b6142ea61292c565b60043d036004823e80513d602482011167ffffffffffffffff82111715614312575050614365565b808201805167ffffffffffffffff8111156143305750505050614365565b80602083010160043d03850181111561434d575050505050614365565b61435c82602001850186612b43565b82955050505050505b90565b7f455243313135353a207472616e7366657220746f206e6f6e204552433131353560008201527f526563656976657220696d706c656d656e746572000000000000000000000000602082015250565b60006143c4603483612cc0565b91506143cf82614368565b604082019050919050565b600060208201905081810360008301526143f3816143b7565b9050919050565b7f455243313135353a204552433131353552656365697665722072656a6563746560008201527f6420746f6b656e73000000000000000000000000000000000000000000000000602082015250565b6000614456602883612cc0565b9150614461826143fa565b604082019050919050565b6000602082019050818103600083015261448581614449565b9050919050565b600060a0820190506144a1600083018861326d565b6144ae602083018761326d565b6144bb6040830186612a14565b6144c86060830185612a14565b81810360808301526144da81846141c0565b90509695505050505050565b7f4e487b7100000000000000000000000000000000000000000000000000000000600052602260045260246000fd5b6000600282049050600182168061452d57607f821691505b60208210811415614541576145406144e6565b5b5091905056fea2646970667358221220ff3f85c9dd5af2a5f15868d811f200936913fb4174603531ec29d0eb5407dd8764736f6c6343000809003368747470733a2f2f6173736574732e686265617374732e636f6d2f656767732f7b69647d",
  "immutableReferences": {},
  "source": "// SPDX-License-Identifier: MIT\n\npragma solidity >=0.4.22 <0.9.0;\n\nimport \"./HatchingEgg.sol\";\nimport \"./ERC1155SupplyForOwner.sol\";\n\nimport \"@openzeppelin/contracts/token/ERC1155/ERC1155.sol\";\nimport \"@openzeppelin/contracts/access/Ownable.sol\";\nimport \"@openzeppelin/contracts/security/Pausable.sol\";\nimport \"@openzeppelin/contracts/token/ERC1155/extensions/ERC1155Burnable.sol\";\n\ncontract Egg is\n    ERC1155,\n    Ownable,\n    Pausable,\n    ERC1155Burnable,\n    ERC1155SupplyForOwner\n{\n    address public nftAddress; // Hatching egg address\n\n    enum Colors {\n        RED,\n        GREEN,\n        YELLOW,\n        BLUE\n    }\n\n    event EggHatched(\n        address indexed to,\n        uint256 optionId,\n        uint256 readyTimestamp\n    );\n\n    uint256 public constant NUM_OPTIONS = 4;\n    uint256 private delay;\n    string constant URI_PREFIX = \"https://assets.hbeasts.com/eggs/\";\n\n    constructor(address _nftAddress, uint256 _delay)\n        ERC1155(\"https://assets.hbeasts.com/eggs/{id}\")\n    {\n        nftAddress = _nftAddress;\n        delay = _delay;\n    }\n\n    function uri(uint256 _tokenId)\n        public\n        pure\n        override\n        returns (string memory)\n    {\n        return\n            string(\n                abi.encodePacked(\n                    URI_PREFIX,\n                    Strings.toString(_tokenId),\n                    \".json\"\n                )\n            );\n    }\n\n    function setURI(string memory newuri) public onlyOwner {\n        _setURI(newuri);\n    }\n\n    function pause() public onlyOwner {\n        _pause();\n    }\n\n    function unpause() public onlyOwner {\n        _unpause();\n    }\n\n    function numOptions() public pure override returns (uint256) {\n        return NUM_OPTIONS;\n    }\n\n    function hatch(uint256 _optionId) public {\n        _burn(msg.sender, _optionId, 1);\n        HatchingEgg hatching = HatchingEgg(nftAddress);\n        hatching.mint(msg.sender, _optionId, 1, \"0x00\");\n        emit EggHatched(msg.sender, _optionId, block.timestamp + delay);\n    }\n\n    function mint(\n        address account,\n        uint256 id,\n        uint256 amount,\n        bytes memory data\n    ) public onlyOwner {\n        require(id < NUM_OPTIONS, \"Unavailable Option\");\n        _mint(account, id, amount, data);\n    }\n\n    function mintBatch(\n        address to,\n        uint256[] memory ids,\n        uint256[] memory amounts,\n        bytes memory data\n    ) public onlyOwner {\n        _mintBatch(to, ids, amounts, data);\n    }\n\n    function _beforeTokenTransfer(\n        address operator,\n        address from,\n        address to,\n        uint256[] memory ids,\n        uint256[] memory amounts,\n        bytes memory data\n    ) internal override(ERC1155) whenNotPaused {\n        super._beforeTokenTransfer(operator, from, to, ids, amounts, data);\n    }\n}\n",
  "sourcePath": "/home/isaiah/codes/NFT/contract/legendofbeasts/contracts/Egg.sol",
  "compiler": {
    "name": "solc",
    "version": "0.8.9+commit.e5eed63a.Emscripten.clang"
  },
  "schemaVersion": "3.4.3",
  "updatedAt": "2022-01-12T14:28:47.987Z",
  "networkType": "ethereum",
  "devdoc": {
    "kind": "dev",
    "methods": {
      "balanceOf(address,uint256)": {
        "details": "See {IERC1155-balanceOf}. Requirements: - `account` cannot be the zero address."
      },
      "balanceOfBatch(address[],uint256[])": {
        "details": "See {IERC1155-balanceOfBatch}. Requirements: - `accounts` and `ids` must have the same length."
      },
      "isApprovedForAll(address,address)": {
        "details": "See {IERC1155-isApprovedForAll}."
      },
      "owner()": {
        "details": "Returns the address of the current owner."
      },
      "paused()": {
        "details": "Returns true if the contract is paused, and false otherwise."
      },
      "renounceOwnership()": {
        "details": "Leaves the contract without owner. It will not be possible to call `onlyOwner` functions anymore. Can only be called by the current owner. NOTE: Renouncing ownership will leave the contract without an owner, thereby removing any functionality that is only available to the owner."
      },
      "safeBatchTransferFrom(address,address,uint256[],uint256[],bytes)": {
        "details": "See {IERC1155-safeBatchTransferFrom}."
      },
      "safeTransferFrom(address,address,uint256,uint256,bytes)": {
        "details": "See {IERC1155-safeTransferFrom}."
      },
      "setApprovalForAll(address,bool)": {
        "details": "See {IERC1155-setApprovalForAll}."
      },
      "supportsInterface(bytes4)": {
        "details": "See {IERC165-supportsInterface}."
      },
      "transferOwnership(address)": {
        "details": "Transfers ownership of the contract to a new account (`newOwner`). Can only be called by the current owner."
      }
    },
    "version": 1
  },
  "userdoc": {
    "kind": "user",
    "methods": {},
    "version": 1
  }
}