{
  "contractName": "EggFactory",
  "abi": [
    {
      "inputs": [
        {
          "internalType": "address",
          "name": "_nftAddress",
          "type": "address"
        },
        {
          "internalType": "uint256",
          "name": "_numOptions",
          "type": "uint256"
        }
      ],
      "stateMutability": "nonpayable",
      "type": "constructor"
    },
    {
      "inputs": [],
      "name": "name",
      "outputs": [
        {
          "internalType": "string",
          "name": "",
          "type": "string"
        }
      ],
      "stateMutability": "pure",
      "type": "function"
    },
    {
      "inputs": [],
      "name": "symbol",
      "outputs": [
        {
          "internalType": "string",
          "name": "",
          "type": "string"
        }
      ],
      "stateMutability": "pure",
      "type": "function"
    },
    {
      "inputs": [
        {
          "internalType": "uint256",
          "name": "_optionId",
          "type": "uint256"
        },
        {
          "internalType": "address",
          "name": "_account",
          "type": "address"
        }
      ],
      "name": "canMint",
      "outputs": [
        {
          "internalType": "bool",
          "name": "",
          "type": "bool"
        }
      ],
      "stateMutability": "view",
      "type": "function"
    },
    {
      "inputs": [
        {
          "internalType": "address",
          "name": "_owner",
          "type": "address"
        }
      ],
      "name": "balanceOf",
      "outputs": [
        {
          "internalType": "uint256",
          "name": "",
          "type": "uint256"
        }
      ],
      "stateMutability": "view",
      "type": "function"
    },
    {
      "inputs": [
        {
          "internalType": "address",
          "name": "_to",
          "type": "address"
        }
      ],
      "name": "mintTo",
      "outputs": [],
      "stateMutability": "nonpayable",
      "type": "function"
    }
  ],
  "bytecode": "0x608060405234801561001057600080fd5b50604051610aac380380610aac83398181016040528101906100329190610121565b81600160006101000a81548173ffffffffffffffffffffffffffffffffffffffff021916908373ffffffffffffffffffffffffffffffffffffffff16021790555080600281905550806003819055505050610161565b600080fd5b600073ffffffffffffffffffffffffffffffffffffffff82169050919050565b60006100b88261008d565b9050919050565b6100c8816100ad565b81146100d357600080fd5b50565b6000815190506100e5816100bf565b92915050565b6000819050919050565b6100fe816100eb565b811461010957600080fd5b50565b60008151905061011b816100f5565b92915050565b6000806040838503121561013857610137610088565b5b6000610146858286016100d6565b92505060206101578582860161010c565b9150509250929050565b61093c806101706000396000f3fe608060405234801561001057600080fd5b50600436106100575760003560e01c806306fdde031461005c57806370a082311461007a578063755edd17146100aa5780638f4e76b9146100c657806395d89b41146100f6575b600080fd5b610064610114565b604051610071919061045d565b60405180910390f35b610094600480360381019061008f91906104e2565b610151565b6040516100a19190610528565b60405180910390f35b6100c460048036038101906100bf91906104e2565b61019a565b005b6100e060048036038101906100db919061056f565b6102dd565b6040516100ed91906105ca565b60405180910390f35b6100fe610337565b60405161010b919061045d565b60405180910390f35b60606040518060400160405280600e81526020017f4c4f422045676720666175636574000000000000000000000000000000000000815250905090565b6000600460008373ffffffffffffffffffffffffffffffffffffffff1673ffffffffffffffffffffffffffffffffffffffff168152602001908152602001600020549050919050565b60006002546101a7610374565b6101b19190610614565b90506101bd81836102dd565b6101fc576040517f08c379a00000000000000000000000000000000000000000000000000000000081526004016101f3906106b7565b60405180910390fd5b6001600460003373ffffffffffffffffffffffffffffffffffffffff1673ffffffffffffffffffffffffffffffffffffffff168152602001908152602001600020819055506000600160009054906101000a900473ffffffffffffffffffffffffffffffffffffffff1690508073ffffffffffffffffffffffffffffffffffffffff1663731133e9848460016040518463ffffffff1660e01b81526004016102a693929190610788565b600060405180830381600087803b1580156102c057600080fd5b505af11580156102d4573d6000803e3d6000fd5b50505050505050565b60006002548310801561032f57506000600460008473ffffffffffffffffffffffffffffffffffffffff1673ffffffffffffffffffffffffffffffffffffffff16815260200190815260200160002054145b905092915050565b60606040518060400160405280600481526020017f4c4f424500000000000000000000000000000000000000000000000000000000815250905090565b6000806001436103849190610801565b403360005460405160200161039b939291906108c9565b6040516020818303038152906040528051906020012060001c9050806000819055508091505090565b600081519050919050565b600082825260208201905092915050565b60005b838110156103fe5780820151818401526020810190506103e3565b8381111561040d576000848401525b50505050565b6000601f19601f8301169050919050565b600061042f826103c4565b61043981856103cf565b93506104498185602086016103e0565b61045281610413565b840191505092915050565b600060208201905081810360008301526104778184610424565b905092915050565b600080fd5b600073ffffffffffffffffffffffffffffffffffffffff82169050919050565b60006104af82610484565b9050919050565b6104bf816104a4565b81146104ca57600080fd5b50565b6000813590506104dc816104b6565b92915050565b6000602082840312156104f8576104f761047f565b5b6000610506848285016104cd565b91505092915050565b6000819050919050565b6105228161050f565b82525050565b600060208201905061053d6000830184610519565b92915050565b61054c8161050f565b811461055757600080fd5b50565b60008135905061056981610543565b92915050565b600080604083850312156105865761058561047f565b5b60006105948582860161055a565b92505060206105a5858286016104cd565b9150509250929050565b60008115159050919050565b6105c4816105af565b82525050565b60006020820190506105df60008301846105bb565b92915050565b7f4e487b7100000000000000000000000000000000000000000000000000000000600052601260045260246000fd5b600061061f8261050f565b915061062a8361050f565b92508261063a576106396105e5565b5b828206905092915050565b7f416c7265616479206d696e746564206f72206e6f6e2d6578697374206f70746960008201527f6f6e000000000000000000000000000000000000000000000000000000000000602082015250565b60006106a16022836103cf565b91506106ac82610645565b604082019050919050565b600060208201905081810360008301526106d081610694565b9050919050565b6106e0816104a4565b82525050565b6000819050919050565b6000819050919050565b600061071561071061070b846106e6565b6106f0565b61050f565b9050919050565b610725816106fa565b82525050565b600082825260208201905092915050565b7f3078300000000000000000000000000000000000000000000000000000000000600082015250565b600061077260038361072b565b915061077d8261073c565b602082019050919050565b600060808201905061079d60008301866106d7565b6107aa6020830185610519565b6107b7604083018461071c565b81810360608301526107c881610765565b9050949350505050565b7f4e487b7100000000000000000000000000000000000000000000000000000000600052601160045260246000fd5b600061080c8261050f565b91506108178361050f565b92508282101561082a576108296107d2565b5b828203905092915050565b6000819050919050565b6000819050919050565b61085a61085582610835565b61083f565b82525050565b60008160601b9050919050565b600061087882610860565b9050919050565b600061088a8261086d565b9050919050565b6108a261089d826104a4565b61087f565b82525050565b6000819050919050565b6108c36108be8261050f565b6108a8565b82525050565b60006108d58286610849565b6020820191506108e58285610891565b6014820191506108f582846108b2565b60208201915081905094935050505056fea2646970667358221220e517cc3a0800a970a99ccb782ae9314864f65896cec6c0928684ea73647e584664736f6c63430008090033",
  "immutableReferences": {},
  "source": "// SPDX-License-Identifier: MIT\npragma solidity >=0.4.22 <0.9.0;\n\nimport \"./interfaces/IERC1155Factory.sol\";\nimport \"./utils/RNG.sol\";\nimport \"./Egg.sol\";\n\ncontract EggFactory is IERC1155Factory, RNG {\n    address private nftAddress;\n    uint256 private numOptions;\n    uint256 private seed;\n    mapping(address => uint256) mintedAddresses;\n\n    constructor(address _nftAddress, uint256 _numOptions) {\n        nftAddress = _nftAddress;\n        numOptions = _numOptions;\n        seed = _numOptions;\n    }\n\n    function name() external pure returns (string memory) {\n        return \"LOB Egg faucet\";\n    }\n\n    function symbol() external pure returns (string memory) {\n        return \"LOBE\";\n    }\n\n    function canMint(uint256 _optionId, address _account)\n        public\n        view\n        override\n        returns (bool)\n    {\n        return _optionId < numOptions && mintedAddresses[_account] == 0;\n    }\n\n    function balanceOf(address _owner) public view override returns (uint256) {\n        return mintedAddresses[_owner];\n    }\n\n    function mintTo(address _to) public override {\n        uint256 _optionId = _random() % numOptions;\n        require(canMint(_optionId, _to), \"Already minted or non-exist option\");\n        mintedAddresses[msg.sender] = 1;\n        Egg egg = Egg(nftAddress);\n        egg.mint(_to, _optionId, 1, \"0x0\");\n    }\n}\n",
  "sourcePath": "/home/isaiah/codes/NFT/contract/legendofbeasts/contracts/EggFactory.sol",
  "compiler": {
    "name": "solc",
    "version": "0.8.9+commit.e5eed63a.Emscripten.clang"
  },
  "schemaVersion": "3.4.3",
  "updatedAt": "2022-01-11T09:12:17.505Z",
  "devdoc": {
    "kind": "dev",
    "methods": {},
    "version": 1
  },
  "userdoc": {
    "kind": "user",
    "methods": {},
    "version": 1
  }
}