{
  "contractName": "EggFactory",
  "abi": [
    {
      "inputs": [
        {
          "internalType": "address",
          "name": "_nftAddress",
          "type": "address"
        },
        {
          "internalType": "uint256",
          "name": "_numOptions",
          "type": "uint256"
        }
      ],
      "stateMutability": "nonpayable",
      "type": "constructor"
    },
    {
      "inputs": [],
      "name": "name",
      "outputs": [
        {
          "internalType": "string",
          "name": "",
          "type": "string"
        }
      ],
      "stateMutability": "pure",
      "type": "function",
      "constant": true
    },
    {
      "inputs": [],
      "name": "symbol",
      "outputs": [
        {
          "internalType": "string",
          "name": "",
          "type": "string"
        }
      ],
      "stateMutability": "pure",
      "type": "function",
      "constant": true
    },
    {
      "inputs": [
        {
          "internalType": "uint256",
          "name": "_optionId",
          "type": "uint256"
        },
        {
          "internalType": "address",
          "name": "_account",
          "type": "address"
        }
      ],
      "name": "canMint",
      "outputs": [
        {
          "internalType": "bool",
          "name": "",
          "type": "bool"
        }
      ],
      "stateMutability": "view",
      "type": "function",
      "constant": true
    },
    {
      "inputs": [
        {
          "internalType": "address",
          "name": "_owner",
          "type": "address"
        }
      ],
      "name": "balanceOf",
      "outputs": [
        {
          "internalType": "uint256",
          "name": "",
          "type": "uint256"
        }
      ],
      "stateMutability": "view",
      "type": "function",
      "constant": true
    },
    {
      "inputs": [
        {
          "internalType": "address",
          "name": "_to",
          "type": "address"
        }
      ],
      "name": "mintTo",
      "outputs": [],
      "stateMutability": "nonpayable",
      "type": "function"
    }
  ],
  "bytecode": "0x608060405234801561001057600080fd5b50604051610aa5380380610aa583398181016040528101906100329190610120565b816000806101000a81548173ffffffffffffffffffffffffffffffffffffffff021916908373ffffffffffffffffffffffffffffffffffffffff16021790555080600181905550806002819055505050610160565b600080fd5b600073ffffffffffffffffffffffffffffffffffffffff82169050919050565b60006100b78261008c565b9050919050565b6100c7816100ac565b81146100d257600080fd5b50565b6000815190506100e4816100be565b92915050565b6000819050919050565b6100fd816100ea565b811461010857600080fd5b50565b60008151905061011a816100f4565b92915050565b6000806040838503121561013757610136610087565b5b6000610145858286016100d5565b92505060206101568582860161010b565b9150509250929050565b6109368061016f6000396000f3fe608060405234801561001057600080fd5b50600436106100575760003560e01c806306fdde031461005c57806370a082311461007a578063755edd17146100aa5780638f4e76b9146100c657806395d89b41146100f6575b600080fd5b610064610114565b6040516100719190610457565b60405180910390f35b610094600480360381019061008f91906104dc565b610151565b6040516100a19190610522565b60405180910390f35b6100c460048036038101906100bf91906104dc565b61019a565b005b6100e060048036038101906100db9190610569565b6102dc565b6040516100ed91906105c4565b60405180910390f35b6100fe610336565b60405161010b9190610457565b60405180910390f35b60606040518060400160405280600e81526020017f4c4f422045676720666175636574000000000000000000000000000000000000815250905090565b6000600360008373ffffffffffffffffffffffffffffffffffffffff1673ffffffffffffffffffffffffffffffffffffffff168152602001908152602001600020549050919050565b60006001546101a7610373565b6101b1919061060e565b90506101bd81836102dc565b6101fc576040517f08c379a00000000000000000000000000000000000000000000000000000000081526004016101f3906106b1565b60405180910390fd5b6001600360003373ffffffffffffffffffffffffffffffffffffffff1673ffffffffffffffffffffffffffffffffffffffff1681526020019081526020016000208190555060008060009054906101000a900473ffffffffffffffffffffffffffffffffffffffff1690508073ffffffffffffffffffffffffffffffffffffffff1663731133e9848460016040518463ffffffff1660e01b81526004016102a593929190610782565b600060405180830381600087803b1580156102bf57600080fd5b505af11580156102d3573d6000803e3d6000fd5b50505050505050565b60006001548310801561032e57506000600360008473ffffffffffffffffffffffffffffffffffffffff1673ffffffffffffffffffffffffffffffffffffffff16815260200190815260200160002054145b905092915050565b60606040518060400160405280600481526020017f4c4f424500000000000000000000000000000000000000000000000000000000815250905090565b600060014361038291906107fb565b4033600254604051602001610399939291906108c3565b6040516020818303038152906040528051906020012060001c90508060028190555090565b600081519050919050565b600082825260208201905092915050565b60005b838110156103f85780820151818401526020810190506103dd565b83811115610407576000848401525b50505050565b6000601f19601f8301169050919050565b6000610429826103be565b61043381856103c9565b93506104438185602086016103da565b61044c8161040d565b840191505092915050565b60006020820190508181036000830152610471818461041e565b905092915050565b600080fd5b600073ffffffffffffffffffffffffffffffffffffffff82169050919050565b60006104a98261047e565b9050919050565b6104b98161049e565b81146104c457600080fd5b50565b6000813590506104d6816104b0565b92915050565b6000602082840312156104f2576104f1610479565b5b6000610500848285016104c7565b91505092915050565b6000819050919050565b61051c81610509565b82525050565b60006020820190506105376000830184610513565b92915050565b61054681610509565b811461055157600080fd5b50565b6000813590506105638161053d565b92915050565b600080604083850312156105805761057f610479565b5b600061058e85828601610554565b925050602061059f858286016104c7565b9150509250929050565b60008115159050919050565b6105be816105a9565b82525050565b60006020820190506105d960008301846105b5565b92915050565b7f4e487b7100000000000000000000000000000000000000000000000000000000600052601260045260246000fd5b600061061982610509565b915061062483610509565b925082610634576106336105df565b5b828206905092915050565b7f416c7265616479206d696e746564206f72206e6f6e2d6578697374206f70746960008201527f6f6e000000000000000000000000000000000000000000000000000000000000602082015250565b600061069b6022836103c9565b91506106a68261063f565b604082019050919050565b600060208201905081810360008301526106ca8161068e565b9050919050565b6106da8161049e565b82525050565b6000819050919050565b6000819050919050565b600061070f61070a610705846106e0565b6106ea565b610509565b9050919050565b61071f816106f4565b82525050565b600082825260208201905092915050565b7f3078300000000000000000000000000000000000000000000000000000000000600082015250565b600061076c600383610725565b915061077782610736565b602082019050919050565b600060808201905061079760008301866106d1565b6107a46020830185610513565b6107b16040830184610716565b81810360608301526107c28161075f565b9050949350505050565b7f4e487b7100000000000000000000000000000000000000000000000000000000600052601160045260246000fd5b600061080682610509565b915061081183610509565b925082821015610824576108236107cc565b5b828203905092915050565b6000819050919050565b6000819050919050565b61085461084f8261082f565b610839565b82525050565b60008160601b9050919050565b60006108728261085a565b9050919050565b600061088482610867565b9050919050565b61089c6108978261049e565b610879565b82525050565b6000819050919050565b6108bd6108b882610509565b6108a2565b82525050565b60006108cf8286610843565b6020820191506108df828561088b565b6014820191506108ef82846108ac565b60208201915081905094935050505056fea2646970667358221220d361b6081806a50072366f9402a1114039f7bc54984cee482f777339b709dc8c64736f6c63430008090033",
  "immutableReferences": {},
  "source": "// SPDX-License-Identifier: MIT\npragma solidity >=0.4.22 <0.9.0;\n\nimport \"./IERC1155Factory.sol\";\nimport \"./Egg.sol\";\n\ncontract EggFactory is IERC1155Factory {\n    address private nftAddress;\n    uint256 private numOptions;\n    uint256 private seed;\n    mapping(address => uint256) mintedAddresses;\n\n    constructor(address _nftAddress, uint256 _numOptions) {\n        nftAddress = _nftAddress;\n        numOptions = _numOptions;\n        seed = _numOptions;\n    }\n\n    function name() external pure returns (string memory) {\n        return \"LOB Egg faucet\";\n    }\n\n    function symbol() external pure returns (string memory) {\n        return \"LOBE\";\n    }\n\n    function canMint(uint256 _optionId, address _account)\n        public\n        view\n        override\n        returns (bool)\n    {\n        return _optionId < numOptions && mintedAddresses[_account] == 0;\n    }\n\n    function balanceOf(address _owner) public view override returns (uint256) {\n        return mintedAddresses[_owner];\n    }\n\n    function mintTo(address _to) public override {\n        uint256 _optionId = _random() % numOptions;\n        require(canMint(_optionId, _to), \"Already minted or non-exist option\");\n        mintedAddresses[msg.sender] = 1;\n        Egg egg = Egg(nftAddress);\n        egg.mint(_to, _optionId, 1, \"0x0\");\n    }\n\n    function _random() internal returns (uint256 randomNumber) {\n        randomNumber = uint256(\n            keccak256(\n                abi.encodePacked(blockhash(block.number - 1), msg.sender, seed)\n            )\n        );\n        seed = randomNumber;\n    }\n}\n",
  "sourcePath": "/home/isaiah/codes/NFT/contract/legendofbeasts/contracts/EggFactory.sol",
  "compiler": {
    "name": "solc",
    "version": "0.8.9+commit.e5eed63a.Emscripten.clang"
  },
  "schemaVersion": "3.4.3",
  "updatedAt": "2022-01-06T12:19:22.071Z",
  "networkType": "ethereum",
  "devdoc": {
    "kind": "dev",
    "methods": {},
    "version": 1
  },
  "userdoc": {
    "kind": "user",
    "methods": {},
    "version": 1
  }
}