{
  "contractName": "EggFactory",
  "abi": [
    {
      "inputs": [
        {
          "internalType": "address",
          "name": "_nftAddress",
          "type": "address"
        },
        {
          "internalType": "uint256",
          "name": "_numOptions",
          "type": "uint256"
        }
      ],
      "stateMutability": "nonpayable",
      "type": "constructor"
    },
    {
      "anonymous": false,
      "inputs": [
        {
          "indexed": true,
          "internalType": "address",
          "name": "previousOwner",
          "type": "address"
        },
        {
          "indexed": true,
          "internalType": "address",
          "name": "newOwner",
          "type": "address"
        }
      ],
      "name": "OwnershipTransferred",
      "type": "event"
    },
    {
      "inputs": [],
      "name": "owner",
      "outputs": [
        {
          "internalType": "address",
          "name": "",
          "type": "address"
        }
      ],
      "stateMutability": "view",
      "type": "function",
      "constant": true
    },
    {
      "inputs": [],
      "name": "renounceOwnership",
      "outputs": [],
      "stateMutability": "nonpayable",
      "type": "function"
    },
    {
      "inputs": [
        {
          "internalType": "address",
          "name": "newOwner",
          "type": "address"
        }
      ],
      "name": "transferOwnership",
      "outputs": [],
      "stateMutability": "nonpayable",
      "type": "function"
    },
    {
      "inputs": [],
      "name": "name",
      "outputs": [
        {
          "internalType": "string",
          "name": "",
          "type": "string"
        }
      ],
      "stateMutability": "pure",
      "type": "function",
      "constant": true
    },
    {
      "inputs": [],
      "name": "symbol",
      "outputs": [
        {
          "internalType": "string",
          "name": "",
          "type": "string"
        }
      ],
      "stateMutability": "pure",
      "type": "function",
      "constant": true
    },
    {
      "inputs": [
        {
          "internalType": "uint256",
          "name": "_optionId",
          "type": "uint256"
        },
        {
          "internalType": "address",
          "name": "_account",
          "type": "address"
        }
      ],
      "name": "canMint",
      "outputs": [
        {
          "internalType": "bool",
          "name": "",
          "type": "bool"
        }
      ],
      "stateMutability": "view",
      "type": "function",
      "constant": true
    },
    {
      "inputs": [
        {
          "internalType": "address",
          "name": "_owner",
          "type": "address"
        }
      ],
      "name": "balanceOf",
      "outputs": [
        {
          "internalType": "uint256",
          "name": "",
          "type": "uint256"
        }
      ],
      "stateMutability": "view",
      "type": "function",
      "constant": true
    },
    {
      "inputs": [
        {
          "internalType": "uint256",
          "name": "",
          "type": "uint256"
        },
        {
          "internalType": "address",
          "name": "_to",
          "type": "address"
        },
        {
          "internalType": "uint256",
          "name": "_amount",
          "type": "uint256"
        },
        {
          "internalType": "bytes",
          "name": "data",
          "type": "bytes"
        }
      ],
      "name": "mint",
      "outputs": [],
      "stateMutability": "nonpayable",
      "type": "function"
    },
    {
      "inputs": [
        {
          "internalType": "address",
          "name": "_to",
          "type": "address"
        }
      ],
      "name": "mintTo",
      "outputs": [],
      "stateMutability": "nonpayable",
      "type": "function"
    }
  ],
  "bytecode": "0x60806040523480156200001157600080fd5b506040516200136d3803806200136d833981810160405281019062000037919062000221565b620000576200004b620000ae60201b60201c565b620000b660201b60201c565b81600260006101000a81548173ffffffffffffffffffffffffffffffffffffffff021916908373ffffffffffffffffffffffffffffffffffffffff1602179055508060038190555080600481905550505062000268565b600033905090565b6000600160009054906101000a900473ffffffffffffffffffffffffffffffffffffffff16905081600160006101000a81548173ffffffffffffffffffffffffffffffffffffffff021916908373ffffffffffffffffffffffffffffffffffffffff1602179055508173ffffffffffffffffffffffffffffffffffffffff168173ffffffffffffffffffffffffffffffffffffffff167f8be0079c531659141344cd1fd0a4f28419497f9722a3daafe3b4186f6b6457e060405160405180910390a35050565b600080fd5b600073ffffffffffffffffffffffffffffffffffffffff82169050919050565b6000620001ae8262000181565b9050919050565b620001c081620001a1565b8114620001cc57600080fd5b50565b600081519050620001e081620001b5565b92915050565b6000819050919050565b620001fb81620001e6565b81146200020757600080fd5b50565b6000815190506200021b81620001f0565b92915050565b600080604083850312156200023b576200023a6200017c565b5b60006200024b85828601620001cf565b92505060206200025e858286016200020a565b9150509250929050565b6110f580620002786000396000f3fe608060405234801561001057600080fd5b50600436106100935760003560e01c80638da5cb5b116100665780638da5cb5b1461010c5780638f4e76b91461012a57806395d89b411461015a578063c77b66c214610178578063f2fde38b1461019457610093565b806306fdde031461009857806370a08231146100b6578063715018a6146100e6578063755edd17146100f0575b600080fd5b6100a06101b0565b6040516100ad91906108a6565b60405180910390f35b6100d060048036038101906100cb919061093a565b6101ed565b6040516100dd9190610980565b60405180910390f35b6100ee610236565b005b61010a6004803603810190610105919061093a565b6102be565b005b610114610401565b60405161012191906109aa565b60405180910390f35b610144600480360381019061013f91906109f1565b61042b565b6040516101519190610a4c565b60405180910390f35b610162610485565b60405161016f91906108a6565b60405180910390f35b610192600480360381019061018d9190610b9c565b6104c2565b005b6101ae60048036038101906101a9919061093a565b6105f7565b005b60606040518060400160405280600e81526020017f4c4f422045676720666175636574000000000000000000000000000000000000815250905090565b6000600560008373ffffffffffffffffffffffffffffffffffffffff1673ffffffffffffffffffffffffffffffffffffffff168152602001908152602001600020549050919050565b61023e6106ef565b73ffffffffffffffffffffffffffffffffffffffff1661025c610401565b73ffffffffffffffffffffffffffffffffffffffff16146102b2576040517f08c379a00000000000000000000000000000000000000000000000000000000081526004016102a990610c6b565b60405180910390fd5b6102bc60006106f7565b565b60006003546102cb6107bd565b6102d59190610cba565b90506102e1818361042b565b610320576040517f08c379a000000000000000000000000000000000000000000000000000000000815260040161031790610d5d565b60405180910390fd5b6001600560003373ffffffffffffffffffffffffffffffffffffffff1673ffffffffffffffffffffffffffffffffffffffff168152602001908152602001600020819055506000600260009054906101000a900473ffffffffffffffffffffffffffffffffffffffff1690508073ffffffffffffffffffffffffffffffffffffffff1663731133e9848460016040518463ffffffff1660e01b81526004016103ca93929190610e1f565b600060405180830381600087803b1580156103e457600080fd5b505af11580156103f8573d6000803e3d6000fd5b50505050505050565b6000600160009054906101000a900473ffffffffffffffffffffffffffffffffffffffff16905090565b60006003548310801561047d57506000600560008473ffffffffffffffffffffffffffffffffffffffff1673ffffffffffffffffffffffffffffffffffffffff16815260200190815260200160002054145b905092915050565b60606040518060400160405280600481526020017f4c4f424500000000000000000000000000000000000000000000000000000000815250905090565b6104ca6106ef565b73ffffffffffffffffffffffffffffffffffffffff166104e8610401565b73ffffffffffffffffffffffffffffffffffffffff161461053e576040517f08c379a000000000000000000000000000000000000000000000000000000000815260040161053590610c6b565b60405180910390fd5b600060035461054b6107bd565b6105559190610cba565b90506000600260009054906101000a900473ffffffffffffffffffffffffffffffffffffffff1690508073ffffffffffffffffffffffffffffffffffffffff1663731133e9868487876040518563ffffffff1660e01b81526004016105bd9493929190610ead565b600060405180830381600087803b1580156105d757600080fd5b505af11580156105eb573d6000803e3d6000fd5b50505050505050505050565b6105ff6106ef565b73ffffffffffffffffffffffffffffffffffffffff1661061d610401565b73ffffffffffffffffffffffffffffffffffffffff1614610673576040517f08c379a000000000000000000000000000000000000000000000000000000000815260040161066a90610c6b565b60405180910390fd5b600073ffffffffffffffffffffffffffffffffffffffff168173ffffffffffffffffffffffffffffffffffffffff1614156106e3576040517f08c379a00000000000000000000000000000000000000000000000000000000081526004016106da90610f6b565b60405180910390fd5b6106ec816106f7565b50565b600033905090565b6000600160009054906101000a900473ffffffffffffffffffffffffffffffffffffffff16905081600160006101000a81548173ffffffffffffffffffffffffffffffffffffffff021916908373ffffffffffffffffffffffffffffffffffffffff1602179055508173ffffffffffffffffffffffffffffffffffffffff168173ffffffffffffffffffffffffffffffffffffffff167f8be0079c531659141344cd1fd0a4f28419497f9722a3daafe3b4186f6b6457e060405160405180910390a35050565b6000806001436107cd9190610fba565b40336000546040516020016107e493929190611082565b6040516020818303038152906040528051906020012060001c9050806000819055508091505090565b600081519050919050565b600082825260208201905092915050565b60005b8381101561084757808201518184015260208101905061082c565b83811115610856576000848401525b50505050565b6000601f19601f8301169050919050565b60006108788261080d565b6108828185610818565b9350610892818560208601610829565b61089b8161085c565b840191505092915050565b600060208201905081810360008301526108c0818461086d565b905092915050565b6000604051905090565b600080fd5b600080fd5b600073ffffffffffffffffffffffffffffffffffffffff82169050919050565b6000610907826108dc565b9050919050565b610917816108fc565b811461092257600080fd5b50565b6000813590506109348161090e565b92915050565b6000602082840312156109505761094f6108d2565b5b600061095e84828501610925565b91505092915050565b6000819050919050565b61097a81610967565b82525050565b60006020820190506109956000830184610971565b92915050565b6109a4816108fc565b82525050565b60006020820190506109bf600083018461099b565b92915050565b6109ce81610967565b81146109d957600080fd5b50565b6000813590506109eb816109c5565b92915050565b60008060408385031215610a0857610a076108d2565b5b6000610a16858286016109dc565b9250506020610a2785828601610925565b9150509250929050565b60008115159050919050565b610a4681610a31565b82525050565b6000602082019050610a616000830184610a3d565b92915050565b600080fd5b600080fd5b7f4e487b7100000000000000000000000000000000000000000000000000000000600052604160045260246000fd5b610aa98261085c565b810181811067ffffffffffffffff82111715610ac857610ac7610a71565b5b80604052505050565b6000610adb6108c8565b9050610ae78282610aa0565b919050565b600067ffffffffffffffff821115610b0757610b06610a71565b5b610b108261085c565b9050602081019050919050565b82818337600083830152505050565b6000610b3f610b3a84610aec565b610ad1565b905082815260208101848484011115610b5b57610b5a610a6c565b5b610b66848285610b1d565b509392505050565b600082601f830112610b8357610b82610a67565b5b8135610b93848260208601610b2c565b91505092915050565b60008060008060808587031215610bb657610bb56108d2565b5b6000610bc4878288016109dc565b9450506020610bd587828801610925565b9350506040610be6878288016109dc565b925050606085013567ffffffffffffffff811115610c0757610c066108d7565b5b610c1387828801610b6e565b91505092959194509250565b7f4f776e61626c653a2063616c6c6572206973206e6f7420746865206f776e6572600082015250565b6000610c55602083610818565b9150610c6082610c1f565b602082019050919050565b60006020820190508181036000830152610c8481610c48565b9050919050565b7f4e487b7100000000000000000000000000000000000000000000000000000000600052601260045260246000fd5b6000610cc582610967565b9150610cd083610967565b925082610ce057610cdf610c8b565b5b828206905092915050565b7f416c7265616479206d696e746564206f72206e6f6e2d6578697374206f70746960008201527f6f6e000000000000000000000000000000000000000000000000000000000000602082015250565b6000610d47602283610818565b9150610d5282610ceb565b604082019050919050565b60006020820190508181036000830152610d7681610d3a565b9050919050565b6000819050919050565b6000819050919050565b6000610dac610da7610da284610d7d565b610d87565b610967565b9050919050565b610dbc81610d91565b82525050565b600082825260208201905092915050565b7f3078300000000000000000000000000000000000000000000000000000000000600082015250565b6000610e09600383610dc2565b9150610e1482610dd3565b602082019050919050565b6000608082019050610e34600083018661099b565b610e416020830185610971565b610e4e6040830184610db3565b8181036060830152610e5f81610dfc565b9050949350505050565b600081519050919050565b6000610e7f82610e69565b610e898185610dc2565b9350610e99818560208601610829565b610ea28161085c565b840191505092915050565b6000608082019050610ec2600083018761099b565b610ecf6020830186610971565b610edc6040830185610971565b8181036060830152610eee8184610e74565b905095945050505050565b7f4f776e61626c653a206e6577206f776e657220697320746865207a65726f206160008201527f6464726573730000000000000000000000000000000000000000000000000000602082015250565b6000610f55602683610818565b9150610f6082610ef9565b604082019050919050565b60006020820190508181036000830152610f8481610f48565b9050919050565b7f4e487b7100000000000000000000000000000000000000000000000000000000600052601160045260246000fd5b6000610fc582610967565b9150610fd083610967565b925082821015610fe357610fe2610f8b565b5b828203905092915050565b6000819050919050565b6000819050919050565b61101361100e82610fee565b610ff8565b82525050565b60008160601b9050919050565b600061103182611019565b9050919050565b600061104382611026565b9050919050565b61105b611056826108fc565b611038565b82525050565b6000819050919050565b61107c61107782610967565b611061565b82525050565b600061108e8286611002565b60208201915061109e828561104a565b6014820191506110ae828461106b565b60208201915081905094935050505056fea26469706673582212205ed819999a8467ee8a0dead09830cd3a1532b183354460908b6e3df731b6454864736f6c63430008090033",
  "immutableReferences": {},
  "source": "// SPDX-License-Identifier: MIT\npragma solidity >=0.4.22 <0.9.0;\n\nimport \"./interfaces/IERC1155Factory.sol\";\nimport \"./utils/RNG.sol\";\nimport \"./Egg.sol\";\n\nimport \"@openzeppelin/contracts/access/Ownable.sol\";\n\ncontract EggFactory is IERC1155Factory, RNG, Ownable {\n    address private nftAddress;\n    uint256 private numOptions;\n    uint256 private seed;\n    mapping(address => uint256) mintedAddresses;\n\n    constructor(address _nftAddress, uint256 _numOptions) {\n        nftAddress = _nftAddress;\n        numOptions = _numOptions;\n        seed = _numOptions;\n    }\n\n    function name() external pure returns (string memory) {\n        return \"LOB Egg faucet\";\n    }\n\n    function symbol() external pure returns (string memory) {\n        return \"LOBE\";\n    }\n\n    function canMint(uint256 _optionId, address _account)\n        public\n        view\n        override\n        returns (bool)\n    {\n        return _optionId < numOptions && mintedAddresses[_account] == 0;\n    }\n\n    function balanceOf(address _owner) public view override returns (uint256) {\n        return mintedAddresses[_owner];\n    }\n\n    // API for lootbox\n    function mint(\n        uint256, // ignore option Id, generated on spot randomly\n        address _to,\n        uint256 _amount,\n        bytes memory data\n    ) public onlyOwner {\n        uint256 _optionId = _random() % numOptions;\n        Egg egg = Egg(nftAddress);\n        egg.mint(_to, _optionId, _amount, data);\n    }\n\n    function mintTo(address _to) public override {\n        uint256 _optionId = _random() % numOptions;\n        require(canMint(_optionId, _to), \"Already minted or non-exist option\");\n        mintedAddresses[msg.sender] = 1;\n        Egg egg = Egg(nftAddress);\n        egg.mint(_to, _optionId, 1, \"0x0\");\n    }\n}\n",
  "sourcePath": "/home/isaiah/codes/NFT/contract/legendofbeasts/contracts/EggFactory.sol",
  "compiler": {
    "name": "solc",
    "version": "0.8.9+commit.e5eed63a.Emscripten.clang"
  },
  "schemaVersion": "3.4.3",
  "updatedAt": "2022-01-12T14:28:48.062Z",
  "networkType": "ethereum",
  "devdoc": {
    "kind": "dev",
    "methods": {
      "owner()": {
        "details": "Returns the address of the current owner."
      },
      "renounceOwnership()": {
        "details": "Leaves the contract without owner. It will not be possible to call `onlyOwner` functions anymore. Can only be called by the current owner. NOTE: Renouncing ownership will leave the contract without an owner, thereby removing any functionality that is only available to the owner."
      },
      "transferOwnership(address)": {
        "details": "Transfers ownership of the contract to a new account (`newOwner`). Can only be called by the current owner."
      }
    },
    "version": 1
  },
  "userdoc": {
    "kind": "user",
    "methods": {},
    "version": 1
  }
}