{
  "contractName": "HatchingEgg",
  "abi": [
    {
      "inputs": [
        {
          "internalType": "address",
          "name": "_nftAddress",
          "type": "address"
        },
        {
          "internalType": "uint256",
          "name": "delay",
          "type": "uint256"
        }
      ],
      "stateMutability": "nonpayable",
      "type": "constructor"
    },
    {
      "anonymous": false,
      "inputs": [
        {
          "indexed": true,
          "internalType": "address",
          "name": "account",
          "type": "address"
        },
        {
          "indexed": true,
          "internalType": "address",
          "name": "operator",
          "type": "address"
        },
        {
          "indexed": false,
          "internalType": "bool",
          "name": "approved",
          "type": "bool"
        }
      ],
      "name": "ApprovalForAll",
      "type": "event"
    },
    {
      "anonymous": false,
      "inputs": [
        {
          "indexed": true,
          "internalType": "address",
          "name": "previousOwner",
          "type": "address"
        },
        {
          "indexed": true,
          "internalType": "address",
          "name": "newOwner",
          "type": "address"
        }
      ],
      "name": "OwnershipTransferred",
      "type": "event"
    },
    {
      "anonymous": false,
      "inputs": [
        {
          "indexed": false,
          "internalType": "address",
          "name": "account",
          "type": "address"
        }
      ],
      "name": "Paused",
      "type": "event"
    },
    {
      "anonymous": false,
      "inputs": [
        {
          "indexed": true,
          "internalType": "address",
          "name": "operator",
          "type": "address"
        },
        {
          "indexed": true,
          "internalType": "address",
          "name": "from",
          "type": "address"
        },
        {
          "indexed": true,
          "internalType": "address",
          "name": "to",
          "type": "address"
        },
        {
          "indexed": false,
          "internalType": "uint256[]",
          "name": "ids",
          "type": "uint256[]"
        },
        {
          "indexed": false,
          "internalType": "uint256[]",
          "name": "values",
          "type": "uint256[]"
        }
      ],
      "name": "TransferBatch",
      "type": "event"
    },
    {
      "anonymous": false,
      "inputs": [
        {
          "indexed": true,
          "internalType": "address",
          "name": "operator",
          "type": "address"
        },
        {
          "indexed": true,
          "internalType": "address",
          "name": "from",
          "type": "address"
        },
        {
          "indexed": true,
          "internalType": "address",
          "name": "to",
          "type": "address"
        },
        {
          "indexed": false,
          "internalType": "uint256",
          "name": "id",
          "type": "uint256"
        },
        {
          "indexed": false,
          "internalType": "uint256",
          "name": "value",
          "type": "uint256"
        }
      ],
      "name": "TransferSingle",
      "type": "event"
    },
    {
      "anonymous": false,
      "inputs": [
        {
          "indexed": false,
          "internalType": "string",
          "name": "value",
          "type": "string"
        },
        {
          "indexed": true,
          "internalType": "uint256",
          "name": "id",
          "type": "uint256"
        }
      ],
      "name": "URI",
      "type": "event"
    },
    {
      "anonymous": false,
      "inputs": [
        {
          "indexed": false,
          "internalType": "address",
          "name": "account",
          "type": "address"
        }
      ],
      "name": "Unpaused",
      "type": "event"
    },
    {
      "inputs": [
        {
          "internalType": "address",
          "name": "account",
          "type": "address"
        },
        {
          "internalType": "uint256",
          "name": "id",
          "type": "uint256"
        }
      ],
      "name": "balanceOf",
      "outputs": [
        {
          "internalType": "uint256",
          "name": "",
          "type": "uint256"
        }
      ],
      "stateMutability": "view",
      "type": "function",
      "constant": true
    },
    {
      "inputs": [
        {
          "internalType": "address[]",
          "name": "accounts",
          "type": "address[]"
        },
        {
          "internalType": "uint256[]",
          "name": "ids",
          "type": "uint256[]"
        }
      ],
      "name": "balanceOfBatch",
      "outputs": [
        {
          "internalType": "uint256[]",
          "name": "",
          "type": "uint256[]"
        }
      ],
      "stateMutability": "view",
      "type": "function",
      "constant": true
    },
    {
      "inputs": [
        {
          "internalType": "address",
          "name": "account",
          "type": "address"
        },
        {
          "internalType": "uint256",
          "name": "id",
          "type": "uint256"
        },
        {
          "internalType": "uint256",
          "name": "value",
          "type": "uint256"
        }
      ],
      "name": "burn",
      "outputs": [],
      "stateMutability": "nonpayable",
      "type": "function"
    },
    {
      "inputs": [
        {
          "internalType": "address",
          "name": "account",
          "type": "address"
        },
        {
          "internalType": "uint256[]",
          "name": "ids",
          "type": "uint256[]"
        },
        {
          "internalType": "uint256[]",
          "name": "values",
          "type": "uint256[]"
        }
      ],
      "name": "burnBatch",
      "outputs": [],
      "stateMutability": "nonpayable",
      "type": "function"
    },
    {
      "inputs": [
        {
          "internalType": "address",
          "name": "account",
          "type": "address"
        },
        {
          "internalType": "address",
          "name": "operator",
          "type": "address"
        }
      ],
      "name": "isApprovedForAll",
      "outputs": [
        {
          "internalType": "bool",
          "name": "",
          "type": "bool"
        }
      ],
      "stateMutability": "view",
      "type": "function",
      "constant": true
    },
    {
      "inputs": [],
      "name": "owner",
      "outputs": [
        {
          "internalType": "address",
          "name": "",
          "type": "address"
        }
      ],
      "stateMutability": "view",
      "type": "function",
      "constant": true
    },
    {
      "inputs": [],
      "name": "paused",
      "outputs": [
        {
          "internalType": "bool",
          "name": "",
          "type": "bool"
        }
      ],
      "stateMutability": "view",
      "type": "function",
      "constant": true
    },
    {
      "inputs": [],
      "name": "renounceOwnership",
      "outputs": [],
      "stateMutability": "nonpayable",
      "type": "function"
    },
    {
      "inputs": [
        {
          "internalType": "address",
          "name": "from",
          "type": "address"
        },
        {
          "internalType": "address",
          "name": "to",
          "type": "address"
        },
        {
          "internalType": "uint256[]",
          "name": "ids",
          "type": "uint256[]"
        },
        {
          "internalType": "uint256[]",
          "name": "amounts",
          "type": "uint256[]"
        },
        {
          "internalType": "bytes",
          "name": "data",
          "type": "bytes"
        }
      ],
      "name": "safeBatchTransferFrom",
      "outputs": [],
      "stateMutability": "nonpayable",
      "type": "function"
    },
    {
      "inputs": [
        {
          "internalType": "address",
          "name": "from",
          "type": "address"
        },
        {
          "internalType": "address",
          "name": "to",
          "type": "address"
        },
        {
          "internalType": "uint256",
          "name": "id",
          "type": "uint256"
        },
        {
          "internalType": "uint256",
          "name": "amount",
          "type": "uint256"
        },
        {
          "internalType": "bytes",
          "name": "data",
          "type": "bytes"
        }
      ],
      "name": "safeTransferFrom",
      "outputs": [],
      "stateMutability": "nonpayable",
      "type": "function"
    },
    {
      "inputs": [
        {
          "internalType": "address",
          "name": "operator",
          "type": "address"
        },
        {
          "internalType": "bool",
          "name": "approved",
          "type": "bool"
        }
      ],
      "name": "setApprovalForAll",
      "outputs": [],
      "stateMutability": "nonpayable",
      "type": "function"
    },
    {
      "inputs": [
        {
          "internalType": "bytes4",
          "name": "interfaceId",
          "type": "bytes4"
        }
      ],
      "name": "supportsInterface",
      "outputs": [
        {
          "internalType": "bool",
          "name": "",
          "type": "bool"
        }
      ],
      "stateMutability": "view",
      "type": "function",
      "constant": true
    },
    {
      "inputs": [
        {
          "internalType": "address",
          "name": "newOwner",
          "type": "address"
        }
      ],
      "name": "transferOwnership",
      "outputs": [],
      "stateMutability": "nonpayable",
      "type": "function"
    },
    {
      "inputs": [
        {
          "internalType": "uint256",
          "name": "",
          "type": "uint256"
        }
      ],
      "name": "uri",
      "outputs": [
        {
          "internalType": "string",
          "name": "",
          "type": "string"
        }
      ],
      "stateMutability": "view",
      "type": "function",
      "constant": true
    },
    {
      "inputs": [
        {
          "internalType": "uint256",
          "name": "delay",
          "type": "uint256"
        }
      ],
      "name": "setDelay",
      "outputs": [],
      "stateMutability": "nonpayable",
      "type": "function"
    },
    {
      "inputs": [
        {
          "internalType": "string",
          "name": "newuri",
          "type": "string"
        }
      ],
      "name": "setURI",
      "outputs": [],
      "stateMutability": "nonpayable",
      "type": "function"
    },
    {
      "inputs": [],
      "name": "pause",
      "outputs": [],
      "stateMutability": "nonpayable",
      "type": "function"
    },
    {
      "inputs": [],
      "name": "unpause",
      "outputs": [],
      "stateMutability": "nonpayable",
      "type": "function"
    },
    {
      "inputs": [],
      "name": "numOptions",
      "outputs": [
        {
          "internalType": "uint256",
          "name": "",
          "type": "uint256"
        }
      ],
      "stateMutability": "pure",
      "type": "function",
      "constant": true
    },
    {
      "inputs": [
        {
          "internalType": "uint256",
          "name": "_optionId",
          "type": "uint256"
        }
      ],
      "name": "breakUp",
      "outputs": [],
      "stateMutability": "nonpayable",
      "type": "function"
    },
    {
      "inputs": [
        {
          "internalType": "address",
          "name": "_owner",
          "type": "address"
        }
      ],
      "name": "dueTime",
      "outputs": [
        {
          "internalType": "uint256",
          "name": "",
          "type": "uint256"
        }
      ],
      "stateMutability": "view",
      "type": "function",
      "constant": true
    },
    {
      "inputs": [
        {
          "internalType": "address",
          "name": "_owner",
          "type": "address"
        }
      ],
      "name": "isReady",
      "outputs": [
        {
          "internalType": "bool",
          "name": "",
          "type": "bool"
        }
      ],
      "stateMutability": "view",
      "type": "function",
      "constant": true
    },
    {
      "inputs": [
        {
          "internalType": "address",
          "name": "account",
          "type": "address"
        },
        {
          "internalType": "uint256",
          "name": "id",
          "type": "uint256"
        },
        {
          "internalType": "uint256",
          "name": "amount",
          "type": "uint256"
        },
        {
          "internalType": "bytes",
          "name": "data",
          "type": "bytes"
        }
      ],
      "name": "mint",
      "outputs": [],
      "stateMutability": "nonpayable",
      "type": "function"
    },
    {
      "inputs": [
        {
          "internalType": "address",
          "name": "to",
          "type": "address"
        },
        {
          "internalType": "uint256[]",
          "name": "ids",
          "type": "uint256[]"
        },
        {
          "internalType": "uint256[]",
          "name": "amounts",
          "type": "uint256[]"
        },
        {
          "internalType": "bytes",
          "name": "data",
          "type": "bytes"
        }
      ],
      "name": "mintBatch",
      "outputs": [],
      "stateMutability": "nonpayable",
      "type": "function"
    }
  ],
  "bytecode": "0x60806040523480156200001157600080fd5b50604051620049de380380620049de833981810160405281019062000037919062000335565b6040518060600160405280602c8152602001620049b2602c91396200006281620000f660201b60201c565b5062000083620000776200011260201b60201c565b6200011a60201b60201c565b6000600360146101000a81548160ff021916908315150217905550600160048190555081600760006101000a81548173ffffffffffffffffffffffffffffffffffffffff021916908373ffffffffffffffffffffffffffffffffffffffff160217905550806006819055505050620003e1565b80600290805190602001906200010e929190620001e0565b5050565b600033905090565b6000600360009054906101000a900473ffffffffffffffffffffffffffffffffffffffff16905081600360006101000a81548173ffffffffffffffffffffffffffffffffffffffff021916908373ffffffffffffffffffffffffffffffffffffffff1602179055508173ffffffffffffffffffffffffffffffffffffffff168173ffffffffffffffffffffffffffffffffffffffff167f8be0079c531659141344cd1fd0a4f28419497f9722a3daafe3b4186f6b6457e060405160405180910390a35050565b828054620001ee90620003ab565b90600052602060002090601f0160209004810192826200021257600085556200025e565b82601f106200022d57805160ff19168380011785556200025e565b828001600101855582156200025e579182015b828111156200025d57825182559160200191906001019062000240565b5b5090506200026d919062000271565b5090565b5b808211156200028c57600081600090555060010162000272565b5090565b600080fd5b600073ffffffffffffffffffffffffffffffffffffffff82169050919050565b6000620002c28262000295565b9050919050565b620002d481620002b5565b8114620002e057600080fd5b50565b600081519050620002f481620002c9565b92915050565b6000819050919050565b6200030f81620002fa565b81146200031b57600080fd5b50565b6000815190506200032f8162000304565b92915050565b600080604083850312156200034f576200034e62000290565b5b60006200035f85828601620002e3565b925050602062000372858286016200031e565b9150509250929050565b7f4e487b7100000000000000000000000000000000000000000000000000000000600052602260045260246000fd5b60006002820490506001821680620003c457607f821691505b60208210811415620003db57620003da6200037c565b5b50919050565b6145c180620003f16000396000f3fe608060405234801561001057600080fd5b50600436106101575760003560e01c80636b20c454116100c3578063d8da96ef1161007c578063d8da96ef1461039c578063e177246e146103b8578063e985e9c5146103d4578063f242432a14610404578063f2fde38b14610420578063f5298aca1461043c57610157565b80636b20c45414610316578063715018a614610332578063731133e91461033c5780638456cb59146103585780638da5cb5b14610362578063a22cb4651461038057610157565b80632eb2c2d6116101155780632eb2c2d6146102545780633552f5a4146102705780633f4ba83a146102a05780634b97aed9146102aa5780634e1273f4146102c85780635c975abb146102f857610157565b8062fdd58e1461015c57806301ffc9a71461018c57806302fe5305146101bc5780630e89341c146101d85780631f7fdffa146102085780632d798d6314610224575b600080fd5b61017660048036038101906101719190612b48565b610458565b6040516101839190612b97565b60405180910390f35b6101a660048036038101906101a19190612c0a565b610521565b6040516101b39190612c52565b60405180910390f35b6101d660048036038101906101d19190612db3565b610603565b005b6101f260048036038101906101ed9190612dfc565b61068b565b6040516101ff9190612eb1565b60405180910390f35b610222600480360381019061021d919061303c565b61071f565b005b61023e600480360381019061023991906130f7565b6107ad565b60405161024b9190612b97565b60405180910390f35b61026e60048036038101906102699190613124565b6107f6565b005b61028a600480360381019061028591906130f7565b610897565b6040516102979190612c52565b60405180910390f35b6102a86108e2565b005b6102b2610968565b6040516102bf9190612b97565b60405180910390f35b6102e260048036038101906102dd91906132b6565b610971565b6040516102ef91906133ec565b60405180910390f35b610300610a8a565b60405161030d9190612c52565b60405180910390f35b610330600480360381019061032b919061340e565b610aa1565b005b61033a610b3e565b005b61035660048036038101906103519190613499565b610bc6565b005b610360610cfb565b005b61036a610d81565b604051610377919061352b565b60405180910390f35b61039a60048036038101906103959190613572565b610dab565b005b6103b660048036038101906103b19190612dfc565b610dc1565b005b6103d260048036038101906103cd9190612dfc565b610f4f565b005b6103ee60048036038101906103e991906135b2565b610fd5565b6040516103fb9190612c52565b60405180910390f35b61041e600480360381019061041991906135f2565b611069565b005b61043a600480360381019061043591906130f7565b61110a565b005b61045660048036038101906104519190613689565b611202565b005b60008073ffffffffffffffffffffffffffffffffffffffff168373ffffffffffffffffffffffffffffffffffffffff1614156104c9576040517f08c379a00000000000000000000000000000000000000000000000000000000081526004016104c09061374e565b60405180910390fd5b60008083815260200190815260200160002060008473ffffffffffffffffffffffffffffffffffffffff1673ffffffffffffffffffffffffffffffffffffffff16815260200190815260200160002054905092915050565b60007fd9b67a26000000000000000000000000000000000000000000000000000000007bffffffffffffffffffffffffffffffffffffffffffffffffffffffff1916827bffffffffffffffffffffffffffffffffffffffffffffffffffffffff191614806105ec57507f0e89341c000000000000000000000000000000000000000000000000000000007bffffffffffffffffffffffffffffffffffffffffffffffffffffffff1916827bffffffffffffffffffffffffffffffffffffffffffffffffffffffff1916145b806105fc57506105fb8261129f565b5b9050919050565b61060b611309565b73ffffffffffffffffffffffffffffffffffffffff16610629610d81565b73ffffffffffffffffffffffffffffffffffffffff161461067f576040517f08c379a0000000000000000000000000000000000000000000000000000000008152600401610676906137ba565b60405180910390fd5b61068881611311565b50565b60606002805461069a90613809565b80601f01602080910402602001604051908101604052809291908181526020018280546106c690613809565b80156107135780601f106106e857610100808354040283529160200191610713565b820191906000526020600020905b8154815290600101906020018083116106f657829003601f168201915b50505050509050919050565b610727611309565b73ffffffffffffffffffffffffffffffffffffffff16610745610d81565b73ffffffffffffffffffffffffffffffffffffffff161461079b576040517f08c379a0000000000000000000000000000000000000000000000000000000008152600401610792906137ba565b60405180910390fd5b6107a78484848461132b565b50505050565b6000600560008373ffffffffffffffffffffffffffffffffffffffff1673ffffffffffffffffffffffffffffffffffffffff168152602001908152602001600020549050919050565b6107fe611309565b73ffffffffffffffffffffffffffffffffffffffff168573ffffffffffffffffffffffffffffffffffffffff16148061084457506108438561083e611309565b610fd5565b5b610883576040517f08c379a000000000000000000000000000000000000000000000000000000000815260040161087a906138ad565b60405180910390fd5b6108908585858585611549565b5050505050565b600042600560008473ffffffffffffffffffffffffffffffffffffffff1673ffffffffffffffffffffffffffffffffffffffff16815260200190815260200160002054109050919050565b6108ea611309565b73ffffffffffffffffffffffffffffffffffffffff16610908610d81565b73ffffffffffffffffffffffffffffffffffffffff161461095e576040517f08c379a0000000000000000000000000000000000000000000000000000000008152600401610955906137ba565b60405180910390fd5b61096661185d565b565b60006004905090565b606081518351146109b7576040517f08c379a00000000000000000000000000000000000000000000000000000000081526004016109ae9061393f565b60405180910390fd5b6000835167ffffffffffffffff8111156109d4576109d3612c88565b5b604051908082528060200260200182016040528015610a025781602001602082028036833780820191505090505b50905060005b8451811015610a7f57610a4f858281518110610a2757610a2661395f565b5b6020026020010151858381518110610a4257610a4161395f565b5b6020026020010151610458565b828281518110610a6257610a6161395f565b5b60200260200101818152505080610a78906139bd565b9050610a08565b508091505092915050565b6000600360149054906101000a900460ff16905090565b610aa9611309565b73ffffffffffffffffffffffffffffffffffffffff168373ffffffffffffffffffffffffffffffffffffffff161480610aef5750610aee83610ae9611309565b610fd5565b5b610b2e576040517f08c379a0000000000000000000000000000000000000000000000000000000008152600401610b2590613a78565b60405180910390fd5b610b398383836118ff565b505050565b610b46611309565b73ffffffffffffffffffffffffffffffffffffffff16610b64610d81565b73ffffffffffffffffffffffffffffffffffffffff1614610bba576040517f08c379a0000000000000000000000000000000000000000000000000000000008152600401610bb1906137ba565b60405180910390fd5b610bc46000611bb0565b565b610bce611309565b73ffffffffffffffffffffffffffffffffffffffff16610bec610d81565b73ffffffffffffffffffffffffffffffffffffffff1614610c42576040517f08c379a0000000000000000000000000000000000000000000000000000000008152600401610c39906137ba565b60405180910390fd5b60026004541415610c88576040517f08c379a0000000000000000000000000000000000000000000000000000000008152600401610c7f90613ae4565b60405180910390fd5b6002600481905550610c9c84848484611c76565b60065442610caa9190613b04565b600560008673ffffffffffffffffffffffffffffffffffffffff1673ffffffffffffffffffffffffffffffffffffffff16815260200190815260200160002081905550600160048190555050505050565b610d03611309565b73ffffffffffffffffffffffffffffffffffffffff16610d21610d81565b73ffffffffffffffffffffffffffffffffffffffff1614610d77576040517f08c379a0000000000000000000000000000000000000000000000000000000008152600401610d6e906137ba565b60405180910390fd5b610d7f611e0c565b565b6000600360009054906101000a900473ffffffffffffffffffffffffffffffffffffffff16905090565b610dbd610db6611309565b8383611eaf565b5050565b60026004541415610e07576040517f08c379a0000000000000000000000000000000000000000000000000000000008152600401610dfe90613ae4565b60405180910390fd5b6002600481905550610e1f610e1a611309565b610897565b610e5e576040517f08c379a0000000000000000000000000000000000000000000000000000000008152600401610e5590613bcc565b60405180910390fd5b610e6a3382600161201c565b6001600560003373ffffffffffffffffffffffffffffffffffffffff1673ffffffffffffffffffffffffffffffffffffffff168152602001908152602001600020819055506000600760009054906101000a900473ffffffffffffffffffffffffffffffffffffffff1690508073ffffffffffffffffffffffffffffffffffffffff1663a06c13d533846040518363ffffffff1660e01b8152600401610f11929190613bec565b600060405180830381600087803b158015610f2b57600080fd5b505af1158015610f3f573d6000803e3d6000fd5b5050505050600160048190555050565b610f57611309565b73ffffffffffffffffffffffffffffffffffffffff16610f75610d81565b73ffffffffffffffffffffffffffffffffffffffff1614610fcb576040517f08c379a0000000000000000000000000000000000000000000000000000000008152600401610fc2906137ba565b60405180910390fd5b8060068190555050565b6000600160008473ffffffffffffffffffffffffffffffffffffffff1673ffffffffffffffffffffffffffffffffffffffff16815260200190815260200160002060008373ffffffffffffffffffffffffffffffffffffffff1673ffffffffffffffffffffffffffffffffffffffff16815260200190815260200160002060009054906101000a900460ff16905092915050565b611071611309565b73ffffffffffffffffffffffffffffffffffffffff168573ffffffffffffffffffffffffffffffffffffffff1614806110b757506110b6856110b1611309565b610fd5565b5b6110f6576040517f08c379a00000000000000000000000000000000000000000000000000000000081526004016110ed90613a78565b60405180910390fd5b6111038585858585612239565b5050505050565b611112611309565b73ffffffffffffffffffffffffffffffffffffffff16611130610d81565b73ffffffffffffffffffffffffffffffffffffffff1614611186576040517f08c379a000000000000000000000000000000000000000000000000000000000815260040161117d906137ba565b60405180910390fd5b600073ffffffffffffffffffffffffffffffffffffffff168173ffffffffffffffffffffffffffffffffffffffff1614156111f6576040517f08c379a00000000000000000000000000000000000000000000000000000000081526004016111ed90613c87565b60405180910390fd5b6111ff81611bb0565b50565b61120a611309565b73ffffffffffffffffffffffffffffffffffffffff168373ffffffffffffffffffffffffffffffffffffffff161480611250575061124f8361124a611309565b610fd5565b5b61128f576040517f08c379a000000000000000000000000000000000000000000000000000000000815260040161128690613a78565b60405180910390fd5b61129a83838361201c565b505050565b60007f01ffc9a7000000000000000000000000000000000000000000000000000000007bffffffffffffffffffffffffffffffffffffffffffffffffffffffff1916827bffffffffffffffffffffffffffffffffffffffffffffffffffffffff1916149050919050565b600033905090565b80600290805190602001906113279291906129fd565b5050565b600073ffffffffffffffffffffffffffffffffffffffff168473ffffffffffffffffffffffffffffffffffffffff16141561139b576040517f08c379a000000000000000000000000000000000000000000000000000000000815260040161139290613d19565b60405180910390fd5b81518351146113df576040517f08c379a00000000000000000000000000000000000000000000000000000000081526004016113d690613dab565b60405180910390fd5b60006113e9611309565b90506113fa816000878787876124bb565b60005b84518110156114b3578381815181106114195761141861395f565b5b60200260200101516000808784815181106114375761143661395f565b5b6020026020010151815260200190815260200160002060008873ffffffffffffffffffffffffffffffffffffffff1673ffffffffffffffffffffffffffffffffffffffff16815260200190815260200160002060008282546114999190613b04565b9250508190555080806114ab906139bd565b9150506113fd565b508473ffffffffffffffffffffffffffffffffffffffff16600073ffffffffffffffffffffffffffffffffffffffff168273ffffffffffffffffffffffffffffffffffffffff167f4a39dc06d4c0dbc64b70af90fd698a233a518aa5d07e595d983b8c0526c8f7fb878760405161152b929190613dcb565b60405180910390a46115428160008787878761259a565b5050505050565b815183511461158d576040517f08c379a000000000000000000000000000000000000000000000000000000000815260040161158490613dab565b60405180910390fd5b600073ffffffffffffffffffffffffffffffffffffffff168473ffffffffffffffffffffffffffffffffffffffff1614156115fd576040517f08c379a00000000000000000000000000000000000000000000000000000000081526004016115f490613e74565b60405180910390fd5b6000611607611309565b90506116178187878787876124bb565b60005b84518110156117c85760008582815181106116385761163761395f565b5b6020026020010151905060008583815181106116575761165661395f565b5b60200260200101519050600080600084815260200190815260200160002060008b73ffffffffffffffffffffffffffffffffffffffff1673ffffffffffffffffffffffffffffffffffffffff168152602001908152602001600020549050818110156116f8576040517f08c379a00000000000000000000000000000000000000000000000000000000081526004016116ef90613f06565b60405180910390fd5b81810360008085815260200190815260200160002060008c73ffffffffffffffffffffffffffffffffffffffff1673ffffffffffffffffffffffffffffffffffffffff168152602001908152602001600020819055508160008085815260200190815260200160002060008b73ffffffffffffffffffffffffffffffffffffffff1673ffffffffffffffffffffffffffffffffffffffff16815260200190815260200160002060008282546117ad9190613b04565b92505081905550505050806117c1906139bd565b905061161a565b508473ffffffffffffffffffffffffffffffffffffffff168673ffffffffffffffffffffffffffffffffffffffff168273ffffffffffffffffffffffffffffffffffffffff167f4a39dc06d4c0dbc64b70af90fd698a233a518aa5d07e595d983b8c0526c8f7fb878760405161183f929190613dcb565b60405180910390a461185581878787878761259a565b505050505050565b611865610a8a565b6118a4576040517f08c379a000000000000000000000000000000000000000000000000000000000815260040161189b90613f72565b60405180910390fd5b6000600360146101000a81548160ff0219169083151502179055507f5db9ee0a495bf2e6ff9c91a7834c1ba4fdd244a5e8aa4e537bd38aeae4b073aa6118e8611309565b6040516118f5919061352b565b60405180910390a1565b600073ffffffffffffffffffffffffffffffffffffffff168373ffffffffffffffffffffffffffffffffffffffff16141561196f576040517f08c379a000000000000000000000000000000000000000000000000000000000815260040161196690614004565b60405180910390fd5b80518251146119b3576040517f08c379a00000000000000000000000000000000000000000000000000000000081526004016119aa90613dab565b60405180910390fd5b60006119bd611309565b90506119dd818560008686604051806020016040528060008152506124bb565b60005b8351811015611b2a5760008482815181106119fe576119fd61395f565b5b602002602001015190506000848381518110611a1d57611a1c61395f565b5b60200260200101519050600080600084815260200190815260200160002060008973ffffffffffffffffffffffffffffffffffffffff1673ffffffffffffffffffffffffffffffffffffffff16815260200190815260200160002054905081811015611abe576040517f08c379a0000000000000000000000000000000000000000000000000000000008152600401611ab590614096565b60405180910390fd5b81810360008085815260200190815260200160002060008a73ffffffffffffffffffffffffffffffffffffffff1673ffffffffffffffffffffffffffffffffffffffff168152602001908152602001600020819055505050508080611b22906139bd565b9150506119e0565b50600073ffffffffffffffffffffffffffffffffffffffff168473ffffffffffffffffffffffffffffffffffffffff168273ffffffffffffffffffffffffffffffffffffffff167f4a39dc06d4c0dbc64b70af90fd698a233a518aa5d07e595d983b8c0526c8f7fb8686604051611ba2929190613dcb565b60405180910390a450505050565b6000600360009054906101000a900473ffffffffffffffffffffffffffffffffffffffff16905081600360006101000a81548173ffffffffffffffffffffffffffffffffffffffff021916908373ffffffffffffffffffffffffffffffffffffffff1602179055508173ffffffffffffffffffffffffffffffffffffffff168173ffffffffffffffffffffffffffffffffffffffff167f8be0079c531659141344cd1fd0a4f28419497f9722a3daafe3b4186f6b6457e060405160405180910390a35050565b600073ffffffffffffffffffffffffffffffffffffffff168473ffffffffffffffffffffffffffffffffffffffff161415611ce6576040517f08c379a0000000000000000000000000000000000000000000000000000000008152600401611cdd90613d19565b60405180910390fd5b6000611cf0611309565b9050611d1181600087611d0288612781565b611d0b88612781565b876124bb565b8260008086815260200190815260200160002060008773ffffffffffffffffffffffffffffffffffffffff1673ffffffffffffffffffffffffffffffffffffffff1681526020019081526020016000206000828254611d709190613b04565b925050819055508473ffffffffffffffffffffffffffffffffffffffff16600073ffffffffffffffffffffffffffffffffffffffff168273ffffffffffffffffffffffffffffffffffffffff167fc3d58168c5ae7397731d063d5bbf3d657854427343f4c083240f7aacaa2d0f628787604051611dee9291906140b6565b60405180910390a4611e05816000878787876127fb565b5050505050565b611e14610a8a565b15611e54576040517f08c379a0000000000000000000000000000000000000000000000000000000008152600401611e4b9061412b565b60405180910390fd5b6001600360146101000a81548160ff0219169083151502179055507f62e78cea01bee320cd4e420270b5ea74000d11b0c9f74754ebdbfc544b05a258611e98611309565b604051611ea5919061352b565b60405180910390a1565b8173ffffffffffffffffffffffffffffffffffffffff168373ffffffffffffffffffffffffffffffffffffffff161415611f1e576040517f08c379a0000000000000000000000000000000000000000000000000000000008152600401611f15906141bd565b60405180910390fd5b80600160008573ffffffffffffffffffffffffffffffffffffffff1673ffffffffffffffffffffffffffffffffffffffff16815260200190815260200160002060008473ffffffffffffffffffffffffffffffffffffffff1673ffffffffffffffffffffffffffffffffffffffff16815260200190815260200160002060006101000a81548160ff0219169083151502179055508173ffffffffffffffffffffffffffffffffffffffff168373ffffffffffffffffffffffffffffffffffffffff167f17307eab39ab6107e8899845ad3d59bd9653f200f220920489ca2b5937696c318360405161200f9190612c52565b60405180910390a3505050565b600073ffffffffffffffffffffffffffffffffffffffff168373ffffffffffffffffffffffffffffffffffffffff16141561208c576040517f08c379a000000000000000000000000000000000000000000000000000000000815260040161208390614004565b60405180910390fd5b6000612096611309565b90506120c6818560006120a887612781565b6120b187612781565b604051806020016040528060008152506124bb565b600080600085815260200190815260200160002060008673ffffffffffffffffffffffffffffffffffffffff1673ffffffffffffffffffffffffffffffffffffffff1681526020019081526020016000205490508281101561215d576040517f08c379a000000000000000000000000000000000000000000000000000000000815260040161215490614096565b60405180910390fd5b82810360008086815260200190815260200160002060008773ffffffffffffffffffffffffffffffffffffffff1673ffffffffffffffffffffffffffffffffffffffff16815260200190815260200160002081905550600073ffffffffffffffffffffffffffffffffffffffff168573ffffffffffffffffffffffffffffffffffffffff168373ffffffffffffffffffffffffffffffffffffffff167fc3d58168c5ae7397731d063d5bbf3d657854427343f4c083240f7aacaa2d0f62878760405161222a9291906140b6565b60405180910390a45050505050565b600073ffffffffffffffffffffffffffffffffffffffff168473ffffffffffffffffffffffffffffffffffffffff1614156122a9576040517f08c379a00000000000000000000000000000000000000000000000000000000081526004016122a090613e74565b60405180910390fd5b60006122b3611309565b90506122d38187876122c488612781565b6122cd88612781565b876124bb565b600080600086815260200190815260200160002060008873ffffffffffffffffffffffffffffffffffffffff1673ffffffffffffffffffffffffffffffffffffffff1681526020019081526020016000205490508381101561236a576040517f08c379a000000000000000000000000000000000000000000000000000000000815260040161236190613f06565b60405180910390fd5b83810360008087815260200190815260200160002060008973ffffffffffffffffffffffffffffffffffffffff1673ffffffffffffffffffffffffffffffffffffffff168152602001908152602001600020819055508360008087815260200190815260200160002060008873ffffffffffffffffffffffffffffffffffffffff1673ffffffffffffffffffffffffffffffffffffffff168152602001908152602001600020600082825461241f9190613b04565b925050819055508573ffffffffffffffffffffffffffffffffffffffff168773ffffffffffffffffffffffffffffffffffffffff168373ffffffffffffffffffffffffffffffffffffffff167fc3d58168c5ae7397731d063d5bbf3d657854427343f4c083240f7aacaa2d0f62888860405161249c9291906140b6565b60405180910390a46124b28288888888886127fb565b50505050505050565b6124c3610a8a565b15612503576040517f08c379a00000000000000000000000000000000000000000000000000000000081526004016124fa9061412b565b60405180910390fd5b42600560008873ffffffffffffffffffffffffffffffffffffffff1673ffffffffffffffffffffffffffffffffffffffff1681526020019081526020016000205410612584576040517f08c379a000000000000000000000000000000000000000000000000000000000815260040161257b90614229565b60405180910390fd5b6125928686868686866129e2565b505050505050565b6125b98473ffffffffffffffffffffffffffffffffffffffff166129ea565b15612779578373ffffffffffffffffffffffffffffffffffffffff1663bc197c8187878686866040518663ffffffff1660e01b81526004016125ff95949392919061429e565b602060405180830381600087803b15801561261957600080fd5b505af192505050801561264a57506040513d601f19601f82011682018060405250810190612647919061431b565b60015b6126f057612656614355565b806308c379a014156126b3575061266b614377565b8061267657506126b5565b806040517f08c379a00000000000000000000000000000000000000000000000000000000081526004016126aa9190612eb1565b60405180910390fd5b505b6040517f08c379a00000000000000000000000000000000000000000000000000000000081526004016126e79061447f565b60405180910390fd5b63bc197c8160e01b7bffffffffffffffffffffffffffffffffffffffffffffffffffffffff1916817bffffffffffffffffffffffffffffffffffffffffffffffffffffffff191614612777576040517f08c379a000000000000000000000000000000000000000000000000000000000815260040161276e90614511565b60405180910390fd5b505b505050505050565b60606000600167ffffffffffffffff8111156127a05761279f612c88565b5b6040519080825280602002602001820160405280156127ce5781602001602082028036833780820191505090505b50905082816000815181106127e6576127e561395f565b5b60200260200101818152505080915050919050565b61281a8473ffffffffffffffffffffffffffffffffffffffff166129ea565b156129da578373ffffffffffffffffffffffffffffffffffffffff1663f23a6e6187878686866040518663ffffffff1660e01b8152600401612860959493929190614531565b602060405180830381600087803b15801561287a57600080fd5b505af19250505080156128ab57506040513d601f19601f820116820180604052508101906128a8919061431b565b60015b612951576128b7614355565b806308c379a0141561291457506128cc614377565b806128d75750612916565b806040517f08c379a000000000000000000000000000000000000000000000000000000000815260040161290b9190612eb1565b60405180910390fd5b505b6040517f08c379a00000000000000000000000000000000000000000000000000000000081526004016129489061447f565b60405180910390fd5b63f23a6e6160e01b7bffffffffffffffffffffffffffffffffffffffffffffffffffffffff1916817bffffffffffffffffffffffffffffffffffffffffffffffffffffffff1916146129d8576040517f08c379a00000000000000000000000000000000000000000000000000000000081526004016129cf90614511565b60405180910390fd5b505b505050505050565b505050505050565b600080823b905060008111915050919050565b828054612a0990613809565b90600052602060002090601f016020900481019282612a2b5760008555612a72565b82601f10612a4457805160ff1916838001178555612a72565b82800160010185558215612a72579182015b82811115612a71578251825591602001919060010190612a56565b5b509050612a7f9190612a83565b5090565b5b80821115612a9c576000816000905550600101612a84565b5090565b6000604051905090565b600080fd5b600080fd5b600073ffffffffffffffffffffffffffffffffffffffff82169050919050565b6000612adf82612ab4565b9050919050565b612aef81612ad4565b8114612afa57600080fd5b50565b600081359050612b0c81612ae6565b92915050565b6000819050919050565b612b2581612b12565b8114612b3057600080fd5b50565b600081359050612b4281612b1c565b92915050565b60008060408385031215612b5f57612b5e612aaa565b5b6000612b6d85828601612afd565b9250506020612b7e85828601612b33565b9150509250929050565b612b9181612b12565b82525050565b6000602082019050612bac6000830184612b88565b92915050565b60007fffffffff0000000000000000000000000000000000000000000000000000000082169050919050565b612be781612bb2565b8114612bf257600080fd5b50565b600081359050612c0481612bde565b92915050565b600060208284031215612c2057612c1f612aaa565b5b6000612c2e84828501612bf5565b91505092915050565b60008115159050919050565b612c4c81612c37565b82525050565b6000602082019050612c676000830184612c43565b92915050565b600080fd5b600080fd5b6000601f19601f8301169050919050565b7f4e487b7100000000000000000000000000000000000000000000000000000000600052604160045260246000fd5b612cc082612c77565b810181811067ffffffffffffffff82111715612cdf57612cde612c88565b5b80604052505050565b6000612cf2612aa0565b9050612cfe8282612cb7565b919050565b600067ffffffffffffffff821115612d1e57612d1d612c88565b5b612d2782612c77565b9050602081019050919050565b82818337600083830152505050565b6000612d56612d5184612d03565b612ce8565b905082815260208101848484011115612d7257612d71612c72565b5b612d7d848285612d34565b509392505050565b600082601f830112612d9a57612d99612c6d565b5b8135612daa848260208601612d43565b91505092915050565b600060208284031215612dc957612dc8612aaa565b5b600082013567ffffffffffffffff811115612de757612de6612aaf565b5b612df384828501612d85565b91505092915050565b600060208284031215612e1257612e11612aaa565b5b6000612e2084828501612b33565b91505092915050565b600081519050919050565b600082825260208201905092915050565b60005b83811015612e63578082015181840152602081019050612e48565b83811115612e72576000848401525b50505050565b6000612e8382612e29565b612e8d8185612e34565b9350612e9d818560208601612e45565b612ea681612c77565b840191505092915050565b60006020820190508181036000830152612ecb8184612e78565b905092915050565b600067ffffffffffffffff821115612eee57612eed612c88565b5b602082029050602081019050919050565b600080fd5b6000612f17612f1284612ed3565b612ce8565b90508083825260208201905060208402830185811115612f3a57612f39612eff565b5b835b81811015612f635780612f4f8882612b33565b845260208401935050602081019050612f3c565b5050509392505050565b600082601f830112612f8257612f81612c6d565b5b8135612f92848260208601612f04565b91505092915050565b600067ffffffffffffffff821115612fb657612fb5612c88565b5b612fbf82612c77565b9050602081019050919050565b6000612fdf612fda84612f9b565b612ce8565b905082815260208101848484011115612ffb57612ffa612c72565b5b613006848285612d34565b509392505050565b600082601f83011261302357613022612c6d565b5b8135613033848260208601612fcc565b91505092915050565b6000806000806080858703121561305657613055612aaa565b5b600061306487828801612afd565b945050602085013567ffffffffffffffff81111561308557613084612aaf565b5b61309187828801612f6d565b935050604085013567ffffffffffffffff8111156130b2576130b1612aaf565b5b6130be87828801612f6d565b925050606085013567ffffffffffffffff8111156130df576130de612aaf565b5b6130eb8782880161300e565b91505092959194509250565b60006020828403121561310d5761310c612aaa565b5b600061311b84828501612afd565b91505092915050565b600080600080600060a086880312156131405761313f612aaa565b5b600061314e88828901612afd565b955050602061315f88828901612afd565b945050604086013567ffffffffffffffff8111156131805761317f612aaf565b5b61318c88828901612f6d565b935050606086013567ffffffffffffffff8111156131ad576131ac612aaf565b5b6131b988828901612f6d565b925050608086013567ffffffffffffffff8111156131da576131d9612aaf565b5b6131e68882890161300e565b9150509295509295909350565b600067ffffffffffffffff82111561320e5761320d612c88565b5b602082029050602081019050919050565b600061323261322d846131f3565b612ce8565b9050808382526020820190506020840283018581111561325557613254612eff565b5b835b8181101561327e578061326a8882612afd565b845260208401935050602081019050613257565b5050509392505050565b600082601f83011261329d5761329c612c6d565b5b81356132ad84826020860161321f565b91505092915050565b600080604083850312156132cd576132cc612aaa565b5b600083013567ffffffffffffffff8111156132eb576132ea612aaf565b5b6132f785828601613288565b925050602083013567ffffffffffffffff81111561331857613317612aaf565b5b61332485828601612f6d565b9150509250929050565b600081519050919050565b600082825260208201905092915050565b6000819050602082019050919050565b61336381612b12565b82525050565b6000613375838361335a565b60208301905092915050565b6000602082019050919050565b60006133998261332e565b6133a38185613339565b93506133ae8361334a565b8060005b838110156133df5781516133c68882613369565b97506133d183613381565b9250506001810190506133b2565b5085935050505092915050565b60006020820190508181036000830152613406818461338e565b905092915050565b60008060006060848603121561342757613426612aaa565b5b600061343586828701612afd565b935050602084013567ffffffffffffffff81111561345657613455612aaf565b5b61346286828701612f6d565b925050604084013567ffffffffffffffff81111561348357613482612aaf565b5b61348f86828701612f6d565b9150509250925092565b600080600080608085870312156134b3576134b2612aaa565b5b60006134c187828801612afd565b94505060206134d287828801612b33565b93505060406134e387828801612b33565b925050606085013567ffffffffffffffff81111561350457613503612aaf565b5b6135108782880161300e565b91505092959194509250565b61352581612ad4565b82525050565b6000602082019050613540600083018461351c565b92915050565b61354f81612c37565b811461355a57600080fd5b50565b60008135905061356c81613546565b92915050565b6000806040838503121561358957613588612aaa565b5b600061359785828601612afd565b92505060206135a88582860161355d565b9150509250929050565b600080604083850312156135c9576135c8612aaa565b5b60006135d785828601612afd565b92505060206135e885828601612afd565b9150509250929050565b600080600080600060a0868803121561360e5761360d612aaa565b5b600061361c88828901612afd565b955050602061362d88828901612afd565b945050604061363e88828901612b33565b935050606061364f88828901612b33565b925050608086013567ffffffffffffffff8111156136705761366f612aaf565b5b61367c8882890161300e565b9150509295509295909350565b6000806000606084860312156136a2576136a1612aaa565b5b60006136b086828701612afd565b93505060206136c186828701612b33565b92505060406136d286828701612b33565b9150509250925092565b7f455243313135353a2062616c616e636520717565727920666f7220746865207a60008201527f65726f2061646472657373000000000000000000000000000000000000000000602082015250565b6000613738602b83612e34565b9150613743826136dc565b604082019050919050565b600060208201905081810360008301526137678161372b565b9050919050565b7f4f776e61626c653a2063616c6c6572206973206e6f7420746865206f776e6572600082015250565b60006137a4602083612e34565b91506137af8261376e565b602082019050919050565b600060208201905081810360008301526137d381613797565b9050919050565b7f4e487b7100000000000000000000000000000000000000000000000000000000600052602260045260246000fd5b6000600282049050600182168061382157607f821691505b60208210811415613835576138346137da565b5b50919050565b7f455243313135353a207472616e736665722063616c6c6572206973206e6f742060008201527f6f776e6572206e6f7220617070726f7665640000000000000000000000000000602082015250565b6000613897603283612e34565b91506138a28261383b565b604082019050919050565b600060208201905081810360008301526138c68161388a565b9050919050565b7f455243313135353a206163636f756e747320616e6420696473206c656e67746860008201527f206d69736d617463680000000000000000000000000000000000000000000000602082015250565b6000613929602983612e34565b9150613934826138cd565b604082019050919050565b600060208201905081810360008301526139588161391c565b9050919050565b7f4e487b7100000000000000000000000000000000000000000000000000000000600052603260045260246000fd5b7f4e487b7100000000000000000000000000000000000000000000000000000000600052601160045260246000fd5b60006139c882612b12565b91507fffffffffffffffffffffffffffffffffffffffffffffffffffffffffffffffff8214156139fb576139fa61398e565b5b600182019050919050565b7f455243313135353a2063616c6c6572206973206e6f74206f776e6572206e6f7260008201527f20617070726f7665640000000000000000000000000000000000000000000000602082015250565b6000613a62602983612e34565b9150613a6d82613a06565b604082019050919050565b60006020820190508181036000830152613a9181613a55565b9050919050565b7f5265656e7472616e637947756172643a207265656e7472616e742063616c6c00600082015250565b6000613ace601f83612e34565b9150613ad982613a98565b602082019050919050565b60006020820190508181036000830152613afd81613ac1565b9050919050565b6000613b0f82612b12565b9150613b1a83612b12565b9250827fffffffffffffffffffffffffffffffffffffffffffffffffffffffffffffffff03821115613b4f57613b4e61398e565b5b828201905092915050565b7f4861746368696e674567673a204e6f7420726561647920746f20627265616b7560008201527f7000000000000000000000000000000000000000000000000000000000000000602082015250565b6000613bb6602183612e34565b9150613bc182613b5a565b604082019050919050565b60006020820190508181036000830152613be581613ba9565b9050919050565b6000604082019050613c01600083018561351c565b613c0e6020830184612b88565b9392505050565b7f4f776e61626c653a206e6577206f776e657220697320746865207a65726f206160008201527f6464726573730000000000000000000000000000000000000000000000000000602082015250565b6000613c71602683612e34565b9150613c7c82613c15565b604082019050919050565b60006020820190508181036000830152613ca081613c64565b9050919050565b7f455243313135353a206d696e7420746f20746865207a65726f2061646472657360008201527f7300000000000000000000000000000000000000000000000000000000000000602082015250565b6000613d03602183612e34565b9150613d0e82613ca7565b604082019050919050565b60006020820190508181036000830152613d3281613cf6565b9050919050565b7f455243313135353a2069647320616e6420616d6f756e7473206c656e6774682060008201527f6d69736d61746368000000000000000000000000000000000000000000000000602082015250565b6000613d95602883612e34565b9150613da082613d39565b604082019050919050565b60006020820190508181036000830152613dc481613d88565b9050919050565b60006040820190508181036000830152613de5818561338e565b90508181036020830152613df9818461338e565b90509392505050565b7f455243313135353a207472616e7366657220746f20746865207a65726f20616460008201527f6472657373000000000000000000000000000000000000000000000000000000602082015250565b6000613e5e602583612e34565b9150613e6982613e02565b604082019050919050565b60006020820190508181036000830152613e8d81613e51565b9050919050565b7f455243313135353a20696e73756666696369656e742062616c616e636520666f60008201527f72207472616e7366657200000000000000000000000000000000000000000000602082015250565b6000613ef0602a83612e34565b9150613efb82613e94565b604082019050919050565b60006020820190508181036000830152613f1f81613ee3565b9050919050565b7f5061757361626c653a206e6f7420706175736564000000000000000000000000600082015250565b6000613f5c601483612e34565b9150613f6782613f26565b602082019050919050565b60006020820190508181036000830152613f8b81613f4f565b9050919050565b7f455243313135353a206275726e2066726f6d20746865207a65726f206164647260008201527f6573730000000000000000000000000000000000000000000000000000000000602082015250565b6000613fee602383612e34565b9150613ff982613f92565b604082019050919050565b6000602082019050818103600083015261401d81613fe1565b9050919050565b7f455243313135353a206275726e20616d6f756e7420657863656564732062616c60008201527f616e636500000000000000000000000000000000000000000000000000000000602082015250565b6000614080602483612e34565b915061408b82614024565b604082019050919050565b600060208201905081810360008301526140af81614073565b9050919050565b60006040820190506140cb6000830185612b88565b6140d86020830184612b88565b9392505050565b7f5061757361626c653a2070617573656400000000000000000000000000000000600082015250565b6000614115601083612e34565b9150614120826140df565b602082019050919050565b6000602082019050818103600083015261414481614108565b9050919050565b7f455243313135353a2073657474696e6720617070726f76616c2073746174757360008201527f20666f722073656c660000000000000000000000000000000000000000000000602082015250565b60006141a7602983612e34565b91506141b28261414b565b604082019050919050565b600060208201905081810360008301526141d68161419a565b9050919050565b7f456767206973206e6f7420726561647900000000000000000000000000000000600082015250565b6000614213601083612e34565b915061421e826141dd565b602082019050919050565b6000602082019050818103600083015261424281614206565b9050919050565b600081519050919050565b600082825260208201905092915050565b600061427082614249565b61427a8185614254565b935061428a818560208601612e45565b61429381612c77565b840191505092915050565b600060a0820190506142b3600083018861351c565b6142c0602083018761351c565b81810360408301526142d2818661338e565b905081810360608301526142e6818561338e565b905081810360808301526142fa8184614265565b90509695505050505050565b60008151905061431581612bde565b92915050565b60006020828403121561433157614330612aaa565b5b600061433f84828501614306565b91505092915050565b60008160e01c9050919050565b600060033d11156143745760046000803e614371600051614348565b90505b90565b600060443d10156143875761440a565b61438f612aa0565b60043d036004823e80513d602482011167ffffffffffffffff821117156143b757505061440a565b808201805167ffffffffffffffff8111156143d5575050505061440a565b80602083010160043d0385018111156143f257505050505061440a565b61440182602001850186612cb7565b82955050505050505b90565b7f455243313135353a207472616e7366657220746f206e6f6e204552433131353560008201527f526563656976657220696d706c656d656e746572000000000000000000000000602082015250565b6000614469603483612e34565b91506144748261440d565b604082019050919050565b600060208201905081810360008301526144988161445c565b9050919050565b7f455243313135353a204552433131353552656365697665722072656a6563746560008201527f6420746f6b656e73000000000000000000000000000000000000000000000000602082015250565b60006144fb602883612e34565b91506145068261449f565b604082019050919050565b6000602082019050818103600083015261452a816144ee565b9050919050565b600060a082019050614546600083018861351c565b614553602083018761351c565b6145606040830186612b88565b61456d6060830185612b88565b818103608083015261457f8184614265565b9050969550505050505056fea264697066735822122045b734b8ca40edf36a8216a3d42d548825d74c3874196b4534ef46c2d6c539d464736f6c6343000809003368747470733a2f2f6173736574732e686265617374732e636f6d2f6861746368696e67656767732f7b69647d",
  "immutableReferences": {},
  "source": "// SPDX-License-Identifier: MIT\npragma solidity >=0.4.22 <0.9.0;\n\nimport \"./Dragon.sol\";\nimport \"./ERC1155SupplyForOwner.sol\";\nimport \"@openzeppelin/contracts/token/ERC1155/ERC1155.sol\";\nimport \"@openzeppelin/contracts/access/Ownable.sol\";\nimport \"@openzeppelin/contracts/security/Pausable.sol\";\nimport \"@openzeppelin/contracts/security/ReentrancyGuard.sol\";\nimport \"@openzeppelin/contracts/token/ERC1155/extensions/ERC1155Burnable.sol\";\n\ncontract HatchingEgg is\n    ERC1155,\n    Ownable,\n    Pausable,\n    ReentrancyGuard,\n    ERC1155Burnable,\n    ERC1155SupplyForOwner\n{\n    uint256 constant NUM_OPTIONS = 4;\n\n    uint256 internal constant _DONE = 1;\n    mapping(address => uint256) private _timestamps;\n    uint256 private _delay;\n    address private nftAddress; // Address of the Dragons\n\n    constructor(address _nftAddress, uint256 delay)\n        ERC1155(\"https://assets.hbeasts.com/hatchingeggs/{id}\")\n    {\n        nftAddress = _nftAddress;\n        _delay = delay;\n    }\n\n    function setDelay(uint256 delay) public onlyOwner {\n        _delay = delay;\n    }\n\n    function setURI(string memory newuri) public onlyOwner {\n        _setURI(newuri);\n    }\n\n    function pause() public onlyOwner {\n        _pause();\n    }\n\n    function unpause() public onlyOwner {\n        _unpause();\n    }\n\n    function numOptions() public pure override returns (uint256) {\n        return NUM_OPTIONS;\n    }\n\n    function breakUp(uint256 _optionId) public nonReentrant {\n        require(isReady(_msgSender()), \"HatchingEgg: Not ready to breakup\");\n        _burn(msg.sender, _optionId, 1);\n        _timestamps[msg.sender] = _DONE;\n        Dragon dragon = Dragon(nftAddress);\n        dragon.safeMintWithOption(msg.sender, _optionId);\n    }\n\n    // Request when the egg is ready to break up\n    function dueTime(address _owner) public view returns (uint256) {\n        return _timestamps[_owner];\n    }\n\n    function isReady(address _owner) public view returns (bool) {\n        return _timestamps[_owner] < block.timestamp;\n    }\n\n    function mint(\n        address account,\n        uint256 id,\n        uint256 amount,\n        bytes memory data\n    ) public onlyOwner nonReentrant {\n        _mint(account, id, amount, data);\n        _timestamps[account] = block.timestamp + _delay;\n    }\n\n    function mintBatch(\n        address to,\n        uint256[] memory ids,\n        uint256[] memory amounts,\n        bytes memory data\n    ) public onlyOwner {\n        _mintBatch(to, ids, amounts, data);\n    }\n\n    function _beforeTokenTransfer(\n        address operator,\n        address from,\n        address to,\n        uint256[] memory ids,\n        uint256[] memory amounts,\n        bytes memory data\n    ) internal override(ERC1155) whenNotPaused {\n        require(_timestamps[operator] < block.timestamp, \"Egg is not ready\");\n        super._beforeTokenTransfer(operator, from, to, ids, amounts, data);\n    }\n}\n",
  "sourcePath": "/home/isaiah/codes/NFT/contract/legendofbeasts/contracts/HatchingEgg.sol",
  "compiler": {
    "name": "solc",
    "version": "0.8.9+commit.e5eed63a.Emscripten.clang"
  },
  "schemaVersion": "3.4.3",
  "updatedAt": "2022-01-12T17:03:05.559Z",
  "networkType": "ethereum",
  "devdoc": {
    "kind": "dev",
    "methods": {
      "balanceOf(address,uint256)": {
        "details": "See {IERC1155-balanceOf}. Requirements: - `account` cannot be the zero address."
      },
      "balanceOfBatch(address[],uint256[])": {
        "details": "See {IERC1155-balanceOfBatch}. Requirements: - `accounts` and `ids` must have the same length."
      },
      "isApprovedForAll(address,address)": {
        "details": "See {IERC1155-isApprovedForAll}."
      },
      "owner()": {
        "details": "Returns the address of the current owner."
      },
      "paused()": {
        "details": "Returns true if the contract is paused, and false otherwise."
      },
      "renounceOwnership()": {
        "details": "Leaves the contract without owner. It will not be possible to call `onlyOwner` functions anymore. Can only be called by the current owner. NOTE: Renouncing ownership will leave the contract without an owner, thereby removing any functionality that is only available to the owner."
      },
      "safeBatchTransferFrom(address,address,uint256[],uint256[],bytes)": {
        "details": "See {IERC1155-safeBatchTransferFrom}."
      },
      "safeTransferFrom(address,address,uint256,uint256,bytes)": {
        "details": "See {IERC1155-safeTransferFrom}."
      },
      "setApprovalForAll(address,bool)": {
        "details": "See {IERC1155-setApprovalForAll}."
      },
      "supportsInterface(bytes4)": {
        "details": "See {IERC165-supportsInterface}."
      },
      "transferOwnership(address)": {
        "details": "Transfers ownership of the contract to a new account (`newOwner`). Can only be called by the current owner."
      },
      "uri(uint256)": {
        "details": "See {IERC1155MetadataURI-uri}. This implementation returns the same URI for *all* token types. It relies on the token type ID substitution mechanism https://eips.ethereum.org/EIPS/eip-1155#metadata[defined in the EIP]. Clients calling this function must replace the `\\{id\\}` substring with the actual token type ID."
      }
    },
    "version": 1
  },
  "userdoc": {
    "kind": "user",
    "methods": {},
    "version": 1
  }
}