{
  "contractName": "HatchingEgg",
  "abi": [
    {
      "inputs": [
        {
          "internalType": "address",
          "name": "_nftAddress",
          "type": "address"
        },
        {
          "internalType": "uint256",
          "name": "delay",
          "type": "uint256"
        }
      ],
      "stateMutability": "nonpayable",
      "type": "constructor"
    },
    {
      "anonymous": false,
      "inputs": [
        {
          "indexed": true,
          "internalType": "address",
          "name": "account",
          "type": "address"
        },
        {
          "indexed": true,
          "internalType": "address",
          "name": "operator",
          "type": "address"
        },
        {
          "indexed": false,
          "internalType": "bool",
          "name": "approved",
          "type": "bool"
        }
      ],
      "name": "ApprovalForAll",
      "type": "event"
    },
    {
      "anonymous": false,
      "inputs": [
        {
          "indexed": true,
          "internalType": "address",
          "name": "previousOwner",
          "type": "address"
        },
        {
          "indexed": true,
          "internalType": "address",
          "name": "newOwner",
          "type": "address"
        }
      ],
      "name": "OwnershipTransferred",
      "type": "event"
    },
    {
      "anonymous": false,
      "inputs": [
        {
          "indexed": false,
          "internalType": "address",
          "name": "account",
          "type": "address"
        }
      ],
      "name": "Paused",
      "type": "event"
    },
    {
      "anonymous": false,
      "inputs": [
        {
          "indexed": true,
          "internalType": "address",
          "name": "operator",
          "type": "address"
        },
        {
          "indexed": true,
          "internalType": "address",
          "name": "from",
          "type": "address"
        },
        {
          "indexed": true,
          "internalType": "address",
          "name": "to",
          "type": "address"
        },
        {
          "indexed": false,
          "internalType": "uint256[]",
          "name": "ids",
          "type": "uint256[]"
        },
        {
          "indexed": false,
          "internalType": "uint256[]",
          "name": "values",
          "type": "uint256[]"
        }
      ],
      "name": "TransferBatch",
      "type": "event"
    },
    {
      "anonymous": false,
      "inputs": [
        {
          "indexed": true,
          "internalType": "address",
          "name": "operator",
          "type": "address"
        },
        {
          "indexed": true,
          "internalType": "address",
          "name": "from",
          "type": "address"
        },
        {
          "indexed": true,
          "internalType": "address",
          "name": "to",
          "type": "address"
        },
        {
          "indexed": false,
          "internalType": "uint256",
          "name": "id",
          "type": "uint256"
        },
        {
          "indexed": false,
          "internalType": "uint256",
          "name": "value",
          "type": "uint256"
        }
      ],
      "name": "TransferSingle",
      "type": "event"
    },
    {
      "anonymous": false,
      "inputs": [
        {
          "indexed": false,
          "internalType": "string",
          "name": "value",
          "type": "string"
        },
        {
          "indexed": true,
          "internalType": "uint256",
          "name": "id",
          "type": "uint256"
        }
      ],
      "name": "URI",
      "type": "event"
    },
    {
      "anonymous": false,
      "inputs": [
        {
          "indexed": false,
          "internalType": "address",
          "name": "account",
          "type": "address"
        }
      ],
      "name": "Unpaused",
      "type": "event"
    },
    {
      "inputs": [
        {
          "internalType": "address",
          "name": "account",
          "type": "address"
        },
        {
          "internalType": "uint256",
          "name": "id",
          "type": "uint256"
        }
      ],
      "name": "balanceOf",
      "outputs": [
        {
          "internalType": "uint256",
          "name": "",
          "type": "uint256"
        }
      ],
      "stateMutability": "view",
      "type": "function",
      "constant": true
    },
    {
      "inputs": [
        {
          "internalType": "address[]",
          "name": "accounts",
          "type": "address[]"
        },
        {
          "internalType": "uint256[]",
          "name": "ids",
          "type": "uint256[]"
        }
      ],
      "name": "balanceOfBatch",
      "outputs": [
        {
          "internalType": "uint256[]",
          "name": "",
          "type": "uint256[]"
        }
      ],
      "stateMutability": "view",
      "type": "function",
      "constant": true
    },
    {
      "inputs": [
        {
          "internalType": "address",
          "name": "account",
          "type": "address"
        },
        {
          "internalType": "uint256",
          "name": "id",
          "type": "uint256"
        },
        {
          "internalType": "uint256",
          "name": "value",
          "type": "uint256"
        }
      ],
      "name": "burn",
      "outputs": [],
      "stateMutability": "nonpayable",
      "type": "function"
    },
    {
      "inputs": [
        {
          "internalType": "address",
          "name": "account",
          "type": "address"
        },
        {
          "internalType": "uint256[]",
          "name": "ids",
          "type": "uint256[]"
        },
        {
          "internalType": "uint256[]",
          "name": "values",
          "type": "uint256[]"
        }
      ],
      "name": "burnBatch",
      "outputs": [],
      "stateMutability": "nonpayable",
      "type": "function"
    },
    {
      "inputs": [
        {
          "internalType": "address",
          "name": "account",
          "type": "address"
        },
        {
          "internalType": "address",
          "name": "operator",
          "type": "address"
        }
      ],
      "name": "isApprovedForAll",
      "outputs": [
        {
          "internalType": "bool",
          "name": "",
          "type": "bool"
        }
      ],
      "stateMutability": "view",
      "type": "function",
      "constant": true
    },
    {
      "inputs": [],
      "name": "owner",
      "outputs": [
        {
          "internalType": "address",
          "name": "",
          "type": "address"
        }
      ],
      "stateMutability": "view",
      "type": "function",
      "constant": true
    },
    {
      "inputs": [],
      "name": "paused",
      "outputs": [
        {
          "internalType": "bool",
          "name": "",
          "type": "bool"
        }
      ],
      "stateMutability": "view",
      "type": "function",
      "constant": true
    },
    {
      "inputs": [],
      "name": "renounceOwnership",
      "outputs": [],
      "stateMutability": "nonpayable",
      "type": "function"
    },
    {
      "inputs": [
        {
          "internalType": "address",
          "name": "from",
          "type": "address"
        },
        {
          "internalType": "address",
          "name": "to",
          "type": "address"
        },
        {
          "internalType": "uint256[]",
          "name": "ids",
          "type": "uint256[]"
        },
        {
          "internalType": "uint256[]",
          "name": "amounts",
          "type": "uint256[]"
        },
        {
          "internalType": "bytes",
          "name": "data",
          "type": "bytes"
        }
      ],
      "name": "safeBatchTransferFrom",
      "outputs": [],
      "stateMutability": "nonpayable",
      "type": "function"
    },
    {
      "inputs": [
        {
          "internalType": "address",
          "name": "from",
          "type": "address"
        },
        {
          "internalType": "address",
          "name": "to",
          "type": "address"
        },
        {
          "internalType": "uint256",
          "name": "id",
          "type": "uint256"
        },
        {
          "internalType": "uint256",
          "name": "amount",
          "type": "uint256"
        },
        {
          "internalType": "bytes",
          "name": "data",
          "type": "bytes"
        }
      ],
      "name": "safeTransferFrom",
      "outputs": [],
      "stateMutability": "nonpayable",
      "type": "function"
    },
    {
      "inputs": [
        {
          "internalType": "address",
          "name": "operator",
          "type": "address"
        },
        {
          "internalType": "bool",
          "name": "approved",
          "type": "bool"
        }
      ],
      "name": "setApprovalForAll",
      "outputs": [],
      "stateMutability": "nonpayable",
      "type": "function"
    },
    {
      "inputs": [
        {
          "internalType": "bytes4",
          "name": "interfaceId",
          "type": "bytes4"
        }
      ],
      "name": "supportsInterface",
      "outputs": [
        {
          "internalType": "bool",
          "name": "",
          "type": "bool"
        }
      ],
      "stateMutability": "view",
      "type": "function",
      "constant": true
    },
    {
      "inputs": [
        {
          "internalType": "address",
          "name": "newOwner",
          "type": "address"
        }
      ],
      "name": "transferOwnership",
      "outputs": [],
      "stateMutability": "nonpayable",
      "type": "function"
    },
    {
      "inputs": [
        {
          "internalType": "uint256",
          "name": "",
          "type": "uint256"
        }
      ],
      "name": "uri",
      "outputs": [
        {
          "internalType": "string",
          "name": "",
          "type": "string"
        }
      ],
      "stateMutability": "view",
      "type": "function",
      "constant": true
    },
    {
      "inputs": [
        {
          "internalType": "uint256",
          "name": "delay",
          "type": "uint256"
        }
      ],
      "name": "setDelay",
      "outputs": [],
      "stateMutability": "nonpayable",
      "type": "function"
    },
    {
      "inputs": [
        {
          "internalType": "string",
          "name": "newuri",
          "type": "string"
        }
      ],
      "name": "setURI",
      "outputs": [],
      "stateMutability": "nonpayable",
      "type": "function"
    },
    {
      "inputs": [],
      "name": "pause",
      "outputs": [],
      "stateMutability": "nonpayable",
      "type": "function"
    },
    {
      "inputs": [],
      "name": "unpause",
      "outputs": [],
      "stateMutability": "nonpayable",
      "type": "function"
    },
    {
      "inputs": [
        {
          "internalType": "address",
          "name": "_owner",
          "type": "address"
        }
      ],
      "name": "supplyForOwner",
      "outputs": [
        {
          "internalType": "uint256",
          "name": "",
          "type": "uint256"
        }
      ],
      "stateMutability": "view",
      "type": "function",
      "constant": true
    },
    {
      "inputs": [
        {
          "internalType": "uint256",
          "name": "_optionId",
          "type": "uint256"
        }
      ],
      "name": "breakUp",
      "outputs": [],
      "stateMutability": "nonpayable",
      "type": "function"
    },
    {
      "inputs": [
        {
          "internalType": "address",
          "name": "_owner",
          "type": "address"
        }
      ],
      "name": "dueTime",
      "outputs": [
        {
          "internalType": "uint256",
          "name": "",
          "type": "uint256"
        }
      ],
      "stateMutability": "view",
      "type": "function",
      "constant": true
    },
    {
      "inputs": [
        {
          "internalType": "uint256",
          "name": "_optionId",
          "type": "uint256"
        }
      ],
      "name": "isReady",
      "outputs": [
        {
          "internalType": "bool",
          "name": "ready",
          "type": "bool"
        }
      ],
      "stateMutability": "view",
      "type": "function",
      "constant": true
    },
    {
      "inputs": [
        {
          "internalType": "address",
          "name": "account",
          "type": "address"
        },
        {
          "internalType": "uint256",
          "name": "id",
          "type": "uint256"
        },
        {
          "internalType": "uint256",
          "name": "amount",
          "type": "uint256"
        },
        {
          "internalType": "bytes",
          "name": "data",
          "type": "bytes"
        }
      ],
      "name": "mint",
      "outputs": [],
      "stateMutability": "nonpayable",
      "type": "function"
    },
    {
      "inputs": [
        {
          "internalType": "address",
          "name": "to",
          "type": "address"
        },
        {
          "internalType": "uint256[]",
          "name": "ids",
          "type": "uint256[]"
        },
        {
          "internalType": "uint256[]",
          "name": "amounts",
          "type": "uint256[]"
        },
        {
          "internalType": "bytes",
          "name": "data",
          "type": "bytes"
        }
      ],
      "name": "mintBatch",
      "outputs": [],
      "stateMutability": "nonpayable",
      "type": "function"
    }
  ],
  "bytecode": "0x60806040523480156200001157600080fd5b5060405162004a2b38038062004a2b833981810160405281019062000037919062000335565b6040518060600160405280602c8152602001620049ff602c91396200006281620000f660201b60201c565b5062000083620000776200011260201b60201c565b6200011a60201b60201c565b6000600360146101000a81548160ff021916908315150217905550600160048190555081600760006101000a81548173ffffffffffffffffffffffffffffffffffffffff021916908373ffffffffffffffffffffffffffffffffffffffff160217905550806006819055505050620003e1565b80600290805190602001906200010e929190620001e0565b5050565b600033905090565b6000600360009054906101000a900473ffffffffffffffffffffffffffffffffffffffff16905081600360006101000a81548173ffffffffffffffffffffffffffffffffffffffff021916908373ffffffffffffffffffffffffffffffffffffffff1602179055508173ffffffffffffffffffffffffffffffffffffffff168173ffffffffffffffffffffffffffffffffffffffff167f8be0079c531659141344cd1fd0a4f28419497f9722a3daafe3b4186f6b6457e060405160405180910390a35050565b828054620001ee90620003ab565b90600052602060002090601f0160209004810192826200021257600085556200025e565b82601f106200022d57805160ff19168380011785556200025e565b828001600101855582156200025e579182015b828111156200025d57825182559160200191906001019062000240565b5b5090506200026d919062000271565b5090565b5b808211156200028c57600081600090555060010162000272565b5090565b600080fd5b600073ffffffffffffffffffffffffffffffffffffffff82169050919050565b6000620002c28262000295565b9050919050565b620002d481620002b5565b8114620002e057600080fd5b50565b600081519050620002f481620002c9565b92915050565b6000819050919050565b6200030f81620002fa565b81146200031b57600080fd5b50565b6000815190506200032f8162000304565b92915050565b600080604083850312156200034f576200034e62000290565b5b60006200035f85828601620002e3565b925050602062000372858286016200031e565b9150509250929050565b7f4e487b7100000000000000000000000000000000000000000000000000000000600052602260045260246000fd5b60006002820490506001821680620003c457607f821691505b60208210811415620003db57620003da6200037c565b5b50919050565b61460e80620003f16000396000f3fe608060405234801561001057600080fd5b50600436106101575760003560e01c8063715018a6116100c3578063d8da96ef1161007c578063d8da96ef146103ae578063e177246e146103ca578063e985e9c5146103e6578063f242432a14610416578063f2fde38b14610432578063f5298aca1461044e57610157565b8063715018a614610314578063731133e91461031e5780638456cb591461033a5780638da5cb5b14610344578063a22cb46514610362578063cf39bb5a1461037e57610157565b80632eb2c2d6116101155780632eb2c2d6146102545780633f4ba83a146102705780634e1273f41461027a57806350df8f71146102aa5780635c975abb146102da5780636b20c454146102f857610157565b8062fdd58e1461015c57806301ffc9a71461018c57806302fe5305146101bc5780630e89341c146101d85780631f7fdffa146102085780632d798d6314610224575b600080fd5b61017660048036038101906101719190612bbe565b61046a565b6040516101839190612c0d565b60405180910390f35b6101a660048036038101906101a19190612c80565b610533565b6040516101b39190612cc8565b60405180910390f35b6101d660048036038101906101d19190612e29565b610615565b005b6101f260048036038101906101ed9190612e72565b61069d565b6040516101ff9190612f27565b60405180910390f35b610222600480360381019061021d91906130b2565b610731565b005b61023e6004803603810190610239919061316d565b6107bf565b60405161024b9190612c0d565b60405180910390f35b61026e6004803603810190610269919061319a565b610808565b005b6102786108a9565b005b610294600480360381019061028f919061332c565b61092f565b6040516102a19190613462565b60405180910390f35b6102c460048036038101906102bf9190612e72565b610a48565b6040516102d19190612cc8565b60405180910390f35b6102e2610ab4565b6040516102ef9190612cc8565b60405180910390f35b610312600480360381019061030d9190613484565b610acb565b005b61031c610b68565b005b6103386004803603810190610333919061350f565b610bf0565b005b610342610d25565b005b61034c610dab565b60405161035991906135a1565b60405180910390f35b61037c600480360381019061037791906135e8565b610dd5565b005b6103986004803603810190610393919061316d565b610deb565b6040516103a59190612c0d565b60405180910390f35b6103c860048036038101906103c39190612e72565b610dff565b005b6103e460048036038101906103df9190612e72565b610f84565b005b61040060048036038101906103fb9190613628565b61100a565b60405161040d9190612cc8565b60405180910390f35b610430600480360381019061042b9190613668565b61109e565b005b61044c6004803603810190610447919061316d565b61113f565b005b610468600480360381019061046391906136ff565b611237565b005b60008073ffffffffffffffffffffffffffffffffffffffff168373ffffffffffffffffffffffffffffffffffffffff1614156104db576040517f08c379a00000000000000000000000000000000000000000000000000000000081526004016104d2906137c4565b60405180910390fd5b60008083815260200190815260200160002060008473ffffffffffffffffffffffffffffffffffffffff1673ffffffffffffffffffffffffffffffffffffffff16815260200190815260200160002054905092915050565b60007fd9b67a26000000000000000000000000000000000000000000000000000000007bffffffffffffffffffffffffffffffffffffffffffffffffffffffff1916827bffffffffffffffffffffffffffffffffffffffffffffffffffffffff191614806105fe57507f0e89341c000000000000000000000000000000000000000000000000000000007bffffffffffffffffffffffffffffffffffffffffffffffffffffffff1916827bffffffffffffffffffffffffffffffffffffffffffffffffffffffff1916145b8061060e575061060d826112d4565b5b9050919050565b61061d61133e565b73ffffffffffffffffffffffffffffffffffffffff1661063b610dab565b73ffffffffffffffffffffffffffffffffffffffff1614610691576040517f08c379a000000000000000000000000000000000000000000000000000000000815260040161068890613830565b60405180910390fd5b61069a81611346565b50565b6060600280546106ac9061387f565b80601f01602080910402602001604051908101604052809291908181526020018280546106d89061387f565b80156107255780601f106106fa57610100808354040283529160200191610725565b820191906000526020600020905b81548152906001019060200180831161070857829003601f168201915b50505050509050919050565b61073961133e565b73ffffffffffffffffffffffffffffffffffffffff16610757610dab565b73ffffffffffffffffffffffffffffffffffffffff16146107ad576040517f08c379a00000000000000000000000000000000000000000000000000000000081526004016107a490613830565b60405180910390fd5b6107b984848484611360565b50505050565b6000600560008373ffffffffffffffffffffffffffffffffffffffff1673ffffffffffffffffffffffffffffffffffffffff168152602001908152602001600020549050919050565b61081061133e565b73ffffffffffffffffffffffffffffffffffffffff168573ffffffffffffffffffffffffffffffffffffffff16148061085657506108558561085061133e565b61100a565b5b610895576040517f08c379a000000000000000000000000000000000000000000000000000000000815260040161088c90613923565b60405180910390fd5b6108a2858585858561157e565b5050505050565b6108b161133e565b73ffffffffffffffffffffffffffffffffffffffff166108cf610dab565b73ffffffffffffffffffffffffffffffffffffffff1614610925576040517f08c379a000000000000000000000000000000000000000000000000000000000815260040161091c90613830565b60405180910390fd5b61092d611892565b565b60608151835114610975576040517f08c379a000000000000000000000000000000000000000000000000000000000815260040161096c906139b5565b60405180910390fd5b6000835167ffffffffffffffff81111561099257610991612cfe565b5b6040519080825280602002602001820160405280156109c05781602001602082028036833780820191505090505b50905060005b8451811015610a3d57610a0d8582815181106109e5576109e46139d5565b5b6020026020010151858381518110610a00576109ff6139d5565b5b602002602001015161046a565b828281518110610a2057610a1f6139d5565b5b60200260200101818152505080610a3690613a33565b90506109c6565b508091505092915050565b600080610a5361133e565b90506000610a61828561046a565b118015610aac575042600560008373ffffffffffffffffffffffffffffffffffffffff1673ffffffffffffffffffffffffffffffffffffffff16815260200190815260200160002054105b915050919050565b6000600360149054906101000a900460ff16905090565b610ad361133e565b73ffffffffffffffffffffffffffffffffffffffff168373ffffffffffffffffffffffffffffffffffffffff161480610b195750610b1883610b1361133e565b61100a565b5b610b58576040517f08c379a0000000000000000000000000000000000000000000000000000000008152600401610b4f90613aee565b60405180910390fd5b610b63838383611934565b505050565b610b7061133e565b73ffffffffffffffffffffffffffffffffffffffff16610b8e610dab565b73ffffffffffffffffffffffffffffffffffffffff1614610be4576040517f08c379a0000000000000000000000000000000000000000000000000000000008152600401610bdb90613830565b60405180910390fd5b610bee6000611be5565b565b610bf861133e565b73ffffffffffffffffffffffffffffffffffffffff16610c16610dab565b73ffffffffffffffffffffffffffffffffffffffff1614610c6c576040517f08c379a0000000000000000000000000000000000000000000000000000000008152600401610c6390613830565b60405180910390fd5b60026004541415610cb2576040517f08c379a0000000000000000000000000000000000000000000000000000000008152600401610ca990613b5a565b60405180910390fd5b6002600481905550610cc684848484611cab565b60065442610cd49190613b7a565b600560008673ffffffffffffffffffffffffffffffffffffffff1673ffffffffffffffffffffffffffffffffffffffff16815260200190815260200160002081905550600160048190555050505050565b610d2d61133e565b73ffffffffffffffffffffffffffffffffffffffff16610d4b610dab565b73ffffffffffffffffffffffffffffffffffffffff1614610da1576040517f08c379a0000000000000000000000000000000000000000000000000000000008152600401610d9890613830565b60405180910390fd5b610da9611e41565b565b6000600360009054906101000a900473ffffffffffffffffffffffffffffffffffffffff16905090565b610de7610de061133e565b8383611ee4565b5050565b6000610df8826004612051565b9050919050565b60026004541415610e45576040517f08c379a0000000000000000000000000000000000000000000000000000000008152600401610e3c90613b5a565b60405180910390fd5b6002600481905550610e5681610a48565b610e95576040517f08c379a0000000000000000000000000000000000000000000000000000000008152600401610e8c90613c42565b60405180910390fd5b610ea133826001612092565b6001600560003373ffffffffffffffffffffffffffffffffffffffff1673ffffffffffffffffffffffffffffffffffffffff168152602001908152602001600020819055506000600760009054906101000a900473ffffffffffffffffffffffffffffffffffffffff1690508073ffffffffffffffffffffffffffffffffffffffff166340d097c3336040518263ffffffff1660e01b8152600401610f4691906135a1565b600060405180830381600087803b158015610f6057600080fd5b505af1158015610f74573d6000803e3d6000fd5b5050505050600160048190555050565b610f8c61133e565b73ffffffffffffffffffffffffffffffffffffffff16610faa610dab565b73ffffffffffffffffffffffffffffffffffffffff1614611000576040517f08c379a0000000000000000000000000000000000000000000000000000000008152600401610ff790613830565b60405180910390fd5b8060068190555050565b6000600160008473ffffffffffffffffffffffffffffffffffffffff1673ffffffffffffffffffffffffffffffffffffffff16815260200190815260200160002060008373ffffffffffffffffffffffffffffffffffffffff1673ffffffffffffffffffffffffffffffffffffffff16815260200190815260200160002060009054906101000a900460ff16905092915050565b6110a661133e565b73ffffffffffffffffffffffffffffffffffffffff168573ffffffffffffffffffffffffffffffffffffffff1614806110ec57506110eb856110e661133e565b61100a565b5b61112b576040517f08c379a000000000000000000000000000000000000000000000000000000000815260040161112290613aee565b60405180910390fd5b61113885858585856122af565b5050505050565b61114761133e565b73ffffffffffffffffffffffffffffffffffffffff16611165610dab565b73ffffffffffffffffffffffffffffffffffffffff16146111bb576040517f08c379a00000000000000000000000000000000000000000000000000000000081526004016111b290613830565b60405180910390fd5b600073ffffffffffffffffffffffffffffffffffffffff168173ffffffffffffffffffffffffffffffffffffffff16141561122b576040517f08c379a000000000000000000000000000000000000000000000000000000000815260040161122290613cd4565b60405180910390fd5b61123481611be5565b50565b61123f61133e565b73ffffffffffffffffffffffffffffffffffffffff168373ffffffffffffffffffffffffffffffffffffffff16148061128557506112848361127f61133e565b61100a565b5b6112c4576040517f08c379a00000000000000000000000000000000000000000000000000000000081526004016112bb90613aee565b60405180910390fd5b6112cf838383612092565b505050565b60007f01ffc9a7000000000000000000000000000000000000000000000000000000007bffffffffffffffffffffffffffffffffffffffffffffffffffffffff1916827bffffffffffffffffffffffffffffffffffffffffffffffffffffffff1916149050919050565b600033905090565b806002908051906020019061135c929190612a73565b5050565b600073ffffffffffffffffffffffffffffffffffffffff168473ffffffffffffffffffffffffffffffffffffffff1614156113d0576040517f08c379a00000000000000000000000000000000000000000000000000000000081526004016113c790613d66565b60405180910390fd5b8151835114611414576040517f08c379a000000000000000000000000000000000000000000000000000000000815260040161140b90613df8565b60405180910390fd5b600061141e61133e565b905061142f81600087878787612531565b60005b84518110156114e85783818151811061144e5761144d6139d5565b5b602002602001015160008087848151811061146c5761146b6139d5565b5b6020026020010151815260200190815260200160002060008873ffffffffffffffffffffffffffffffffffffffff1673ffffffffffffffffffffffffffffffffffffffff16815260200190815260200160002060008282546114ce9190613b7a565b9250508190555080806114e090613a33565b915050611432565b508473ffffffffffffffffffffffffffffffffffffffff16600073ffffffffffffffffffffffffffffffffffffffff168273ffffffffffffffffffffffffffffffffffffffff167f4a39dc06d4c0dbc64b70af90fd698a233a518aa5d07e595d983b8c0526c8f7fb8787604051611560929190613e18565b60405180910390a461157781600087878787612610565b5050505050565b81518351146115c2576040517f08c379a00000000000000000000000000000000000000000000000000000000081526004016115b990613df8565b60405180910390fd5b600073ffffffffffffffffffffffffffffffffffffffff168473ffffffffffffffffffffffffffffffffffffffff161415611632576040517f08c379a000000000000000000000000000000000000000000000000000000000815260040161162990613ec1565b60405180910390fd5b600061163c61133e565b905061164c818787878787612531565b60005b84518110156117fd57600085828151811061166d5761166c6139d5565b5b60200260200101519050600085838151811061168c5761168b6139d5565b5b60200260200101519050600080600084815260200190815260200160002060008b73ffffffffffffffffffffffffffffffffffffffff1673ffffffffffffffffffffffffffffffffffffffff1681526020019081526020016000205490508181101561172d576040517f08c379a000000000000000000000000000000000000000000000000000000000815260040161172490613f53565b60405180910390fd5b81810360008085815260200190815260200160002060008c73ffffffffffffffffffffffffffffffffffffffff1673ffffffffffffffffffffffffffffffffffffffff168152602001908152602001600020819055508160008085815260200190815260200160002060008b73ffffffffffffffffffffffffffffffffffffffff1673ffffffffffffffffffffffffffffffffffffffff16815260200190815260200160002060008282546117e29190613b7a565b92505081905550505050806117f690613a33565b905061164f565b508473ffffffffffffffffffffffffffffffffffffffff168673ffffffffffffffffffffffffffffffffffffffff168273ffffffffffffffffffffffffffffffffffffffff167f4a39dc06d4c0dbc64b70af90fd698a233a518aa5d07e595d983b8c0526c8f7fb8787604051611874929190613e18565b60405180910390a461188a818787878787612610565b505050505050565b61189a610ab4565b6118d9576040517f08c379a00000000000000000000000000000000000000000000000000000000081526004016118d090613fbf565b60405180910390fd5b6000600360146101000a81548160ff0219169083151502179055507f5db9ee0a495bf2e6ff9c91a7834c1ba4fdd244a5e8aa4e537bd38aeae4b073aa61191d61133e565b60405161192a91906135a1565b60405180910390a1565b600073ffffffffffffffffffffffffffffffffffffffff168373ffffffffffffffffffffffffffffffffffffffff1614156119a4576040517f08c379a000000000000000000000000000000000000000000000000000000000815260040161199b90614051565b60405180910390fd5b80518251146119e8576040517f08c379a00000000000000000000000000000000000000000000000000000000081526004016119df90613df8565b60405180910390fd5b60006119f261133e565b9050611a1281856000868660405180602001604052806000815250612531565b60005b8351811015611b5f576000848281518110611a3357611a326139d5565b5b602002602001015190506000848381518110611a5257611a516139d5565b5b60200260200101519050600080600084815260200190815260200160002060008973ffffffffffffffffffffffffffffffffffffffff1673ffffffffffffffffffffffffffffffffffffffff16815260200190815260200160002054905081811015611af3576040517f08c379a0000000000000000000000000000000000000000000000000000000008152600401611aea906140e3565b60405180910390fd5b81810360008085815260200190815260200160002060008a73ffffffffffffffffffffffffffffffffffffffff1673ffffffffffffffffffffffffffffffffffffffff168152602001908152602001600020819055505050508080611b5790613a33565b915050611a15565b50600073ffffffffffffffffffffffffffffffffffffffff168473ffffffffffffffffffffffffffffffffffffffff168273ffffffffffffffffffffffffffffffffffffffff167f4a39dc06d4c0dbc64b70af90fd698a233a518aa5d07e595d983b8c0526c8f7fb8686604051611bd7929190613e18565b60405180910390a450505050565b6000600360009054906101000a900473ffffffffffffffffffffffffffffffffffffffff16905081600360006101000a81548173ffffffffffffffffffffffffffffffffffffffff021916908373ffffffffffffffffffffffffffffffffffffffff1602179055508173ffffffffffffffffffffffffffffffffffffffff168173ffffffffffffffffffffffffffffffffffffffff167f8be0079c531659141344cd1fd0a4f28419497f9722a3daafe3b4186f6b6457e060405160405180910390a35050565b600073ffffffffffffffffffffffffffffffffffffffff168473ffffffffffffffffffffffffffffffffffffffff161415611d1b576040517f08c379a0000000000000000000000000000000000000000000000000000000008152600401611d1290613d66565b60405180910390fd5b6000611d2561133e565b9050611d4681600087611d37886127f7565b611d40886127f7565b87612531565b8260008086815260200190815260200160002060008773ffffffffffffffffffffffffffffffffffffffff1673ffffffffffffffffffffffffffffffffffffffff1681526020019081526020016000206000828254611da59190613b7a565b925050819055508473ffffffffffffffffffffffffffffffffffffffff16600073ffffffffffffffffffffffffffffffffffffffff168273ffffffffffffffffffffffffffffffffffffffff167fc3d58168c5ae7397731d063d5bbf3d657854427343f4c083240f7aacaa2d0f628787604051611e23929190614103565b60405180910390a4611e3a81600087878787612871565b5050505050565b611e49610ab4565b15611e89576040517f08c379a0000000000000000000000000000000000000000000000000000000008152600401611e8090614178565b60405180910390fd5b6001600360146101000a81548160ff0219169083151502179055507f62e78cea01bee320cd4e420270b5ea74000d11b0c9f74754ebdbfc544b05a258611ecd61133e565b604051611eda91906135a1565b60405180910390a1565b8173ffffffffffffffffffffffffffffffffffffffff168373ffffffffffffffffffffffffffffffffffffffff161415611f53576040517f08c379a0000000000000000000000000000000000000000000000000000000008152600401611f4a9061420a565b60405180910390fd5b80600160008573ffffffffffffffffffffffffffffffffffffffff1673ffffffffffffffffffffffffffffffffffffffff16815260200190815260200160002060008473ffffffffffffffffffffffffffffffffffffffff1673ffffffffffffffffffffffffffffffffffffffff16815260200190815260200160002060006101000a81548160ff0219169083151502179055508173ffffffffffffffffffffffffffffffffffffffff168373ffffffffffffffffffffffffffffffffffffffff167f17307eab39ab6107e8899845ad3d59bd9653f200f220920489ca2b5937696c31836040516120449190612cc8565b60405180910390a3505050565b600080600090505b8281101561208b5761206b848261046a565b826120769190613b7a565b9150808061208390613a33565b915050612059565b5092915050565b600073ffffffffffffffffffffffffffffffffffffffff168373ffffffffffffffffffffffffffffffffffffffff161415612102576040517f08c379a00000000000000000000000000000000000000000000000000000000081526004016120f990614051565b60405180910390fd5b600061210c61133e565b905061213c8185600061211e876127f7565b612127876127f7565b60405180602001604052806000815250612531565b600080600085815260200190815260200160002060008673ffffffffffffffffffffffffffffffffffffffff1673ffffffffffffffffffffffffffffffffffffffff168152602001908152602001600020549050828110156121d3576040517f08c379a00000000000000000000000000000000000000000000000000000000081526004016121ca906140e3565b60405180910390fd5b82810360008086815260200190815260200160002060008773ffffffffffffffffffffffffffffffffffffffff1673ffffffffffffffffffffffffffffffffffffffff16815260200190815260200160002081905550600073ffffffffffffffffffffffffffffffffffffffff168573ffffffffffffffffffffffffffffffffffffffff168373ffffffffffffffffffffffffffffffffffffffff167fc3d58168c5ae7397731d063d5bbf3d657854427343f4c083240f7aacaa2d0f6287876040516122a0929190614103565b60405180910390a45050505050565b600073ffffffffffffffffffffffffffffffffffffffff168473ffffffffffffffffffffffffffffffffffffffff16141561231f576040517f08c379a000000000000000000000000000000000000000000000000000000000815260040161231690613ec1565b60405180910390fd5b600061232961133e565b905061234981878761233a886127f7565b612343886127f7565b87612531565b600080600086815260200190815260200160002060008873ffffffffffffffffffffffffffffffffffffffff1673ffffffffffffffffffffffffffffffffffffffff168152602001908152602001600020549050838110156123e0576040517f08c379a00000000000000000000000000000000000000000000000000000000081526004016123d790613f53565b60405180910390fd5b83810360008087815260200190815260200160002060008973ffffffffffffffffffffffffffffffffffffffff1673ffffffffffffffffffffffffffffffffffffffff168152602001908152602001600020819055508360008087815260200190815260200160002060008873ffffffffffffffffffffffffffffffffffffffff1673ffffffffffffffffffffffffffffffffffffffff16815260200190815260200160002060008282546124959190613b7a565b925050819055508573ffffffffffffffffffffffffffffffffffffffff168773ffffffffffffffffffffffffffffffffffffffff168373ffffffffffffffffffffffffffffffffffffffff167fc3d58168c5ae7397731d063d5bbf3d657854427343f4c083240f7aacaa2d0f628888604051612512929190614103565b60405180910390a4612528828888888888612871565b50505050505050565b612539610ab4565b15612579576040517f08c379a000000000000000000000000000000000000000000000000000000000815260040161257090614178565b60405180910390fd5b42600560008873ffffffffffffffffffffffffffffffffffffffff1673ffffffffffffffffffffffffffffffffffffffff16815260200190815260200160002054106125fa576040517f08c379a00000000000000000000000000000000000000000000000000000000081526004016125f190614276565b60405180910390fd5b612608868686868686612a58565b505050505050565b61262f8473ffffffffffffffffffffffffffffffffffffffff16612a60565b156127ef578373ffffffffffffffffffffffffffffffffffffffff1663bc197c8187878686866040518663ffffffff1660e01b81526004016126759594939291906142eb565b602060405180830381600087803b15801561268f57600080fd5b505af19250505080156126c057506040513d601f19601f820116820180604052508101906126bd9190614368565b60015b612766576126cc6143a2565b806308c379a0141561272957506126e16143c4565b806126ec575061272b565b806040517f08c379a00000000000000000000000000000000000000000000000000000000081526004016127209190612f27565b60405180910390fd5b505b6040517f08c379a000000000000000000000000000000000000000000000000000000000815260040161275d906144cc565b60405180910390fd5b63bc197c8160e01b7bffffffffffffffffffffffffffffffffffffffffffffffffffffffff1916817bffffffffffffffffffffffffffffffffffffffffffffffffffffffff1916146127ed576040517f08c379a00000000000000000000000000000000000000000000000000000000081526004016127e49061455e565b60405180910390fd5b505b505050505050565b60606000600167ffffffffffffffff81111561281657612815612cfe565b5b6040519080825280602002602001820160405280156128445781602001602082028036833780820191505090505b509050828160008151811061285c5761285b6139d5565b5b60200260200101818152505080915050919050565b6128908473ffffffffffffffffffffffffffffffffffffffff16612a60565b15612a50578373ffffffffffffffffffffffffffffffffffffffff1663f23a6e6187878686866040518663ffffffff1660e01b81526004016128d695949392919061457e565b602060405180830381600087803b1580156128f057600080fd5b505af192505050801561292157506040513d601f19601f8201168201806040525081019061291e9190614368565b60015b6129c75761292d6143a2565b806308c379a0141561298a57506129426143c4565b8061294d575061298c565b806040517f08c379a00000000000000000000000000000000000000000000000000000000081526004016129819190612f27565b60405180910390fd5b505b6040517f08c379a00000000000000000000000000000000000000000000000000000000081526004016129be906144cc565b60405180910390fd5b63f23a6e6160e01b7bffffffffffffffffffffffffffffffffffffffffffffffffffffffff1916817bffffffffffffffffffffffffffffffffffffffffffffffffffffffff191614612a4e576040517f08c379a0000000000000000000000000000000000000000000000000000000008152600401612a459061455e565b60405180910390fd5b505b505050505050565b505050505050565b600080823b905060008111915050919050565b828054612a7f9061387f565b90600052602060002090601f016020900481019282612aa15760008555612ae8565b82601f10612aba57805160ff1916838001178555612ae8565b82800160010185558215612ae8579182015b82811115612ae7578251825591602001919060010190612acc565b5b509050612af59190612af9565b5090565b5b80821115612b12576000816000905550600101612afa565b5090565b6000604051905090565b600080fd5b600080fd5b600073ffffffffffffffffffffffffffffffffffffffff82169050919050565b6000612b5582612b2a565b9050919050565b612b6581612b4a565b8114612b7057600080fd5b50565b600081359050612b8281612b5c565b92915050565b6000819050919050565b612b9b81612b88565b8114612ba657600080fd5b50565b600081359050612bb881612b92565b92915050565b60008060408385031215612bd557612bd4612b20565b5b6000612be385828601612b73565b9250506020612bf485828601612ba9565b9150509250929050565b612c0781612b88565b82525050565b6000602082019050612c226000830184612bfe565b92915050565b60007fffffffff0000000000000000000000000000000000000000000000000000000082169050919050565b612c5d81612c28565b8114612c6857600080fd5b50565b600081359050612c7a81612c54565b92915050565b600060208284031215612c9657612c95612b20565b5b6000612ca484828501612c6b565b91505092915050565b60008115159050919050565b612cc281612cad565b82525050565b6000602082019050612cdd6000830184612cb9565b92915050565b600080fd5b600080fd5b6000601f19601f8301169050919050565b7f4e487b7100000000000000000000000000000000000000000000000000000000600052604160045260246000fd5b612d3682612ced565b810181811067ffffffffffffffff82111715612d5557612d54612cfe565b5b80604052505050565b6000612d68612b16565b9050612d748282612d2d565b919050565b600067ffffffffffffffff821115612d9457612d93612cfe565b5b612d9d82612ced565b9050602081019050919050565b82818337600083830152505050565b6000612dcc612dc784612d79565b612d5e565b905082815260208101848484011115612de857612de7612ce8565b5b612df3848285612daa565b509392505050565b600082601f830112612e1057612e0f612ce3565b5b8135612e20848260208601612db9565b91505092915050565b600060208284031215612e3f57612e3e612b20565b5b600082013567ffffffffffffffff811115612e5d57612e5c612b25565b5b612e6984828501612dfb565b91505092915050565b600060208284031215612e8857612e87612b20565b5b6000612e9684828501612ba9565b91505092915050565b600081519050919050565b600082825260208201905092915050565b60005b83811015612ed9578082015181840152602081019050612ebe565b83811115612ee8576000848401525b50505050565b6000612ef982612e9f565b612f038185612eaa565b9350612f13818560208601612ebb565b612f1c81612ced565b840191505092915050565b60006020820190508181036000830152612f418184612eee565b905092915050565b600067ffffffffffffffff821115612f6457612f63612cfe565b5b602082029050602081019050919050565b600080fd5b6000612f8d612f8884612f49565b612d5e565b90508083825260208201905060208402830185811115612fb057612faf612f75565b5b835b81811015612fd95780612fc58882612ba9565b845260208401935050602081019050612fb2565b5050509392505050565b600082601f830112612ff857612ff7612ce3565b5b8135613008848260208601612f7a565b91505092915050565b600067ffffffffffffffff82111561302c5761302b612cfe565b5b61303582612ced565b9050602081019050919050565b600061305561305084613011565b612d5e565b90508281526020810184848401111561307157613070612ce8565b5b61307c848285612daa565b509392505050565b600082601f83011261309957613098612ce3565b5b81356130a9848260208601613042565b91505092915050565b600080600080608085870312156130cc576130cb612b20565b5b60006130da87828801612b73565b945050602085013567ffffffffffffffff8111156130fb576130fa612b25565b5b61310787828801612fe3565b935050604085013567ffffffffffffffff81111561312857613127612b25565b5b61313487828801612fe3565b925050606085013567ffffffffffffffff81111561315557613154612b25565b5b61316187828801613084565b91505092959194509250565b60006020828403121561318357613182612b20565b5b600061319184828501612b73565b91505092915050565b600080600080600060a086880312156131b6576131b5612b20565b5b60006131c488828901612b73565b95505060206131d588828901612b73565b945050604086013567ffffffffffffffff8111156131f6576131f5612b25565b5b61320288828901612fe3565b935050606086013567ffffffffffffffff81111561322357613222612b25565b5b61322f88828901612fe3565b925050608086013567ffffffffffffffff8111156132505761324f612b25565b5b61325c88828901613084565b9150509295509295909350565b600067ffffffffffffffff82111561328457613283612cfe565b5b602082029050602081019050919050565b60006132a86132a384613269565b612d5e565b905080838252602082019050602084028301858111156132cb576132ca612f75565b5b835b818110156132f457806132e08882612b73565b8452602084019350506020810190506132cd565b5050509392505050565b600082601f83011261331357613312612ce3565b5b8135613323848260208601613295565b91505092915050565b6000806040838503121561334357613342612b20565b5b600083013567ffffffffffffffff81111561336157613360612b25565b5b61336d858286016132fe565b925050602083013567ffffffffffffffff81111561338e5761338d612b25565b5b61339a85828601612fe3565b9150509250929050565b600081519050919050565b600082825260208201905092915050565b6000819050602082019050919050565b6133d981612b88565b82525050565b60006133eb83836133d0565b60208301905092915050565b6000602082019050919050565b600061340f826133a4565b61341981856133af565b9350613424836133c0565b8060005b8381101561345557815161343c88826133df565b9750613447836133f7565b925050600181019050613428565b5085935050505092915050565b6000602082019050818103600083015261347c8184613404565b905092915050565b60008060006060848603121561349d5761349c612b20565b5b60006134ab86828701612b73565b935050602084013567ffffffffffffffff8111156134cc576134cb612b25565b5b6134d886828701612fe3565b925050604084013567ffffffffffffffff8111156134f9576134f8612b25565b5b61350586828701612fe3565b9150509250925092565b6000806000806080858703121561352957613528612b20565b5b600061353787828801612b73565b945050602061354887828801612ba9565b935050604061355987828801612ba9565b925050606085013567ffffffffffffffff81111561357a57613579612b25565b5b61358687828801613084565b91505092959194509250565b61359b81612b4a565b82525050565b60006020820190506135b66000830184613592565b92915050565b6135c581612cad565b81146135d057600080fd5b50565b6000813590506135e2816135bc565b92915050565b600080604083850312156135ff576135fe612b20565b5b600061360d85828601612b73565b925050602061361e858286016135d3565b9150509250929050565b6000806040838503121561363f5761363e612b20565b5b600061364d85828601612b73565b925050602061365e85828601612b73565b9150509250929050565b600080600080600060a0868803121561368457613683612b20565b5b600061369288828901612b73565b95505060206136a388828901612b73565b94505060406136b488828901612ba9565b93505060606136c588828901612ba9565b925050608086013567ffffffffffffffff8111156136e6576136e5612b25565b5b6136f288828901613084565b9150509295509295909350565b60008060006060848603121561371857613717612b20565b5b600061372686828701612b73565b935050602061373786828701612ba9565b925050604061374886828701612ba9565b9150509250925092565b7f455243313135353a2062616c616e636520717565727920666f7220746865207a60008201527f65726f2061646472657373000000000000000000000000000000000000000000602082015250565b60006137ae602b83612eaa565b91506137b982613752565b604082019050919050565b600060208201905081810360008301526137dd816137a1565b9050919050565b7f4f776e61626c653a2063616c6c6572206973206e6f7420746865206f776e6572600082015250565b600061381a602083612eaa565b9150613825826137e4565b602082019050919050565b600060208201905081810360008301526138498161380d565b9050919050565b7f4e487b7100000000000000000000000000000000000000000000000000000000600052602260045260246000fd5b6000600282049050600182168061389757607f821691505b602082108114156138ab576138aa613850565b5b50919050565b7f455243313135353a207472616e736665722063616c6c6572206973206e6f742060008201527f6f776e6572206e6f7220617070726f7665640000000000000000000000000000602082015250565b600061390d603283612eaa565b9150613918826138b1565b604082019050919050565b6000602082019050818103600083015261393c81613900565b9050919050565b7f455243313135353a206163636f756e747320616e6420696473206c656e67746860008201527f206d69736d617463680000000000000000000000000000000000000000000000602082015250565b600061399f602983612eaa565b91506139aa82613943565b604082019050919050565b600060208201905081810360008301526139ce81613992565b9050919050565b7f4e487b7100000000000000000000000000000000000000000000000000000000600052603260045260246000fd5b7f4e487b7100000000000000000000000000000000000000000000000000000000600052601160045260246000fd5b6000613a3e82612b88565b91507fffffffffffffffffffffffffffffffffffffffffffffffffffffffffffffffff821415613a7157613a70613a04565b5b600182019050919050565b7f455243313135353a2063616c6c6572206973206e6f74206f776e6572206e6f7260008201527f20617070726f7665640000000000000000000000000000000000000000000000602082015250565b6000613ad8602983612eaa565b9150613ae382613a7c565b604082019050919050565b60006020820190508181036000830152613b0781613acb565b9050919050565b7f5265656e7472616e637947756172643a207265656e7472616e742063616c6c00600082015250565b6000613b44601f83612eaa565b9150613b4f82613b0e565b602082019050919050565b60006020820190508181036000830152613b7381613b37565b9050919050565b6000613b8582612b88565b9150613b9083612b88565b9250827fffffffffffffffffffffffffffffffffffffffffffffffffffffffffffffffff03821115613bc557613bc4613a04565b5b828201905092915050565b7f4861746368696e674567673a204e6f7420726561647920746f20627265616b7560008201527f7000000000000000000000000000000000000000000000000000000000000000602082015250565b6000613c2c602183612eaa565b9150613c3782613bd0565b604082019050919050565b60006020820190508181036000830152613c5b81613c1f565b9050919050565b7f4f776e61626c653a206e6577206f776e657220697320746865207a65726f206160008201527f6464726573730000000000000000000000000000000000000000000000000000602082015250565b6000613cbe602683612eaa565b9150613cc982613c62565b604082019050919050565b60006020820190508181036000830152613ced81613cb1565b9050919050565b7f455243313135353a206d696e7420746f20746865207a65726f2061646472657360008201527f7300000000000000000000000000000000000000000000000000000000000000602082015250565b6000613d50602183612eaa565b9150613d5b82613cf4565b604082019050919050565b60006020820190508181036000830152613d7f81613d43565b9050919050565b7f455243313135353a2069647320616e6420616d6f756e7473206c656e6774682060008201527f6d69736d61746368000000000000000000000000000000000000000000000000602082015250565b6000613de2602883612eaa565b9150613ded82613d86565b604082019050919050565b60006020820190508181036000830152613e1181613dd5565b9050919050565b60006040820190508181036000830152613e328185613404565b90508181036020830152613e468184613404565b90509392505050565b7f455243313135353a207472616e7366657220746f20746865207a65726f20616460008201527f6472657373000000000000000000000000000000000000000000000000000000602082015250565b6000613eab602583612eaa565b9150613eb682613e4f565b604082019050919050565b60006020820190508181036000830152613eda81613e9e565b9050919050565b7f455243313135353a20696e73756666696369656e742062616c616e636520666f60008201527f72207472616e7366657200000000000000000000000000000000000000000000602082015250565b6000613f3d602a83612eaa565b9150613f4882613ee1565b604082019050919050565b60006020820190508181036000830152613f6c81613f30565b9050919050565b7f5061757361626c653a206e6f7420706175736564000000000000000000000000600082015250565b6000613fa9601483612eaa565b9150613fb482613f73565b602082019050919050565b60006020820190508181036000830152613fd881613f9c565b9050919050565b7f455243313135353a206275726e2066726f6d20746865207a65726f206164647260008201527f6573730000000000000000000000000000000000000000000000000000000000602082015250565b600061403b602383612eaa565b915061404682613fdf565b604082019050919050565b6000602082019050818103600083015261406a8161402e565b9050919050565b7f455243313135353a206275726e20616d6f756e7420657863656564732062616c60008201527f616e636500000000000000000000000000000000000000000000000000000000602082015250565b60006140cd602483612eaa565b91506140d882614071565b604082019050919050565b600060208201905081810360008301526140fc816140c0565b9050919050565b60006040820190506141186000830185612bfe565b6141256020830184612bfe565b9392505050565b7f5061757361626c653a2070617573656400000000000000000000000000000000600082015250565b6000614162601083612eaa565b915061416d8261412c565b602082019050919050565b6000602082019050818103600083015261419181614155565b9050919050565b7f455243313135353a2073657474696e6720617070726f76616c2073746174757360008201527f20666f722073656c660000000000000000000000000000000000000000000000602082015250565b60006141f4602983612eaa565b91506141ff82614198565b604082019050919050565b60006020820190508181036000830152614223816141e7565b9050919050565b7f456767206973206e6f7420726561647900000000000000000000000000000000600082015250565b6000614260601083612eaa565b915061426b8261422a565b602082019050919050565b6000602082019050818103600083015261428f81614253565b9050919050565b600081519050919050565b600082825260208201905092915050565b60006142bd82614296565b6142c781856142a1565b93506142d7818560208601612ebb565b6142e081612ced565b840191505092915050565b600060a0820190506143006000830188613592565b61430d6020830187613592565b818103604083015261431f8186613404565b905081810360608301526143338185613404565b9050818103608083015261434781846142b2565b90509695505050505050565b60008151905061436281612c54565b92915050565b60006020828403121561437e5761437d612b20565b5b600061438c84828501614353565b91505092915050565b60008160e01c9050919050565b600060033d11156143c15760046000803e6143be600051614395565b90505b90565b600060443d10156143d457614457565b6143dc612b16565b60043d036004823e80513d602482011167ffffffffffffffff82111715614404575050614457565b808201805167ffffffffffffffff8111156144225750505050614457565b80602083010160043d03850181111561443f575050505050614457565b61444e82602001850186612d2d565b82955050505050505b90565b7f455243313135353a207472616e7366657220746f206e6f6e204552433131353560008201527f526563656976657220696d706c656d656e746572000000000000000000000000602082015250565b60006144b6603483612eaa565b91506144c18261445a565b604082019050919050565b600060208201905081810360008301526144e5816144a9565b9050919050565b7f455243313135353a204552433131353552656365697665722072656a6563746560008201527f6420746f6b656e73000000000000000000000000000000000000000000000000602082015250565b6000614548602883612eaa565b9150614553826144ec565b604082019050919050565b600060208201905081810360008301526145778161453b565b9050919050565b600060a0820190506145936000830188613592565b6145a06020830187613592565b6145ad6040830186612bfe565b6145ba6060830185612bfe565b81810360808301526145cc81846142b2565b9050969550505050505056fea264697066735822122066c43a9cabe362a8033e925170b450fca85dddac958cd19554f1582b699782b964736f6c6343000809003368747470733a2f2f6173736574732e686265617374732e636f6d2f6861746368696e67656767732f7b69647d",
  "immutableReferences": {},
  "source": "// SPDX-License-Identifier: MIT\npragma solidity >=0.4.22 <0.9.0;\n\nimport \"./Dragon.sol\";\nimport \"./ERC1155SupplyForOwner.sol\";\nimport \"@openzeppelin/contracts/token/ERC1155/ERC1155.sol\";\nimport \"@openzeppelin/contracts/access/Ownable.sol\";\nimport \"@openzeppelin/contracts/security/Pausable.sol\";\nimport \"@openzeppelin/contracts/security/ReentrancyGuard.sol\";\nimport \"@openzeppelin/contracts/token/ERC1155/extensions/ERC1155Burnable.sol\";\n\ncontract HatchingEgg is\n    ERC1155,\n    Ownable,\n    Pausable,\n    ReentrancyGuard,\n    ERC1155Burnable,\n    ERC1155SupplyForOwner\n{\n    uint256 constant NUM_OPTIONS = 4;\n\n    uint256 internal constant _DONE = 1;\n    mapping(address => uint256) private _timestamps;\n    uint256 private _delay;\n    address private nftAddress; // Address of the Dragons\n\n    constructor(address _nftAddress, uint256 delay)\n        ERC1155(\"https://assets.hbeasts.com/hatchingeggs/{id}\")\n    {\n        nftAddress = _nftAddress;\n        _delay = delay;\n    }\n\n    function setDelay(uint256 delay) public onlyOwner {\n        _delay = delay;\n    }\n\n    function setURI(string memory newuri) public onlyOwner {\n        _setURI(newuri);\n    }\n\n    function pause() public onlyOwner {\n        _pause();\n    }\n\n    function unpause() public onlyOwner {\n        _unpause();\n    }\n\n    function supplyForOwner(address _owner) public view returns (uint256) {\n        return _supplyForOwner(_owner, NUM_OPTIONS);\n    }\n\n    function breakUp(uint256 _optionId) public nonReentrant {\n        require(isReady(_optionId), \"HatchingEgg: Not ready to breakup\");\n        _burn(msg.sender, _optionId, 1);\n        _timestamps[msg.sender] = _DONE;\n        Dragon dragon = Dragon(nftAddress);\n        dragon.safeMint(msg.sender);\n    }\n\n    // Request when the egg is ready to break up\n    function dueTime(address _owner) public view returns (uint256) {\n        return _timestamps[_owner];\n    }\n\n    function isReady(uint256 _optionId)\n        public\n        view\n        virtual\n        returns (bool ready)\n    {\n        address operator = _msgSender();\n        return\n            balanceOf(operator, _optionId) > 0 &&\n            _timestamps[operator] < block.timestamp;\n    }\n\n    function mint(\n        address account,\n        uint256 id,\n        uint256 amount,\n        bytes memory data\n    ) public onlyOwner nonReentrant {\n        _mint(account, id, amount, data);\n        _timestamps[account] = block.timestamp + _delay;\n    }\n\n    function mintBatch(\n        address to,\n        uint256[] memory ids,\n        uint256[] memory amounts,\n        bytes memory data\n    ) public onlyOwner {\n        _mintBatch(to, ids, amounts, data);\n    }\n\n    function _beforeTokenTransfer(\n        address operator,\n        address from,\n        address to,\n        uint256[] memory ids,\n        uint256[] memory amounts,\n        bytes memory data\n    ) internal override(ERC1155) whenNotPaused {\n        require(_timestamps[operator] < block.timestamp, \"Egg is not ready\");\n        super._beforeTokenTransfer(operator, from, to, ids, amounts, data);\n    }\n}\n",
  "sourcePath": "/home/isaiah/codes/NFT/contract/legendofbeasts/contracts/HatchingEgg.sol",
  "compiler": {
    "name": "solc",
    "version": "0.8.9+commit.e5eed63a.Emscripten.clang"
  },
  "schemaVersion": "3.4.3",
  "updatedAt": "2022-01-03T09:38:35.197Z",
  "networkType": "ethereum",
  "devdoc": {
    "kind": "dev",
    "methods": {
      "balanceOf(address,uint256)": {
        "details": "See {IERC1155-balanceOf}. Requirements: - `account` cannot be the zero address."
      },
      "balanceOfBatch(address[],uint256[])": {
        "details": "See {IERC1155-balanceOfBatch}. Requirements: - `accounts` and `ids` must have the same length."
      },
      "isApprovedForAll(address,address)": {
        "details": "See {IERC1155-isApprovedForAll}."
      },
      "owner()": {
        "details": "Returns the address of the current owner."
      },
      "paused()": {
        "details": "Returns true if the contract is paused, and false otherwise."
      },
      "renounceOwnership()": {
        "details": "Leaves the contract without owner. It will not be possible to call `onlyOwner` functions anymore. Can only be called by the current owner. NOTE: Renouncing ownership will leave the contract without an owner, thereby removing any functionality that is only available to the owner."
      },
      "safeBatchTransferFrom(address,address,uint256[],uint256[],bytes)": {
        "details": "See {IERC1155-safeBatchTransferFrom}."
      },
      "safeTransferFrom(address,address,uint256,uint256,bytes)": {
        "details": "See {IERC1155-safeTransferFrom}."
      },
      "setApprovalForAll(address,bool)": {
        "details": "See {IERC1155-setApprovalForAll}."
      },
      "supportsInterface(bytes4)": {
        "details": "See {IERC165-supportsInterface}."
      },
      "transferOwnership(address)": {
        "details": "Transfers ownership of the contract to a new account (`newOwner`). Can only be called by the current owner."
      },
      "uri(uint256)": {
        "details": "See {IERC1155MetadataURI-uri}. This implementation returns the same URI for *all* token types. It relies on the token type ID substitution mechanism https://eips.ethereum.org/EIPS/eip-1155#metadata[defined in the EIP]. Clients calling this function must replace the `\\{id\\}` substring with the actual token type ID."
      }
    },
    "version": 1
  },
  "userdoc": {
    "kind": "user",
    "methods": {},
    "version": 1
  }
}